{
  "_format": "hh-sol-artifact-1",
  "contractName": "SensorDataContract",
  "sourceName": "contracts/SensorDataContract.sol",
  "abi": [
    {
      "inputs": [
        {
          "internalType": "int256",
          "name": "_minTempMilliC",
          "type": "int256"
        },
        {
          "internalType": "int256",
          "name": "_maxTempMilliC",
          "type": "int256"
        },
        {
          "internalType": "uint256",
          "name": "_maxHumidityPermille",
          "type": "uint256"
        },
        {
          "internalType": "address",
          "name": "admin",
          "type": "address"
        }
      ],
      "stateMutability": "nonpayable",
      "type": "constructor"
    },
    {
      "inputs": [],
      "name": "BadInput",
      "type": "error"
    },
    {
      "inputs": [],
      "name": "NotAuthorized",
      "type": "error"
    },
    {
      "anonymous": false,
      "inputs": [
        {
          "indexed": false,
          "internalType": "int256",
          "name": "minTemp",
          "type": "int256"
        },
        {
          "indexed": false,
          "internalType": "int256",
          "name": "maxTemp",
          "type": "int256"
        },
        {
          "indexed": false,
          "internalType": "uint256",
          "name": "maxHumidity",
          "type": "uint256"
        }
      ],
      "name": "ConstraintsUpdated",
      "type": "event"
    },
    {
      "anonymous": false,
      "inputs": [
        {
          "indexed": true,
          "internalType": "bytes32",
          "name": "role",
          "type": "bytes32"
        },
        {
          "indexed": true,
          "internalType": "bytes32",
          "name": "previousAdminRole",
          "type": "bytes32"
        },
        {
          "indexed": true,
          "internalType": "bytes32",
          "name": "newAdminRole",
          "type": "bytes32"
        }
      ],
      "name": "RoleAdminChanged",
      "type": "event"
    },
    {
      "anonymous": false,
      "inputs": [
        {
          "indexed": true,
          "internalType": "bytes32",
          "name": "role",
          "type": "bytes32"
        },
        {
          "indexed": true,
          "internalType": "address",
          "name": "account",
          "type": "address"
        },
        {
          "indexed": true,
          "internalType": "address",
          "name": "sender",
          "type": "address"
        }
      ],
      "name": "RoleGranted",
      "type": "event"
    },
    {
      "anonymous": false,
      "inputs": [
        {
          "indexed": true,
          "internalType": "bytes32",
          "name": "role",
          "type": "bytes32"
        },
        {
          "indexed": true,
          "internalType": "address",
          "name": "account",
          "type": "address"
        },
        {
          "indexed": true,
          "internalType": "address",
          "name": "sender",
          "type": "address"
        }
      ],
      "name": "RoleRevoked",
      "type": "event"
    },
    {
      "anonymous": false,
      "inputs": [
        {
          "indexed": true,
          "internalType": "uint256",
          "name": "batchId",
          "type": "uint256"
        },
        {
          "indexed": false,
          "internalType": "int256",
          "name": "temperatureMilliC",
          "type": "int256"
        },
        {
          "indexed": false,
          "internalType": "uint256",
          "name": "humidityPermille",
          "type": "uint256"
        },
        {
          "indexed": false,
          "internalType": "string",
          "name": "location",
          "type": "string"
        },
        {
          "indexed": false,
          "internalType": "uint256",
          "name": "timestamp",
          "type": "uint256"
        },
        {
          "indexed": false,
          "internalType": "bool",
          "name": "valid",
          "type": "bool"
        }
      ],
      "name": "TelemetryRecorded",
      "type": "event"
    },
    {
      "inputs": [],
      "name": "DATA_REVIEWER_ROLE",
      "outputs": [
        {
          "internalType": "bytes32",
          "name": "",
          "type": "bytes32"
        }
      ],
      "stateMutability": "view",
      "type": "function"
    },
    {
      "inputs": [],
      "name": "DATA_WRITER_ROLE",
      "outputs": [
        {
          "internalType": "bytes32",
          "name": "",
          "type": "bytes32"
        }
      ],
      "stateMutability": "view",
      "type": "function"
    },
    {
      "inputs": [],
      "name": "DEFAULT_ADMIN_ROLE",
      "outputs": [
        {
          "internalType": "bytes32",
          "name": "",
          "type": "bytes32"
        }
      ],
      "stateMutability": "view",
      "type": "function"
    },
    {
      "inputs": [
        {
          "internalType": "uint256",
          "name": "batchId",
          "type": "uint256"
        },
        {
          "internalType": "uint256",
          "name": "index",
          "type": "uint256"
        }
      ],
      "name": "getByIndex",
      "outputs": [
        {
          "components": [
            {
              "internalType": "int256",
              "name": "temperatureMilliC",
              "type": "int256"
            },
            {
              "internalType": "uint256",
              "name": "humidityPermille",
              "type": "uint256"
            },
            {
              "internalType": "string",
              "name": "location",
              "type": "string"
            },
            {
              "internalType": "uint256",
              "name": "timestamp",
              "type": "uint256"
            },
            {
              "internalType": "bool",
              "name": "valid",
              "type": "bool"
            }
          ],
          "internalType": "struct SensorDataContract.Telemetry",
          "name": "",
          "type": "tuple"
        }
      ],
      "stateMutability": "view",
      "type": "function"
    },
    {
      "inputs": [
        {
          "internalType": "uint256",
          "name": "batchId",
          "type": "uint256"
        }
      ],
      "name": "getHistoryLength",
      "outputs": [
        {
          "internalType": "uint256",
          "name": "",
          "type": "uint256"
        }
      ],
      "stateMutability": "view",
      "type": "function"
    },
    {
      "inputs": [
        {
          "internalType": "uint256",
          "name": "batchId",
          "type": "uint256"
        }
      ],
      "name": "getLatest",
      "outputs": [
        {
          "components": [
            {
              "internalType": "int256",
              "name": "temperatureMilliC",
              "type": "int256"
            },
            {
              "internalType": "uint256",
              "name": "humidityPermille",
              "type": "uint256"
            },
            {
              "internalType": "string",
              "name": "location",
              "type": "string"
            },
            {
              "internalType": "uint256",
              "name": "timestamp",
              "type": "uint256"
            },
            {
              "internalType": "bool",
              "name": "valid",
              "type": "bool"
            }
          ],
          "internalType": "struct SensorDataContract.Telemetry",
          "name": "",
          "type": "tuple"
        }
      ],
      "stateMutability": "view",
      "type": "function"
    },
    {
      "inputs": [
        {
          "internalType": "bytes32",
          "name": "role",
          "type": "bytes32"
        }
      ],
      "name": "getRoleAdmin",
      "outputs": [
        {
          "internalType": "bytes32",
          "name": "",
          "type": "bytes32"
        }
      ],
      "stateMutability": "view",
      "type": "function"
    },
    {
      "inputs": [
        {
          "internalType": "bytes32",
          "name": "role",
          "type": "bytes32"
        },
        {
          "internalType": "address",
          "name": "account",
          "type": "address"
        }
      ],
      "name": "grantRole",
      "outputs": [],
      "stateMutability": "nonpayable",
      "type": "function"
    },
    {
      "inputs": [
        {
          "internalType": "bytes32",
          "name": "role",
          "type": "bytes32"
        },
        {
          "internalType": "address",
          "name": "account",
          "type": "address"
        }
      ],
      "name": "hasRole",
      "outputs": [
        {
          "internalType": "bool",
          "name": "",
          "type": "bool"
        }
      ],
      "stateMutability": "view",
      "type": "function"
    },
    {
      "inputs": [],
      "name": "maxHumidityPermille",
      "outputs": [
        {
          "internalType": "uint256",
          "name": "",
          "type": "uint256"
        }
      ],
      "stateMutability": "view",
      "type": "function"
    },
    {
      "inputs": [],
      "name": "maxTemperatureMilliC",
      "outputs": [
        {
          "internalType": "int256",
          "name": "",
          "type": "int256"
        }
      ],
      "stateMutability": "view",
      "type": "function"
    },
    {
      "inputs": [],
      "name": "minTemperatureMilliC",
      "outputs": [
        {
          "internalType": "int256",
          "name": "",
          "type": "int256"
        }
      ],
      "stateMutability": "view",
      "type": "function"
    },
    {
      "inputs": [
        {
          "internalType": "uint256",
          "name": "batchId",
          "type": "uint256"
        },
        {
          "internalType": "int256",
          "name": "temperatureMilliC",
          "type": "int256"
        },
        {
          "internalType": "uint256",
          "name": "humidityPermille",
          "type": "uint256"
        },
        {
          "internalType": "string",
          "name": "location",
          "type": "string"
        },
        {
          "internalType": "uint256",
          "name": "timestamp",
          "type": "uint256"
        }
      ],
      "name": "recordTelemetry",
      "outputs": [],
      "stateMutability": "nonpayable",
      "type": "function"
    },
    {
      "inputs": [
        {
          "internalType": "bytes32",
          "name": "role",
          "type": "bytes32"
        },
        {
          "internalType": "address",
          "name": "account",
          "type": "address"
        }
      ],
      "name": "renounceRole",
      "outputs": [],
      "stateMutability": "nonpayable",
      "type": "function"
    },
    {
      "inputs": [
        {
          "internalType": "bytes32",
          "name": "role",
          "type": "bytes32"
        },
        {
          "internalType": "address",
          "name": "account",
          "type": "address"
        }
      ],
      "name": "revokeRole",
      "outputs": [],
      "stateMutability": "nonpayable",
      "type": "function"
    },
    {
      "inputs": [
        {
          "internalType": "int256",
          "name": "_minTempMilliC",
          "type": "int256"
        },
        {
          "internalType": "int256",
          "name": "_maxTempMilliC",
          "type": "int256"
        },
        {
          "internalType": "uint256",
          "name": "_maxHumidityPermille",
          "type": "uint256"
        }
      ],
      "name": "setConstraints",
      "outputs": [],
      "stateMutability": "nonpayable",
      "type": "function"
    },
    {
      "inputs": [
        {
          "internalType": "bytes4",
          "name": "interfaceId",
          "type": "bytes4"
        }
      ],
      "name": "supportsInterface",
      "outputs": [
        {
          "internalType": "bool",
          "name": "",
          "type": "bool"
        }
      ],
      "stateMutability": "view",
      "type": "function"
    }
  ],
  "bytecode": "0x6080346101ba57601f6200150938819003918201601f191683019291906001600160401b038411838510176101bf5781608092849260409687528339810103126101ba578051602091828101516060858301519201519260018060a01b0384168094036101ba5781811215610189576103e8831161015a57600155600255600355600091828052828152838320828452815260ff848420541615610123575b7fe1c225ea3da961320343e207953f9f6cebdb4fbe5d57613f06c614aede11870e90818452838152848420838552815260ff8585205416156100ea575b84516113139081620001d68239f35b8184528381528484209083855252838320600160ff19825416179055600080516020620014e9833981519152339380a4388080806100db565b8280528281528383208284528152838320805460ff19166001179055338284600080516020620014e98339815191528180a461009e565b855162461bcd60e51b815260048101869052600860248201526768756d696469747960c01b6044820152606490fd5b855162461bcd60e51b815260048101869052600a60248201526974656d702072616e676560b01b6044820152606490fd5b600080fd5b634e487b7160e01b600052604160045260246000fdfe608080604052600436101561001357600080fd5b60003560e01c90816301ffc9a714610cec5750806303117eb514610cb1578063248a9ca314610c825780632f2ff15d14610bdc57806333495dd314610b5f57806336568abe14610adb5780633ab74a2c14610abd5780633c0c68fa146107fd5780634dbf1fd81461077557806391d1485414610734578063a217fddf14610718578063b008bdcc146101b5578063b38fe06b14610189578063d547741f14610156578063e7d2599114610138578063eac3c2d71461011a5763f73e0dfd146100da57600080fd5b346101155760003660031901126101155760206040517fe1c225ea3da961320343e207953f9f6cebdb4fbe5d57613f06c614aede11870e8152f35b600080fd5b34610115576000366003190112610115576020600154604051908152f35b34610115576000366003190112610115576020600354604051908152f35b346101155761018761016736610d3f565b90806000526000602052610182600160406000200154610df2565b610fff565b005b346101155760203660031901126101155760043560005260046020526020604060002054604051908152f35b346101155760a03660031901126101155767ffffffffffffffff60643511610115573660236064350112156101155767ffffffffffffffff60643560040135116101155736602460643560040135606435010111610115573360009081527fa8b5639d66194b38c1c0a40f4650bd5d793c054987d01952a8927e01c615b26460205260409020547f5751aa34d29fd25fdb4ef9998449c81f936f0ffd0e014d19375a2ea4fb39d1f69060ff161561056157606435600401351561054f576103e86044351161054f5761028b6044356024356111a6565b6084356105465742905b604051916102a283610fa5565b602435835260443560208401526040516102cc6020601f19601f6064356004013501160182610fdd565b60643560048101358083529060240160208301376000602060643560040135830101526040840152606083015280151560808301526004356000526004602052604060002080546801000000000000000081101561051a5761033391600182018155611150565b919091610530578251825560208301516001830155604083015192835167ffffffffffffffff811161051a5761036c600285015461116c565b601f81116104d3575b506020601f8211600114610464578192939495600092610459575b50508160011b916000199060031b1c19161760028401555b6080600460608301519485600382015501910151151560ff80198354169116179055604051916024358352604435602084015260a060408401526064356004013560a08401526064356004013560246064350160c0850137600060c060643560040135850101526060830152151560808201527fd9cd9d5a97aa9cb40205669b0f3d6b364b29c9b8eabaad6adac1be77a65edf4b6004359160c081601f19601f6064356004013501168101030190a2005b015190508580610390565b6002850160005260206000209060005b601f19841681106104bb575060019394959683601f198116106104a2575b505050811b0160028401556103a8565b015160001960f88460031b161c19169055858080610492565b9091602060018192858b015181550193019101610474565b600285016000526020600020601f830160051c810160208410610513575b601f830160051c82018110610507575050610375565b600081556001016104f1565b50806104f1565b634e487b7160e01b600052604160045260246000fd5b634e487b7160e01b600052600060045260246000fd5b60843590610295565b604051632bb9acf760e01b8152600490fd5b61056a33611085565b6040519161057783610fc1565b60428352602083019060603683378351156107025760308253835160019081101561070257607860218601536041905b8082116106a857505061066457604861063192610640926106609560405195869376020b1b1b2b9b9a1b7b73a3937b61d1030b1b1b7bab73a1604d1b60208601526105fc815180926020603789019101610d65565b8401917f206973206d697373696e6720726f6c6520000000000000000000000000000000603784015251809386840190610d65565b01036028810184520182610fdd565b60405162461bcd60e51b8152602060048201529182916024830190610d88565b0390fd5b606460405162461bcd60e51b815260206004820152602060248201527f537472696e67733a20686578206c656e67746820696e73756666696369656e746044820152fd5b9091600f81166010811015610702576f181899199a1a9b1b9c1cb0b131b232b360811b901a6106d78488611074565b5360041c9180156106ec5760001901906105a7565b634e487b7160e01b600052601160045260246000fd5b634e487b7160e01b600052603260045260246000fd5b3461011557600036600319011261011557602060405160008152f35b346101155761074236610d3f565b9060005260006020526001600160a01b0360406000209116600052602052602060ff604060002054166040519015158152f35b34610115576040366003190112610115576024356107916111d6565b50600435600052600460205260406000209081548110156107d2576107bc6107c2916107ce93611150565b50611202565b60405191829182610dad565b0390f35b60405162461bcd60e51b815260206004820152600360248201526237b7b160e91b6044820152606490fd5b34610115576060366003190112610115573360009081527f8e999bfac7f96eec04874d0a49fbb49f49452293093263197c0307682f803315602090815260409091205460249160043591604435918435917fe1c225ea3da961320343e207953f9f6cebdb4fbe5d57613f06c614aede11870e9060ff161561092c5750818412156108fc576103e883116108ce579183916060937fa4ef6a4df4704bc9b84164f7db9462534d35aff6a366f8fce309bd2b84ad18229560015581600255826003556040519384528301526040820152a1005b6064906008866040519262461bcd60e51b845260048401528201526768756d696469747960c01b6044820152fd5b606490600a866040519262461bcd60e51b845260048401528201526974656d702072616e676560b01b6044820152fd5b85925061093833611085565b9060405161094581610fc1565b60428152838101916060368437815115610aa857603083538151600190811015610a9357607860218401536041905b808211610a255750506109e357604861066093610631936109c79360405195869376020b1b1b2b9b9a1b7b73a3937b61d1030b1b1b7bab73a1604d1b8a8601526105fc815180928c603789019101610d65565b60405193849362461bcd60e51b85526004850152830190610d88565b606485856040519162461bcd60e51b83528160048401528201527f537472696e67733a20686578206c656e67746820696e73756666696369656e746044820152fd5b9091600f81166010811015610a7e576f181899199a1a9b1b9c1cb0b131b232b360811b901a610a548486611074565b5360041c918015610a69576000190190610974565b87634e487b7160e01b60005260116004526000fd5b88634e487b7160e01b60005260326004526000fd5b86634e487b7160e01b60005260326004526000fd5b85634e487b7160e01b60005260326004526000fd5b34610115576000366003190112610115576020600254604051908152f35b3461011557610ae936610d3f565b336001600160a01b03821603610b025761018791610fff565b60405162461bcd60e51b815260206004820152602f60248201527f416363657373436f6e74726f6c3a2063616e206f6e6c792072656e6f756e636560448201526e103937b632b9903337b91039b2b63360891b6064820152608490fd5b3461011557602036600319011261011557610b786111d6565b506004356000526004602052604060002080548015610bad5760001981019081116106ec576107bc6107c2916107ce93611150565b60405162461bcd60e51b81526020600482015260076024820152666e6f206461746160c81b6044820152606490fd5b3461011557610bea36610d3f565b816000526000602052610c04600160406000200154610df2565b8160005260006020526001600160a01b0360406000209116908160005260205260ff6040600020541615610c3457005b8160005260006020526040600020816000526020526040600020600160ff1982541617905533917f2f8788117e7eff1d82e926ec794901d17c78024a50270940304540a733656f0d600080a4005b346101155760203660031901126101155760043560005260006020526020600160406000200154604051908152f35b346101155760003660031901126101155760206040517f5751aa34d29fd25fdb4ef9998449c81f936f0ffd0e014d19375a2ea4fb39d1f68152f35b34610115576020366003190112610115576004359063ffffffff60e01b821680920361011557602091637965db0b60e01b8114908115610d2e575b5015158152f35b6301ffc9a760e01b14905083610d27565b604090600319011261011557600435906024356001600160a01b03811681036101155790565b60005b838110610d785750506000910152565b8181015183820152602001610d68565b90602091610da181518092818552858086019101610d65565b601f01601f1916010190565b60208152815160208201526020820151604082015260a06080610dde604085015183606086015260c0850190610d88565b936060810151828501520151151591015290565b600090808252602090828252604092838120338252835260ff848220541615610e1b5750505050565b610e2433611085565b91845190610e3182610fc1565b60428252848201926060368537825115610f915760308453825190600191821015610f915790607860218501536041915b818311610f2357505050610ee1576048610660938693610ec593610eb6985198899376020b1b1b2b9b9a1b7b73a3937b61d1030b1b1b7bab73a1604d1b8a8601526105fc815180928c603789019101610d65565b01036028810187520185610fdd565b5192839262461bcd60e51b845260048401526024830190610d88565b60648486519062461bcd60e51b825280600483015260248201527f537472696e67733a20686578206c656e67746820696e73756666696369656e746044820152fd5b909192600f81166010811015610f7d576f181899199a1a9b1b9c1cb0b131b232b360811b901a610f538587611074565b5360041c928015610f6957600019019190610e62565b634e487b7160e01b82526011600452602482fd5b634e487b7160e01b83526032600452602483fd5b634e487b7160e01b81526032600452602490fd5b60a0810190811067ffffffffffffffff82111761051a57604052565b6080810190811067ffffffffffffffff82111761051a57604052565b90601f8019910116810190811067ffffffffffffffff82111761051a57604052565b90600091808352826020526001600160a01b036040842092169182845260205260ff60408420541661103057505050565b80835282602052604083208284526020526040832060ff1981541690557ff6391f5c32d9c69d2a47ea670b442974b53935d1edc7fd64eb21e047a839171b339380a4565b908151811015610702570160200190565b604051906060820182811067ffffffffffffffff82111761051a57604052602a82526020820160403682378251156107025760309053815160019081101561070257607860218401536029905b8082116110e25750506106645790565b9091600f8116601081101561113b576f181899199a1a9b1b9c1cb0b131b232b360811b901a6111118486611074565b5360041c9180156111265760001901906110d2565b60246000634e487b7160e01b81526011600452fd5b60246000634e487b7160e01b81526032600452fd5b8054821015610702576000526005602060002091020190600090565b90600182811c9216801561119c575b602083101461118657565b634e487b7160e01b600052602260045260246000fd5b91607f169161117b565b60015481126111cf57600254126111c957600354106111c457600190565b600090565b50600090565b5050600090565b604051906111e382610fa5565b6000608083828152826020820152606060408201528260608201520152565b9060405161120f81610fa5565b809280548252600180820154906020918285015260028301916040519260009281549161123b8361116c565b808752928281169081156112bc5750600114611283575b505050506080928261126a60ff946004940382610fdd565b6040860152600381015460608601520154161515910152565b6000908152838120939450925b8284106112a957505050820101828261126a60ff611252565b8054868501860152928401928101611290565b60ff191685880152505050151560051b8301019050828261126a60ff61125256fea26469706673582212209f761fcbc3a66bb746e302fa3870039ccb1737a199abf42361b7503f76c4e5a664736f6c634300081300332f8788117e7eff1d82e926ec794901d17c78024a50270940304540a733656f0d",
  "linkReferences": {},
  "deployedLinkReferences": {}
}