{"contracts/PharbitChain.sol":{"PharbitChain":{"abi":[{"inputs":[],"stateMutability":"nonpayable","type":"constructor"},{"inputs":[],"name":"AccessControlBadConfirmation","type":"error"},{"inputs":[{"internalType":"address","name":"account","type":"address"},{"internalType":"bytes32","name":"neededRole","type":"bytes32"}],"name":"AccessControlUnauthorizedAccount","type":"error"},{"inputs":[],"name":"EnforcedPause","type":"error"},{"inputs":[],"name":"ExpectedPause","type":"error"},{"anonymous":false,"inputs":[{"indexed":true,"internalType":"uint256","name":"batchId","type":"uint256"},{"indexed":false,"internalType":"string","name":"drugName","type":"string"},{"indexed":false,"internalType":"string","name":"batchNumber","type":"string"},{"indexed":true,"internalType":"address","name":"manufacturer","type":"address"},{"indexed":false,"internalType":"uint256","name":"quantity","type":"uint256"}],"name":"BatchCreated","type":"event"},{"anonymous":false,"inputs":[{"indexed":true,"internalType":"uint256","name":"batchId","type":"uint256"},{"indexed":false,"internalType":"enum PharbitChain.BatchStatus","name":"oldStatus","type":"uint8"},{"indexed":false,"internalType":"enum PharbitChain.BatchStatus","name":"newStatus","type":"uint8"},{"indexed":false,"internalType":"string","name":"reason","type":"string"}],"name":"BatchStatusChanged","type":"event"},{"anonymous":false,"inputs":[{"indexed":true,"internalType":"uint256","name":"batchId","type":"uint256"},{"indexed":true,"internalType":"address","name":"from","type":"address"},{"indexed":true,"internalType":"address","name":"to","type":"address"},{"indexed":false,"internalType":"string","name":"reason","type":"string"}],"name":"BatchTransferred","type":"event"},{"anonymous":false,"inputs":[{"indexed":false,"internalType":"address","name":"account","type":"address"}],"name":"Paused","type":"event"},{"anonymous":false,"inputs":[{"indexed":true,"internalType":"bytes32","name":"role","type":"bytes32"},{"indexed":true,"internalType":"bytes32","name":"previousAdminRole","type":"bytes32"},{"indexed":true,"internalType":"bytes32","name":"newAdminRole","type":"bytes32"}],"name":"RoleAdminChanged","type":"event"},{"anonymous":false,"inputs":[{"indexed":true,"internalType":"bytes32","name":"role","type":"bytes32"},{"indexed":true,"internalType":"address","name":"account","type":"address"},{"indexed":true,"internalType":"address","name":"sender","type":"address"}],"name":"RoleGranted","type":"event"},{"anonymous":false,"inputs":[{"indexed":true,"internalType":"bytes32","name":"role","type":"bytes32"},{"indexed":true,"internalType":"address","name":"account","type":"address"},{"indexed":true,"internalType":"address","name":"sender","type":"address"}],"name":"RoleRevoked","type":"event"},{"anonymous":false,"inputs":[{"indexed":false,"internalType":"address","name":"account","type":"address"}],"name":"Unpaused","type":"event"},{"inputs":[],"name":"ADMIN_ROLE","outputs":[{"internalType":"bytes32","name":"","type":"bytes32"}],"stateMutability":"view","type":"function"},{"inputs":[],"name":"DEFAULT_ADMIN_ROLE","outputs":[{"internalType":"bytes32","name":"","type":"bytes32"}],"stateMutability":"view","type":"function"},{"inputs":[],"name":"DISTRIBUTOR_ROLE","outputs":[{"internalType":"bytes32","name":"","type":"bytes32"}],"stateMutability":"view","type":"function"},{"inputs":[],"name":"INSPECTOR_ROLE","outputs":[{"internalType":"bytes32","name":"","type":"bytes32"}],"stateMutability":"view","type":"function"},{"inputs":[],"name":"MANUFACTURER_ROLE","outputs":[{"internalType":"bytes32","name":"","type":"bytes32"}],"stateMutability":"view","type":"function"},{"inputs":[],"name":"PHARMACY_ROLE","outputs":[{"internalType":"bytes32","name":"","type":"bytes32"}],"stateMutability":"view","type":"function"},{"inputs":[{"internalType":"string","name":"","type":"string"}],"name":"batchNumberToId","outputs":[{"internalType":"uint256","name":"","type":"uint256"}],"stateMutability":"view","type":"function"},{"inputs":[{"internalType":"uint256","name":"","type":"uint256"}],"name":"batches","outputs":[{"internalType":"uint256","name":"batchId","type":"uint256"},{"internalType":"string","name":"drugName","type":"string"},{"internalType":"string","name":"drugCode","type":"string"},{"internalType":"string","name":"manufacturer","type":"string"},{"internalType":"uint256","name":"quantity","type":"uint256"},{"internalType":"uint256","name":"productionDate","type":"uint256"},{"internalType":"uint256","name":"expiryDate","type":"uint256"},{"internalType":"string","name":"batchNumber","type":"string"},{"internalType":"address","name":"currentOwner","type":"address"},{"internalType":"enum PharbitChain.BatchStatus","name":"status","type":"uint8"},{"internalType":"uint256","name":"createdAt","type":"uint256"},{"internalType":"uint256","name":"updatedAt","type":"uint256"}],"stateMutability":"view","type":"function"},{"inputs":[{"internalType":"string","name":"drugName","type":"string"},{"internalType":"string","name":"drugCode","type":"string"},{"internalType":"string","name":"manufacturer","type":"string"},{"internalType":"uint256","name":"quantity","type":"uint256"},{"internalType":"uint256","name":"productionDate","type":"uint256"},{"internalType":"uint256","name":"expiryDate","type":"uint256"},{"internalType":"string","name":"batchNumber","type":"string"}],"name":"createBatch","outputs":[],"stateMutability":"nonpayable","type":"function"},{"inputs":[{"internalType":"uint256","name":"batchId","type":"uint256"}],"name":"getBatch","outputs":[{"internalType":"uint256","name":"batchId_","type":"uint256"},{"internalType":"string","name":"drugName","type":"string"},{"internalType":"string","name":"drugCode","type":"string"},{"internalType":"string","name":"manufacturer","type":"string"},{"internalType":"uint256","name":"quantity","type":"uint256"},{"internalType":"uint256","name":"productionDate","type":"uint256"},{"internalType":"uint256","name":"expiryDate","type":"uint256"},{"internalType":"string","name":"batchNumber","type":"string"},{"internalType":"address","name":"currentOwner","type":"address"},{"internalType":"enum PharbitChain.BatchStatus","name":"status","type":"uint8"},{"internalType":"uint256","name":"createdAt","type":"uint256"},{"internalType":"uint256","name":"updatedAt","type":"uint256"}],"stateMutability":"view","type":"function"},{"inputs":[{"internalType":"bytes32","name":"role","type":"bytes32"}],"name":"getRoleAdmin","outputs":[{"internalType":"bytes32","name":"","type":"bytes32"}],"stateMutability":"view","type":"function"},{"inputs":[],"name":"getTotalBatches","outputs":[{"internalType":"uint256","name":"","type":"uint256"}],"stateMutability":"view","type":"function"},{"inputs":[{"internalType":"address","name":"user","type":"address"}],"name":"getUserBatches","outputs":[{"internalType":"uint256[]","name":"","type":"uint256[]"}],"stateMutability":"view","type":"function"},{"inputs":[{"internalType":"bytes32","name":"role","type":"bytes32"},{"internalType":"address","name":"account","type":"address"}],"name":"grantRole","outputs":[],"stateMutability":"nonpayable","type":"function"},{"inputs":[{"internalType":"bytes32","name":"role","type":"bytes32"},{"internalType":"address","name":"account","type":"address"}],"name":"hasRole","outputs":[{"internalType":"bool","name":"","type":"bool"}],"stateMutability":"view","type":"function"},{"inputs":[],"name":"paused","outputs":[{"internalType":"bool","name":"","type":"bool"}],"stateMutability":"view","type":"function"},{"inputs":[{"internalType":"bytes32","name":"role","type":"bytes32"},{"internalType":"address","name":"callerConfirmation","type":"address"}],"name":"renounceRole","outputs":[],"stateMutability":"nonpayable","type":"function"},{"inputs":[{"internalType":"bytes32","name":"role","type":"bytes32"},{"internalType":"address","name":"account","type":"address"}],"name":"revokeRole","outputs":[],"stateMutability":"nonpayable","type":"function"},{"inputs":[{"internalType":"bytes4","name":"interfaceId","type":"bytes4"}],"name":"supportsInterface","outputs":[{"internalType":"bool","name":"","type":"bool"}],"stateMutability":"view","type":"function"},{"inputs":[{"internalType":"uint256","name":"batchId","type":"uint256"},{"internalType":"address","name":"to","type":"address"},{"internalType":"string","name":"reason","type":"string"}],"name":"transferBatch","outputs":[],"stateMutability":"nonpayable","type":"function"},{"inputs":[{"internalType":"uint256","name":"batchId","type":"uint256"},{"internalType":"enum PharbitChain.BatchStatus","name":"newStatus","type":"uint8"},{"internalType":"string","name":"reason","type":"string"}],"name":"updateBatchStatus","outputs":[],"stateMutability":"nonpayable","type":"function"},{"inputs":[{"internalType":"address","name":"","type":"address"},{"internalType":"uint256","name":"","type":"uint256"}],"name":"userBatches","outputs":[{"internalType":"uint256","name":"","type":"uint256"}],"stateMutability":"view","type":"function"}],"evm":{"bytecode":{"linkReferences":{},"object":"6080604052346200003e57620000153362000043565b506200002133620000c3565b506200002d3362000165565b50604051611bcb9081620002038239f35b600080fd5b6001600160a01b031660008181527fad3228b676f7d3cd4284a5443f17f1962b36e491b30a40b2405849e597ba5fb5602052604081205490919060ff16620000bf57818052816020526040822081835260205260408220600160ff19825416179055339160008051602062001dce8339815191528180a4600190565b5090565b6001600160a01b031660008181527f7d7ffb7a348e1c6a02869081a26547b49160dd3df72d1d75a570eb9b698292ec60205260408120549091907fa49807205ce4d355092ef5a8a18f56e8913cf4a201fbe287825b095693c217759060ff166200016057808352826020526040832082845260205260408320600160ff1982541617905560008051602062001dce833981519152339380a4600190565b505090565b6001600160a01b031660008181527f6b476db4b19b8e11ac475b323c35b9d0f52831cf1d8cf1455692d57ffbccaaac60205260408120549091907feefb95e842a3287179d933b4460be539a1d5af11aa8b325bb45c5c8dc92de4ed9060ff166200016057808352826020526040832082845260205260408320600160ff1982541617905560008051602062001dce833981519152339380a460019056fe608080604052600436101561001357600080fd5b60003560e01c90816301ffc9a7146115b3575080630e36b33314610d445780631f18fd3d14610a56578063248a9ca314610a275780632f2ff15d146109e857806336568abe146109a1578063475d1ba3146109495780635ac442821461088c5780635c975abb1461086957806375b238fc1461082e57806391d14854146107e1578063965288b0146107a6578063a217fddf1461078a578063b32c4d8d146106ee578063c12bcaec14610336578063d547741f146102f5578063d913a08b14610241578063e3a3c52214610206578063e561dddc146101e8578063f0bd87cc146101ad578063f0c58ea7146101725763f652c9111461011157600080fd5b3461016d57602036600319011261016d576004356001600160401b03811161016d5761015a602061014781933690600401611627565b81604051938285809451938492016116d7565b8101600481520301902054604051908152f35b600080fd5b3461016d57600036600319011261016d5760206040517f2f3a5455f35aeca177ac653592f277fbe2fbafef01081a2030451bb2fb41c91d8152f35b3461016d57600036600319011261016d5760206040517ffbd454f36a7e1a388bd6fc3ab10d434aa4578f811acbbcf33afb1c697486313c8152f35b3461016d57600036600319011261016d576020600254604051908152f35b3461016d57600036600319011261016d5760206040517f273dcf2136c7d8ef632bb8ef13dbca69a8f36fa620c7468671b3153d46a211c08152f35b3461016d5760208060031936011261016d576001600160a01b03610263611693565b1660005260058152604060002060405190818382549182815201908192600052846000209060005b868282106102e15786866102a182880383611606565b604051928392818401908285525180915260408401929160005b8281106102ca57505050500390f35b8351855286955093810193928101926001016102bb565b83548552909301926001928301920161028b565b3461016d57604036600319011261016d5761033460043561031461167d565b9080600052600060205261032f6001604060002001546118a0565b611962565b005b3461016d57606036600319011261016d5760043561035261167d565b9060449182356001600160401b03811161016d57610374903690600401611627565b9180600052600392602084815260018060a01b03936008908582604060002001541633036106b8578590851515806106ac575b6103b090611a2c565b6103b8611a0e565b1696871561067557338814610632578460005286835260ff826040600020015460a01c16828110156105d9576004146105ef578460005286835260ff826040600020015460a01c16828110156105d9576007146105965750836000528582526040600020908101878154968716966bffffffffffffffffffffffff60a01b16179055600a42910155836000526005815260406000209460005b8654808210156105695785610466838a6116a9565b905490851b1c14610480575061047b906119d7565b610451565b959694956000199591818701918211610553576104b06104a36104c993856116a9565b905490861b1c91846116a9565b90919082549060031b91821b91600019901b1916179055565b805494851561053d57807f5f9f53aaf015683723f6e51c7b9c52d49f4c315e8d8d7144f504fb40e48b92f696019261050184846116a9565b81939154921b1b19169055555b85600052600581526105248460406000206119e6565b6105386040519282849384528301906116fa565b0390a4005b634e487b7160e01b600052603160045260246000fd5b634e487b7160e01b600052601160045260246000fd5b5050507f5f9f53aaf015683723f6e51c7b9c52d49f4c315e8d8d7144f504fb40e48b92f69293945061050e565b827f43616e6e6f74207472616e736665722064657374726f796564206261746368006064926040519262461bcd60e51b84526004840152601f6024840152820152fd5b634e487b7160e01b600052602160045260246000fd5b827f43616e6e6f74207472616e736665722064697370656e736564206261746368006064926040519262461bcd60e51b84526004840152601f6024840152820152fd5b827f43616e6e6f74207472616e7366657220746f2073656c660000000000000000006064926040519262461bcd60e51b8452600484015260176024840152820152fd5b8270125b9d985b1a59081c9958da5c1a595b9d607a1b6064926040519262461bcd60e51b8452600484015260116024840152820152fd5b506002548611156103a7565b60405162461bcd60e51b815260048101849052600f60248201526e2737ba103130ba31b41037bbb732b960891b818a0152606490fd5b3461016d57602036600319011261016d57600435600052600360205260406000208054610786610720600184016117fa565b9161072d600285016117fa565b9361073a600382016117fa565b9160048201549060058301546006840154610757600786016117fa565b91600886015494600a6009880154970154976040519b8c9b60ff8960a01c169860018060a01b0316978d61172c565b0390f35b3461016d57600036600319011261016d57602060405160008152f35b3461016d57600036600319011261016d5760206040517feefb95e842a3287179d933b4460be539a1d5af11aa8b325bb45c5c8dc92de4ed8152f35b3461016d57604036600319011261016d576107fa61167d565b600435600052600060205260406000209060018060a01b0316600052602052602060ff604060002054166040519015158152f35b3461016d57600036600319011261016d5760206040517fa49807205ce4d355092ef5a8a18f56e8913cf4a201fbe287825b095693c217758152f35b3461016d57600036600319011261016d57602060ff600154166040519015158152f35b3461016d57602036600319011261016d576004358015158061093d575b6108b290611a2c565b60005260036020526040600020805490610786600482015492600583015492600681015491600882015490600983015492600a810154946108f5600183016117fa565b97610902600284016117fa565b9961091b6007610914600387016117fa565b95016117fa565b6040519b8c9b60a089901c60ff16986001600160a01b0316979296928d61172c565b506002548111156108a9565b3461016d57604036600319011261016d57610962611693565b6001600160a01b031660009081526005602052604090208054602435919082101561016d57602091610993916116a9565b90546040519160031b1c8152f35b3461016d57604036600319011261016d576109ba61167d565b336001600160a01b038216036109d65761033490600435611962565b60405163334bd91960e11b8152600490fd5b3461016d57604036600319011261016d57610334600435610a0761167d565b90806000526000602052610a226001604060002001546118a0565b6118e4565b3461016d57602036600319011261016d5760043560005260006020526020600160406000200154604051908152f35b3461016d57606036600319011261016d57600435602435600881101561016d576044356001600160401b03811161016d57610a95903690600401611627565b82151580610d38575b610aa790611a2c565b610aaf611a0e565b3360009081527f7d7ffb7a348e1c6a02869081a26547b49160dd3df72d1d75a570eb9b698292ec602090815260409091205460ff93919084168015610cf7575b8015610cb6575b8015610c75575b8015610c34575b15610bf05784600052600381526040600020600881018054958660a01c1695610b2d8588611a6f565b15610bab5760ff60a01b191660a085901b60ff60a01b1617905542600a909101556040517f7d99413df145781853c55497224c5684f97074073bce6ed9c41cad0f760d5f869490938493610ba6939192610b959290610b8d90879061171f565b85019061171f565b6060604084015260608301906116fa565b0390a2005b60405162461bcd60e51b815260048101859052601960248201527f496e76616c696420737461747573207472616e736974696f6e000000000000006044820152606490fd5b6064906040519062461bcd60e51b82526004820152601860248201527f496e73756666696369656e74207065726d697373696f6e7300000000000000006044820152fd5b507f273dcf2136c7d8ef632bb8ef13dbca69a8f36fa620c7468671b3153d46a211c06000526000815260406000203360005281528360406000205416610b04565b507f2f3a5455f35aeca177ac653592f277fbe2fbafef01081a2030451bb2fb41c91d6000526000815260406000203360005281528360406000205416610afd565b507ffbd454f36a7e1a388bd6fc3ab10d434aa4578f811acbbcf33afb1c697486313c6000526000815260406000203360005281528360406000205416610af6565b507feefb95e842a3287179d933b4460be539a1d5af11aa8b325bb45c5c8dc92de4ed6000526000815260406000203360005281528360406000205416610aef565b50600254831115610a9e565b3461016d5760e036600319011261016d576004356001600160401b03811161016d57610d74903690600401611627565b6024356001600160401b03811161016d57610d93903690600401611627565b604480356001600160401b03811161016d57610db3903690600401611627565b9160c4356001600160401b03811161016d57610dd3903690600401611627565b3360009081527f6b476db4b19b8e11ac475b323c35b9d0f52831cf1d8cf1455692d57ffbccaaac60205260409020549092907feefb95e842a3287179d933b4460be539a1d5af11aa8b325bb45c5c8dc92de4ed9060ff16156115985750610e38611a0e565b84511561155f5781511561152657606435156114e25760843560a43511156114a85782511561146c576040516020818551610e768183858a016116d7565b81016004815203019020546114325750610e916002546119d7565b928360025583600052600360205260406000209184835585516001600160401b0381116111bd57610ec560018501546117c0565b601f81116113eb575b50806020601f821160011461137e57600091611373575b508160011b916000199060031b1c19161760018401555b8051906001600160401b0382116111bd578190610f1c60028601546117c0565b601f8111611320575b50602090601f83116001146112ae576000926112a3575b50508160011b916000199060031b1c19161760028301555b8051906001600160401b0382116111bd578190610f7460038501546117c0565b601f8111611250575b50602090601f83116001146111de576000926111d3575b50508160011b916000199060031b1c19161760038201555b6064356004820155608435600582015560a435600682015581516001600160401b0381116111bd57610fe160078301546117c0565b601f8111611176575b506020601f82116001146110e55791817f92b6020e18f2d7328b8bc9a6af7c2c05fd727f42a7e7e48cf5df3cd5bbe19ae594926110c9946000916110da575b508160011b916000199060031b1c19161760078201555b60088101805460ff60a01b193316906affffffffffffffffffffff60a81b16179055426009820155600a4291015583604051602081845161108481838589016116d7565b81016004815203019020553360005260056020526110a68460406000206119e6565b6110bb604051956060875260608701906116fa565b9085820360208701526116fa565b9260643560408201528033940390a3005b905083015188611029565b601f198216906007840160005260206000209160005b81811061115e5750926110c99492600192827f92b6020e18f2d7328b8bc9a6af7c2c05fd727f42a7e7e48cf5df3cd5bbe19ae5989610611145575b5050811b016007820155611040565b85015160001960f88460031b161c191690558880611136565b9192602060018192868a0151815501940192016110fb565b600783016000526020600020601f830160051c8101602084106111b6575b601f830160051c820181106111aa575050610fea565b60008155600101611194565b5080611194565b634e487b7160e01b600052604160045260246000fd5b015190508680610f94565b9250600384016000526020600020906000935b601f1984168510611235576001945083601f1981161061121c575b505050811b016003820155610fac565b015160001960f88460031b161c1916905586808061120c565b818101518355602094850194600190930192909101906111f1565b909150600384016000526020600020601f840160051c81016020851061129c575b90849392915b601f830160051c8201811061128d575050610f7d565b60008155859450600101611277565b5080611271565b015190508780610f3c565b9250600285016000526020600020906000935b601f1984168510611305576001945083601f198116106112ec575b505050811b016002830155610f54565b015160001960f88460031b161c191690558780806112dc565b818101518355602094850194600190930192909101906112c1565b909150600285016000526020600020601f840160051c81016020851061136c575b90849392915b601f830160051c8201811061135d575050610f25565b60008155859450600101611347565b5080611341565b905087015188610ee5565b91506001850160005260206000206000925b601f19831684106113d3576001935082601f198116106113ba575b5050811b016001840155610efc565b89015160001960f88460031b161c1916905588806113ab565b89810151825560209384019360019092019101611390565b600185016000526020600020601f830160051c81016020841061142b575b601f830160051c8201811061141f575050610ece565b60008155600101611409565b5080611409565b606490724261746368206e756d6265722065786973747360681b6040519162461bcd60e51b83526020600484015260136024840152820152fd5b6064907410985d18da081b9d5b58995c881c995c5d5a5c9959605a1b6040519162461bcd60e51b83526020600484015260156024840152820152fd5b60649072496e76616c696420657870697279206461746560681b6040519162461bcd60e51b83526020600484015260136024840152820152fd5b6064907f5175616e74697479206d75737420626520706f736974697665000000000000006040519162461bcd60e51b83526020600484015260196024840152820152fd5b60649071111c9d59c818dbd919481c995c5d5a5c995960721b6040519162461bcd60e51b83526020600484015260126024840152820152fd5b60649071111c9d59c81b985b59481c995c5d5a5c995960721b6040519162461bcd60e51b83526020600484015260126024840152820152fd5b6040519063e2517d3f60e01b82523360048301526024820152fd5b3461016d57602036600319011261016d576004359063ffffffff60e01b821680920361016d57602091637965db0b60e01b81149081156115f5575b5015158152f35b6301ffc9a760e01b149050836115ee565b90601f801991011681019081106001600160401b038211176111bd57604052565b81601f8201121561016d578035906001600160401b0382116111bd576040519261165b601f8401601f191660200185611606565b8284526020838301011161016d57816000926020809301838601378301015290565b602435906001600160a01b038216820361016d57565b600435906001600160a01b038216820361016d57565b80548210156116c15760005260206000200190600090565b634e487b7160e01b600052603260045260246000fd5b60005b8381106116ea5750506000910152565b81810151838201526020016116da565b90602091611713815180928185528580860191016116d7565b601f01601f1916010190565b9060088210156105d95752565b989c9b9a979261179a959461176f61177d926117616117b69b966101609f9b968f9081526101809081602082015201906116fa565b8d810360408f0152906116fa565b908b820360608d01526116fa565b9360808a015260a089015260c088015286820360e08801526116fa565b6001600160a01b0390981661010085015261012084019061171f565b6101408201520152565b90600182811c921680156117f0575b60208310146117da57565b634e487b7160e01b600052602260045260246000fd5b91607f16916117cf565b906040519182600082549261180e846117c0565b90818452600194858116908160001461187d575060011461183a575b505061183892500383611606565b565b9093915060005260209081600020936000915b8183106118655750506118389350820101388061182a565b8554888401850152948501948794509183019161184d565b91505061183894506020925060ff191682840152151560051b820101388061182a565b80600052600060205260406000203360005260205260ff60406000205416156118c65750565b6044906040519063e2517d3f60e01b82523360048301526024820152fd5b9060009180835282602052604083209160018060a01b03169182845260205260ff6040842054161560001461195d57808352826020526040832082845260205260408320600160ff198254161790557f2f8788117e7eff1d82e926ec794901d17c78024a50270940304540a733656f0d339380a4600190565b505090565b9060009180835282602052604083209160018060a01b03169182845260205260ff60408420541660001461195d5780835282602052604083208284526020526040832060ff1981541690557ff6391f5c32d9c69d2a47ea670b442974b53935d1edc7fd64eb21e047a839171b339380a4600190565b60001981146105535760010190565b90815491680100000000000000008310156111bd57826104b0916001611838950181556116a9565b60ff60015416611a1a57565b60405163d93c066560e01b8152600490fd5b15611a3357565b60405162461bcd60e51b815260206004820152601460248201527310985d18da08191bd95cc81b9bdd08195e1a5cdd60621b6044820152606490fd5b6008808210156105d9578115611b585760018214611b375760028214611afa5760038214611ada5760048214611ad25760058214611ac35760068214611ac357506007915014611abe57600090565b600090565b90508110156105d95760071490565b505050600090565b90508110156105d95760048114908115611af2575090565b600591501490565b905081101590816105d95760018114918215611b29575b8215611b1c57505090565b9091506105d95760051490565b506003811491506000611b11565b905081101590816105d95760028114918215611b29578215611b1c57505090565b905081101590816105d95760018114918215611b87575b8215611b7a57505090565b9091506105d95760071490565b506005811491506000611b6f56fea2646970667358221220c94771067cff9f686c57d12d197ab69a54f7bdf60a14a1de92bd4a49c0219caa64736f6c634300081400332f8788117e7eff1d82e926ec794901d17c78024a50270940304540a733656f0d","opcodes":"PUSH1 0x80 PUSH1 0x40 MSTORE CALLVALUE PUSH3 0x3E JUMPI PUSH3 0x15 CALLER PUSH3 0x43 JUMP JUMPDEST POP PUSH3 0x21 CALLER PUSH3 0xC3 JUMP JUMPDEST POP PUSH3 0x2D CALLER PUSH3 0x165 JUMP JUMPDEST POP PUSH1 0x40 MLOAD PUSH2 0x1BCB SWAP1 DUP2 PUSH3 0x203 DUP3 CODECOPY RETURN JUMPDEST PUSH1 0x0 DUP1 REVERT JUMPDEST PUSH1 0x1 PUSH1 0x1 PUSH1 0xA0 SHL SUB AND PUSH1 0x0 DUP2 DUP2 MSTORE PUSH32 0xAD3228B676F7D3CD4284A5443F17F1962B36E491B30A40B2405849E597BA5FB5 PUSH1 0x20 MSTORE PUSH1 0x40 DUP2 KECCAK256 SLOAD SWAP1 SWAP2 SWAP1 PUSH1 0xFF AND PUSH3 0xBF JUMPI DUP2 DUP1 MSTORE DUP2 PUSH1 0x20 MSTORE PUSH1 0x40 DUP3 KECCAK256 DUP2 DUP4 MSTORE PUSH1 0x20 MSTORE PUSH1 0x40 DUP3 KECCAK256 PUSH1 0x1 PUSH1 0xFF NOT DUP3 SLOAD AND OR SWAP1 SSTORE CALLER SWAP2 PUSH1 0x0 DUP1 MLOAD PUSH1 0x20 PUSH3 0x1DCE DUP4 CODECOPY DUP2 MLOAD SWAP2 MSTORE DUP2 DUP1 LOG4 PUSH1 0x1 SWAP1 JUMP JUMPDEST POP SWAP1 JUMP JUMPDEST PUSH1 0x1 PUSH1 0x1 PUSH1 0xA0 SHL SUB AND PUSH1 0x0 DUP2 DUP2 MSTORE PUSH32 0x7D7FFB7A348E1C6A02869081A26547B49160DD3DF72D1D75A570EB9B698292EC PUSH1 0x20 MSTORE PUSH1 0x40 DUP2 KECCAK256 SLOAD SWAP1 SWAP2 SWAP1 PUSH32 0xA49807205CE4D355092EF5A8A18F56E8913CF4A201FBE287825B095693C21775 SWAP1 PUSH1 0xFF AND PUSH3 0x160 JUMPI DUP1 DUP4 MSTORE DUP3 PUSH1 0x20 MSTORE PUSH1 0x40 DUP4 KECCAK256 DUP3 DUP5 MSTORE PUSH1 0x20 MSTORE PUSH1 0x40 DUP4 KECCAK256 PUSH1 0x1 PUSH1 0xFF NOT DUP3 SLOAD AND OR SWAP1 SSTORE PUSH1 0x0 DUP1 MLOAD PUSH1 0x20 PUSH3 0x1DCE DUP4 CODECOPY DUP2 MLOAD SWAP2 MSTORE CALLER SWAP4 DUP1 LOG4 PUSH1 0x1 SWAP1 JUMP JUMPDEST POP POP SWAP1 JUMP JUMPDEST PUSH1 0x1 PUSH1 0x1 PUSH1 0xA0 SHL SUB AND PUSH1 0x0 DUP2 DUP2 MSTORE PUSH32 0x6B476DB4B19B8E11AC475B323C35B9D0F52831CF1D8CF1455692D57FFBCCAAAC PUSH1 0x20 MSTORE PUSH1 0x40 DUP2 KECCAK256 SLOAD SWAP1 SWAP2 SWAP1 PUSH32 0xEEFB95E842A3287179D933B4460BE539A1D5AF11AA8B325BB45C5C8DC92DE4ED SWAP1 PUSH1 0xFF AND PUSH3 0x160 JUMPI DUP1 DUP4 MSTORE DUP3 PUSH1 0x20 MSTORE PUSH1 0x40 DUP4 KECCAK256 DUP3 DUP5 MSTORE PUSH1 0x20 MSTORE PUSH1 0x40 DUP4 KECCAK256 PUSH1 0x1 PUSH1 0xFF NOT DUP3 SLOAD AND OR SWAP1 SSTORE PUSH1 0x0 DUP1 MLOAD PUSH1 0x20 PUSH3 0x1DCE DUP4 CODECOPY DUP2 MLOAD SWAP2 MSTORE CALLER SWAP4 DUP1 LOG4 PUSH1 0x1 SWAP1 JUMP INVALID PUSH1 0x80 DUP1 PUSH1 0x40 MSTORE PUSH1 0x4 CALLDATASIZE LT ISZERO PUSH2 0x13 JUMPI PUSH1 0x0 DUP1 REVERT JUMPDEST PUSH1 0x0 CALLDATALOAD PUSH1 0xE0 SHR SWAP1 DUP2 PUSH4 0x1FFC9A7 EQ PUSH2 0x15B3 JUMPI POP DUP1 PUSH4 0xE36B333 EQ PUSH2 0xD44 JUMPI DUP1 PUSH4 0x1F18FD3D EQ PUSH2 0xA56 JUMPI DUP1 PUSH4 0x248A9CA3 EQ PUSH2 0xA27 JUMPI DUP1 PUSH4 0x2F2FF15D EQ PUSH2 0x9E8 JUMPI DUP1 PUSH4 0x36568ABE EQ PUSH2 0x9A1 JUMPI DUP1 PUSH4 0x475D1BA3 EQ PUSH2 0x949 JUMPI DUP1 PUSH4 0x5AC44282 EQ PUSH2 0x88C JUMPI DUP1 PUSH4 0x5C975ABB EQ PUSH2 0x869 JUMPI DUP1 PUSH4 0x75B238FC EQ PUSH2 0x82E JUMPI DUP1 PUSH4 0x91D14854 EQ PUSH2 0x7E1 JUMPI DUP1 PUSH4 0x965288B0 EQ PUSH2 0x7A6 JUMPI DUP1 PUSH4 0xA217FDDF EQ PUSH2 0x78A JUMPI DUP1 PUSH4 0xB32C4D8D EQ PUSH2 0x6EE JUMPI DUP1 PUSH4 0xC12BCAEC EQ PUSH2 0x336 JUMPI DUP1 PUSH4 0xD547741F EQ PUSH2 0x2F5 JUMPI DUP1 PUSH4 0xD913A08B EQ PUSH2 0x241 JUMPI DUP1 PUSH4 0xE3A3C522 EQ PUSH2 0x206 JUMPI DUP1 PUSH4 0xE561DDDC EQ PUSH2 0x1E8 JUMPI DUP1 PUSH4 0xF0BD87CC EQ PUSH2 0x1AD JUMPI DUP1 PUSH4 0xF0C58EA7 EQ PUSH2 0x172 JUMPI PUSH4 0xF652C911 EQ PUSH2 0x111 JUMPI PUSH1 0x0 DUP1 REVERT JUMPDEST CALLVALUE PUSH2 0x16D JUMPI PUSH1 0x20 CALLDATASIZE PUSH1 0x3 NOT ADD SLT PUSH2 0x16D JUMPI PUSH1 0x4 CALLDATALOAD PUSH1 0x1 PUSH1 0x1 PUSH1 0x40 SHL SUB DUP2 GT PUSH2 0x16D JUMPI PUSH2 0x15A PUSH1 0x20 PUSH2 0x147 DUP2 SWAP4 CALLDATASIZE SWAP1 PUSH1 0x4 ADD PUSH2 0x1627 JUMP JUMPDEST DUP2 PUSH1 0x40 MLOAD SWAP4 DUP3 DUP6 DUP1 SWAP5 MLOAD SWAP4 DUP5 SWAP3 ADD PUSH2 0x16D7 JUMP JUMPDEST DUP2 ADD PUSH1 0x4 DUP2 MSTORE SUB ADD SWAP1 KECCAK256 SLOAD PUSH1 0x40 MLOAD SWAP1 DUP2 MSTORE RETURN JUMPDEST PUSH1 0x0 DUP1 REVERT JUMPDEST CALLVALUE PUSH2 0x16D JUMPI PUSH1 0x0 CALLDATASIZE PUSH1 0x3 NOT ADD SLT PUSH2 0x16D JUMPI PUSH1 0x20 PUSH1 0x40 MLOAD PUSH32 0x2F3A5455F35AECA177AC653592F277FBE2FBAFEF01081A2030451BB2FB41C91D DUP2 MSTORE RETURN JUMPDEST CALLVALUE PUSH2 0x16D JUMPI PUSH1 0x0 CALLDATASIZE PUSH1 0x3 NOT ADD SLT PUSH2 0x16D JUMPI PUSH1 0x20 PUSH1 0x40 MLOAD PUSH32 0xFBD454F36A7E1A388BD6FC3AB10D434AA4578F811ACBBCF33AFB1C697486313C DUP2 MSTORE RETURN JUMPDEST CALLVALUE PUSH2 0x16D JUMPI PUSH1 0x0 CALLDATASIZE PUSH1 0x3 NOT ADD SLT PUSH2 0x16D JUMPI PUSH1 0x20 PUSH1 0x2 SLOAD PUSH1 0x40 MLOAD SWAP1 DUP2 MSTORE RETURN JUMPDEST CALLVALUE PUSH2 0x16D JUMPI PUSH1 0x0 CALLDATASIZE PUSH1 0x3 NOT ADD SLT PUSH2 0x16D JUMPI PUSH1 0x20 PUSH1 0x40 MLOAD PUSH32 0x273DCF2136C7D8EF632BB8EF13DBCA69A8F36FA620C7468671B3153D46A211C0 DUP2 MSTORE RETURN JUMPDEST CALLVALUE PUSH2 0x16D JUMPI PUSH1 0x20 DUP1 PUSH1 0x3 NOT CALLDATASIZE ADD SLT PUSH2 0x16D JUMPI PUSH1 0x1 PUSH1 0x1 PUSH1 0xA0 SHL SUB PUSH2 0x263 PUSH2 0x1693 JUMP JUMPDEST AND PUSH1 0x0 MSTORE PUSH1 0x5 DUP2 MSTORE PUSH1 0x40 PUSH1 0x0 KECCAK256 PUSH1 0x40 MLOAD SWAP1 DUP2 DUP4 DUP3 SLOAD SWAP2 DUP3 DUP2 MSTORE ADD SWAP1 DUP2 SWAP3 PUSH1 0x0 MSTORE DUP5 PUSH1 0x0 KECCAK256 SWAP1 PUSH1 0x0 JUMPDEST DUP7 DUP3 DUP3 LT PUSH2 0x2E1 JUMPI DUP7 DUP7 PUSH2 0x2A1 DUP3 DUP9 SUB DUP4 PUSH2 0x1606 JUMP JUMPDEST PUSH1 0x40 MLOAD SWAP3 DUP4 SWAP3 DUP2 DUP5 ADD SWAP1 DUP3 DUP6 MSTORE MLOAD DUP1 SWAP2 MSTORE PUSH1 0x40 DUP5 ADD SWAP3 SWAP2 PUSH1 0x0 JUMPDEST DUP3 DUP2 LT PUSH2 0x2CA JUMPI POP POP POP POP SUB SWAP1 RETURN JUMPDEST DUP4 MLOAD DUP6 MSTORE DUP7 SWAP6 POP SWAP4 DUP2 ADD SWAP4 SWAP3 DUP2 ADD SWAP3 PUSH1 0x1 ADD PUSH2 0x2BB JUMP JUMPDEST DUP4 SLOAD DUP6 MSTORE SWAP1 SWAP4 ADD SWAP3 PUSH1 0x1 SWAP3 DUP4 ADD SWAP3 ADD PUSH2 0x28B JUMP JUMPDEST CALLVALUE PUSH2 0x16D JUMPI PUSH1 0x40 CALLDATASIZE PUSH1 0x3 NOT ADD SLT PUSH2 0x16D JUMPI PUSH2 0x334 PUSH1 0x4 CALLDATALOAD PUSH2 0x314 PUSH2 0x167D JUMP JUMPDEST SWAP1 DUP1 PUSH1 0x0 MSTORE PUSH1 0x0 PUSH1 0x20 MSTORE PUSH2 0x32F PUSH1 0x1 PUSH1 0x40 PUSH1 0x0 KECCAK256 ADD SLOAD PUSH2 0x18A0 JUMP JUMPDEST PUSH2 0x1962 JUMP JUMPDEST STOP JUMPDEST CALLVALUE PUSH2 0x16D JUMPI PUSH1 0x60 CALLDATASIZE PUSH1 0x3 NOT ADD SLT PUSH2 0x16D JUMPI PUSH1 0x4 CALLDATALOAD PUSH2 0x352 PUSH2 0x167D JUMP JUMPDEST SWAP1 PUSH1 0x44 SWAP2 DUP3 CALLDATALOAD PUSH1 0x1 PUSH1 0x1 PUSH1 0x40 SHL SUB DUP2 GT PUSH2 0x16D JUMPI PUSH2 0x374 SWAP1 CALLDATASIZE SWAP1 PUSH1 0x4 ADD PUSH2 0x1627 JUMP JUMPDEST SWAP2 DUP1 PUSH1 0x0 MSTORE PUSH1 0x3 SWAP3 PUSH1 0x20 DUP5 DUP2 MSTORE PUSH1 0x1 DUP1 PUSH1 0xA0 SHL SUB SWAP4 PUSH1 0x8 SWAP1 DUP6 DUP3 PUSH1 0x40 PUSH1 0x0 KECCAK256 ADD SLOAD AND CALLER SUB PUSH2 0x6B8 JUMPI DUP6 SWAP1 DUP6 ISZERO ISZERO DUP1 PUSH2 0x6AC JUMPI JUMPDEST PUSH2 0x3B0 SWAP1 PUSH2 0x1A2C JUMP JUMPDEST PUSH2 0x3B8 PUSH2 0x1A0E JUMP JUMPDEST AND SWAP7 DUP8 ISZERO PUSH2 0x675 JUMPI CALLER DUP9 EQ PUSH2 0x632 JUMPI DUP5 PUSH1 0x0 MSTORE DUP7 DUP4 MSTORE PUSH1 0xFF DUP3 PUSH1 0x40 PUSH1 0x0 KECCAK256 ADD SLOAD PUSH1 0xA0 SHR AND DUP3 DUP2 LT ISZERO PUSH2 0x5D9 JUMPI PUSH1 0x4 EQ PUSH2 0x5EF JUMPI DUP5 PUSH1 0x0 MSTORE DUP7 DUP4 MSTORE PUSH1 0xFF DUP3 PUSH1 0x40 PUSH1 0x0 KECCAK256 ADD SLOAD PUSH1 0xA0 SHR AND DUP3 DUP2 LT ISZERO PUSH2 0x5D9 JUMPI PUSH1 0x7 EQ PUSH2 0x596 JUMPI POP DUP4 PUSH1 0x0 MSTORE DUP6 DUP3 MSTORE PUSH1 0x40 PUSH1 0x0 KECCAK256 SWAP1 DUP2 ADD DUP8 DUP2 SLOAD SWAP7 DUP8 AND SWAP7 PUSH12 0xFFFFFFFFFFFFFFFFFFFFFFFF PUSH1 0xA0 SHL AND OR SWAP1 SSTORE PUSH1 0xA TIMESTAMP SWAP2 ADD SSTORE DUP4 PUSH1 0x0 MSTORE PUSH1 0x5 DUP2 MSTORE PUSH1 0x40 PUSH1 0x0 KECCAK256 SWAP5 PUSH1 0x0 JUMPDEST DUP7 SLOAD DUP1 DUP3 LT ISZERO PUSH2 0x569 JUMPI DUP6 PUSH2 0x466 DUP4 DUP11 PUSH2 0x16A9 JUMP JUMPDEST SWAP1 SLOAD SWAP1 DUP6 SHL SHR EQ PUSH2 0x480 JUMPI POP PUSH2 0x47B SWAP1 PUSH2 0x19D7 JUMP JUMPDEST PUSH2 0x451 JUMP JUMPDEST SWAP6 SWAP7 SWAP5 SWAP6 PUSH1 0x0 NOT SWAP6 SWAP2 DUP2 DUP8 ADD SWAP2 DUP3 GT PUSH2 0x553 JUMPI PUSH2 0x4B0 PUSH2 0x4A3 PUSH2 0x4C9 SWAP4 DUP6 PUSH2 0x16A9 JUMP JUMPDEST SWAP1 SLOAD SWAP1 DUP7 SHL SHR SWAP2 DUP5 PUSH2 0x16A9 JUMP JUMPDEST SWAP1 SWAP2 SWAP1 DUP3 SLOAD SWAP1 PUSH1 0x3 SHL SWAP2 DUP3 SHL SWAP2 PUSH1 0x0 NOT SWAP1 SHL NOT AND OR SWAP1 SSTORE JUMP JUMPDEST DUP1 SLOAD SWAP5 DUP6 ISZERO PUSH2 0x53D JUMPI DUP1 PUSH32 0x5F9F53AAF015683723F6E51C7B9C52D49F4C315E8D8D7144F504FB40E48B92F6 SWAP7 ADD SWAP3 PUSH2 0x501 DUP5 DUP5 PUSH2 0x16A9 JUMP JUMPDEST DUP2 SWAP4 SWAP2 SLOAD SWAP3 SHL SHL NOT AND SWAP1 SSTORE SSTORE JUMPDEST DUP6 PUSH1 0x0 MSTORE PUSH1 0x5 DUP2 MSTORE PUSH2 0x524 DUP5 PUSH1 0x40 PUSH1 0x0 KECCAK256 PUSH2 0x19E6 JUMP JUMPDEST PUSH2 0x538 PUSH1 0x40 MLOAD SWAP3 DUP3 DUP5 SWAP4 DUP5 MSTORE DUP4 ADD SWAP1 PUSH2 0x16FA JUMP JUMPDEST SUB SWAP1 LOG4 STOP JUMPDEST PUSH4 0x4E487B71 PUSH1 0xE0 SHL PUSH1 0x0 MSTORE PUSH1 0x31 PUSH1 0x4 MSTORE PUSH1 0x24 PUSH1 0x0 REVERT JUMPDEST PUSH4 0x4E487B71 PUSH1 0xE0 SHL PUSH1 0x0 MSTORE PUSH1 0x11 PUSH1 0x4 MSTORE PUSH1 0x24 PUSH1 0x0 REVERT JUMPDEST POP POP POP PUSH32 0x5F9F53AAF015683723F6E51C7B9C52D49F4C315E8D8D7144F504FB40E48B92F6 SWAP3 SWAP4 SWAP5 POP PUSH2 0x50E JUMP JUMPDEST DUP3 PUSH32 0x43616E6E6F74207472616E736665722064657374726F79656420626174636800 PUSH1 0x64 SWAP3 PUSH1 0x40 MLOAD SWAP3 PUSH3 0x461BCD PUSH1 0xE5 SHL DUP5 MSTORE PUSH1 0x4 DUP5 ADD MSTORE PUSH1 0x1F PUSH1 0x24 DUP5 ADD MSTORE DUP3 ADD MSTORE REVERT JUMPDEST PUSH4 0x4E487B71 PUSH1 0xE0 SHL PUSH1 0x0 MSTORE PUSH1 0x21 PUSH1 0x4 MSTORE PUSH1 0x24 PUSH1 0x0 REVERT JUMPDEST DUP3 PUSH32 0x43616E6E6F74207472616E736665722064697370656E73656420626174636800 PUSH1 0x64 SWAP3 PUSH1 0x40 MLOAD SWAP3 PUSH3 0x461BCD PUSH1 0xE5 SHL DUP5 MSTORE PUSH1 0x4 DUP5 ADD MSTORE PUSH1 0x1F PUSH1 0x24 DUP5 ADD MSTORE DUP3 ADD MSTORE REVERT JUMPDEST DUP3 PUSH32 0x43616E6E6F74207472616E7366657220746F2073656C66000000000000000000 PUSH1 0x64 SWAP3 PUSH1 0x40 MLOAD SWAP3 PUSH3 0x461BCD PUSH1 0xE5 SHL DUP5 MSTORE PUSH1 0x4 DUP5 ADD MSTORE PUSH1 0x17 PUSH1 0x24 DUP5 ADD MSTORE DUP3 ADD MSTORE REVERT JUMPDEST DUP3 PUSH17 0x125B9D985B1A59081C9958DA5C1A595B9D PUSH1 0x7A SHL PUSH1 0x64 SWAP3 PUSH1 0x40 MLOAD SWAP3 PUSH3 0x461BCD PUSH1 0xE5 SHL DUP5 MSTORE PUSH1 0x4 DUP5 ADD MSTORE PUSH1 0x11 PUSH1 0x24 DUP5 ADD MSTORE DUP3 ADD MSTORE REVERT JUMPDEST POP PUSH1 0x2 SLOAD DUP7 GT ISZERO PUSH2 0x3A7 JUMP JUMPDEST PUSH1 0x40 MLOAD PUSH3 0x461BCD PUSH1 0xE5 SHL DUP2 MSTORE PUSH1 0x4 DUP2 ADD DUP5 SWAP1 MSTORE PUSH1 0xF PUSH1 0x24 DUP3 ADD MSTORE PUSH15 0x2737BA103130BA31B41037BBB732B9 PUSH1 0x89 SHL DUP2 DUP11 ADD MSTORE PUSH1 0x64 SWAP1 REVERT JUMPDEST CALLVALUE PUSH2 0x16D JUMPI PUSH1 0x20 CALLDATASIZE PUSH1 0x3 NOT ADD SLT PUSH2 0x16D JUMPI PUSH1 0x4 CALLDATALOAD PUSH1 0x0 MSTORE PUSH1 0x3 PUSH1 0x20 MSTORE PUSH1 0x40 PUSH1 0x0 KECCAK256 DUP1 SLOAD PUSH2 0x786 PUSH2 0x720 PUSH1 0x1 DUP5 ADD PUSH2 0x17FA JUMP JUMPDEST SWAP2 PUSH2 0x72D PUSH1 0x2 DUP6 ADD PUSH2 0x17FA JUMP JUMPDEST SWAP4 PUSH2 0x73A PUSH1 0x3 DUP3 ADD PUSH2 0x17FA JUMP JUMPDEST SWAP2 PUSH1 0x4 DUP3 ADD SLOAD SWAP1 PUSH1 0x5 DUP4 ADD SLOAD PUSH1 0x6 DUP5 ADD SLOAD PUSH2 0x757 PUSH1 0x7 DUP7 ADD PUSH2 0x17FA JUMP JUMPDEST SWAP2 PUSH1 0x8 DUP7 ADD SLOAD SWAP5 PUSH1 0xA PUSH1 0x9 DUP9 ADD SLOAD SWAP8 ADD SLOAD SWAP8 PUSH1 0x40 MLOAD SWAP12 DUP13 SWAP12 PUSH1 0xFF DUP10 PUSH1 0xA0 SHR AND SWAP9 PUSH1 0x1 DUP1 PUSH1 0xA0 SHL SUB AND SWAP8 DUP14 PUSH2 0x172C JUMP JUMPDEST SUB SWAP1 RETURN JUMPDEST CALLVALUE PUSH2 0x16D JUMPI PUSH1 0x0 CALLDATASIZE PUSH1 0x3 NOT ADD SLT PUSH2 0x16D JUMPI PUSH1 0x20 PUSH1 0x40 MLOAD PUSH1 0x0 DUP2 MSTORE RETURN JUMPDEST CALLVALUE PUSH2 0x16D JUMPI PUSH1 0x0 CALLDATASIZE PUSH1 0x3 NOT ADD SLT PUSH2 0x16D JUMPI PUSH1 0x20 PUSH1 0x40 MLOAD PUSH32 0xEEFB95E842A3287179D933B4460BE539A1D5AF11AA8B325BB45C5C8DC92DE4ED DUP2 MSTORE RETURN JUMPDEST CALLVALUE PUSH2 0x16D JUMPI PUSH1 0x40 CALLDATASIZE PUSH1 0x3 NOT ADD SLT PUSH2 0x16D JUMPI PUSH2 0x7FA PUSH2 0x167D JUMP JUMPDEST PUSH1 0x4 CALLDATALOAD PUSH1 0x0 MSTORE PUSH1 0x0 PUSH1 0x20 MSTORE PUSH1 0x40 PUSH1 0x0 KECCAK256 SWAP1 PUSH1 0x1 DUP1 PUSH1 0xA0 SHL SUB AND PUSH1 0x0 MSTORE PUSH1 0x20 MSTORE PUSH1 0x20 PUSH1 0xFF PUSH1 0x40 PUSH1 0x0 KECCAK256 SLOAD AND PUSH1 0x40 MLOAD SWAP1 ISZERO ISZERO DUP2 MSTORE RETURN JUMPDEST CALLVALUE PUSH2 0x16D JUMPI PUSH1 0x0 CALLDATASIZE PUSH1 0x3 NOT ADD SLT PUSH2 0x16D JUMPI PUSH1 0x20 PUSH1 0x40 MLOAD PUSH32 0xA49807205CE4D355092EF5A8A18F56E8913CF4A201FBE287825B095693C21775 DUP2 MSTORE RETURN JUMPDEST CALLVALUE PUSH2 0x16D JUMPI PUSH1 0x0 CALLDATASIZE PUSH1 0x3 NOT ADD SLT PUSH2 0x16D JUMPI PUSH1 0x20 PUSH1 0xFF PUSH1 0x1 SLOAD AND PUSH1 0x40 MLOAD SWAP1 ISZERO ISZERO DUP2 MSTORE RETURN JUMPDEST CALLVALUE PUSH2 0x16D JUMPI PUSH1 0x20 CALLDATASIZE PUSH1 0x3 NOT ADD SLT PUSH2 0x16D JUMPI PUSH1 0x4 CALLDATALOAD DUP1 ISZERO ISZERO DUP1 PUSH2 0x93D JUMPI JUMPDEST PUSH2 0x8B2 SWAP1 PUSH2 0x1A2C JUMP JUMPDEST PUSH1 0x0 MSTORE PUSH1 0x3 PUSH1 0x20 MSTORE PUSH1 0x40 PUSH1 0x0 KECCAK256 DUP1 SLOAD SWAP1 PUSH2 0x786 PUSH1 0x4 DUP3 ADD SLOAD SWAP3 PUSH1 0x5 DUP4 ADD SLOAD SWAP3 PUSH1 0x6 DUP2 ADD SLOAD SWAP2 PUSH1 0x8 DUP3 ADD SLOAD SWAP1 PUSH1 0x9 DUP4 ADD SLOAD SWAP3 PUSH1 0xA DUP2 ADD SLOAD SWAP5 PUSH2 0x8F5 PUSH1 0x1 DUP4 ADD PUSH2 0x17FA JUMP JUMPDEST SWAP8 PUSH2 0x902 PUSH1 0x2 DUP5 ADD PUSH2 0x17FA JUMP JUMPDEST SWAP10 PUSH2 0x91B PUSH1 0x7 PUSH2 0x914 PUSH1 0x3 DUP8 ADD PUSH2 0x17FA JUMP JUMPDEST SWAP6 ADD PUSH2 0x17FA JUMP JUMPDEST PUSH1 0x40 MLOAD SWAP12 DUP13 SWAP12 PUSH1 0xA0 DUP10 SWAP1 SHR PUSH1 0xFF AND SWAP9 PUSH1 0x1 PUSH1 0x1 PUSH1 0xA0 SHL SUB AND SWAP8 SWAP3 SWAP7 SWAP3 DUP14 PUSH2 0x172C JUMP JUMPDEST POP PUSH1 0x2 SLOAD DUP2 GT ISZERO PUSH2 0x8A9 JUMP JUMPDEST CALLVALUE PUSH2 0x16D JUMPI PUSH1 0x40 CALLDATASIZE PUSH1 0x3 NOT ADD SLT PUSH2 0x16D JUMPI PUSH2 0x962 PUSH2 0x1693 JUMP JUMPDEST PUSH1 0x1 PUSH1 0x1 PUSH1 0xA0 SHL SUB AND PUSH1 0x0 SWAP1 DUP2 MSTORE PUSH1 0x5 PUSH1 0x20 MSTORE PUSH1 0x40 SWAP1 KECCAK256 DUP1 SLOAD PUSH1 0x24 CALLDATALOAD SWAP2 SWAP1 DUP3 LT ISZERO PUSH2 0x16D JUMPI PUSH1 0x20 SWAP2 PUSH2 0x993 SWAP2 PUSH2 0x16A9 JUMP JUMPDEST SWAP1 SLOAD PUSH1 0x40 MLOAD SWAP2 PUSH1 0x3 SHL SHR DUP2 MSTORE RETURN JUMPDEST CALLVALUE PUSH2 0x16D JUMPI PUSH1 0x40 CALLDATASIZE PUSH1 0x3 NOT ADD SLT PUSH2 0x16D JUMPI PUSH2 0x9BA PUSH2 0x167D JUMP JUMPDEST CALLER PUSH1 0x1 PUSH1 0x1 PUSH1 0xA0 SHL SUB DUP3 AND SUB PUSH2 0x9D6 JUMPI PUSH2 0x334 SWAP1 PUSH1 0x4 CALLDATALOAD PUSH2 0x1962 JUMP JUMPDEST PUSH1 0x40 MLOAD PUSH4 0x334BD919 PUSH1 0xE1 SHL DUP2 MSTORE PUSH1 0x4 SWAP1 REVERT JUMPDEST CALLVALUE PUSH2 0x16D JUMPI PUSH1 0x40 CALLDATASIZE PUSH1 0x3 NOT ADD SLT PUSH2 0x16D JUMPI PUSH2 0x334 PUSH1 0x4 CALLDATALOAD PUSH2 0xA07 PUSH2 0x167D JUMP JUMPDEST SWAP1 DUP1 PUSH1 0x0 MSTORE PUSH1 0x0 PUSH1 0x20 MSTORE PUSH2 0xA22 PUSH1 0x1 PUSH1 0x40 PUSH1 0x0 KECCAK256 ADD SLOAD PUSH2 0x18A0 JUMP JUMPDEST PUSH2 0x18E4 JUMP JUMPDEST CALLVALUE PUSH2 0x16D JUMPI PUSH1 0x20 CALLDATASIZE PUSH1 0x3 NOT ADD SLT PUSH2 0x16D JUMPI PUSH1 0x4 CALLDATALOAD PUSH1 0x0 MSTORE PUSH1 0x0 PUSH1 0x20 MSTORE PUSH1 0x20 PUSH1 0x1 PUSH1 0x40 PUSH1 0x0 KECCAK256 ADD SLOAD PUSH1 0x40 MLOAD SWAP1 DUP2 MSTORE RETURN JUMPDEST CALLVALUE PUSH2 0x16D JUMPI PUSH1 0x60 CALLDATASIZE PUSH1 0x3 NOT ADD SLT PUSH2 0x16D JUMPI PUSH1 0x4 CALLDATALOAD PUSH1 0x24 CALLDATALOAD PUSH1 0x8 DUP2 LT ISZERO PUSH2 0x16D JUMPI PUSH1 0x44 CALLDATALOAD PUSH1 0x1 PUSH1 0x1 PUSH1 0x40 SHL SUB DUP2 GT PUSH2 0x16D JUMPI PUSH2 0xA95 SWAP1 CALLDATASIZE SWAP1 PUSH1 0x4 ADD PUSH2 0x1627 JUMP JUMPDEST DUP3 ISZERO ISZERO DUP1 PUSH2 0xD38 JUMPI JUMPDEST PUSH2 0xAA7 SWAP1 PUSH2 0x1A2C JUMP JUMPDEST PUSH2 0xAAF PUSH2 0x1A0E JUMP JUMPDEST CALLER PUSH1 0x0 SWAP1 DUP2 MSTORE PUSH32 0x7D7FFB7A348E1C6A02869081A26547B49160DD3DF72D1D75A570EB9B698292EC PUSH1 0x20 SWAP1 DUP2 MSTORE PUSH1 0x40 SWAP1 SWAP2 KECCAK256 SLOAD PUSH1 0xFF SWAP4 SWAP2 SWAP1 DUP5 AND DUP1 ISZERO PUSH2 0xCF7 JUMPI JUMPDEST DUP1 ISZERO PUSH2 0xCB6 JUMPI JUMPDEST DUP1 ISZERO PUSH2 0xC75 JUMPI JUMPDEST DUP1 ISZERO PUSH2 0xC34 JUMPI JUMPDEST ISZERO PUSH2 0xBF0 JUMPI DUP5 PUSH1 0x0 MSTORE PUSH1 0x3 DUP2 MSTORE PUSH1 0x40 PUSH1 0x0 KECCAK256 PUSH1 0x8 DUP2 ADD DUP1 SLOAD SWAP6 DUP7 PUSH1 0xA0 SHR AND SWAP6 PUSH2 0xB2D DUP6 DUP9 PUSH2 0x1A6F JUMP JUMPDEST ISZERO PUSH2 0xBAB JUMPI PUSH1 0xFF PUSH1 0xA0 SHL NOT AND PUSH1 0xA0 DUP6 SWAP1 SHL PUSH1 0xFF PUSH1 0xA0 SHL AND OR SWAP1 SSTORE TIMESTAMP PUSH1 0xA SWAP1 SWAP2 ADD SSTORE PUSH1 0x40 MLOAD PUSH32 0x7D99413DF145781853C55497224C5684F97074073BCE6ED9C41CAD0F760D5F86 SWAP5 SWAP1 SWAP4 DUP5 SWAP4 PUSH2 0xBA6 SWAP4 SWAP2 SWAP3 PUSH2 0xB95 SWAP3 SWAP1 PUSH2 0xB8D SWAP1 DUP8 SWAP1 PUSH2 0x171F JUMP JUMPDEST DUP6 ADD SWAP1 PUSH2 0x171F JUMP JUMPDEST PUSH1 0x60 PUSH1 0x40 DUP5 ADD MSTORE PUSH1 0x60 DUP4 ADD SWAP1 PUSH2 0x16FA JUMP JUMPDEST SUB SWAP1 LOG2 STOP JUMPDEST PUSH1 0x40 MLOAD PUSH3 0x461BCD PUSH1 0xE5 SHL DUP2 MSTORE PUSH1 0x4 DUP2 ADD DUP6 SWAP1 MSTORE PUSH1 0x19 PUSH1 0x24 DUP3 ADD MSTORE PUSH32 0x496E76616C696420737461747573207472616E736974696F6E00000000000000 PUSH1 0x44 DUP3 ADD MSTORE PUSH1 0x64 SWAP1 REVERT JUMPDEST PUSH1 0x64 SWAP1 PUSH1 0x40 MLOAD SWAP1 PUSH3 0x461BCD PUSH1 0xE5 SHL DUP3 MSTORE PUSH1 0x4 DUP3 ADD MSTORE PUSH1 0x18 PUSH1 0x24 DUP3 ADD MSTORE PUSH32 0x496E73756666696369656E74207065726D697373696F6E730000000000000000 PUSH1 0x44 DUP3 ADD MSTORE REVERT JUMPDEST POP PUSH32 0x273DCF2136C7D8EF632BB8EF13DBCA69A8F36FA620C7468671B3153D46A211C0 PUSH1 0x0 MSTORE PUSH1 0x0 DUP2 MSTORE PUSH1 0x40 PUSH1 0x0 KECCAK256 CALLER PUSH1 0x0 MSTORE DUP2 MSTORE DUP4 PUSH1 0x40 PUSH1 0x0 KECCAK256 SLOAD AND PUSH2 0xB04 JUMP JUMPDEST POP PUSH32 0x2F3A5455F35AECA177AC653592F277FBE2FBAFEF01081A2030451BB2FB41C91D PUSH1 0x0 MSTORE PUSH1 0x0 DUP2 MSTORE PUSH1 0x40 PUSH1 0x0 KECCAK256 CALLER PUSH1 0x0 MSTORE DUP2 MSTORE DUP4 PUSH1 0x40 PUSH1 0x0 KECCAK256 SLOAD AND PUSH2 0xAFD JUMP JUMPDEST POP PUSH32 0xFBD454F36A7E1A388BD6FC3AB10D434AA4578F811ACBBCF33AFB1C697486313C PUSH1 0x0 MSTORE PUSH1 0x0 DUP2 MSTORE PUSH1 0x40 PUSH1 0x0 KECCAK256 CALLER PUSH1 0x0 MSTORE DUP2 MSTORE DUP4 PUSH1 0x40 PUSH1 0x0 KECCAK256 SLOAD AND PUSH2 0xAF6 JUMP JUMPDEST POP PUSH32 0xEEFB95E842A3287179D933B4460BE539A1D5AF11AA8B325BB45C5C8DC92DE4ED PUSH1 0x0 MSTORE PUSH1 0x0 DUP2 MSTORE PUSH1 0x40 PUSH1 0x0 KECCAK256 CALLER PUSH1 0x0 MSTORE DUP2 MSTORE DUP4 PUSH1 0x40 PUSH1 0x0 KECCAK256 SLOAD AND PUSH2 0xAEF JUMP JUMPDEST POP PUSH1 0x2 SLOAD DUP4 GT ISZERO PUSH2 0xA9E JUMP JUMPDEST CALLVALUE PUSH2 0x16D JUMPI PUSH1 0xE0 CALLDATASIZE PUSH1 0x3 NOT ADD SLT PUSH2 0x16D JUMPI PUSH1 0x4 CALLDATALOAD PUSH1 0x1 PUSH1 0x1 PUSH1 0x40 SHL SUB DUP2 GT PUSH2 0x16D JUMPI PUSH2 0xD74 SWAP1 CALLDATASIZE SWAP1 PUSH1 0x4 ADD PUSH2 0x1627 JUMP JUMPDEST PUSH1 0x24 CALLDATALOAD PUSH1 0x1 PUSH1 0x1 PUSH1 0x40 SHL SUB DUP2 GT PUSH2 0x16D JUMPI PUSH2 0xD93 SWAP1 CALLDATASIZE SWAP1 PUSH1 0x4 ADD PUSH2 0x1627 JUMP JUMPDEST PUSH1 0x44 DUP1 CALLDATALOAD PUSH1 0x1 PUSH1 0x1 PUSH1 0x40 SHL SUB DUP2 GT PUSH2 0x16D JUMPI PUSH2 0xDB3 SWAP1 CALLDATASIZE SWAP1 PUSH1 0x4 ADD PUSH2 0x1627 JUMP JUMPDEST SWAP2 PUSH1 0xC4 CALLDATALOAD PUSH1 0x1 PUSH1 0x1 PUSH1 0x40 SHL SUB DUP2 GT PUSH2 0x16D JUMPI PUSH2 0xDD3 SWAP1 CALLDATASIZE SWAP1 PUSH1 0x4 ADD PUSH2 0x1627 JUMP JUMPDEST CALLER PUSH1 0x0 SWAP1 DUP2 MSTORE PUSH32 0x6B476DB4B19B8E11AC475B323C35B9D0F52831CF1D8CF1455692D57FFBCCAAAC PUSH1 0x20 MSTORE PUSH1 0x40 SWAP1 KECCAK256 SLOAD SWAP1 SWAP3 SWAP1 PUSH32 0xEEFB95E842A3287179D933B4460BE539A1D5AF11AA8B325BB45C5C8DC92DE4ED SWAP1 PUSH1 0xFF AND ISZERO PUSH2 0x1598 JUMPI POP PUSH2 0xE38 PUSH2 0x1A0E JUMP JUMPDEST DUP5 MLOAD ISZERO PUSH2 0x155F JUMPI DUP2 MLOAD ISZERO PUSH2 0x1526 JUMPI PUSH1 0x64 CALLDATALOAD ISZERO PUSH2 0x14E2 JUMPI PUSH1 0x84 CALLDATALOAD PUSH1 0xA4 CALLDATALOAD GT ISZERO PUSH2 0x14A8 JUMPI DUP3 MLOAD ISZERO PUSH2 0x146C JUMPI PUSH1 0x40 MLOAD PUSH1 0x20 DUP2 DUP6 MLOAD PUSH2 0xE76 DUP2 DUP4 DUP6 DUP11 ADD PUSH2 0x16D7 JUMP JUMPDEST DUP2 ADD PUSH1 0x4 DUP2 MSTORE SUB ADD SWAP1 KECCAK256 SLOAD PUSH2 0x1432 JUMPI POP PUSH2 0xE91 PUSH1 0x2 SLOAD PUSH2 0x19D7 JUMP JUMPDEST SWAP3 DUP4 PUSH1 0x2 SSTORE DUP4 PUSH1 0x0 MSTORE PUSH1 0x3 PUSH1 0x20 MSTORE PUSH1 0x40 PUSH1 0x0 KECCAK256 SWAP2 DUP5 DUP4 SSTORE DUP6 MLOAD PUSH1 0x1 PUSH1 0x1 PUSH1 0x40 SHL SUB DUP2 GT PUSH2 0x11BD JUMPI PUSH2 0xEC5 PUSH1 0x1 DUP6 ADD SLOAD PUSH2 0x17C0 JUMP JUMPDEST PUSH1 0x1F DUP2 GT PUSH2 0x13EB JUMPI JUMPDEST POP DUP1 PUSH1 0x20 PUSH1 0x1F DUP3 GT PUSH1 0x1 EQ PUSH2 0x137E JUMPI PUSH1 0x0 SWAP2 PUSH2 0x1373 JUMPI JUMPDEST POP DUP2 PUSH1 0x1 SHL SWAP2 PUSH1 0x0 NOT SWAP1 PUSH1 0x3 SHL SHR NOT AND OR PUSH1 0x1 DUP5 ADD SSTORE JUMPDEST DUP1 MLOAD SWAP1 PUSH1 0x1 PUSH1 0x1 PUSH1 0x40 SHL SUB DUP3 GT PUSH2 0x11BD JUMPI DUP2 SWAP1 PUSH2 0xF1C PUSH1 0x2 DUP7 ADD SLOAD PUSH2 0x17C0 JUMP JUMPDEST PUSH1 0x1F DUP2 GT PUSH2 0x1320 JUMPI JUMPDEST POP PUSH1 0x20 SWAP1 PUSH1 0x1F DUP4 GT PUSH1 0x1 EQ PUSH2 0x12AE JUMPI PUSH1 0x0 SWAP3 PUSH2 0x12A3 JUMPI JUMPDEST POP POP DUP2 PUSH1 0x1 SHL SWAP2 PUSH1 0x0 NOT SWAP1 PUSH1 0x3 SHL SHR NOT AND OR PUSH1 0x2 DUP4 ADD SSTORE JUMPDEST DUP1 MLOAD SWAP1 PUSH1 0x1 PUSH1 0x1 PUSH1 0x40 SHL SUB DUP3 GT PUSH2 0x11BD JUMPI DUP2 SWAP1 PUSH2 0xF74 PUSH1 0x3 DUP6 ADD SLOAD PUSH2 0x17C0 JUMP JUMPDEST PUSH1 0x1F DUP2 GT PUSH2 0x1250 JUMPI JUMPDEST POP PUSH1 0x20 SWAP1 PUSH1 0x1F DUP4 GT PUSH1 0x1 EQ PUSH2 0x11DE JUMPI PUSH1 0x0 SWAP3 PUSH2 0x11D3 JUMPI JUMPDEST POP POP DUP2 PUSH1 0x1 SHL SWAP2 PUSH1 0x0 NOT SWAP1 PUSH1 0x3 SHL SHR NOT AND OR PUSH1 0x3 DUP3 ADD SSTORE JUMPDEST PUSH1 0x64 CALLDATALOAD PUSH1 0x4 DUP3 ADD SSTORE PUSH1 0x84 CALLDATALOAD PUSH1 0x5 DUP3 ADD SSTORE PUSH1 0xA4 CALLDATALOAD PUSH1 0x6 DUP3 ADD SSTORE DUP2 MLOAD PUSH1 0x1 PUSH1 0x1 PUSH1 0x40 SHL SUB DUP2 GT PUSH2 0x11BD JUMPI PUSH2 0xFE1 PUSH1 0x7 DUP4 ADD SLOAD PUSH2 0x17C0 JUMP JUMPDEST PUSH1 0x1F DUP2 GT PUSH2 0x1176 JUMPI JUMPDEST POP PUSH1 0x20 PUSH1 0x1F DUP3 GT PUSH1 0x1 EQ PUSH2 0x10E5 JUMPI SWAP2 DUP2 PUSH32 0x92B6020E18F2D7328B8BC9A6AF7C2C05FD727F42A7E7E48CF5DF3CD5BBE19AE5 SWAP5 SWAP3 PUSH2 0x10C9 SWAP5 PUSH1 0x0 SWAP2 PUSH2 0x10DA JUMPI JUMPDEST POP DUP2 PUSH1 0x1 SHL SWAP2 PUSH1 0x0 NOT SWAP1 PUSH1 0x3 SHL SHR NOT AND OR PUSH1 0x7 DUP3 ADD SSTORE JUMPDEST PUSH1 0x8 DUP2 ADD DUP1 SLOAD PUSH1 0xFF PUSH1 0xA0 SHL NOT CALLER AND SWAP1 PUSH11 0xFFFFFFFFFFFFFFFFFFFFFF PUSH1 0xA8 SHL AND OR SWAP1 SSTORE TIMESTAMP PUSH1 0x9 DUP3 ADD SSTORE PUSH1 0xA TIMESTAMP SWAP2 ADD SSTORE DUP4 PUSH1 0x40 MLOAD PUSH1 0x20 DUP2 DUP5 MLOAD PUSH2 0x1084 DUP2 DUP4 DUP6 DUP10 ADD PUSH2 0x16D7 JUMP JUMPDEST DUP2 ADD PUSH1 0x4 DUP2 MSTORE SUB ADD SWAP1 KECCAK256 SSTORE CALLER PUSH1 0x0 MSTORE PUSH1 0x5 PUSH1 0x20 MSTORE PUSH2 0x10A6 DUP5 PUSH1 0x40 PUSH1 0x0 KECCAK256 PUSH2 0x19E6 JUMP JUMPDEST PUSH2 0x10BB PUSH1 0x40 MLOAD SWAP6 PUSH1 0x60 DUP8 MSTORE PUSH1 0x60 DUP8 ADD SWAP1 PUSH2 0x16FA JUMP JUMPDEST SWAP1 DUP6 DUP3 SUB PUSH1 0x20 DUP8 ADD MSTORE PUSH2 0x16FA JUMP JUMPDEST SWAP3 PUSH1 0x64 CALLDATALOAD PUSH1 0x40 DUP3 ADD MSTORE DUP1 CALLER SWAP5 SUB SWAP1 LOG3 STOP JUMPDEST SWAP1 POP DUP4 ADD MLOAD DUP9 PUSH2 0x1029 JUMP JUMPDEST PUSH1 0x1F NOT DUP3 AND SWAP1 PUSH1 0x7 DUP5 ADD PUSH1 0x0 MSTORE PUSH1 0x20 PUSH1 0x0 KECCAK256 SWAP2 PUSH1 0x0 JUMPDEST DUP2 DUP2 LT PUSH2 0x115E JUMPI POP SWAP3 PUSH2 0x10C9 SWAP5 SWAP3 PUSH1 0x1 SWAP3 DUP3 PUSH32 0x92B6020E18F2D7328B8BC9A6AF7C2C05FD727F42A7E7E48CF5DF3CD5BBE19AE5 SWAP9 SWAP7 LT PUSH2 0x1145 JUMPI JUMPDEST POP POP DUP2 SHL ADD PUSH1 0x7 DUP3 ADD SSTORE PUSH2 0x1040 JUMP JUMPDEST DUP6 ADD MLOAD PUSH1 0x0 NOT PUSH1 0xF8 DUP5 PUSH1 0x3 SHL AND SHR NOT AND SWAP1 SSTORE DUP9 DUP1 PUSH2 0x1136 JUMP JUMPDEST SWAP2 SWAP3 PUSH1 0x20 PUSH1 0x1 DUP2 SWAP3 DUP7 DUP11 ADD MLOAD DUP2 SSTORE ADD SWAP5 ADD SWAP3 ADD PUSH2 0x10FB JUMP JUMPDEST PUSH1 0x7 DUP4 ADD PUSH1 0x0 MSTORE PUSH1 0x20 PUSH1 0x0 KECCAK256 PUSH1 0x1F DUP4 ADD PUSH1 0x5 SHR DUP2 ADD PUSH1 0x20 DUP5 LT PUSH2 0x11B6 JUMPI JUMPDEST PUSH1 0x1F DUP4 ADD PUSH1 0x5 SHR DUP3 ADD DUP2 LT PUSH2 0x11AA JUMPI POP POP PUSH2 0xFEA JUMP JUMPDEST PUSH1 0x0 DUP2 SSTORE PUSH1 0x1 ADD PUSH2 0x1194 JUMP JUMPDEST POP DUP1 PUSH2 0x1194 JUMP JUMPDEST PUSH4 0x4E487B71 PUSH1 0xE0 SHL PUSH1 0x0 MSTORE PUSH1 0x41 PUSH1 0x4 MSTORE PUSH1 0x24 PUSH1 0x0 REVERT JUMPDEST ADD MLOAD SWAP1 POP DUP7 DUP1 PUSH2 0xF94 JUMP JUMPDEST SWAP3 POP PUSH1 0x3 DUP5 ADD PUSH1 0x0 MSTORE PUSH1 0x20 PUSH1 0x0 KECCAK256 SWAP1 PUSH1 0x0 SWAP4 JUMPDEST PUSH1 0x1F NOT DUP5 AND DUP6 LT PUSH2 0x1235 JUMPI PUSH1 0x1 SWAP5 POP DUP4 PUSH1 0x1F NOT DUP2 AND LT PUSH2 0x121C JUMPI JUMPDEST POP POP POP DUP2 SHL ADD PUSH1 0x3 DUP3 ADD SSTORE PUSH2 0xFAC JUMP JUMPDEST ADD MLOAD PUSH1 0x0 NOT PUSH1 0xF8 DUP5 PUSH1 0x3 SHL AND SHR NOT AND SWAP1 SSTORE DUP7 DUP1 DUP1 PUSH2 0x120C JUMP JUMPDEST DUP2 DUP2 ADD MLOAD DUP4 SSTORE PUSH1 0x20 SWAP5 DUP6 ADD SWAP5 PUSH1 0x1 SWAP1 SWAP4 ADD SWAP3 SWAP1 SWAP2 ADD SWAP1 PUSH2 0x11F1 JUMP JUMPDEST SWAP1 SWAP2 POP PUSH1 0x3 DUP5 ADD PUSH1 0x0 MSTORE PUSH1 0x20 PUSH1 0x0 KECCAK256 PUSH1 0x1F DUP5 ADD PUSH1 0x5 SHR DUP2 ADD PUSH1 0x20 DUP6 LT PUSH2 0x129C JUMPI JUMPDEST SWAP1 DUP5 SWAP4 SWAP3 SWAP2 JUMPDEST PUSH1 0x1F DUP4 ADD PUSH1 0x5 SHR DUP3 ADD DUP2 LT PUSH2 0x128D JUMPI POP POP PUSH2 0xF7D JUMP JUMPDEST PUSH1 0x0 DUP2 SSTORE DUP6 SWAP5 POP PUSH1 0x1 ADD PUSH2 0x1277 JUMP JUMPDEST POP DUP1 PUSH2 0x1271 JUMP JUMPDEST ADD MLOAD SWAP1 POP DUP8 DUP1 PUSH2 0xF3C JUMP JUMPDEST SWAP3 POP PUSH1 0x2 DUP6 ADD PUSH1 0x0 MSTORE PUSH1 0x20 PUSH1 0x0 KECCAK256 SWAP1 PUSH1 0x0 SWAP4 JUMPDEST PUSH1 0x1F NOT DUP5 AND DUP6 LT PUSH2 0x1305 JUMPI PUSH1 0x1 SWAP5 POP DUP4 PUSH1 0x1F NOT DUP2 AND LT PUSH2 0x12EC JUMPI JUMPDEST POP POP POP DUP2 SHL ADD PUSH1 0x2 DUP4 ADD SSTORE PUSH2 0xF54 JUMP JUMPDEST ADD MLOAD PUSH1 0x0 NOT PUSH1 0xF8 DUP5 PUSH1 0x3 SHL AND SHR NOT AND SWAP1 SSTORE DUP8 DUP1 DUP1 PUSH2 0x12DC JUMP JUMPDEST DUP2 DUP2 ADD MLOAD DUP4 SSTORE PUSH1 0x20 SWAP5 DUP6 ADD SWAP5 PUSH1 0x1 SWAP1 SWAP4 ADD SWAP3 SWAP1 SWAP2 ADD SWAP1 PUSH2 0x12C1 JUMP JUMPDEST SWAP1 SWAP2 POP PUSH1 0x2 DUP6 ADD PUSH1 0x0 MSTORE PUSH1 0x20 PUSH1 0x0 KECCAK256 PUSH1 0x1F DUP5 ADD PUSH1 0x5 SHR DUP2 ADD PUSH1 0x20 DUP6 LT PUSH2 0x136C JUMPI JUMPDEST SWAP1 DUP5 SWAP4 SWAP3 SWAP2 JUMPDEST PUSH1 0x1F DUP4 ADD PUSH1 0x5 SHR DUP3 ADD DUP2 LT PUSH2 0x135D JUMPI POP POP PUSH2 0xF25 JUMP JUMPDEST PUSH1 0x0 DUP2 SSTORE DUP6 SWAP5 POP PUSH1 0x1 ADD PUSH2 0x1347 JUMP JUMPDEST POP DUP1 PUSH2 0x1341 JUMP JUMPDEST SWAP1 POP DUP8 ADD MLOAD DUP9 PUSH2 0xEE5 JUMP JUMPDEST SWAP2 POP PUSH1 0x1 DUP6 ADD PUSH1 0x0 MSTORE PUSH1 0x20 PUSH1 0x0 KECCAK256 PUSH1 0x0 SWAP3 JUMPDEST PUSH1 0x1F NOT DUP4 AND DUP5 LT PUSH2 0x13D3 JUMPI PUSH1 0x1 SWAP4 POP DUP3 PUSH1 0x1F NOT DUP2 AND LT PUSH2 0x13BA JUMPI JUMPDEST POP POP DUP2 SHL ADD PUSH1 0x1 DUP5 ADD SSTORE PUSH2 0xEFC JUMP JUMPDEST DUP10 ADD MLOAD PUSH1 0x0 NOT PUSH1 0xF8 DUP5 PUSH1 0x3 SHL AND SHR NOT AND SWAP1 SSTORE DUP9 DUP1 PUSH2 0x13AB JUMP JUMPDEST DUP10 DUP2 ADD MLOAD DUP3 SSTORE PUSH1 0x20 SWAP4 DUP5 ADD SWAP4 PUSH1 0x1 SWAP1 SWAP3 ADD SWAP2 ADD PUSH2 0x1390 JUMP JUMPDEST PUSH1 0x1 DUP6 ADD PUSH1 0x0 MSTORE PUSH1 0x20 PUSH1 0x0 KECCAK256 PUSH1 0x1F DUP4 ADD PUSH1 0x5 SHR DUP2 ADD PUSH1 0x20 DUP5 LT PUSH2 0x142B JUMPI JUMPDEST PUSH1 0x1F DUP4 ADD PUSH1 0x5 SHR DUP3 ADD DUP2 LT PUSH2 0x141F JUMPI POP POP PUSH2 0xECE JUMP JUMPDEST PUSH1 0x0 DUP2 SSTORE PUSH1 0x1 ADD PUSH2 0x1409 JUMP JUMPDEST POP DUP1 PUSH2 0x1409 JUMP JUMPDEST PUSH1 0x64 SWAP1 PUSH19 0x4261746368206E756D62657220657869737473 PUSH1 0x68 SHL PUSH1 0x40 MLOAD SWAP2 PUSH3 0x461BCD PUSH1 0xE5 SHL DUP4 MSTORE PUSH1 0x20 PUSH1 0x4 DUP5 ADD MSTORE PUSH1 0x13 PUSH1 0x24 DUP5 ADD MSTORE DUP3 ADD MSTORE REVERT JUMPDEST PUSH1 0x64 SWAP1 PUSH21 0x10985D18DA081B9D5B58995C881C995C5D5A5C9959 PUSH1 0x5A SHL PUSH1 0x40 MLOAD SWAP2 PUSH3 0x461BCD PUSH1 0xE5 SHL DUP4 MSTORE PUSH1 0x20 PUSH1 0x4 DUP5 ADD MSTORE PUSH1 0x15 PUSH1 0x24 DUP5 ADD MSTORE DUP3 ADD MSTORE REVERT JUMPDEST PUSH1 0x64 SWAP1 PUSH19 0x496E76616C6964206578706972792064617465 PUSH1 0x68 SHL PUSH1 0x40 MLOAD SWAP2 PUSH3 0x461BCD PUSH1 0xE5 SHL DUP4 MSTORE PUSH1 0x20 PUSH1 0x4 DUP5 ADD MSTORE PUSH1 0x13 PUSH1 0x24 DUP5 ADD MSTORE DUP3 ADD MSTORE REVERT JUMPDEST PUSH1 0x64 SWAP1 PUSH32 0x5175616E74697479206D75737420626520706F73697469766500000000000000 PUSH1 0x40 MLOAD SWAP2 PUSH3 0x461BCD PUSH1 0xE5 SHL DUP4 MSTORE PUSH1 0x20 PUSH1 0x4 DUP5 ADD MSTORE PUSH1 0x19 PUSH1 0x24 DUP5 ADD MSTORE DUP3 ADD MSTORE REVERT JUMPDEST PUSH1 0x64 SWAP1 PUSH18 0x111C9D59C818DBD919481C995C5D5A5C9959 PUSH1 0x72 SHL PUSH1 0x40 MLOAD SWAP2 PUSH3 0x461BCD PUSH1 0xE5 SHL DUP4 MSTORE PUSH1 0x20 PUSH1 0x4 DUP5 ADD MSTORE PUSH1 0x12 PUSH1 0x24 DUP5 ADD MSTORE DUP3 ADD MSTORE REVERT JUMPDEST PUSH1 0x64 SWAP1 PUSH18 0x111C9D59C81B985B59481C995C5D5A5C9959 PUSH1 0x72 SHL PUSH1 0x40 MLOAD SWAP2 PUSH3 0x461BCD PUSH1 0xE5 SHL DUP4 MSTORE PUSH1 0x20 PUSH1 0x4 DUP5 ADD MSTORE PUSH1 0x12 PUSH1 0x24 DUP5 ADD MSTORE DUP3 ADD MSTORE REVERT JUMPDEST PUSH1 0x40 MLOAD SWAP1 PUSH4 0xE2517D3F PUSH1 0xE0 SHL DUP3 MSTORE CALLER PUSH1 0x4 DUP4 ADD MSTORE PUSH1 0x24 DUP3 ADD MSTORE REVERT JUMPDEST CALLVALUE PUSH2 0x16D JUMPI PUSH1 0x20 CALLDATASIZE PUSH1 0x3 NOT ADD SLT PUSH2 0x16D JUMPI PUSH1 0x4 CALLDATALOAD SWAP1 PUSH4 0xFFFFFFFF PUSH1 0xE0 SHL DUP3 AND DUP1 SWAP3 SUB PUSH2 0x16D JUMPI PUSH1 0x20 SWAP2 PUSH4 0x7965DB0B PUSH1 0xE0 SHL DUP2 EQ SWAP1 DUP2 ISZERO PUSH2 0x15F5 JUMPI JUMPDEST POP ISZERO ISZERO DUP2 MSTORE RETURN JUMPDEST PUSH4 0x1FFC9A7 PUSH1 0xE0 SHL EQ SWAP1 POP DUP4 PUSH2 0x15EE JUMP JUMPDEST SWAP1 PUSH1 0x1F DUP1 NOT SWAP2 ADD AND DUP2 ADD SWAP1 DUP2 LT PUSH1 0x1 PUSH1 0x1 PUSH1 0x40 SHL SUB DUP3 GT OR PUSH2 0x11BD JUMPI PUSH1 0x40 MSTORE JUMP JUMPDEST DUP2 PUSH1 0x1F DUP3 ADD SLT ISZERO PUSH2 0x16D JUMPI DUP1 CALLDATALOAD SWAP1 PUSH1 0x1 PUSH1 0x1 PUSH1 0x40 SHL SUB DUP3 GT PUSH2 0x11BD JUMPI PUSH1 0x40 MLOAD SWAP3 PUSH2 0x165B PUSH1 0x1F DUP5 ADD PUSH1 0x1F NOT AND PUSH1 0x20 ADD DUP6 PUSH2 0x1606 JUMP JUMPDEST DUP3 DUP5 MSTORE PUSH1 0x20 DUP4 DUP4 ADD ADD GT PUSH2 0x16D JUMPI DUP2 PUSH1 0x0 SWAP3 PUSH1 0x20 DUP1 SWAP4 ADD DUP4 DUP7 ADD CALLDATACOPY DUP4 ADD ADD MSTORE SWAP1 JUMP JUMPDEST PUSH1 0x24 CALLDATALOAD SWAP1 PUSH1 0x1 PUSH1 0x1 PUSH1 0xA0 SHL SUB DUP3 AND DUP3 SUB PUSH2 0x16D JUMPI JUMP JUMPDEST PUSH1 0x4 CALLDATALOAD SWAP1 PUSH1 0x1 PUSH1 0x1 PUSH1 0xA0 SHL SUB DUP3 AND DUP3 SUB PUSH2 0x16D JUMPI JUMP JUMPDEST DUP1 SLOAD DUP3 LT ISZERO PUSH2 0x16C1 JUMPI PUSH1 0x0 MSTORE PUSH1 0x20 PUSH1 0x0 KECCAK256 ADD SWAP1 PUSH1 0x0 SWAP1 JUMP JUMPDEST PUSH4 0x4E487B71 PUSH1 0xE0 SHL PUSH1 0x0 MSTORE PUSH1 0x32 PUSH1 0x4 MSTORE PUSH1 0x24 PUSH1 0x0 REVERT JUMPDEST PUSH1 0x0 JUMPDEST DUP4 DUP2 LT PUSH2 0x16EA JUMPI POP POP PUSH1 0x0 SWAP2 ADD MSTORE JUMP JUMPDEST DUP2 DUP2 ADD MLOAD DUP4 DUP3 ADD MSTORE PUSH1 0x20 ADD PUSH2 0x16DA JUMP JUMPDEST SWAP1 PUSH1 0x20 SWAP2 PUSH2 0x1713 DUP2 MLOAD DUP1 SWAP3 DUP2 DUP6 MSTORE DUP6 DUP1 DUP7 ADD SWAP2 ADD PUSH2 0x16D7 JUMP JUMPDEST PUSH1 0x1F ADD PUSH1 0x1F NOT AND ADD ADD SWAP1 JUMP JUMPDEST SWAP1 PUSH1 0x8 DUP3 LT ISZERO PUSH2 0x5D9 JUMPI MSTORE JUMP JUMPDEST SWAP9 SWAP13 SWAP12 SWAP11 SWAP8 SWAP3 PUSH2 0x179A SWAP6 SWAP5 PUSH2 0x176F PUSH2 0x177D SWAP3 PUSH2 0x1761 PUSH2 0x17B6 SWAP12 SWAP7 PUSH2 0x160 SWAP16 SWAP12 SWAP7 DUP16 SWAP1 DUP2 MSTORE PUSH2 0x180 SWAP1 DUP2 PUSH1 0x20 DUP3 ADD MSTORE ADD SWAP1 PUSH2 0x16FA JUMP JUMPDEST DUP14 DUP2 SUB PUSH1 0x40 DUP16 ADD MSTORE SWAP1 PUSH2 0x16FA JUMP JUMPDEST SWAP1 DUP12 DUP3 SUB PUSH1 0x60 DUP14 ADD MSTORE PUSH2 0x16FA JUMP JUMPDEST SWAP4 PUSH1 0x80 DUP11 ADD MSTORE PUSH1 0xA0 DUP10 ADD MSTORE PUSH1 0xC0 DUP9 ADD MSTORE DUP7 DUP3 SUB PUSH1 0xE0 DUP9 ADD MSTORE PUSH2 0x16FA JUMP JUMPDEST PUSH1 0x1 PUSH1 0x1 PUSH1 0xA0 SHL SUB SWAP1 SWAP9 AND PUSH2 0x100 DUP6 ADD MSTORE PUSH2 0x120 DUP5 ADD SWAP1 PUSH2 0x171F JUMP JUMPDEST PUSH2 0x140 DUP3 ADD MSTORE ADD MSTORE JUMP JUMPDEST SWAP1 PUSH1 0x1 DUP3 DUP2 SHR SWAP3 AND DUP1 ISZERO PUSH2 0x17F0 JUMPI JUMPDEST PUSH1 0x20 DUP4 LT EQ PUSH2 0x17DA JUMPI JUMP JUMPDEST PUSH4 0x4E487B71 PUSH1 0xE0 SHL PUSH1 0x0 MSTORE PUSH1 0x22 PUSH1 0x4 MSTORE PUSH1 0x24 PUSH1 0x0 REVERT JUMPDEST SWAP2 PUSH1 0x7F AND SWAP2 PUSH2 0x17CF JUMP JUMPDEST SWAP1 PUSH1 0x40 MLOAD SWAP2 DUP3 PUSH1 0x0 DUP3 SLOAD SWAP3 PUSH2 0x180E DUP5 PUSH2 0x17C0 JUMP JUMPDEST SWAP1 DUP2 DUP5 MSTORE PUSH1 0x1 SWAP5 DUP6 DUP2 AND SWAP1 DUP2 PUSH1 0x0 EQ PUSH2 0x187D JUMPI POP PUSH1 0x1 EQ PUSH2 0x183A JUMPI JUMPDEST POP POP PUSH2 0x1838 SWAP3 POP SUB DUP4 PUSH2 0x1606 JUMP JUMPDEST JUMP JUMPDEST SWAP1 SWAP4 SWAP2 POP PUSH1 0x0 MSTORE PUSH1 0x20 SWAP1 DUP2 PUSH1 0x0 KECCAK256 SWAP4 PUSH1 0x0 SWAP2 JUMPDEST DUP2 DUP4 LT PUSH2 0x1865 JUMPI POP POP PUSH2 0x1838 SWAP4 POP DUP3 ADD ADD CODESIZE DUP1 PUSH2 0x182A JUMP JUMPDEST DUP6 SLOAD DUP9 DUP5 ADD DUP6 ADD MSTORE SWAP5 DUP6 ADD SWAP5 DUP8 SWAP5 POP SWAP2 DUP4 ADD SWAP2 PUSH2 0x184D JUMP JUMPDEST SWAP2 POP POP PUSH2 0x1838 SWAP5 POP PUSH1 0x20 SWAP3 POP PUSH1 0xFF NOT AND DUP3 DUP5 ADD MSTORE ISZERO ISZERO PUSH1 0x5 SHL DUP3 ADD ADD CODESIZE DUP1 PUSH2 0x182A JUMP JUMPDEST DUP1 PUSH1 0x0 MSTORE PUSH1 0x0 PUSH1 0x20 MSTORE PUSH1 0x40 PUSH1 0x0 KECCAK256 CALLER PUSH1 0x0 MSTORE PUSH1 0x20 MSTORE PUSH1 0xFF PUSH1 0x40 PUSH1 0x0 KECCAK256 SLOAD AND ISZERO PUSH2 0x18C6 JUMPI POP JUMP JUMPDEST PUSH1 0x44 SWAP1 PUSH1 0x40 MLOAD SWAP1 PUSH4 0xE2517D3F PUSH1 0xE0 SHL DUP3 MSTORE CALLER PUSH1 0x4 DUP4 ADD MSTORE PUSH1 0x24 DUP3 ADD MSTORE REVERT JUMPDEST SWAP1 PUSH1 0x0 SWAP2 DUP1 DUP4 MSTORE DUP3 PUSH1 0x20 MSTORE PUSH1 0x40 DUP4 KECCAK256 SWAP2 PUSH1 0x1 DUP1 PUSH1 0xA0 SHL SUB AND SWAP2 DUP3 DUP5 MSTORE PUSH1 0x20 MSTORE PUSH1 0xFF PUSH1 0x40 DUP5 KECCAK256 SLOAD AND ISZERO PUSH1 0x0 EQ PUSH2 0x195D JUMPI DUP1 DUP4 MSTORE DUP3 PUSH1 0x20 MSTORE PUSH1 0x40 DUP4 KECCAK256 DUP3 DUP5 MSTORE PUSH1 0x20 MSTORE PUSH1 0x40 DUP4 KECCAK256 PUSH1 0x1 PUSH1 0xFF NOT DUP3 SLOAD AND OR SWAP1 SSTORE PUSH32 0x2F8788117E7EFF1D82E926EC794901D17C78024A50270940304540A733656F0D CALLER SWAP4 DUP1 LOG4 PUSH1 0x1 SWAP1 JUMP JUMPDEST POP POP SWAP1 JUMP JUMPDEST SWAP1 PUSH1 0x0 SWAP2 DUP1 DUP4 MSTORE DUP3 PUSH1 0x20 MSTORE PUSH1 0x40 DUP4 KECCAK256 SWAP2 PUSH1 0x1 DUP1 PUSH1 0xA0 SHL SUB AND SWAP2 DUP3 DUP5 MSTORE PUSH1 0x20 MSTORE PUSH1 0xFF PUSH1 0x40 DUP5 KECCAK256 SLOAD AND PUSH1 0x0 EQ PUSH2 0x195D JUMPI DUP1 DUP4 MSTORE DUP3 PUSH1 0x20 MSTORE PUSH1 0x40 DUP4 KECCAK256 DUP3 DUP5 MSTORE PUSH1 0x20 MSTORE PUSH1 0x40 DUP4 KECCAK256 PUSH1 0xFF NOT DUP2 SLOAD AND SWAP1 SSTORE PUSH32 0xF6391F5C32D9C69D2A47EA670B442974B53935D1EDC7FD64EB21E047A839171B CALLER SWAP4 DUP1 LOG4 PUSH1 0x1 SWAP1 JUMP JUMPDEST PUSH1 0x0 NOT DUP2 EQ PUSH2 0x553 JUMPI PUSH1 0x1 ADD SWAP1 JUMP JUMPDEST SWAP1 DUP2 SLOAD SWAP2 PUSH9 0x10000000000000000 DUP4 LT ISZERO PUSH2 0x11BD JUMPI DUP3 PUSH2 0x4B0 SWAP2 PUSH1 0x1 PUSH2 0x1838 SWAP6 ADD DUP2 SSTORE PUSH2 0x16A9 JUMP JUMPDEST PUSH1 0xFF PUSH1 0x1 SLOAD AND PUSH2 0x1A1A JUMPI JUMP JUMPDEST PUSH1 0x40 MLOAD PUSH4 0xD93C0665 PUSH1 0xE0 SHL DUP2 MSTORE PUSH1 0x4 SWAP1 REVERT JUMPDEST ISZERO PUSH2 0x1A33 JUMPI JUMP JUMPDEST PUSH1 0x40 MLOAD PUSH3 0x461BCD PUSH1 0xE5 SHL DUP2 MSTORE PUSH1 0x20 PUSH1 0x4 DUP3 ADD MSTORE PUSH1 0x14 PUSH1 0x24 DUP3 ADD MSTORE PUSH20 0x10985D18DA08191BD95CC81B9BDD08195E1A5CDD PUSH1 0x62 SHL PUSH1 0x44 DUP3 ADD MSTORE PUSH1 0x64 SWAP1 REVERT JUMPDEST PUSH1 0x8 DUP1 DUP3 LT ISZERO PUSH2 0x5D9 JUMPI DUP2 ISZERO PUSH2 0x1B58 JUMPI PUSH1 0x1 DUP3 EQ PUSH2 0x1B37 JUMPI PUSH1 0x2 DUP3 EQ PUSH2 0x1AFA JUMPI PUSH1 0x3 DUP3 EQ PUSH2 0x1ADA JUMPI PUSH1 0x4 DUP3 EQ PUSH2 0x1AD2 JUMPI PUSH1 0x5 DUP3 EQ PUSH2 0x1AC3 JUMPI PUSH1 0x6 DUP3 EQ PUSH2 0x1AC3 JUMPI POP PUSH1 0x7 SWAP2 POP EQ PUSH2 0x1ABE JUMPI PUSH1 0x0 SWAP1 JUMP JUMPDEST PUSH1 0x0 SWAP1 JUMP JUMPDEST SWAP1 POP DUP2 LT ISZERO PUSH2 0x5D9 JUMPI PUSH1 0x7 EQ SWAP1 JUMP JUMPDEST POP POP POP PUSH1 0x0 SWAP1 JUMP JUMPDEST SWAP1 POP DUP2 LT ISZERO PUSH2 0x5D9 JUMPI PUSH1 0x4 DUP2 EQ SWAP1 DUP2 ISZERO PUSH2 0x1AF2 JUMPI POP SWAP1 JUMP JUMPDEST PUSH1 0x5 SWAP2 POP EQ SWAP1 JUMP JUMPDEST SWAP1 POP DUP2 LT ISZERO SWAP1 DUP2 PUSH2 0x5D9 JUMPI PUSH1 0x1 DUP2 EQ SWAP2 DUP3 ISZERO PUSH2 0x1B29 JUMPI JUMPDEST DUP3 ISZERO PUSH2 0x1B1C JUMPI POP POP SWAP1 JUMP JUMPDEST SWAP1 SWAP2 POP PUSH2 0x5D9 JUMPI PUSH1 0x5 EQ SWAP1 JUMP JUMPDEST POP PUSH1 0x3 DUP2 EQ SWAP2 POP PUSH1 0x0 PUSH2 0x1B11 JUMP JUMPDEST SWAP1 POP DUP2 LT ISZERO SWAP1 DUP2 PUSH2 0x5D9 JUMPI PUSH1 0x2 DUP2 EQ SWAP2 DUP3 ISZERO PUSH2 0x1B29 JUMPI DUP3 ISZERO PUSH2 0x1B1C JUMPI POP POP SWAP1 JUMP JUMPDEST SWAP1 POP DUP2 LT ISZERO SWAP1 DUP2 PUSH2 0x5D9 JUMPI PUSH1 0x1 DUP2 EQ SWAP2 DUP3 ISZERO PUSH2 0x1B87 JUMPI JUMPDEST DUP3 ISZERO PUSH2 0x1B7A JUMPI POP POP SWAP1 JUMP JUMPDEST SWAP1 SWAP2 POP PUSH2 0x5D9 JUMPI PUSH1 0x7 EQ SWAP1 JUMP JUMPDEST POP PUSH1 0x5 DUP2 EQ SWAP2 POP PUSH1 0x0 PUSH2 0x1B6F JUMP INVALID LOG2 PUSH5 0x6970667358 0x22 SLT KECCAK256 0xC9 SELFBALANCE PUSH18 0x67CFF9F686C57D12D197AB69A54F7BDF60A EQ LOG1 0xDE SWAP3 0xBD 0x4A 0x49 0xC0 0x21 SWAP13 0xAA PUSH5 0x736F6C6343 STOP ADDMOD EQ STOP CALLER 0x2F DUP8 DUP9 GT PUSH31 0x7EFF1D82E926EC794901D17C78024A50270940304540A733656F0D00000000 "},"methodIdentifiers":{"ADMIN_ROLE()":"75b238fc","DEFAULT_ADMIN_ROLE()":"a217fddf","DISTRIBUTOR_ROLE()":"f0bd87cc","INSPECTOR_ROLE()":"e3a3c522","MANUFACTURER_ROLE()":"965288b0","PHARMACY_ROLE()":"f0c58ea7","batchNumberToId(string)":"f652c911","batches(uint256)":"b32c4d8d","createBatch(string,string,string,uint256,uint256,uint256,string)":"0e36b333","getBatch(uint256)":"5ac44282","getRoleAdmin(bytes32)":"248a9ca3","getTotalBatches()":"e561dddc","getUserBatches(address)":"d913a08b","grantRole(bytes32,address)":"2f2ff15d","hasRole(bytes32,address)":"91d14854","paused()":"5c975abb","renounceRole(bytes32,address)":"36568abe","revokeRole(bytes32,address)":"d547741f","supportsInterface(bytes4)":"01ffc9a7","transferBatch(uint256,address,string)":"c12bcaec","updateBatchStatus(uint256,uint8,string)":"1f18fd3d","userBatches(address,uint256)":"475d1ba3"}}}}}