{"contracts/SensorDataContract.sol":{"SensorDataContract":{"abi":[{"inputs":[{"internalType":"int256","name":"_minTempMilliC","type":"int256"},{"internalType":"int256","name":"_maxTempMilliC","type":"int256"},{"internalType":"uint256","name":"_maxHumidityPermille","type":"uint256"},{"internalType":"address","name":"admin","type":"address"}],"stateMutability":"nonpayable","type":"constructor"},{"inputs":[],"name":"BadInput","type":"error"},{"inputs":[],"name":"NotAuthorized","type":"error"},{"anonymous":false,"inputs":[{"indexed":false,"internalType":"int256","name":"minTemp","type":"int256"},{"indexed":false,"internalType":"int256","name":"maxTemp","type":"int256"},{"indexed":false,"internalType":"uint256","name":"maxHumidity","type":"uint256"}],"name":"ConstraintsUpdated","type":"event"},{"anonymous":false,"inputs":[{"indexed":true,"internalType":"bytes32","name":"role","type":"bytes32"},{"indexed":true,"internalType":"bytes32","name":"previousAdminRole","type":"bytes32"},{"indexed":true,"internalType":"bytes32","name":"newAdminRole","type":"bytes32"}],"name":"RoleAdminChanged","type":"event"},{"anonymous":false,"inputs":[{"indexed":true,"internalType":"bytes32","name":"role","type":"bytes32"},{"indexed":true,"internalType":"address","name":"account","type":"address"},{"indexed":true,"internalType":"address","name":"sender","type":"address"}],"name":"RoleGranted","type":"event"},{"anonymous":false,"inputs":[{"indexed":true,"internalType":"bytes32","name":"role","type":"bytes32"},{"indexed":true,"internalType":"address","name":"account","type":"address"},{"indexed":true,"internalType":"address","name":"sender","type":"address"}],"name":"RoleRevoked","type":"event"},{"anonymous":false,"inputs":[{"indexed":true,"internalType":"uint256","name":"batchId","type":"uint256"},{"indexed":false,"internalType":"int256","name":"temperatureMilliC","type":"int256"},{"indexed":false,"internalType":"uint256","name":"humidityPermille","type":"uint256"},{"indexed":false,"internalType":"string","name":"location","type":"string"},{"indexed":false,"internalType":"uint256","name":"timestamp","type":"uint256"},{"indexed":false,"internalType":"bool","name":"valid","type":"bool"}],"name":"TelemetryRecorded","type":"event"},{"inputs":[],"name":"DATA_REVIEWER_ROLE","outputs":[{"internalType":"bytes32","name":"","type":"bytes32"}],"stateMutability":"view","type":"function"},{"inputs":[],"name":"DATA_WRITER_ROLE","outputs":[{"internalType":"bytes32","name":"","type":"bytes32"}],"stateMutability":"view","type":"function"},{"inputs":[],"name":"DEFAULT_ADMIN_ROLE","outputs":[{"internalType":"bytes32","name":"","type":"bytes32"}],"stateMutability":"view","type":"function"},{"inputs":[{"internalType":"uint256","name":"batchId","type":"uint256"},{"internalType":"uint256","name":"index","type":"uint256"}],"name":"getByIndex","outputs":[{"components":[{"internalType":"int256","name":"temperatureMilliC","type":"int256"},{"internalType":"uint256","name":"humidityPermille","type":"uint256"},{"internalType":"string","name":"location","type":"string"},{"internalType":"uint256","name":"timestamp","type":"uint256"},{"internalType":"bool","name":"valid","type":"bool"}],"internalType":"struct SensorDataContract.Telemetry","name":"","type":"tuple"}],"stateMutability":"view","type":"function"},{"inputs":[{"internalType":"uint256","name":"batchId","type":"uint256"}],"name":"getHistoryLength","outputs":[{"internalType":"uint256","name":"","type":"uint256"}],"stateMutability":"view","type":"function"},{"inputs":[{"internalType":"uint256","name":"batchId","type":"uint256"}],"name":"getLatest","outputs":[{"components":[{"internalType":"int256","name":"temperatureMilliC","type":"int256"},{"internalType":"uint256","name":"humidityPermille","type":"uint256"},{"internalType":"string","name":"location","type":"string"},{"internalType":"uint256","name":"timestamp","type":"uint256"},{"internalType":"bool","name":"valid","type":"bool"}],"internalType":"struct SensorDataContract.Telemetry","name":"","type":"tuple"}],"stateMutability":"view","type":"function"},{"inputs":[{"internalType":"bytes32","name":"role","type":"bytes32"}],"name":"getRoleAdmin","outputs":[{"internalType":"bytes32","name":"","type":"bytes32"}],"stateMutability":"view","type":"function"},{"inputs":[{"internalType":"bytes32","name":"role","type":"bytes32"},{"internalType":"address","name":"account","type":"address"}],"name":"grantRole","outputs":[],"stateMutability":"nonpayable","type":"function"},{"inputs":[{"internalType":"bytes32","name":"role","type":"bytes32"},{"internalType":"address","name":"account","type":"address"}],"name":"hasRole","outputs":[{"internalType":"bool","name":"","type":"bool"}],"stateMutability":"view","type":"function"},{"inputs":[],"name":"maxHumidityPermille","outputs":[{"internalType":"uint256","name":"","type":"uint256"}],"stateMutability":"view","type":"function"},{"inputs":[],"name":"maxTemperatureMilliC","outputs":[{"internalType":"int256","name":"","type":"int256"}],"stateMutability":"view","type":"function"},{"inputs":[],"name":"minTemperatureMilliC","outputs":[{"internalType":"int256","name":"","type":"int256"}],"stateMutability":"view","type":"function"},{"inputs":[{"internalType":"uint256","name":"batchId","type":"uint256"},{"internalType":"int256","name":"temperatureMilliC","type":"int256"},{"internalType":"uint256","name":"humidityPermille","type":"uint256"},{"internalType":"string","name":"location","type":"string"},{"internalType":"uint256","name":"timestamp","type":"uint256"}],"name":"recordTelemetry","outputs":[],"stateMutability":"nonpayable","type":"function"},{"inputs":[{"internalType":"bytes32","name":"role","type":"bytes32"},{"internalType":"address","name":"account","type":"address"}],"name":"renounceRole","outputs":[],"stateMutability":"nonpayable","type":"function"},{"inputs":[{"internalType":"bytes32","name":"role","type":"bytes32"},{"internalType":"address","name":"account","type":"address"}],"name":"revokeRole","outputs":[],"stateMutability":"nonpayable","type":"function"},{"inputs":[{"internalType":"int256","name":"_minTempMilliC","type":"int256"},{"internalType":"int256","name":"_maxTempMilliC","type":"int256"},{"internalType":"uint256","name":"_maxHumidityPermille","type":"uint256"}],"name":"setConstraints","outputs":[],"stateMutability":"nonpayable","type":"function"},{"inputs":[{"internalType":"bytes4","name":"interfaceId","type":"bytes4"}],"name":"supportsInterface","outputs":[{"internalType":"bool","name":"","type":"bool"}],"stateMutability":"view","type":"function"}],"evm":{"bytecode":{"linkReferences":{},"object":"6080346101ba57601f6200150938819003918201601f191683019291906001600160401b038411838510176101bf5781608092849260409687528339810103126101ba578051602091828101516060858301519201519260018060a01b0384168094036101ba5781811215610189576103e8831161015a57600155600255600355600091828052828152838320828452815260ff848420541615610123575b7fe1c225ea3da961320343e207953f9f6cebdb4fbe5d57613f06c614aede11870e90818452838152848420838552815260ff8585205416156100ea575b84516113139081620001d68239f35b8184528381528484209083855252838320600160ff19825416179055600080516020620014e9833981519152339380a4388080806100db565b8280528281528383208284528152838320805460ff19166001179055338284600080516020620014e98339815191528180a461009e565b855162461bcd60e51b815260048101869052600860248201526768756d696469747960c01b6044820152606490fd5b855162461bcd60e51b815260048101869052600a60248201526974656d702072616e676560b01b6044820152606490fd5b600080fd5b634e487b7160e01b600052604160045260246000fdfe608080604052600436101561001357600080fd5b60003560e01c90816301ffc9a714610cec5750806303117eb514610cb1578063248a9ca314610c825780632f2ff15d14610bdc57806333495dd314610b5f57806336568abe14610adb5780633ab74a2c14610abd5780633c0c68fa146107fd5780634dbf1fd81461077557806391d1485414610734578063a217fddf14610718578063b008bdcc146101b5578063b38fe06b14610189578063d547741f14610156578063e7d2599114610138578063eac3c2d71461011a5763f73e0dfd146100da57600080fd5b346101155760003660031901126101155760206040517fe1c225ea3da961320343e207953f9f6cebdb4fbe5d57613f06c614aede11870e8152f35b600080fd5b34610115576000366003190112610115576020600154604051908152f35b34610115576000366003190112610115576020600354604051908152f35b346101155761018761016736610d3f565b90806000526000602052610182600160406000200154610df2565b610fff565b005b346101155760203660031901126101155760043560005260046020526020604060002054604051908152f35b346101155760a03660031901126101155767ffffffffffffffff60643511610115573660236064350112156101155767ffffffffffffffff60643560040135116101155736602460643560040135606435010111610115573360009081527fa8b5639d66194b38c1c0a40f4650bd5d793c054987d01952a8927e01c615b26460205260409020547f5751aa34d29fd25fdb4ef9998449c81f936f0ffd0e014d19375a2ea4fb39d1f69060ff161561056157606435600401351561054f576103e86044351161054f5761028b6044356024356111a6565b6084356105465742905b604051916102a283610fa5565b602435835260443560208401526040516102cc6020601f19601f6064356004013501160182610fdd565b60643560048101358083529060240160208301376000602060643560040135830101526040840152606083015280151560808301526004356000526004602052604060002080546801000000000000000081101561051a5761033391600182018155611150565b919091610530578251825560208301516001830155604083015192835167ffffffffffffffff811161051a5761036c600285015461116c565b601f81116104d3575b506020601f8211600114610464578192939495600092610459575b50508160011b916000199060031b1c19161760028401555b6080600460608301519485600382015501910151151560ff80198354169116179055604051916024358352604435602084015260a060408401526064356004013560a08401526064356004013560246064350160c0850137600060c060643560040135850101526060830152151560808201527fd9cd9d5a97aa9cb40205669b0f3d6b364b29c9b8eabaad6adac1be77a65edf4b6004359160c081601f19601f6064356004013501168101030190a2005b015190508580610390565b6002850160005260206000209060005b601f19841681106104bb575060019394959683601f198116106104a2575b505050811b0160028401556103a8565b015160001960f88460031b161c19169055858080610492565b9091602060018192858b015181550193019101610474565b600285016000526020600020601f830160051c810160208410610513575b601f830160051c82018110610507575050610375565b600081556001016104f1565b50806104f1565b634e487b7160e01b600052604160045260246000fd5b634e487b7160e01b600052600060045260246000fd5b60843590610295565b604051632bb9acf760e01b8152600490fd5b61056a33611085565b6040519161057783610fc1565b60428352602083019060603683378351156107025760308253835160019081101561070257607860218601536041905b8082116106a857505061066457604861063192610640926106609560405195869376020b1b1b2b9b9a1b7b73a3937b61d1030b1b1b7bab73a1604d1b60208601526105fc815180926020603789019101610d65565b8401917f206973206d697373696e6720726f6c6520000000000000000000000000000000603784015251809386840190610d65565b01036028810184520182610fdd565b60405162461bcd60e51b8152602060048201529182916024830190610d88565b0390fd5b606460405162461bcd60e51b815260206004820152602060248201527f537472696e67733a20686578206c656e67746820696e73756666696369656e746044820152fd5b9091600f81166010811015610702576f181899199a1a9b1b9c1cb0b131b232b360811b901a6106d78488611074565b5360041c9180156106ec5760001901906105a7565b634e487b7160e01b600052601160045260246000fd5b634e487b7160e01b600052603260045260246000fd5b3461011557600036600319011261011557602060405160008152f35b346101155761074236610d3f565b9060005260006020526001600160a01b0360406000209116600052602052602060ff604060002054166040519015158152f35b34610115576040366003190112610115576024356107916111d6565b50600435600052600460205260406000209081548110156107d2576107bc6107c2916107ce93611150565b50611202565b60405191829182610dad565b0390f35b60405162461bcd60e51b815260206004820152600360248201526237b7b160e91b6044820152606490fd5b34610115576060366003190112610115573360009081527f8e999bfac7f96eec04874d0a49fbb49f49452293093263197c0307682f803315602090815260409091205460249160043591604435918435917fe1c225ea3da961320343e207953f9f6cebdb4fbe5d57613f06c614aede11870e9060ff161561092c5750818412156108fc576103e883116108ce579183916060937fa4ef6a4df4704bc9b84164f7db9462534d35aff6a366f8fce309bd2b84ad18229560015581600255826003556040519384528301526040820152a1005b6064906008866040519262461bcd60e51b845260048401528201526768756d696469747960c01b6044820152fd5b606490600a866040519262461bcd60e51b845260048401528201526974656d702072616e676560b01b6044820152fd5b85925061093833611085565b9060405161094581610fc1565b60428152838101916060368437815115610aa857603083538151600190811015610a9357607860218401536041905b808211610a255750506109e357604861066093610631936109c79360405195869376020b1b1b2b9b9a1b7b73a3937b61d1030b1b1b7bab73a1604d1b8a8601526105fc815180928c603789019101610d65565b60405193849362461bcd60e51b85526004850152830190610d88565b606485856040519162461bcd60e51b83528160048401528201527f537472696e67733a20686578206c656e67746820696e73756666696369656e746044820152fd5b9091600f81166010811015610a7e576f181899199a1a9b1b9c1cb0b131b232b360811b901a610a548486611074565b5360041c918015610a69576000190190610974565b87634e487b7160e01b60005260116004526000fd5b88634e487b7160e01b60005260326004526000fd5b86634e487b7160e01b60005260326004526000fd5b85634e487b7160e01b60005260326004526000fd5b34610115576000366003190112610115576020600254604051908152f35b3461011557610ae936610d3f565b336001600160a01b03821603610b025761018791610fff565b60405162461bcd60e51b815260206004820152602f60248201527f416363657373436f6e74726f6c3a2063616e206f6e6c792072656e6f756e636560448201526e103937b632b9903337b91039b2b63360891b6064820152608490fd5b3461011557602036600319011261011557610b786111d6565b506004356000526004602052604060002080548015610bad5760001981019081116106ec576107bc6107c2916107ce93611150565b60405162461bcd60e51b81526020600482015260076024820152666e6f206461746160c81b6044820152606490fd5b3461011557610bea36610d3f565b816000526000602052610c04600160406000200154610df2565b8160005260006020526001600160a01b0360406000209116908160005260205260ff6040600020541615610c3457005b8160005260006020526040600020816000526020526040600020600160ff1982541617905533917f2f8788117e7eff1d82e926ec794901d17c78024a50270940304540a733656f0d600080a4005b346101155760203660031901126101155760043560005260006020526020600160406000200154604051908152f35b346101155760003660031901126101155760206040517f5751aa34d29fd25fdb4ef9998449c81f936f0ffd0e014d19375a2ea4fb39d1f68152f35b34610115576020366003190112610115576004359063ffffffff60e01b821680920361011557602091637965db0b60e01b8114908115610d2e575b5015158152f35b6301ffc9a760e01b14905083610d27565b604090600319011261011557600435906024356001600160a01b03811681036101155790565b60005b838110610d785750506000910152565b8181015183820152602001610d68565b90602091610da181518092818552858086019101610d65565b601f01601f1916010190565b60208152815160208201526020820151604082015260a06080610dde604085015183606086015260c0850190610d88565b936060810151828501520151151591015290565b600090808252602090828252604092838120338252835260ff848220541615610e1b5750505050565b610e2433611085565b91845190610e3182610fc1565b60428252848201926060368537825115610f915760308453825190600191821015610f915790607860218501536041915b818311610f2357505050610ee1576048610660938693610ec593610eb6985198899376020b1b1b2b9b9a1b7b73a3937b61d1030b1b1b7bab73a1604d1b8a8601526105fc815180928c603789019101610d65565b01036028810187520185610fdd565b5192839262461bcd60e51b845260048401526024830190610d88565b60648486519062461bcd60e51b825280600483015260248201527f537472696e67733a20686578206c656e67746820696e73756666696369656e746044820152fd5b909192600f81166010811015610f7d576f181899199a1a9b1b9c1cb0b131b232b360811b901a610f538587611074565b5360041c928015610f6957600019019190610e62565b634e487b7160e01b82526011600452602482fd5b634e487b7160e01b83526032600452602483fd5b634e487b7160e01b81526032600452602490fd5b60a0810190811067ffffffffffffffff82111761051a57604052565b6080810190811067ffffffffffffffff82111761051a57604052565b90601f8019910116810190811067ffffffffffffffff82111761051a57604052565b90600091808352826020526001600160a01b036040842092169182845260205260ff60408420541661103057505050565b80835282602052604083208284526020526040832060ff1981541690557ff6391f5c32d9c69d2a47ea670b442974b53935d1edc7fd64eb21e047a839171b339380a4565b908151811015610702570160200190565b604051906060820182811067ffffffffffffffff82111761051a57604052602a82526020820160403682378251156107025760309053815160019081101561070257607860218401536029905b8082116110e25750506106645790565b9091600f8116601081101561113b576f181899199a1a9b1b9c1cb0b131b232b360811b901a6111118486611074565b5360041c9180156111265760001901906110d2565b60246000634e487b7160e01b81526011600452fd5b60246000634e487b7160e01b81526032600452fd5b8054821015610702576000526005602060002091020190600090565b90600182811c9216801561119c575b602083101461118657565b634e487b7160e01b600052602260045260246000fd5b91607f169161117b565b60015481126111cf57600254126111c957600354106111c457600190565b600090565b50600090565b5050600090565b604051906111e382610fa5565b6000608083828152826020820152606060408201528260608201520152565b9060405161120f81610fa5565b809280548252600180820154906020918285015260028301916040519260009281549161123b8361116c565b808752928281169081156112bc5750600114611283575b505050506080928261126a60ff946004940382610fdd565b6040860152600381015460608601520154161515910152565b6000908152838120939450925b8284106112a957505050820101828261126a60ff611252565b8054868501860152928401928101611290565b60ff191685880152505050151560051b8301019050828261126a60ff61125256fea26469706673582212209f761fcbc3a66bb746e302fa3870039ccb1737a199abf42361b7503f76c4e5a664736f6c634300081300332f8788117e7eff1d82e926ec794901d17c78024a50270940304540a733656f0d","opcodes":"PUSH1 0x80 CALLVALUE PUSH2 0x1BA JUMPI PUSH1 0x1F PUSH3 0x1509 CODESIZE DUP2 SWAP1 SUB SWAP2 DUP3 ADD PUSH1 0x1F NOT AND DUP4 ADD SWAP3 SWAP2 SWAP1 PUSH1 0x1 PUSH1 0x1 PUSH1 0x40 SHL SUB DUP5 GT DUP4 DUP6 LT OR PUSH2 0x1BF JUMPI DUP2 PUSH1 0x80 SWAP3 DUP5 SWAP3 PUSH1 0x40 SWAP7 DUP8 MSTORE DUP4 CODECOPY DUP2 ADD SUB SLT PUSH2 0x1BA JUMPI DUP1 MLOAD PUSH1 0x20 SWAP2 DUP3 DUP2 ADD MLOAD PUSH1 0x60 DUP6 DUP4 ADD MLOAD SWAP3 ADD MLOAD SWAP3 PUSH1 0x1 DUP1 PUSH1 0xA0 SHL SUB DUP5 AND DUP1 SWAP5 SUB PUSH2 0x1BA JUMPI DUP2 DUP2 SLT ISZERO PUSH2 0x189 JUMPI PUSH2 0x3E8 DUP4 GT PUSH2 0x15A JUMPI PUSH1 0x1 SSTORE PUSH1 0x2 SSTORE PUSH1 0x3 SSTORE PUSH1 0x0 SWAP2 DUP3 DUP1 MSTORE DUP3 DUP2 MSTORE DUP4 DUP4 KECCAK256 DUP3 DUP5 MSTORE DUP2 MSTORE PUSH1 0xFF DUP5 DUP5 KECCAK256 SLOAD AND ISZERO PUSH2 0x123 JUMPI JUMPDEST PUSH32 0xE1C225EA3DA961320343E207953F9F6CEBDB4FBE5D57613F06C614AEDE11870E SWAP1 DUP2 DUP5 MSTORE DUP4 DUP2 MSTORE DUP5 DUP5 KECCAK256 DUP4 DUP6 MSTORE DUP2 MSTORE PUSH1 0xFF DUP6 DUP6 KECCAK256 SLOAD AND ISZERO PUSH2 0xEA JUMPI JUMPDEST DUP5 MLOAD PUSH2 0x1313 SWAP1 DUP2 PUSH3 0x1D6 DUP3 CODECOPY RETURN JUMPDEST DUP2 DUP5 MSTORE DUP4 DUP2 MSTORE DUP5 DUP5 KECCAK256 SWAP1 DUP4 DUP6 MSTORE MSTORE DUP4 DUP4 KECCAK256 PUSH1 0x1 PUSH1 0xFF NOT DUP3 SLOAD AND OR SWAP1 SSTORE PUSH1 0x0 DUP1 MLOAD PUSH1 0x20 PUSH3 0x14E9 DUP4 CODECOPY DUP2 MLOAD SWAP2 MSTORE CALLER SWAP4 DUP1 LOG4 CODESIZE DUP1 DUP1 DUP1 PUSH2 0xDB JUMP JUMPDEST DUP3 DUP1 MSTORE DUP3 DUP2 MSTORE DUP4 DUP4 KECCAK256 DUP3 DUP5 MSTORE DUP2 MSTORE DUP4 DUP4 KECCAK256 DUP1 SLOAD PUSH1 0xFF NOT AND PUSH1 0x1 OR SWAP1 SSTORE CALLER DUP3 DUP5 PUSH1 0x0 DUP1 MLOAD PUSH1 0x20 PUSH3 0x14E9 DUP4 CODECOPY DUP2 MLOAD SWAP2 MSTORE DUP2 DUP1 LOG4 PUSH2 0x9E JUMP JUMPDEST DUP6 MLOAD PUSH3 0x461BCD PUSH1 0xE5 SHL DUP2 MSTORE PUSH1 0x4 DUP2 ADD DUP7 SWAP1 MSTORE PUSH1 0x8 PUSH1 0x24 DUP3 ADD MSTORE PUSH8 0x68756D6964697479 PUSH1 0xC0 SHL PUSH1 0x44 DUP3 ADD MSTORE PUSH1 0x64 SWAP1 REVERT JUMPDEST DUP6 MLOAD PUSH3 0x461BCD PUSH1 0xE5 SHL DUP2 MSTORE PUSH1 0x4 DUP2 ADD DUP7 SWAP1 MSTORE PUSH1 0xA PUSH1 0x24 DUP3 ADD MSTORE PUSH10 0x74656D702072616E6765 PUSH1 0xB0 SHL PUSH1 0x44 DUP3 ADD MSTORE PUSH1 0x64 SWAP1 REVERT JUMPDEST PUSH1 0x0 DUP1 REVERT JUMPDEST PUSH4 0x4E487B71 PUSH1 0xE0 SHL PUSH1 0x0 MSTORE PUSH1 0x41 PUSH1 0x4 MSTORE PUSH1 0x24 PUSH1 0x0 REVERT INVALID PUSH1 0x80 DUP1 PUSH1 0x40 MSTORE PUSH1 0x4 CALLDATASIZE LT ISZERO PUSH2 0x13 JUMPI PUSH1 0x0 DUP1 REVERT JUMPDEST PUSH1 0x0 CALLDATALOAD PUSH1 0xE0 SHR SWAP1 DUP2 PUSH4 0x1FFC9A7 EQ PUSH2 0xCEC JUMPI POP DUP1 PUSH4 0x3117EB5 EQ PUSH2 0xCB1 JUMPI DUP1 PUSH4 0x248A9CA3 EQ PUSH2 0xC82 JUMPI DUP1 PUSH4 0x2F2FF15D EQ PUSH2 0xBDC JUMPI DUP1 PUSH4 0x33495DD3 EQ PUSH2 0xB5F JUMPI DUP1 PUSH4 0x36568ABE EQ PUSH2 0xADB JUMPI DUP1 PUSH4 0x3AB74A2C EQ PUSH2 0xABD JUMPI DUP1 PUSH4 0x3C0C68FA EQ PUSH2 0x7FD JUMPI DUP1 PUSH4 0x4DBF1FD8 EQ PUSH2 0x775 JUMPI DUP1 PUSH4 0x91D14854 EQ PUSH2 0x734 JUMPI DUP1 PUSH4 0xA217FDDF EQ PUSH2 0x718 JUMPI DUP1 PUSH4 0xB008BDCC EQ PUSH2 0x1B5 JUMPI DUP1 PUSH4 0xB38FE06B EQ PUSH2 0x189 JUMPI DUP1 PUSH4 0xD547741F EQ PUSH2 0x156 JUMPI DUP1 PUSH4 0xE7D25991 EQ PUSH2 0x138 JUMPI DUP1 PUSH4 0xEAC3C2D7 EQ PUSH2 0x11A JUMPI PUSH4 0xF73E0DFD EQ PUSH2 0xDA JUMPI PUSH1 0x0 DUP1 REVERT JUMPDEST CALLVALUE PUSH2 0x115 JUMPI PUSH1 0x0 CALLDATASIZE PUSH1 0x3 NOT ADD SLT PUSH2 0x115 JUMPI PUSH1 0x20 PUSH1 0x40 MLOAD PUSH32 0xE1C225EA3DA961320343E207953F9F6CEBDB4FBE5D57613F06C614AEDE11870E DUP2 MSTORE RETURN JUMPDEST PUSH1 0x0 DUP1 REVERT JUMPDEST CALLVALUE PUSH2 0x115 JUMPI PUSH1 0x0 CALLDATASIZE PUSH1 0x3 NOT ADD SLT PUSH2 0x115 JUMPI PUSH1 0x20 PUSH1 0x1 SLOAD PUSH1 0x40 MLOAD SWAP1 DUP2 MSTORE RETURN JUMPDEST CALLVALUE PUSH2 0x115 JUMPI PUSH1 0x0 CALLDATASIZE PUSH1 0x3 NOT ADD SLT PUSH2 0x115 JUMPI PUSH1 0x20 PUSH1 0x3 SLOAD PUSH1 0x40 MLOAD SWAP1 DUP2 MSTORE RETURN JUMPDEST CALLVALUE PUSH2 0x115 JUMPI PUSH2 0x187 PUSH2 0x167 CALLDATASIZE PUSH2 0xD3F JUMP JUMPDEST SWAP1 DUP1 PUSH1 0x0 MSTORE PUSH1 0x0 PUSH1 0x20 MSTORE PUSH2 0x182 PUSH1 0x1 PUSH1 0x40 PUSH1 0x0 KECCAK256 ADD SLOAD PUSH2 0xDF2 JUMP JUMPDEST PUSH2 0xFFF JUMP JUMPDEST STOP JUMPDEST CALLVALUE PUSH2 0x115 JUMPI PUSH1 0x20 CALLDATASIZE PUSH1 0x3 NOT ADD SLT PUSH2 0x115 JUMPI PUSH1 0x4 CALLDATALOAD PUSH1 0x0 MSTORE PUSH1 0x4 PUSH1 0x20 MSTORE PUSH1 0x20 PUSH1 0x40 PUSH1 0x0 KECCAK256 SLOAD PUSH1 0x40 MLOAD SWAP1 DUP2 MSTORE RETURN JUMPDEST CALLVALUE PUSH2 0x115 JUMPI PUSH1 0xA0 CALLDATASIZE PUSH1 0x3 NOT ADD SLT PUSH2 0x115 JUMPI PUSH8 0xFFFFFFFFFFFFFFFF PUSH1 0x64 CALLDATALOAD GT PUSH2 0x115 JUMPI CALLDATASIZE PUSH1 0x23 PUSH1 0x64 CALLDATALOAD ADD SLT ISZERO PUSH2 0x115 JUMPI PUSH8 0xFFFFFFFFFFFFFFFF PUSH1 0x64 CALLDATALOAD PUSH1 0x4 ADD CALLDATALOAD GT PUSH2 0x115 JUMPI CALLDATASIZE PUSH1 0x24 PUSH1 0x64 CALLDATALOAD PUSH1 0x4 ADD CALLDATALOAD PUSH1 0x64 CALLDATALOAD ADD ADD GT PUSH2 0x115 JUMPI CALLER PUSH1 0x0 SWAP1 DUP2 MSTORE PUSH32 0xA8B5639D66194B38C1C0A40F4650BD5D793C054987D01952A8927E01C615B264 PUSH1 0x20 MSTORE PUSH1 0x40 SWAP1 KECCAK256 SLOAD PUSH32 0x5751AA34D29FD25FDB4EF9998449C81F936F0FFD0E014D19375A2EA4FB39D1F6 SWAP1 PUSH1 0xFF AND ISZERO PUSH2 0x561 JUMPI PUSH1 0x64 CALLDATALOAD PUSH1 0x4 ADD CALLDATALOAD ISZERO PUSH2 0x54F JUMPI PUSH2 0x3E8 PUSH1 0x44 CALLDATALOAD GT PUSH2 0x54F JUMPI PUSH2 0x28B PUSH1 0x44 CALLDATALOAD PUSH1 0x24 CALLDATALOAD PUSH2 0x11A6 JUMP JUMPDEST PUSH1 0x84 CALLDATALOAD PUSH2 0x546 JUMPI TIMESTAMP SWAP1 JUMPDEST PUSH1 0x40 MLOAD SWAP2 PUSH2 0x2A2 DUP4 PUSH2 0xFA5 JUMP JUMPDEST PUSH1 0x24 CALLDATALOAD DUP4 MSTORE PUSH1 0x44 CALLDATALOAD PUSH1 0x20 DUP5 ADD MSTORE PUSH1 0x40 MLOAD PUSH2 0x2CC PUSH1 0x20 PUSH1 0x1F NOT PUSH1 0x1F PUSH1 0x64 CALLDATALOAD PUSH1 0x4 ADD CALLDATALOAD ADD AND ADD DUP3 PUSH2 0xFDD JUMP JUMPDEST PUSH1 0x64 CALLDATALOAD PUSH1 0x4 DUP2 ADD CALLDATALOAD DUP1 DUP4 MSTORE SWAP1 PUSH1 0x24 ADD PUSH1 0x20 DUP4 ADD CALLDATACOPY PUSH1 0x0 PUSH1 0x20 PUSH1 0x64 CALLDATALOAD PUSH1 0x4 ADD CALLDATALOAD DUP4 ADD ADD MSTORE PUSH1 0x40 DUP5 ADD MSTORE PUSH1 0x60 DUP4 ADD MSTORE DUP1 ISZERO ISZERO PUSH1 0x80 DUP4 ADD MSTORE PUSH1 0x4 CALLDATALOAD PUSH1 0x0 MSTORE PUSH1 0x4 PUSH1 0x20 MSTORE PUSH1 0x40 PUSH1 0x0 KECCAK256 DUP1 SLOAD PUSH9 0x10000000000000000 DUP2 LT ISZERO PUSH2 0x51A JUMPI PUSH2 0x333 SWAP2 PUSH1 0x1 DUP3 ADD DUP2 SSTORE PUSH2 0x1150 JUMP JUMPDEST SWAP2 SWAP1 SWAP2 PUSH2 0x530 JUMPI DUP3 MLOAD DUP3 SSTORE PUSH1 0x20 DUP4 ADD MLOAD PUSH1 0x1 DUP4 ADD SSTORE PUSH1 0x40 DUP4 ADD MLOAD SWAP3 DUP4 MLOAD PUSH8 0xFFFFFFFFFFFFFFFF DUP2 GT PUSH2 0x51A JUMPI PUSH2 0x36C PUSH1 0x2 DUP6 ADD SLOAD PUSH2 0x116C JUMP JUMPDEST PUSH1 0x1F DUP2 GT PUSH2 0x4D3 JUMPI JUMPDEST POP PUSH1 0x20 PUSH1 0x1F DUP3 GT PUSH1 0x1 EQ PUSH2 0x464 JUMPI DUP2 SWAP3 SWAP4 SWAP5 SWAP6 PUSH1 0x0 SWAP3 PUSH2 0x459 JUMPI JUMPDEST POP POP DUP2 PUSH1 0x1 SHL SWAP2 PUSH1 0x0 NOT SWAP1 PUSH1 0x3 SHL SHR NOT AND OR PUSH1 0x2 DUP5 ADD SSTORE JUMPDEST PUSH1 0x80 PUSH1 0x4 PUSH1 0x60 DUP4 ADD MLOAD SWAP5 DUP6 PUSH1 0x3 DUP3 ADD SSTORE ADD SWAP2 ADD MLOAD ISZERO ISZERO PUSH1 0xFF DUP1 NOT DUP4 SLOAD AND SWAP2 AND OR SWAP1 SSTORE PUSH1 0x40 MLOAD SWAP2 PUSH1 0x24 CALLDATALOAD DUP4 MSTORE PUSH1 0x44 CALLDATALOAD PUSH1 0x20 DUP5 ADD MSTORE PUSH1 0xA0 PUSH1 0x40 DUP5 ADD MSTORE PUSH1 0x64 CALLDATALOAD PUSH1 0x4 ADD CALLDATALOAD PUSH1 0xA0 DUP5 ADD MSTORE PUSH1 0x64 CALLDATALOAD PUSH1 0x4 ADD CALLDATALOAD PUSH1 0x24 PUSH1 0x64 CALLDATALOAD ADD PUSH1 0xC0 DUP6 ADD CALLDATACOPY PUSH1 0x0 PUSH1 0xC0 PUSH1 0x64 CALLDATALOAD PUSH1 0x4 ADD CALLDATALOAD DUP6 ADD ADD MSTORE PUSH1 0x60 DUP4 ADD MSTORE ISZERO ISZERO PUSH1 0x80 DUP3 ADD MSTORE PUSH32 0xD9CD9D5A97AA9CB40205669B0F3D6B364B29C9B8EABAAD6ADAC1BE77A65EDF4B PUSH1 0x4 CALLDATALOAD SWAP2 PUSH1 0xC0 DUP2 PUSH1 0x1F NOT PUSH1 0x1F PUSH1 0x64 CALLDATALOAD PUSH1 0x4 ADD CALLDATALOAD ADD AND DUP2 ADD SUB ADD SWAP1 LOG2 STOP JUMPDEST ADD MLOAD SWAP1 POP DUP6 DUP1 PUSH2 0x390 JUMP JUMPDEST PUSH1 0x2 DUP6 ADD PUSH1 0x0 MSTORE PUSH1 0x20 PUSH1 0x0 KECCAK256 SWAP1 PUSH1 0x0 JUMPDEST PUSH1 0x1F NOT DUP5 AND DUP2 LT PUSH2 0x4BB JUMPI POP PUSH1 0x1 SWAP4 SWAP5 SWAP6 SWAP7 DUP4 PUSH1 0x1F NOT DUP2 AND LT PUSH2 0x4A2 JUMPI JUMPDEST POP POP POP DUP2 SHL ADD PUSH1 0x2 DUP5 ADD SSTORE PUSH2 0x3A8 JUMP JUMPDEST ADD MLOAD PUSH1 0x0 NOT PUSH1 0xF8 DUP5 PUSH1 0x3 SHL AND SHR NOT AND SWAP1 SSTORE DUP6 DUP1 DUP1 PUSH2 0x492 JUMP JUMPDEST SWAP1 SWAP2 PUSH1 0x20 PUSH1 0x1 DUP2 SWAP3 DUP6 DUP12 ADD MLOAD DUP2 SSTORE ADD SWAP4 ADD SWAP2 ADD PUSH2 0x474 JUMP JUMPDEST PUSH1 0x2 DUP6 ADD PUSH1 0x0 MSTORE PUSH1 0x20 PUSH1 0x0 KECCAK256 PUSH1 0x1F DUP4 ADD PUSH1 0x5 SHR DUP2 ADD PUSH1 0x20 DUP5 LT PUSH2 0x513 JUMPI JUMPDEST PUSH1 0x1F DUP4 ADD PUSH1 0x5 SHR DUP3 ADD DUP2 LT PUSH2 0x507 JUMPI POP POP PUSH2 0x375 JUMP JUMPDEST PUSH1 0x0 DUP2 SSTORE PUSH1 0x1 ADD PUSH2 0x4F1 JUMP JUMPDEST POP DUP1 PUSH2 0x4F1 JUMP JUMPDEST PUSH4 0x4E487B71 PUSH1 0xE0 SHL PUSH1 0x0 MSTORE PUSH1 0x41 PUSH1 0x4 MSTORE PUSH1 0x24 PUSH1 0x0 REVERT JUMPDEST PUSH4 0x4E487B71 PUSH1 0xE0 SHL PUSH1 0x0 MSTORE PUSH1 0x0 PUSH1 0x4 MSTORE PUSH1 0x24 PUSH1 0x0 REVERT JUMPDEST PUSH1 0x84 CALLDATALOAD SWAP1 PUSH2 0x295 JUMP JUMPDEST PUSH1 0x40 MLOAD PUSH4 0x2BB9ACF7 PUSH1 0xE0 SHL DUP2 MSTORE PUSH1 0x4 SWAP1 REVERT JUMPDEST PUSH2 0x56A CALLER PUSH2 0x1085 JUMP JUMPDEST PUSH1 0x40 MLOAD SWAP2 PUSH2 0x577 DUP4 PUSH2 0xFC1 JUMP JUMPDEST PUSH1 0x42 DUP4 MSTORE PUSH1 0x20 DUP4 ADD SWAP1 PUSH1 0x60 CALLDATASIZE DUP4 CALLDATACOPY DUP4 MLOAD ISZERO PUSH2 0x702 JUMPI PUSH1 0x30 DUP3 MSTORE8 DUP4 MLOAD PUSH1 0x1 SWAP1 DUP2 LT ISZERO PUSH2 0x702 JUMPI PUSH1 0x78 PUSH1 0x21 DUP7 ADD MSTORE8 PUSH1 0x41 SWAP1 JUMPDEST DUP1 DUP3 GT PUSH2 0x6A8 JUMPI POP POP PUSH2 0x664 JUMPI PUSH1 0x48 PUSH2 0x631 SWAP3 PUSH2 0x640 SWAP3 PUSH2 0x660 SWAP6 PUSH1 0x40 MLOAD SWAP6 DUP7 SWAP4 PUSH23 0x20B1B1B2B9B9A1B7B73A3937B61D1030B1B1B7BAB73A1 PUSH1 0x4D SHL PUSH1 0x20 DUP7 ADD MSTORE PUSH2 0x5FC DUP2 MLOAD DUP1 SWAP3 PUSH1 0x20 PUSH1 0x37 DUP10 ADD SWAP2 ADD PUSH2 0xD65 JUMP JUMPDEST DUP5 ADD SWAP2 PUSH32 0x206973206D697373696E6720726F6C6520000000000000000000000000000000 PUSH1 0x37 DUP5 ADD MSTORE MLOAD DUP1 SWAP4 DUP7 DUP5 ADD SWAP1 PUSH2 0xD65 JUMP JUMPDEST ADD SUB PUSH1 0x28 DUP2 ADD DUP5 MSTORE ADD DUP3 PUSH2 0xFDD JUMP JUMPDEST PUSH1 0x40 MLOAD PUSH3 0x461BCD PUSH1 0xE5 SHL DUP2 MSTORE PUSH1 0x20 PUSH1 0x4 DUP3 ADD MSTORE SWAP2 DUP3 SWAP2 PUSH1 0x24 DUP4 ADD SWAP1 PUSH2 0xD88 JUMP JUMPDEST SUB SWAP1 REVERT JUMPDEST PUSH1 0x64 PUSH1 0x40 MLOAD PUSH3 0x461BCD PUSH1 0xE5 SHL DUP2 MSTORE PUSH1 0x20 PUSH1 0x4 DUP3 ADD MSTORE PUSH1 0x20 PUSH1 0x24 DUP3 ADD MSTORE PUSH32 0x537472696E67733A20686578206C656E67746820696E73756666696369656E74 PUSH1 0x44 DUP3 ADD MSTORE REVERT JUMPDEST SWAP1 SWAP2 PUSH1 0xF DUP2 AND PUSH1 0x10 DUP2 LT ISZERO PUSH2 0x702 JUMPI PUSH16 0x181899199A1A9B1B9C1CB0B131B232B3 PUSH1 0x81 SHL SWAP1 BYTE PUSH2 0x6D7 DUP5 DUP9 PUSH2 0x1074 JUMP JUMPDEST MSTORE8 PUSH1 0x4 SHR SWAP2 DUP1 ISZERO PUSH2 0x6EC JUMPI PUSH1 0x0 NOT ADD SWAP1 PUSH2 0x5A7 JUMP JUMPDEST PUSH4 0x4E487B71 PUSH1 0xE0 SHL PUSH1 0x0 MSTORE PUSH1 0x11 PUSH1 0x4 MSTORE PUSH1 0x24 PUSH1 0x0 REVERT JUMPDEST PUSH4 0x4E487B71 PUSH1 0xE0 SHL PUSH1 0x0 MSTORE PUSH1 0x32 PUSH1 0x4 MSTORE PUSH1 0x24 PUSH1 0x0 REVERT JUMPDEST CALLVALUE PUSH2 0x115 JUMPI PUSH1 0x0 CALLDATASIZE PUSH1 0x3 NOT ADD SLT PUSH2 0x115 JUMPI PUSH1 0x20 PUSH1 0x40 MLOAD PUSH1 0x0 DUP2 MSTORE RETURN JUMPDEST CALLVALUE PUSH2 0x115 JUMPI PUSH2 0x742 CALLDATASIZE PUSH2 0xD3F JUMP JUMPDEST SWAP1 PUSH1 0x0 MSTORE PUSH1 0x0 PUSH1 0x20 MSTORE PUSH1 0x1 PUSH1 0x1 PUSH1 0xA0 SHL SUB PUSH1 0x40 PUSH1 0x0 KECCAK256 SWAP2 AND PUSH1 0x0 MSTORE PUSH1 0x20 MSTORE PUSH1 0x20 PUSH1 0xFF PUSH1 0x40 PUSH1 0x0 KECCAK256 SLOAD AND PUSH1 0x40 MLOAD SWAP1 ISZERO ISZERO DUP2 MSTORE RETURN JUMPDEST CALLVALUE PUSH2 0x115 JUMPI PUSH1 0x40 CALLDATASIZE PUSH1 0x3 NOT ADD SLT PUSH2 0x115 JUMPI PUSH1 0x24 CALLDATALOAD PUSH2 0x791 PUSH2 0x11D6 JUMP JUMPDEST POP PUSH1 0x4 CALLDATALOAD PUSH1 0x0 MSTORE PUSH1 0x4 PUSH1 0x20 MSTORE PUSH1 0x40 PUSH1 0x0 KECCAK256 SWAP1 DUP2 SLOAD DUP2 LT ISZERO PUSH2 0x7D2 JUMPI PUSH2 0x7BC PUSH2 0x7C2 SWAP2 PUSH2 0x7CE SWAP4 PUSH2 0x1150 JUMP JUMPDEST POP PUSH2 0x1202 JUMP JUMPDEST PUSH1 0x40 MLOAD SWAP2 DUP3 SWAP2 DUP3 PUSH2 0xDAD JUMP JUMPDEST SUB SWAP1 RETURN JUMPDEST PUSH1 0x40 MLOAD PUSH3 0x461BCD PUSH1 0xE5 SHL DUP2 MSTORE PUSH1 0x20 PUSH1 0x4 DUP3 ADD MSTORE PUSH1 0x3 PUSH1 0x24 DUP3 ADD MSTORE PUSH3 0x37B7B1 PUSH1 0xE9 SHL PUSH1 0x44 DUP3 ADD MSTORE PUSH1 0x64 SWAP1 REVERT JUMPDEST CALLVALUE PUSH2 0x115 JUMPI PUSH1 0x60 CALLDATASIZE PUSH1 0x3 NOT ADD SLT PUSH2 0x115 JUMPI CALLER PUSH1 0x0 SWAP1 DUP2 MSTORE PUSH32 0x8E999BFAC7F96EEC04874D0A49FBB49F49452293093263197C0307682F803315 PUSH1 0x20 SWAP1 DUP2 MSTORE PUSH1 0x40 SWAP1 SWAP2 KECCAK256 SLOAD PUSH1 0x24 SWAP2 PUSH1 0x4 CALLDATALOAD SWAP2 PUSH1 0x44 CALLDATALOAD SWAP2 DUP5 CALLDATALOAD SWAP2 PUSH32 0xE1C225EA3DA961320343E207953F9F6CEBDB4FBE5D57613F06C614AEDE11870E SWAP1 PUSH1 0xFF AND ISZERO PUSH2 0x92C JUMPI POP DUP2 DUP5 SLT ISZERO PUSH2 0x8FC JUMPI PUSH2 0x3E8 DUP4 GT PUSH2 0x8CE JUMPI SWAP2 DUP4 SWAP2 PUSH1 0x60 SWAP4 PUSH32 0xA4EF6A4DF4704BC9B84164F7DB9462534D35AFF6A366F8FCE309BD2B84AD1822 SWAP6 PUSH1 0x1 SSTORE DUP2 PUSH1 0x2 SSTORE DUP3 PUSH1 0x3 SSTORE PUSH1 0x40 MLOAD SWAP4 DUP5 MSTORE DUP4 ADD MSTORE PUSH1 0x40 DUP3 ADD MSTORE LOG1 STOP JUMPDEST PUSH1 0x64 SWAP1 PUSH1 0x8 DUP7 PUSH1 0x40 MLOAD SWAP3 PUSH3 0x461BCD PUSH1 0xE5 SHL DUP5 MSTORE PUSH1 0x4 DUP5 ADD MSTORE DUP3 ADD MSTORE PUSH8 0x68756D6964697479 PUSH1 0xC0 SHL PUSH1 0x44 DUP3 ADD MSTORE REVERT JUMPDEST PUSH1 0x64 SWAP1 PUSH1 0xA DUP7 PUSH1 0x40 MLOAD SWAP3 PUSH3 0x461BCD PUSH1 0xE5 SHL DUP5 MSTORE PUSH1 0x4 DUP5 ADD MSTORE DUP3 ADD MSTORE PUSH10 0x74656D702072616E6765 PUSH1 0xB0 SHL PUSH1 0x44 DUP3 ADD MSTORE REVERT JUMPDEST DUP6 SWAP3 POP PUSH2 0x938 CALLER PUSH2 0x1085 JUMP JUMPDEST SWAP1 PUSH1 0x40 MLOAD PUSH2 0x945 DUP2 PUSH2 0xFC1 JUMP JUMPDEST PUSH1 0x42 DUP2 MSTORE DUP4 DUP2 ADD SWAP2 PUSH1 0x60 CALLDATASIZE DUP5 CALLDATACOPY DUP2 MLOAD ISZERO PUSH2 0xAA8 JUMPI PUSH1 0x30 DUP4 MSTORE8 DUP2 MLOAD PUSH1 0x1 SWAP1 DUP2 LT ISZERO PUSH2 0xA93 JUMPI PUSH1 0x78 PUSH1 0x21 DUP5 ADD MSTORE8 PUSH1 0x41 SWAP1 JUMPDEST DUP1 DUP3 GT PUSH2 0xA25 JUMPI POP POP PUSH2 0x9E3 JUMPI PUSH1 0x48 PUSH2 0x660 SWAP4 PUSH2 0x631 SWAP4 PUSH2 0x9C7 SWAP4 PUSH1 0x40 MLOAD SWAP6 DUP7 SWAP4 PUSH23 0x20B1B1B2B9B9A1B7B73A3937B61D1030B1B1B7BAB73A1 PUSH1 0x4D SHL DUP11 DUP7 ADD MSTORE PUSH2 0x5FC DUP2 MLOAD DUP1 SWAP3 DUP13 PUSH1 0x37 DUP10 ADD SWAP2 ADD PUSH2 0xD65 JUMP JUMPDEST PUSH1 0x40 MLOAD SWAP4 DUP5 SWAP4 PUSH3 0x461BCD PUSH1 0xE5 SHL DUP6 MSTORE PUSH1 0x4 DUP6 ADD MSTORE DUP4 ADD SWAP1 PUSH2 0xD88 JUMP JUMPDEST PUSH1 0x64 DUP6 DUP6 PUSH1 0x40 MLOAD SWAP2 PUSH3 0x461BCD PUSH1 0xE5 SHL DUP4 MSTORE DUP2 PUSH1 0x4 DUP5 ADD MSTORE DUP3 ADD MSTORE PUSH32 0x537472696E67733A20686578206C656E67746820696E73756666696369656E74 PUSH1 0x44 DUP3 ADD MSTORE REVERT JUMPDEST SWAP1 SWAP2 PUSH1 0xF DUP2 AND PUSH1 0x10 DUP2 LT ISZERO PUSH2 0xA7E JUMPI PUSH16 0x181899199A1A9B1B9C1CB0B131B232B3 PUSH1 0x81 SHL SWAP1 BYTE PUSH2 0xA54 DUP5 DUP7 PUSH2 0x1074 JUMP JUMPDEST MSTORE8 PUSH1 0x4 SHR SWAP2 DUP1 ISZERO PUSH2 0xA69 JUMPI PUSH1 0x0 NOT ADD SWAP1 PUSH2 0x974 JUMP JUMPDEST DUP8 PUSH4 0x4E487B71 PUSH1 0xE0 SHL PUSH1 0x0 MSTORE PUSH1 0x11 PUSH1 0x4 MSTORE PUSH1 0x0 REVERT JUMPDEST DUP9 PUSH4 0x4E487B71 PUSH1 0xE0 SHL PUSH1 0x0 MSTORE PUSH1 0x32 PUSH1 0x4 MSTORE PUSH1 0x0 REVERT JUMPDEST DUP7 PUSH4 0x4E487B71 PUSH1 0xE0 SHL PUSH1 0x0 MSTORE PUSH1 0x32 PUSH1 0x4 MSTORE PUSH1 0x0 REVERT JUMPDEST DUP6 PUSH4 0x4E487B71 PUSH1 0xE0 SHL PUSH1 0x0 MSTORE PUSH1 0x32 PUSH1 0x4 MSTORE PUSH1 0x0 REVERT JUMPDEST CALLVALUE PUSH2 0x115 JUMPI PUSH1 0x0 CALLDATASIZE PUSH1 0x3 NOT ADD SLT PUSH2 0x115 JUMPI PUSH1 0x20 PUSH1 0x2 SLOAD PUSH1 0x40 MLOAD SWAP1 DUP2 MSTORE RETURN JUMPDEST CALLVALUE PUSH2 0x115 JUMPI PUSH2 0xAE9 CALLDATASIZE PUSH2 0xD3F JUMP JUMPDEST CALLER PUSH1 0x1 PUSH1 0x1 PUSH1 0xA0 SHL SUB DUP3 AND SUB PUSH2 0xB02 JUMPI PUSH2 0x187 SWAP2 PUSH2 0xFFF JUMP JUMPDEST PUSH1 0x40 MLOAD PUSH3 0x461BCD PUSH1 0xE5 SHL DUP2 MSTORE PUSH1 0x20 PUSH1 0x4 DUP3 ADD MSTORE PUSH1 0x2F PUSH1 0x24 DUP3 ADD MSTORE PUSH32 0x416363657373436F6E74726F6C3A2063616E206F6E6C792072656E6F756E6365 PUSH1 0x44 DUP3 ADD MSTORE PUSH15 0x103937B632B9903337B91039B2B633 PUSH1 0x89 SHL PUSH1 0x64 DUP3 ADD MSTORE PUSH1 0x84 SWAP1 REVERT JUMPDEST CALLVALUE PUSH2 0x115 JUMPI PUSH1 0x20 CALLDATASIZE PUSH1 0x3 NOT ADD SLT PUSH2 0x115 JUMPI PUSH2 0xB78 PUSH2 0x11D6 JUMP JUMPDEST POP PUSH1 0x4 CALLDATALOAD PUSH1 0x0 MSTORE PUSH1 0x4 PUSH1 0x20 MSTORE PUSH1 0x40 PUSH1 0x0 KECCAK256 DUP1 SLOAD DUP1 ISZERO PUSH2 0xBAD JUMPI PUSH1 0x0 NOT DUP2 ADD SWAP1 DUP2 GT PUSH2 0x6EC JUMPI PUSH2 0x7BC PUSH2 0x7C2 SWAP2 PUSH2 0x7CE SWAP4 PUSH2 0x1150 JUMP JUMPDEST PUSH1 0x40 MLOAD PUSH3 0x461BCD PUSH1 0xE5 SHL DUP2 MSTORE PUSH1 0x20 PUSH1 0x4 DUP3 ADD MSTORE PUSH1 0x7 PUSH1 0x24 DUP3 ADD MSTORE PUSH7 0x6E6F2064617461 PUSH1 0xC8 SHL PUSH1 0x44 DUP3 ADD MSTORE PUSH1 0x64 SWAP1 REVERT JUMPDEST CALLVALUE PUSH2 0x115 JUMPI PUSH2 0xBEA CALLDATASIZE PUSH2 0xD3F JUMP JUMPDEST DUP2 PUSH1 0x0 MSTORE PUSH1 0x0 PUSH1 0x20 MSTORE PUSH2 0xC04 PUSH1 0x1 PUSH1 0x40 PUSH1 0x0 KECCAK256 ADD SLOAD PUSH2 0xDF2 JUMP JUMPDEST DUP2 PUSH1 0x0 MSTORE PUSH1 0x0 PUSH1 0x20 MSTORE PUSH1 0x1 PUSH1 0x1 PUSH1 0xA0 SHL SUB PUSH1 0x40 PUSH1 0x0 KECCAK256 SWAP2 AND SWAP1 DUP2 PUSH1 0x0 MSTORE PUSH1 0x20 MSTORE PUSH1 0xFF PUSH1 0x40 PUSH1 0x0 KECCAK256 SLOAD AND ISZERO PUSH2 0xC34 JUMPI STOP JUMPDEST DUP2 PUSH1 0x0 MSTORE PUSH1 0x0 PUSH1 0x20 MSTORE PUSH1 0x40 PUSH1 0x0 KECCAK256 DUP2 PUSH1 0x0 MSTORE PUSH1 0x20 MSTORE PUSH1 0x40 PUSH1 0x0 KECCAK256 PUSH1 0x1 PUSH1 0xFF NOT DUP3 SLOAD AND OR SWAP1 SSTORE CALLER SWAP2 PUSH32 0x2F8788117E7EFF1D82E926EC794901D17C78024A50270940304540A733656F0D PUSH1 0x0 DUP1 LOG4 STOP JUMPDEST CALLVALUE PUSH2 0x115 JUMPI PUSH1 0x20 CALLDATASIZE PUSH1 0x3 NOT ADD SLT PUSH2 0x115 JUMPI PUSH1 0x4 CALLDATALOAD PUSH1 0x0 MSTORE PUSH1 0x0 PUSH1 0x20 MSTORE PUSH1 0x20 PUSH1 0x1 PUSH1 0x40 PUSH1 0x0 KECCAK256 ADD SLOAD PUSH1 0x40 MLOAD SWAP1 DUP2 MSTORE RETURN JUMPDEST CALLVALUE PUSH2 0x115 JUMPI PUSH1 0x0 CALLDATASIZE PUSH1 0x3 NOT ADD SLT PUSH2 0x115 JUMPI PUSH1 0x20 PUSH1 0x40 MLOAD PUSH32 0x5751AA34D29FD25FDB4EF9998449C81F936F0FFD0E014D19375A2EA4FB39D1F6 DUP2 MSTORE RETURN JUMPDEST CALLVALUE PUSH2 0x115 JUMPI PUSH1 0x20 CALLDATASIZE PUSH1 0x3 NOT ADD SLT PUSH2 0x115 JUMPI PUSH1 0x4 CALLDATALOAD SWAP1 PUSH4 0xFFFFFFFF PUSH1 0xE0 SHL DUP3 AND DUP1 SWAP3 SUB PUSH2 0x115 JUMPI PUSH1 0x20 SWAP2 PUSH4 0x7965DB0B PUSH1 0xE0 SHL DUP2 EQ SWAP1 DUP2 ISZERO PUSH2 0xD2E JUMPI JUMPDEST POP ISZERO ISZERO DUP2 MSTORE RETURN JUMPDEST PUSH4 0x1FFC9A7 PUSH1 0xE0 SHL EQ SWAP1 POP DUP4 PUSH2 0xD27 JUMP JUMPDEST PUSH1 0x40 SWAP1 PUSH1 0x3 NOT ADD SLT PUSH2 0x115 JUMPI PUSH1 0x4 CALLDATALOAD SWAP1 PUSH1 0x24 CALLDATALOAD PUSH1 0x1 PUSH1 0x1 PUSH1 0xA0 SHL SUB DUP2 AND DUP2 SUB PUSH2 0x115 JUMPI SWAP1 JUMP JUMPDEST PUSH1 0x0 JUMPDEST DUP4 DUP2 LT PUSH2 0xD78 JUMPI POP POP PUSH1 0x0 SWAP2 ADD MSTORE JUMP JUMPDEST DUP2 DUP2 ADD MLOAD DUP4 DUP3 ADD MSTORE PUSH1 0x20 ADD PUSH2 0xD68 JUMP JUMPDEST SWAP1 PUSH1 0x20 SWAP2 PUSH2 0xDA1 DUP2 MLOAD DUP1 SWAP3 DUP2 DUP6 MSTORE DUP6 DUP1 DUP7 ADD SWAP2 ADD PUSH2 0xD65 JUMP JUMPDEST PUSH1 0x1F ADD PUSH1 0x1F NOT AND ADD ADD SWAP1 JUMP JUMPDEST PUSH1 0x20 DUP2 MSTORE DUP2 MLOAD PUSH1 0x20 DUP3 ADD MSTORE PUSH1 0x20 DUP3 ADD MLOAD PUSH1 0x40 DUP3 ADD MSTORE PUSH1 0xA0 PUSH1 0x80 PUSH2 0xDDE PUSH1 0x40 DUP6 ADD MLOAD DUP4 PUSH1 0x60 DUP7 ADD MSTORE PUSH1 0xC0 DUP6 ADD SWAP1 PUSH2 0xD88 JUMP JUMPDEST SWAP4 PUSH1 0x60 DUP2 ADD MLOAD DUP3 DUP6 ADD MSTORE ADD MLOAD ISZERO ISZERO SWAP2 ADD MSTORE SWAP1 JUMP JUMPDEST PUSH1 0x0 SWAP1 DUP1 DUP3 MSTORE PUSH1 0x20 SWAP1 DUP3 DUP3 MSTORE PUSH1 0x40 SWAP3 DUP4 DUP2 KECCAK256 CALLER DUP3 MSTORE DUP4 MSTORE PUSH1 0xFF DUP5 DUP3 KECCAK256 SLOAD AND ISZERO PUSH2 0xE1B JUMPI POP POP POP POP JUMP JUMPDEST PUSH2 0xE24 CALLER PUSH2 0x1085 JUMP JUMPDEST SWAP2 DUP5 MLOAD SWAP1 PUSH2 0xE31 DUP3 PUSH2 0xFC1 JUMP JUMPDEST PUSH1 0x42 DUP3 MSTORE DUP5 DUP3 ADD SWAP3 PUSH1 0x60 CALLDATASIZE DUP6 CALLDATACOPY DUP3 MLOAD ISZERO PUSH2 0xF91 JUMPI PUSH1 0x30 DUP5 MSTORE8 DUP3 MLOAD SWAP1 PUSH1 0x1 SWAP2 DUP3 LT ISZERO PUSH2 0xF91 JUMPI SWAP1 PUSH1 0x78 PUSH1 0x21 DUP6 ADD MSTORE8 PUSH1 0x41 SWAP2 JUMPDEST DUP2 DUP4 GT PUSH2 0xF23 JUMPI POP POP POP PUSH2 0xEE1 JUMPI PUSH1 0x48 PUSH2 0x660 SWAP4 DUP7 SWAP4 PUSH2 0xEC5 SWAP4 PUSH2 0xEB6 SWAP9 MLOAD SWAP9 DUP10 SWAP4 PUSH23 0x20B1B1B2B9B9A1B7B73A3937B61D1030B1B1B7BAB73A1 PUSH1 0x4D SHL DUP11 DUP7 ADD MSTORE PUSH2 0x5FC DUP2 MLOAD DUP1 SWAP3 DUP13 PUSH1 0x37 DUP10 ADD SWAP2 ADD PUSH2 0xD65 JUMP JUMPDEST ADD SUB PUSH1 0x28 DUP2 ADD DUP8 MSTORE ADD DUP6 PUSH2 0xFDD JUMP JUMPDEST MLOAD SWAP3 DUP4 SWAP3 PUSH3 0x461BCD PUSH1 0xE5 SHL DUP5 MSTORE PUSH1 0x4 DUP5 ADD MSTORE PUSH1 0x24 DUP4 ADD SWAP1 PUSH2 0xD88 JUMP JUMPDEST PUSH1 0x64 DUP5 DUP7 MLOAD SWAP1 PUSH3 0x461BCD PUSH1 0xE5 SHL DUP3 MSTORE DUP1 PUSH1 0x4 DUP4 ADD MSTORE PUSH1 0x24 DUP3 ADD MSTORE PUSH32 0x537472696E67733A20686578206C656E67746820696E73756666696369656E74 PUSH1 0x44 DUP3 ADD MSTORE REVERT JUMPDEST SWAP1 SWAP2 SWAP3 PUSH1 0xF DUP2 AND PUSH1 0x10 DUP2 LT ISZERO PUSH2 0xF7D JUMPI PUSH16 0x181899199A1A9B1B9C1CB0B131B232B3 PUSH1 0x81 SHL SWAP1 BYTE PUSH2 0xF53 DUP6 DUP8 PUSH2 0x1074 JUMP JUMPDEST MSTORE8 PUSH1 0x4 SHR SWAP3 DUP1 ISZERO PUSH2 0xF69 JUMPI PUSH1 0x0 NOT ADD SWAP2 SWAP1 PUSH2 0xE62 JUMP JUMPDEST PUSH4 0x4E487B71 PUSH1 0xE0 SHL DUP3 MSTORE PUSH1 0x11 PUSH1 0x4 MSTORE PUSH1 0x24 DUP3 REVERT JUMPDEST PUSH4 0x4E487B71 PUSH1 0xE0 SHL DUP4 MSTORE PUSH1 0x32 PUSH1 0x4 MSTORE PUSH1 0x24 DUP4 REVERT JUMPDEST PUSH4 0x4E487B71 PUSH1 0xE0 SHL DUP2 MSTORE PUSH1 0x32 PUSH1 0x4 MSTORE PUSH1 0x24 SWAP1 REVERT JUMPDEST PUSH1 0xA0 DUP2 ADD SWAP1 DUP2 LT PUSH8 0xFFFFFFFFFFFFFFFF DUP3 GT OR PUSH2 0x51A JUMPI PUSH1 0x40 MSTORE JUMP JUMPDEST PUSH1 0x80 DUP2 ADD SWAP1 DUP2 LT PUSH8 0xFFFFFFFFFFFFFFFF DUP3 GT OR PUSH2 0x51A JUMPI PUSH1 0x40 MSTORE JUMP JUMPDEST SWAP1 PUSH1 0x1F DUP1 NOT SWAP2 ADD AND DUP2 ADD SWAP1 DUP2 LT PUSH8 0xFFFFFFFFFFFFFFFF DUP3 GT OR PUSH2 0x51A JUMPI PUSH1 0x40 MSTORE JUMP JUMPDEST SWAP1 PUSH1 0x0 SWAP2 DUP1 DUP4 MSTORE DUP3 PUSH1 0x20 MSTORE PUSH1 0x1 PUSH1 0x1 PUSH1 0xA0 SHL SUB PUSH1 0x40 DUP5 KECCAK256 SWAP3 AND SWAP2 DUP3 DUP5 MSTORE PUSH1 0x20 MSTORE PUSH1 0xFF PUSH1 0x40 DUP5 KECCAK256 SLOAD AND PUSH2 0x1030 JUMPI POP POP POP JUMP JUMPDEST DUP1 DUP4 MSTORE DUP3 PUSH1 0x20 MSTORE PUSH1 0x40 DUP4 KECCAK256 DUP3 DUP5 MSTORE PUSH1 0x20 MSTORE PUSH1 0x40 DUP4 KECCAK256 PUSH1 0xFF NOT DUP2 SLOAD AND SWAP1 SSTORE PUSH32 0xF6391F5C32D9C69D2A47EA670B442974B53935D1EDC7FD64EB21E047A839171B CALLER SWAP4 DUP1 LOG4 JUMP JUMPDEST SWAP1 DUP2 MLOAD DUP2 LT ISZERO PUSH2 0x702 JUMPI ADD PUSH1 0x20 ADD SWAP1 JUMP JUMPDEST PUSH1 0x40 MLOAD SWAP1 PUSH1 0x60 DUP3 ADD DUP3 DUP2 LT PUSH8 0xFFFFFFFFFFFFFFFF DUP3 GT OR PUSH2 0x51A JUMPI PUSH1 0x40 MSTORE PUSH1 0x2A DUP3 MSTORE PUSH1 0x20 DUP3 ADD PUSH1 0x40 CALLDATASIZE DUP3 CALLDATACOPY DUP3 MLOAD ISZERO PUSH2 0x702 JUMPI PUSH1 0x30 SWAP1 MSTORE8 DUP2 MLOAD PUSH1 0x1 SWAP1 DUP2 LT ISZERO PUSH2 0x702 JUMPI PUSH1 0x78 PUSH1 0x21 DUP5 ADD MSTORE8 PUSH1 0x29 SWAP1 JUMPDEST DUP1 DUP3 GT PUSH2 0x10E2 JUMPI POP POP PUSH2 0x664 JUMPI SWAP1 JUMP JUMPDEST SWAP1 SWAP2 PUSH1 0xF DUP2 AND PUSH1 0x10 DUP2 LT ISZERO PUSH2 0x113B JUMPI PUSH16 0x181899199A1A9B1B9C1CB0B131B232B3 PUSH1 0x81 SHL SWAP1 BYTE PUSH2 0x1111 DUP5 DUP7 PUSH2 0x1074 JUMP JUMPDEST MSTORE8 PUSH1 0x4 SHR SWAP2 DUP1 ISZERO PUSH2 0x1126 JUMPI PUSH1 0x0 NOT ADD SWAP1 PUSH2 0x10D2 JUMP JUMPDEST PUSH1 0x24 PUSH1 0x0 PUSH4 0x4E487B71 PUSH1 0xE0 SHL DUP2 MSTORE PUSH1 0x11 PUSH1 0x4 MSTORE REVERT JUMPDEST PUSH1 0x24 PUSH1 0x0 PUSH4 0x4E487B71 PUSH1 0xE0 SHL DUP2 MSTORE PUSH1 0x32 PUSH1 0x4 MSTORE REVERT JUMPDEST DUP1 SLOAD DUP3 LT ISZERO PUSH2 0x702 JUMPI PUSH1 0x0 MSTORE PUSH1 0x5 PUSH1 0x20 PUSH1 0x0 KECCAK256 SWAP2 MUL ADD SWAP1 PUSH1 0x0 SWAP1 JUMP JUMPDEST SWAP1 PUSH1 0x1 DUP3 DUP2 SHR SWAP3 AND DUP1 ISZERO PUSH2 0x119C JUMPI JUMPDEST PUSH1 0x20 DUP4 LT EQ PUSH2 0x1186 JUMPI JUMP JUMPDEST PUSH4 0x4E487B71 PUSH1 0xE0 SHL PUSH1 0x0 MSTORE PUSH1 0x22 PUSH1 0x4 MSTORE PUSH1 0x24 PUSH1 0x0 REVERT JUMPDEST SWAP2 PUSH1 0x7F AND SWAP2 PUSH2 0x117B JUMP JUMPDEST PUSH1 0x1 SLOAD DUP2 SLT PUSH2 0x11CF JUMPI PUSH1 0x2 SLOAD SLT PUSH2 0x11C9 JUMPI PUSH1 0x3 SLOAD LT PUSH2 0x11C4 JUMPI PUSH1 0x1 SWAP1 JUMP JUMPDEST PUSH1 0x0 SWAP1 JUMP JUMPDEST POP PUSH1 0x0 SWAP1 JUMP JUMPDEST POP POP PUSH1 0x0 SWAP1 JUMP JUMPDEST PUSH1 0x40 MLOAD SWAP1 PUSH2 0x11E3 DUP3 PUSH2 0xFA5 JUMP JUMPDEST PUSH1 0x0 PUSH1 0x80 DUP4 DUP3 DUP2 MSTORE DUP3 PUSH1 0x20 DUP3 ADD MSTORE PUSH1 0x60 PUSH1 0x40 DUP3 ADD MSTORE DUP3 PUSH1 0x60 DUP3 ADD MSTORE ADD MSTORE JUMP JUMPDEST SWAP1 PUSH1 0x40 MLOAD PUSH2 0x120F DUP2 PUSH2 0xFA5 JUMP JUMPDEST DUP1 SWAP3 DUP1 SLOAD DUP3 MSTORE PUSH1 0x1 DUP1 DUP3 ADD SLOAD SWAP1 PUSH1 0x20 SWAP2 DUP3 DUP6 ADD MSTORE PUSH1 0x2 DUP4 ADD SWAP2 PUSH1 0x40 MLOAD SWAP3 PUSH1 0x0 SWAP3 DUP2 SLOAD SWAP2 PUSH2 0x123B DUP4 PUSH2 0x116C JUMP JUMPDEST DUP1 DUP8 MSTORE SWAP3 DUP3 DUP2 AND SWAP1 DUP2 ISZERO PUSH2 0x12BC JUMPI POP PUSH1 0x1 EQ PUSH2 0x1283 JUMPI JUMPDEST POP POP POP POP PUSH1 0x80 SWAP3 DUP3 PUSH2 0x126A PUSH1 0xFF SWAP5 PUSH1 0x4 SWAP5 SUB DUP3 PUSH2 0xFDD JUMP JUMPDEST PUSH1 0x40 DUP7 ADD MSTORE PUSH1 0x3 DUP2 ADD SLOAD PUSH1 0x60 DUP7 ADD MSTORE ADD SLOAD AND ISZERO ISZERO SWAP2 ADD MSTORE JUMP JUMPDEST PUSH1 0x0 SWAP1 DUP2 MSTORE DUP4 DUP2 KECCAK256 SWAP4 SWAP5 POP SWAP3 JUMPDEST DUP3 DUP5 LT PUSH2 0x12A9 JUMPI POP POP POP DUP3 ADD ADD DUP3 DUP3 PUSH2 0x126A PUSH1 0xFF PUSH2 0x1252 JUMP JUMPDEST DUP1 SLOAD DUP7 DUP6 ADD DUP7 ADD MSTORE SWAP3 DUP5 ADD SWAP3 DUP2 ADD PUSH2 0x1290 JUMP JUMPDEST PUSH1 0xFF NOT AND DUP6 DUP9 ADD MSTORE POP POP POP ISZERO ISZERO PUSH1 0x5 SHL DUP4 ADD ADD SWAP1 POP DUP3 DUP3 PUSH2 0x126A PUSH1 0xFF PUSH2 0x1252 JUMP INVALID LOG2 PUSH5 0x6970667358 0x22 SLT KECCAK256 SWAP16 PUSH23 0x1FCBC3A66BB746E302FA3870039CCB1737A199ABF42361 0xB7 POP EXTCODEHASH PUSH23 0xC4E5A664736F6C634300081300332F8788117E7EFF1D82 0xE9 0x26 0xEC PUSH26 0x4901D17C78024A50270940304540A733656F0D00000000000000 "},"methodIdentifiers":{"DATA_REVIEWER_ROLE()":"f73e0dfd","DATA_WRITER_ROLE()":"03117eb5","DEFAULT_ADMIN_ROLE()":"a217fddf","getByIndex(uint256,uint256)":"4dbf1fd8","getHistoryLength(uint256)":"b38fe06b","getLatest(uint256)":"33495dd3","getRoleAdmin(bytes32)":"248a9ca3","grantRole(bytes32,address)":"2f2ff15d","hasRole(bytes32,address)":"91d14854","maxHumidityPermille()":"e7d25991","maxTemperatureMilliC()":"3ab74a2c","minTemperatureMilliC()":"eac3c2d7","recordTelemetry(uint256,int256,uint256,string,uint256)":"b008bdcc","renounceRole(bytes32,address)":"36568abe","revokeRole(bytes32,address)":"d547741f","setConstraints(int256,int256,uint256)":"3c0c68fa","supportsInterface(bytes4)":"01ffc9a7"}}}}}