{"contracts/SupplyChainContract.sol":{"SupplyChainContract":{"abi":[{"inputs":[{"internalType":"address","name":"admin","type":"address"},{"internalType":"address","name":"_stakeholderContract","type":"address"}],"stateMutability":"nonpayable","type":"constructor"},{"inputs":[],"name":"BadInput","type":"error"},{"inputs":[],"name":"NotAllowed","type":"error"},{"anonymous":false,"inputs":[{"indexed":true,"internalType":"bytes32","name":"role","type":"bytes32"},{"indexed":true,"internalType":"bytes32","name":"previousAdminRole","type":"bytes32"},{"indexed":true,"internalType":"bytes32","name":"newAdminRole","type":"bytes32"}],"name":"RoleAdminChanged","type":"event"},{"anonymous":false,"inputs":[{"indexed":true,"internalType":"bytes32","name":"role","type":"bytes32"},{"indexed":true,"internalType":"address","name":"account","type":"address"},{"indexed":true,"internalType":"address","name":"sender","type":"address"}],"name":"RoleGranted","type":"event"},{"anonymous":false,"inputs":[{"indexed":true,"internalType":"bytes32","name":"role","type":"bytes32"},{"indexed":true,"internalType":"address","name":"account","type":"address"},{"indexed":true,"internalType":"address","name":"sender","type":"address"}],"name":"RoleRevoked","type":"event"},{"anonymous":false,"inputs":[{"indexed":true,"internalType":"uint256","name":"batchId","type":"uint256"},{"indexed":true,"internalType":"address","name":"from","type":"address"},{"indexed":true,"internalType":"address","name":"to","type":"address"},{"indexed":false,"internalType":"string","name":"location","type":"string"},{"indexed":false,"internalType":"uint256","name":"timestamp","type":"uint256"}],"name":"Transferred","type":"event"},{"inputs":[],"name":"DEFAULT_ADMIN_ROLE","outputs":[{"internalType":"bytes32","name":"","type":"bytes32"}],"stateMutability":"view","type":"function"},{"inputs":[],"name":"TRANSFER_ROLE","outputs":[{"internalType":"bytes32","name":"","type":"bytes32"}],"stateMutability":"view","type":"function"},{"inputs":[{"internalType":"bytes32","name":"role","type":"bytes32"}],"name":"getRoleAdmin","outputs":[{"internalType":"bytes32","name":"","type":"bytes32"}],"stateMutability":"view","type":"function"},{"inputs":[{"internalType":"uint256","name":"batchId","type":"uint256"}],"name":"getTransfers","outputs":[{"components":[{"internalType":"uint256","name":"batchId","type":"uint256"},{"internalType":"address","name":"from","type":"address"},{"internalType":"address","name":"to","type":"address"},{"internalType":"string","name":"location","type":"string"},{"internalType":"uint256","name":"timestamp","type":"uint256"}],"internalType":"struct SupplyChainContract.Transfer[]","name":"","type":"tuple[]"}],"stateMutability":"view","type":"function"},{"inputs":[{"internalType":"bytes32","name":"role","type":"bytes32"},{"internalType":"address","name":"account","type":"address"}],"name":"grantRole","outputs":[],"stateMutability":"nonpayable","type":"function"},{"inputs":[{"internalType":"bytes32","name":"role","type":"bytes32"},{"internalType":"address","name":"account","type":"address"}],"name":"hasRole","outputs":[{"internalType":"bool","name":"","type":"bool"}],"stateMutability":"view","type":"function"},{"inputs":[{"internalType":"bytes32","name":"role","type":"bytes32"},{"internalType":"address","name":"account","type":"address"}],"name":"renounceRole","outputs":[],"stateMutability":"nonpayable","type":"function"},{"inputs":[{"internalType":"bytes32","name":"role","type":"bytes32"},{"internalType":"address","name":"account","type":"address"}],"name":"revokeRole","outputs":[],"stateMutability":"nonpayable","type":"function"},{"inputs":[{"internalType":"address","name":"sc","type":"address"}],"name":"setStakeholderContract","outputs":[],"stateMutability":"nonpayable","type":"function"},{"inputs":[],"name":"stakeholderContract","outputs":[{"internalType":"address","name":"","type":"address"}],"stateMutability":"view","type":"function"},{"inputs":[{"internalType":"bytes4","name":"interfaceId","type":"bytes4"}],"name":"supportsInterface","outputs":[{"internalType":"bool","name":"","type":"bool"}],"stateMutability":"view","type":"function"},{"inputs":[{"internalType":"uint256","name":"batchId","type":"uint256"},{"internalType":"address","name":"to","type":"address"},{"internalType":"string","name":"location","type":"string"}],"name":"transferBatch","outputs":[],"stateMutability":"nonpayable","type":"function"}],"evm":{"bytecode":{"linkReferences":{},"object":"6080346200015e576200151390601f38839003908101601f19168201906001600160401b038211838310176200016357808391604095869485528339810103126200015e576200004f8162000179565b906200005f602080920162000179565b906000908180528181528482209060018060a01b0380951691828452815260ff86842054161562000126575b7f8502233096d909befbda0999bb8ea2f3a6be3c138b9fbf003752a4c8bce86f6c90818452838152868420838552815260ff878520541615620000ec575b505050501660018060a01b031960025416176002555161136490816200018f8239f35b8184528381528684209083855252858320600160ff19825416179055600080516020620014f3833981519152339380a438808080620000c9565b8280528281528583208284528152858320805460ff19166001179055338284600080516020620014f38339815191528180a46200008b565b600080fd5b634e487b7160e01b600052604160045260246000fd5b51906001600160a01b03821682036200015e5756fe608080604052600436101561001357600080fd5b60003560e01c90816301ffc9a714610da857508063206b60f914610d6d578063248a9ca314610d3e5780632f2ff15d14610c8a57806336568abe14610bf857806391d1485414610baa578063a217fddf14610b8e578063bbf27b2b14610b67578063c12bcaec1461051b578063d547741f146104da578063da9b3410146102ba5763fd4174ca146100a357600080fd5b346102b5576020806003193601126102b557600435906001600160a01b0382168092036102b5576000805260008152604060002033600052815260ff604060002054161561010257506001600160a01b03196002541617600255600080f35b61010b33611108565b90600060405161011a81611028565b6042815282810191606036843781511561029f5760308353815160019081101561029f57607860218401536041905b808211610245575050610202576101ce936101dd9260489260405196879376020b1b1b2b9b9a1b7b73a3937b61d1030b1b1b7bab73a1604d1b88860152610199815180928a603789019101610e11565b8401917f206973206d697373696e6720726f6c6520000000000000000000000000000000603784015251809386840190610e11565b01036028810185520183611044565b6101fe60405192839262461bcd60e51b845260048401526024830190610e34565b0390fd5b6064836040519062461bcd60e51b825280600483015260248201527f537472696e67733a20686578206c656e67746820696e73756666696369656e746044820152fd5b9091600f8116601081101561029f576f181899199a1a9b1b9c1cb0b131b232b360811b901a61027484866110f7565b5360041c918015610289576000190190610149565b634e487b7160e01b600052601160045260246000fd5b634e487b7160e01b600052603260045260246000fd5b600080fd5b346102b5576020806003193601126102b557600435600052600180825260406000209081549267ffffffffffffffff84116104c4578284604051936005916103068582851b0187611044565b8086528486018094600052856000206000915b8383106103c157505050506040519484869586019181875251809252604082818801951b87010194936000905b8382106103535787870388f35b918496819592949698508190603f198b8203018552895190815181526001600160a01b038084840151168483015260408301511660408201526103a56060808401519060a08091850152830190610e34565b9160808091015191015298019201920187969593919492610346565b9385888298999660409b989b516103d78161100c565b855481526001600160a01b03808688015416848301526002870154166040820152600386016040519060009080549061040f826112f4565b9182855284888b831692836000146104a45750505060011461045e575b50508161043a910382611044565b60608201526004860154608082015281520192019201919097949796959396610319565b60009081528681209092505b818310610480575050810184018161043a61042c565b809194975097919497959295548386880101520192019289938e95928d979461046a565b60ff1916818301529315158a1b8101909301935061043a915061042c9050565b634e487b7160e01b600052604160045260246000fd5b346102b55760403660031901126102b5576105196004356104f9610dfb565b90806000526000602052610514600160406000200154610e59565b611066565b005b346102b55760603660031901126102b557610534610dfb565b6044359067ffffffffffffffff82116102b557366023830112156102b55767ffffffffffffffff8260040135116102b5573660248360040135840101116102b5573360009081527f7c7a990f752005aea38438cc35abc5417bd322e6c964ec21d52573494225142c60205260409020547f8502233096d909befbda0999bb8ea2f3a6be3c138b9fbf003752a4c8bce86f6c9060ff1615610a1557506001600160a01b038116158015610a09575b6109f7576001600160a01b036002541660405163315e2b7360e11b808252336004830152600082602481865afa9182156109cc576000926109d8575b5060009060246040518095819382526001600160a01b03881660048301525afa9182156109cc576000926109a7575b5060c081015115158061099a575b1561096a57604001511515908161095c575b5015610931576004356000526001602052604060002060405161068e8161100c565b60043581523360208201526001600160a01b03831660408201526106b584600401356110db565b6106c26040519182611044565b6004850135808252602486016020830137600060208660040135830101526060820152426080820152815491680100000000000000008310156104c4576001830180825583101561029f576000526020600020908051600584028301556001600584028301016001600160a01b03602083015116906001600160a01b03199182825416179055600260058502840101906001600160a01b0360408401511690825416179055606081015180519067ffffffffffffffff82116104c457610790600360058702860101546112f4565b601f81116108e5575b50602090601f831160011461086457928260059360809360049796600092610859575b50508160011b916000199060031b1c1916176003848802860101555b015193020101556001600160a01b0360405191604083528360040135604084015283600401356024850160608501376000606085600401358501015242602084015216917fad758fd523703607be09c01834490734926016f8fd85e5b99970017dd72b7117339260608160043594601f8019916004013501168101030190a4005b015190508a806107bc565b9060036005870286010160005260206000209160005b601f19851681106108cd5750836080936004979693600193600597601f198116106108b4575b505050811b016003848802860101556107d8565b015160001960f88460031b161c191690558a80806108a0565b9192602060018192868501518155019401920161087a565b6003600587028601016000526020600020601f840160051c81016020851061092a575b601f830160051c8201811061091e575050610799565b60008155600101610908565b5080610908565b60405162461bcd60e51b81526020600482015260036024820152626b796360e81b6044820152606490fd5b60409150015115158361066c565b60405162461bcd60e51b8152602060048201526008602482015267696e61637469766560c01b6044820152606490fd5b5060c0820151151561065a565b6109c59192503d806000833e6109bd8183611044565b810190611225565b908461064c565b6040513d6000823e3d90fd5b60009192506109f0903d8084833e6109bd8183611044565b919061061d565b604051632bb9acf760e01b8152600490fd5b508160040135156105e1565b610a1e33611108565b60405191610a2b83611028565b604283526020830190606036833783511561029f5760308253835160019081101561029f57607860218601536041905b808211610b23575050610adf576048610ab092610abf926101fe9560405195869376020b1b1b2b9b9a1b7b73a3937b61d1030b1b1b7bab73a1604d1b6020860152610199815180926020603789019101610e11565b01036028810184520182611044565b60405162461bcd60e51b8152602060048201529182916024830190610e34565b606460405162461bcd60e51b815260206004820152602060248201527f537472696e67733a20686578206c656e67746820696e73756666696369656e746044820152fd5b9091600f8116601081101561029f576f181899199a1a9b1b9c1cb0b131b232b360811b901a610b5284886110f7565b5360041c918015610289576000190190610a5b565b346102b55760003660031901126102b55760206001600160a01b0360025416604051908152f35b346102b55760003660031901126102b557602060405160008152f35b346102b55760403660031901126102b557610bc3610dfb565b60043560005260006020526001600160a01b0360406000209116600052602052602060ff604060002054166040519015158152f35b346102b55760403660031901126102b557610c11610dfb565b336001600160a01b03821603610c2d5761051990600435611066565b60405162461bcd60e51b815260206004820152602f60248201527f416363657373436f6e74726f6c3a2063616e206f6e6c792072656e6f756e636560448201526e103937b632b9903337b91039b2b63360891b6064820152608490fd5b346102b55760403660031901126102b557600435610ca6610dfb565b816000526000602052610cc0600160406000200154610e59565b8160005260006020526001600160a01b0360406000209116908160005260205260ff6040600020541615610cf057005b8160005260006020526040600020816000526020526040600020600160ff1982541617905533917f2f8788117e7eff1d82e926ec794901d17c78024a50270940304540a733656f0d600080a4005b346102b55760203660031901126102b55760043560005260006020526020600160406000200154604051908152f35b346102b55760003660031901126102b55760206040517f8502233096d909befbda0999bb8ea2f3a6be3c138b9fbf003752a4c8bce86f6c8152f35b346102b55760203660031901126102b5576004359063ffffffff60e01b82168092036102b557602091637965db0b60e01b8114908115610dea575b5015158152f35b6301ffc9a760e01b14905083610de3565b602435906001600160a01b03821682036102b557565b60005b838110610e245750506000910152565b8181015183820152602001610e14565b90602091610e4d81518092818552858086019101610e11565b601f01601f1916010190565b600090808252602090828252604092838120338252835260ff848220541615610e825750505050565b610e8b33611108565b91845190610e9882611028565b60428252848201926060368537825115610ff85760308453825190600191821015610ff85790607860218501536041915b818311610f8a57505050610f485760486101fe938693610f2c93610f1d985198899376020b1b1b2b9b9a1b7b73a3937b61d1030b1b1b7bab73a1604d1b8a860152610199815180928c603789019101610e11565b01036028810187520185611044565b5192839262461bcd60e51b845260048401526024830190610e34565b60648486519062461bcd60e51b825280600483015260248201527f537472696e67733a20686578206c656e67746820696e73756666696369656e746044820152fd5b909192600f81166010811015610fe4576f181899199a1a9b1b9c1cb0b131b232b360811b901a610fba85876110f7565b5360041c928015610fd057600019019190610ec9565b634e487b7160e01b82526011600452602482fd5b634e487b7160e01b83526032600452602483fd5b634e487b7160e01b81526032600452602490fd5b60a0810190811067ffffffffffffffff8211176104c457604052565b6080810190811067ffffffffffffffff8211176104c457604052565b90601f8019910116810190811067ffffffffffffffff8211176104c457604052565b90600091808352826020526001600160a01b036040842092169182845260205260ff60408420541661109757505050565b80835282602052604083208284526020526040832060ff1981541690557ff6391f5c32d9c69d2a47ea670b442974b53935d1edc7fd64eb21e047a839171b339380a4565b67ffffffffffffffff81116104c457601f01601f191660200190565b90815181101561029f570160200190565b604051906060820182811067ffffffffffffffff8211176104c457604052602a825260208201604036823782511561029f5760309053815160019081101561029f57607860218401536029905b808211611165575050610adf5790565b9091600f811660108110156111be576f181899199a1a9b1b9c1cb0b131b232b360811b901a61119484866110f7565b5360041c9180156111a9576000190190611155565b60246000634e487b7160e01b81526011600452fd5b60246000634e487b7160e01b81526032600452fd5b81601f820112156102b55780516111e9816110db565b926111f76040519485611044565b818452602082840101116102b5576112159160208085019101610e11565b90565b519081151582036102b557565b6020818303126102b557805167ffffffffffffffff918282116102b557019060e0828403126102b5576040519260e08401848110838211176104c45760405282518281116102b557816112799185016111d3565b8452602083015160058110156102b557602085015261129a60408401611218565b604085015260608301519182116102b5576112b69183016111d3565b606083015260808101516001600160a01b03811681036102b5576112ec9160c091608085015260a081015160a085015201611218565b60c082015290565b90600182811c92168015611324575b602083101461130e57565b634e487b7160e01b600052602260045260246000fd5b91607f169161130356fea26469706673582212203c77ed3af835202f931c48099acc7a528992b12727e0b5ca7c9019b5427d4f4764736f6c634300081300332f8788117e7eff1d82e926ec794901d17c78024a50270940304540a733656f0d","opcodes":"PUSH1 0x80 CALLVALUE PUSH3 0x15E JUMPI PUSH3 0x1513 SWAP1 PUSH1 0x1F CODESIZE DUP4 SWAP1 SUB SWAP1 DUP2 ADD PUSH1 0x1F NOT AND DUP3 ADD SWAP1 PUSH1 0x1 PUSH1 0x1 PUSH1 0x40 SHL SUB DUP3 GT DUP4 DUP4 LT OR PUSH3 0x163 JUMPI DUP1 DUP4 SWAP2 PUSH1 0x40 SWAP6 DUP7 SWAP5 DUP6 MSTORE DUP4 CODECOPY DUP2 ADD SUB SLT PUSH3 0x15E JUMPI PUSH3 0x4F DUP2 PUSH3 0x179 JUMP JUMPDEST SWAP1 PUSH3 0x5F PUSH1 0x20 DUP1 SWAP3 ADD PUSH3 0x179 JUMP JUMPDEST SWAP1 PUSH1 0x0 SWAP1 DUP2 DUP1 MSTORE DUP2 DUP2 MSTORE DUP5 DUP3 KECCAK256 SWAP1 PUSH1 0x1 DUP1 PUSH1 0xA0 SHL SUB DUP1 SWAP6 AND SWAP2 DUP3 DUP5 MSTORE DUP2 MSTORE PUSH1 0xFF DUP7 DUP5 KECCAK256 SLOAD AND ISZERO PUSH3 0x126 JUMPI JUMPDEST PUSH32 0x8502233096D909BEFBDA0999BB8EA2F3A6BE3C138B9FBF003752A4C8BCE86F6C SWAP1 DUP2 DUP5 MSTORE DUP4 DUP2 MSTORE DUP7 DUP5 KECCAK256 DUP4 DUP6 MSTORE DUP2 MSTORE PUSH1 0xFF DUP8 DUP6 KECCAK256 SLOAD AND ISZERO PUSH3 0xEC JUMPI JUMPDEST POP POP POP POP AND PUSH1 0x1 DUP1 PUSH1 0xA0 SHL SUB NOT PUSH1 0x2 SLOAD AND OR PUSH1 0x2 SSTORE MLOAD PUSH2 0x1364 SWAP1 DUP2 PUSH3 0x18F DUP3 CODECOPY RETURN JUMPDEST DUP2 DUP5 MSTORE DUP4 DUP2 MSTORE DUP7 DUP5 KECCAK256 SWAP1 DUP4 DUP6 MSTORE MSTORE DUP6 DUP4 KECCAK256 PUSH1 0x1 PUSH1 0xFF NOT DUP3 SLOAD AND OR SWAP1 SSTORE PUSH1 0x0 DUP1 MLOAD PUSH1 0x20 PUSH3 0x14F3 DUP4 CODECOPY DUP2 MLOAD SWAP2 MSTORE CALLER SWAP4 DUP1 LOG4 CODESIZE DUP1 DUP1 DUP1 PUSH3 0xC9 JUMP JUMPDEST DUP3 DUP1 MSTORE DUP3 DUP2 MSTORE DUP6 DUP4 KECCAK256 DUP3 DUP5 MSTORE DUP2 MSTORE DUP6 DUP4 KECCAK256 DUP1 SLOAD PUSH1 0xFF NOT AND PUSH1 0x1 OR SWAP1 SSTORE CALLER DUP3 DUP5 PUSH1 0x0 DUP1 MLOAD PUSH1 0x20 PUSH3 0x14F3 DUP4 CODECOPY DUP2 MLOAD SWAP2 MSTORE DUP2 DUP1 LOG4 PUSH3 0x8B JUMP JUMPDEST PUSH1 0x0 DUP1 REVERT JUMPDEST PUSH4 0x4E487B71 PUSH1 0xE0 SHL PUSH1 0x0 MSTORE PUSH1 0x41 PUSH1 0x4 MSTORE PUSH1 0x24 PUSH1 0x0 REVERT JUMPDEST MLOAD SWAP1 PUSH1 0x1 PUSH1 0x1 PUSH1 0xA0 SHL SUB DUP3 AND DUP3 SUB PUSH3 0x15E JUMPI JUMP INVALID PUSH1 0x80 DUP1 PUSH1 0x40 MSTORE PUSH1 0x4 CALLDATASIZE LT ISZERO PUSH2 0x13 JUMPI PUSH1 0x0 DUP1 REVERT JUMPDEST PUSH1 0x0 CALLDATALOAD PUSH1 0xE0 SHR SWAP1 DUP2 PUSH4 0x1FFC9A7 EQ PUSH2 0xDA8 JUMPI POP DUP1 PUSH4 0x206B60F9 EQ PUSH2 0xD6D JUMPI DUP1 PUSH4 0x248A9CA3 EQ PUSH2 0xD3E JUMPI DUP1 PUSH4 0x2F2FF15D EQ PUSH2 0xC8A JUMPI DUP1 PUSH4 0x36568ABE EQ PUSH2 0xBF8 JUMPI DUP1 PUSH4 0x91D14854 EQ PUSH2 0xBAA JUMPI DUP1 PUSH4 0xA217FDDF EQ PUSH2 0xB8E JUMPI DUP1 PUSH4 0xBBF27B2B EQ PUSH2 0xB67 JUMPI DUP1 PUSH4 0xC12BCAEC EQ PUSH2 0x51B JUMPI DUP1 PUSH4 0xD547741F EQ PUSH2 0x4DA JUMPI DUP1 PUSH4 0xDA9B3410 EQ PUSH2 0x2BA JUMPI PUSH4 0xFD4174CA EQ PUSH2 0xA3 JUMPI PUSH1 0x0 DUP1 REVERT JUMPDEST CALLVALUE PUSH2 0x2B5 JUMPI PUSH1 0x20 DUP1 PUSH1 0x3 NOT CALLDATASIZE ADD SLT PUSH2 0x2B5 JUMPI PUSH1 0x4 CALLDATALOAD SWAP1 PUSH1 0x1 PUSH1 0x1 PUSH1 0xA0 SHL SUB DUP3 AND DUP1 SWAP3 SUB PUSH2 0x2B5 JUMPI PUSH1 0x0 DUP1 MSTORE PUSH1 0x0 DUP2 MSTORE PUSH1 0x40 PUSH1 0x0 KECCAK256 CALLER PUSH1 0x0 MSTORE DUP2 MSTORE PUSH1 0xFF PUSH1 0x40 PUSH1 0x0 KECCAK256 SLOAD AND ISZERO PUSH2 0x102 JUMPI POP PUSH1 0x1 PUSH1 0x1 PUSH1 0xA0 SHL SUB NOT PUSH1 0x2 SLOAD AND OR PUSH1 0x2 SSTORE PUSH1 0x0 DUP1 RETURN JUMPDEST PUSH2 0x10B CALLER PUSH2 0x1108 JUMP JUMPDEST SWAP1 PUSH1 0x0 PUSH1 0x40 MLOAD PUSH2 0x11A DUP2 PUSH2 0x1028 JUMP JUMPDEST PUSH1 0x42 DUP2 MSTORE DUP3 DUP2 ADD SWAP2 PUSH1 0x60 CALLDATASIZE DUP5 CALLDATACOPY DUP2 MLOAD ISZERO PUSH2 0x29F JUMPI PUSH1 0x30 DUP4 MSTORE8 DUP2 MLOAD PUSH1 0x1 SWAP1 DUP2 LT ISZERO PUSH2 0x29F JUMPI PUSH1 0x78 PUSH1 0x21 DUP5 ADD MSTORE8 PUSH1 0x41 SWAP1 JUMPDEST DUP1 DUP3 GT PUSH2 0x245 JUMPI POP POP PUSH2 0x202 JUMPI PUSH2 0x1CE SWAP4 PUSH2 0x1DD SWAP3 PUSH1 0x48 SWAP3 PUSH1 0x40 MLOAD SWAP7 DUP8 SWAP4 PUSH23 0x20B1B1B2B9B9A1B7B73A3937B61D1030B1B1B7BAB73A1 PUSH1 0x4D SHL DUP9 DUP7 ADD MSTORE PUSH2 0x199 DUP2 MLOAD DUP1 SWAP3 DUP11 PUSH1 0x37 DUP10 ADD SWAP2 ADD PUSH2 0xE11 JUMP JUMPDEST DUP5 ADD SWAP2 PUSH32 0x206973206D697373696E6720726F6C6520000000000000000000000000000000 PUSH1 0x37 DUP5 ADD MSTORE MLOAD DUP1 SWAP4 DUP7 DUP5 ADD SWAP1 PUSH2 0xE11 JUMP JUMPDEST ADD SUB PUSH1 0x28 DUP2 ADD DUP6 MSTORE ADD DUP4 PUSH2 0x1044 JUMP JUMPDEST PUSH2 0x1FE PUSH1 0x40 MLOAD SWAP3 DUP4 SWAP3 PUSH3 0x461BCD PUSH1 0xE5 SHL DUP5 MSTORE PUSH1 0x4 DUP5 ADD MSTORE PUSH1 0x24 DUP4 ADD SWAP1 PUSH2 0xE34 JUMP JUMPDEST SUB SWAP1 REVERT JUMPDEST PUSH1 0x64 DUP4 PUSH1 0x40 MLOAD SWAP1 PUSH3 0x461BCD PUSH1 0xE5 SHL DUP3 MSTORE DUP1 PUSH1 0x4 DUP4 ADD MSTORE PUSH1 0x24 DUP3 ADD MSTORE PUSH32 0x537472696E67733A20686578206C656E67746820696E73756666696369656E74 PUSH1 0x44 DUP3 ADD MSTORE REVERT JUMPDEST SWAP1 SWAP2 PUSH1 0xF DUP2 AND PUSH1 0x10 DUP2 LT ISZERO PUSH2 0x29F JUMPI PUSH16 0x181899199A1A9B1B9C1CB0B131B232B3 PUSH1 0x81 SHL SWAP1 BYTE PUSH2 0x274 DUP5 DUP7 PUSH2 0x10F7 JUMP JUMPDEST MSTORE8 PUSH1 0x4 SHR SWAP2 DUP1 ISZERO PUSH2 0x289 JUMPI PUSH1 0x0 NOT ADD SWAP1 PUSH2 0x149 JUMP JUMPDEST PUSH4 0x4E487B71 PUSH1 0xE0 SHL PUSH1 0x0 MSTORE PUSH1 0x11 PUSH1 0x4 MSTORE PUSH1 0x24 PUSH1 0x0 REVERT JUMPDEST PUSH4 0x4E487B71 PUSH1 0xE0 SHL PUSH1 0x0 MSTORE PUSH1 0x32 PUSH1 0x4 MSTORE PUSH1 0x24 PUSH1 0x0 REVERT JUMPDEST PUSH1 0x0 DUP1 REVERT JUMPDEST CALLVALUE PUSH2 0x2B5 JUMPI PUSH1 0x20 DUP1 PUSH1 0x3 NOT CALLDATASIZE ADD SLT PUSH2 0x2B5 JUMPI PUSH1 0x4 CALLDATALOAD PUSH1 0x0 MSTORE PUSH1 0x1 DUP1 DUP3 MSTORE PUSH1 0x40 PUSH1 0x0 KECCAK256 SWAP1 DUP2 SLOAD SWAP3 PUSH8 0xFFFFFFFFFFFFFFFF DUP5 GT PUSH2 0x4C4 JUMPI DUP3 DUP5 PUSH1 0x40 MLOAD SWAP4 PUSH1 0x5 SWAP2 PUSH2 0x306 DUP6 DUP3 DUP6 SHL ADD DUP8 PUSH2 0x1044 JUMP JUMPDEST DUP1 DUP7 MSTORE DUP5 DUP7 ADD DUP1 SWAP5 PUSH1 0x0 MSTORE DUP6 PUSH1 0x0 KECCAK256 PUSH1 0x0 SWAP2 JUMPDEST DUP4 DUP4 LT PUSH2 0x3C1 JUMPI POP POP POP POP PUSH1 0x40 MLOAD SWAP5 DUP5 DUP7 SWAP6 DUP7 ADD SWAP2 DUP2 DUP8 MSTORE MLOAD DUP1 SWAP3 MSTORE PUSH1 0x40 DUP3 DUP2 DUP9 ADD SWAP6 SHL DUP8 ADD ADD SWAP5 SWAP4 PUSH1 0x0 SWAP1 JUMPDEST DUP4 DUP3 LT PUSH2 0x353 JUMPI DUP8 DUP8 SUB DUP9 RETURN JUMPDEST SWAP2 DUP5 SWAP7 DUP2 SWAP6 SWAP3 SWAP5 SWAP7 SWAP9 POP DUP2 SWAP1 PUSH1 0x3F NOT DUP12 DUP3 SUB ADD DUP6 MSTORE DUP10 MLOAD SWAP1 DUP2 MLOAD DUP2 MSTORE PUSH1 0x1 PUSH1 0x1 PUSH1 0xA0 SHL SUB DUP1 DUP5 DUP5 ADD MLOAD AND DUP5 DUP4 ADD MSTORE PUSH1 0x40 DUP4 ADD MLOAD AND PUSH1 0x40 DUP3 ADD MSTORE PUSH2 0x3A5 PUSH1 0x60 DUP1 DUP5 ADD MLOAD SWAP1 PUSH1 0xA0 DUP1 SWAP2 DUP6 ADD MSTORE DUP4 ADD SWAP1 PUSH2 0xE34 JUMP JUMPDEST SWAP2 PUSH1 0x80 DUP1 SWAP2 ADD MLOAD SWAP2 ADD MSTORE SWAP9 ADD SWAP3 ADD SWAP3 ADD DUP8 SWAP7 SWAP6 SWAP4 SWAP2 SWAP5 SWAP3 PUSH2 0x346 JUMP JUMPDEST SWAP4 DUP6 DUP9 DUP3 SWAP9 SWAP10 SWAP7 PUSH1 0x40 SWAP12 SWAP9 SWAP12 MLOAD PUSH2 0x3D7 DUP2 PUSH2 0x100C JUMP JUMPDEST DUP6 SLOAD DUP2 MSTORE PUSH1 0x1 PUSH1 0x1 PUSH1 0xA0 SHL SUB DUP1 DUP7 DUP9 ADD SLOAD AND DUP5 DUP4 ADD MSTORE PUSH1 0x2 DUP8 ADD SLOAD AND PUSH1 0x40 DUP3 ADD MSTORE PUSH1 0x3 DUP7 ADD PUSH1 0x40 MLOAD SWAP1 PUSH1 0x0 SWAP1 DUP1 SLOAD SWAP1 PUSH2 0x40F DUP3 PUSH2 0x12F4 JUMP JUMPDEST SWAP2 DUP3 DUP6 MSTORE DUP5 DUP9 DUP12 DUP4 AND SWAP3 DUP4 PUSH1 0x0 EQ PUSH2 0x4A4 JUMPI POP POP POP PUSH1 0x1 EQ PUSH2 0x45E JUMPI JUMPDEST POP POP DUP2 PUSH2 0x43A SWAP2 SUB DUP3 PUSH2 0x1044 JUMP JUMPDEST PUSH1 0x60 DUP3 ADD MSTORE PUSH1 0x4 DUP7 ADD SLOAD PUSH1 0x80 DUP3 ADD MSTORE DUP2 MSTORE ADD SWAP3 ADD SWAP3 ADD SWAP2 SWAP1 SWAP8 SWAP5 SWAP8 SWAP7 SWAP6 SWAP4 SWAP7 PUSH2 0x319 JUMP JUMPDEST PUSH1 0x0 SWAP1 DUP2 MSTORE DUP7 DUP2 KECCAK256 SWAP1 SWAP3 POP JUMPDEST DUP2 DUP4 LT PUSH2 0x480 JUMPI POP POP DUP2 ADD DUP5 ADD DUP2 PUSH2 0x43A PUSH2 0x42C JUMP JUMPDEST DUP1 SWAP2 SWAP5 SWAP8 POP SWAP8 SWAP2 SWAP5 SWAP8 SWAP6 SWAP3 SWAP6 SLOAD DUP4 DUP7 DUP9 ADD ADD MSTORE ADD SWAP3 ADD SWAP3 DUP10 SWAP4 DUP15 SWAP6 SWAP3 DUP14 SWAP8 SWAP5 PUSH2 0x46A JUMP JUMPDEST PUSH1 0xFF NOT AND DUP2 DUP4 ADD MSTORE SWAP4 ISZERO ISZERO DUP11 SHL DUP2 ADD SWAP1 SWAP4 ADD SWAP4 POP PUSH2 0x43A SWAP2 POP PUSH2 0x42C SWAP1 POP JUMP JUMPDEST PUSH4 0x4E487B71 PUSH1 0xE0 SHL PUSH1 0x0 MSTORE PUSH1 0x41 PUSH1 0x4 MSTORE PUSH1 0x24 PUSH1 0x0 REVERT JUMPDEST CALLVALUE PUSH2 0x2B5 JUMPI PUSH1 0x40 CALLDATASIZE PUSH1 0x3 NOT ADD SLT PUSH2 0x2B5 JUMPI PUSH2 0x519 PUSH1 0x4 CALLDATALOAD PUSH2 0x4F9 PUSH2 0xDFB JUMP JUMPDEST SWAP1 DUP1 PUSH1 0x0 MSTORE PUSH1 0x0 PUSH1 0x20 MSTORE PUSH2 0x514 PUSH1 0x1 PUSH1 0x40 PUSH1 0x0 KECCAK256 ADD SLOAD PUSH2 0xE59 JUMP JUMPDEST PUSH2 0x1066 JUMP JUMPDEST STOP JUMPDEST CALLVALUE PUSH2 0x2B5 JUMPI PUSH1 0x60 CALLDATASIZE PUSH1 0x3 NOT ADD SLT PUSH2 0x2B5 JUMPI PUSH2 0x534 PUSH2 0xDFB JUMP JUMPDEST PUSH1 0x44 CALLDATALOAD SWAP1 PUSH8 0xFFFFFFFFFFFFFFFF DUP3 GT PUSH2 0x2B5 JUMPI CALLDATASIZE PUSH1 0x23 DUP4 ADD SLT ISZERO PUSH2 0x2B5 JUMPI PUSH8 0xFFFFFFFFFFFFFFFF DUP3 PUSH1 0x4 ADD CALLDATALOAD GT PUSH2 0x2B5 JUMPI CALLDATASIZE PUSH1 0x24 DUP4 PUSH1 0x4 ADD CALLDATALOAD DUP5 ADD ADD GT PUSH2 0x2B5 JUMPI CALLER PUSH1 0x0 SWAP1 DUP2 MSTORE PUSH32 0x7C7A990F752005AEA38438CC35ABC5417BD322E6C964EC21D52573494225142C PUSH1 0x20 MSTORE PUSH1 0x40 SWAP1 KECCAK256 SLOAD PUSH32 0x8502233096D909BEFBDA0999BB8EA2F3A6BE3C138B9FBF003752A4C8BCE86F6C SWAP1 PUSH1 0xFF AND ISZERO PUSH2 0xA15 JUMPI POP PUSH1 0x1 PUSH1 0x1 PUSH1 0xA0 SHL SUB DUP2 AND ISZERO DUP1 ISZERO PUSH2 0xA09 JUMPI JUMPDEST PUSH2 0x9F7 JUMPI PUSH1 0x1 PUSH1 0x1 PUSH1 0xA0 SHL SUB PUSH1 0x2 SLOAD AND PUSH1 0x40 MLOAD PUSH4 0x315E2B73 PUSH1 0xE1 SHL DUP1 DUP3 MSTORE CALLER PUSH1 0x4 DUP4 ADD MSTORE PUSH1 0x0 DUP3 PUSH1 0x24 DUP2 DUP7 GAS STATICCALL SWAP2 DUP3 ISZERO PUSH2 0x9CC JUMPI PUSH1 0x0 SWAP3 PUSH2 0x9D8 JUMPI JUMPDEST POP PUSH1 0x0 SWAP1 PUSH1 0x24 PUSH1 0x40 MLOAD DUP1 SWAP6 DUP2 SWAP4 DUP3 MSTORE PUSH1 0x1 PUSH1 0x1 PUSH1 0xA0 SHL SUB DUP9 AND PUSH1 0x4 DUP4 ADD MSTORE GAS STATICCALL SWAP2 DUP3 ISZERO PUSH2 0x9CC JUMPI PUSH1 0x0 SWAP3 PUSH2 0x9A7 JUMPI JUMPDEST POP PUSH1 0xC0 DUP2 ADD MLOAD ISZERO ISZERO DUP1 PUSH2 0x99A JUMPI JUMPDEST ISZERO PUSH2 0x96A JUMPI PUSH1 0x40 ADD MLOAD ISZERO ISZERO SWAP1 DUP2 PUSH2 0x95C JUMPI JUMPDEST POP ISZERO PUSH2 0x931 JUMPI PUSH1 0x4 CALLDATALOAD PUSH1 0x0 MSTORE PUSH1 0x1 PUSH1 0x20 MSTORE PUSH1 0x40 PUSH1 0x0 KECCAK256 PUSH1 0x40 MLOAD PUSH2 0x68E DUP2 PUSH2 0x100C JUMP JUMPDEST PUSH1 0x4 CALLDATALOAD DUP2 MSTORE CALLER PUSH1 0x20 DUP3 ADD MSTORE PUSH1 0x1 PUSH1 0x1 PUSH1 0xA0 SHL SUB DUP4 AND PUSH1 0x40 DUP3 ADD MSTORE PUSH2 0x6B5 DUP5 PUSH1 0x4 ADD CALLDATALOAD PUSH2 0x10DB JUMP JUMPDEST PUSH2 0x6C2 PUSH1 0x40 MLOAD SWAP2 DUP3 PUSH2 0x1044 JUMP JUMPDEST PUSH1 0x4 DUP6 ADD CALLDATALOAD DUP1 DUP3 MSTORE PUSH1 0x24 DUP7 ADD PUSH1 0x20 DUP4 ADD CALLDATACOPY PUSH1 0x0 PUSH1 0x20 DUP7 PUSH1 0x4 ADD CALLDATALOAD DUP4 ADD ADD MSTORE PUSH1 0x60 DUP3 ADD MSTORE TIMESTAMP PUSH1 0x80 DUP3 ADD MSTORE DUP2 SLOAD SWAP2 PUSH9 0x10000000000000000 DUP4 LT ISZERO PUSH2 0x4C4 JUMPI PUSH1 0x1 DUP4 ADD DUP1 DUP3 SSTORE DUP4 LT ISZERO PUSH2 0x29F JUMPI PUSH1 0x0 MSTORE PUSH1 0x20 PUSH1 0x0 KECCAK256 SWAP1 DUP1 MLOAD PUSH1 0x5 DUP5 MUL DUP4 ADD SSTORE PUSH1 0x1 PUSH1 0x5 DUP5 MUL DUP4 ADD ADD PUSH1 0x1 PUSH1 0x1 PUSH1 0xA0 SHL SUB PUSH1 0x20 DUP4 ADD MLOAD AND SWAP1 PUSH1 0x1 PUSH1 0x1 PUSH1 0xA0 SHL SUB NOT SWAP2 DUP3 DUP3 SLOAD AND OR SWAP1 SSTORE PUSH1 0x2 PUSH1 0x5 DUP6 MUL DUP5 ADD ADD SWAP1 PUSH1 0x1 PUSH1 0x1 PUSH1 0xA0 SHL SUB PUSH1 0x40 DUP5 ADD MLOAD AND SWAP1 DUP3 SLOAD AND OR SWAP1 SSTORE PUSH1 0x60 DUP2 ADD MLOAD DUP1 MLOAD SWAP1 PUSH8 0xFFFFFFFFFFFFFFFF DUP3 GT PUSH2 0x4C4 JUMPI PUSH2 0x790 PUSH1 0x3 PUSH1 0x5 DUP8 MUL DUP7 ADD ADD SLOAD PUSH2 0x12F4 JUMP JUMPDEST PUSH1 0x1F DUP2 GT PUSH2 0x8E5 JUMPI JUMPDEST POP PUSH1 0x20 SWAP1 PUSH1 0x1F DUP4 GT PUSH1 0x1 EQ PUSH2 0x864 JUMPI SWAP3 DUP3 PUSH1 0x5 SWAP4 PUSH1 0x80 SWAP4 PUSH1 0x4 SWAP8 SWAP7 PUSH1 0x0 SWAP3 PUSH2 0x859 JUMPI JUMPDEST POP POP DUP2 PUSH1 0x1 SHL SWAP2 PUSH1 0x0 NOT SWAP1 PUSH1 0x3 SHL SHR NOT AND OR PUSH1 0x3 DUP5 DUP9 MUL DUP7 ADD ADD SSTORE JUMPDEST ADD MLOAD SWAP4 MUL ADD ADD SSTORE PUSH1 0x1 PUSH1 0x1 PUSH1 0xA0 SHL SUB PUSH1 0x40 MLOAD SWAP2 PUSH1 0x40 DUP4 MSTORE DUP4 PUSH1 0x4 ADD CALLDATALOAD PUSH1 0x40 DUP5 ADD MSTORE DUP4 PUSH1 0x4 ADD CALLDATALOAD PUSH1 0x24 DUP6 ADD PUSH1 0x60 DUP6 ADD CALLDATACOPY PUSH1 0x0 PUSH1 0x60 DUP6 PUSH1 0x4 ADD CALLDATALOAD DUP6 ADD ADD MSTORE TIMESTAMP PUSH1 0x20 DUP5 ADD MSTORE AND SWAP2 PUSH32 0xAD758FD523703607BE09C01834490734926016F8FD85E5B99970017DD72B7117 CALLER SWAP3 PUSH1 0x60 DUP2 PUSH1 0x4 CALLDATALOAD SWAP5 PUSH1 0x1F DUP1 NOT SWAP2 PUSH1 0x4 ADD CALLDATALOAD ADD AND DUP2 ADD SUB ADD SWAP1 LOG4 STOP JUMPDEST ADD MLOAD SWAP1 POP DUP11 DUP1 PUSH2 0x7BC JUMP JUMPDEST SWAP1 PUSH1 0x3 PUSH1 0x5 DUP8 MUL DUP7 ADD ADD PUSH1 0x0 MSTORE PUSH1 0x20 PUSH1 0x0 KECCAK256 SWAP2 PUSH1 0x0 JUMPDEST PUSH1 0x1F NOT DUP6 AND DUP2 LT PUSH2 0x8CD JUMPI POP DUP4 PUSH1 0x80 SWAP4 PUSH1 0x4 SWAP8 SWAP7 SWAP4 PUSH1 0x1 SWAP4 PUSH1 0x5 SWAP8 PUSH1 0x1F NOT DUP2 AND LT PUSH2 0x8B4 JUMPI JUMPDEST POP POP POP DUP2 SHL ADD PUSH1 0x3 DUP5 DUP9 MUL DUP7 ADD ADD SSTORE PUSH2 0x7D8 JUMP JUMPDEST ADD MLOAD PUSH1 0x0 NOT PUSH1 0xF8 DUP5 PUSH1 0x3 SHL AND SHR NOT AND SWAP1 SSTORE DUP11 DUP1 DUP1 PUSH2 0x8A0 JUMP JUMPDEST SWAP2 SWAP3 PUSH1 0x20 PUSH1 0x1 DUP2 SWAP3 DUP7 DUP6 ADD MLOAD DUP2 SSTORE ADD SWAP5 ADD SWAP3 ADD PUSH2 0x87A JUMP JUMPDEST PUSH1 0x3 PUSH1 0x5 DUP8 MUL DUP7 ADD ADD PUSH1 0x0 MSTORE PUSH1 0x20 PUSH1 0x0 KECCAK256 PUSH1 0x1F DUP5 ADD PUSH1 0x5 SHR DUP2 ADD PUSH1 0x20 DUP6 LT PUSH2 0x92A JUMPI JUMPDEST PUSH1 0x1F DUP4 ADD PUSH1 0x5 SHR DUP3 ADD DUP2 LT PUSH2 0x91E JUMPI POP POP PUSH2 0x799 JUMP JUMPDEST PUSH1 0x0 DUP2 SSTORE PUSH1 0x1 ADD PUSH2 0x908 JUMP JUMPDEST POP DUP1 PUSH2 0x908 JUMP JUMPDEST PUSH1 0x40 MLOAD PUSH3 0x461BCD PUSH1 0xE5 SHL DUP2 MSTORE PUSH1 0x20 PUSH1 0x4 DUP3 ADD MSTORE PUSH1 0x3 PUSH1 0x24 DUP3 ADD MSTORE PUSH3 0x6B7963 PUSH1 0xE8 SHL PUSH1 0x44 DUP3 ADD MSTORE PUSH1 0x64 SWAP1 REVERT JUMPDEST PUSH1 0x40 SWAP2 POP ADD MLOAD ISZERO ISZERO DUP4 PUSH2 0x66C JUMP JUMPDEST PUSH1 0x40 MLOAD PUSH3 0x461BCD PUSH1 0xE5 SHL DUP2 MSTORE PUSH1 0x20 PUSH1 0x4 DUP3 ADD MSTORE PUSH1 0x8 PUSH1 0x24 DUP3 ADD MSTORE PUSH8 0x696E616374697665 PUSH1 0xC0 SHL PUSH1 0x44 DUP3 ADD MSTORE PUSH1 0x64 SWAP1 REVERT JUMPDEST POP PUSH1 0xC0 DUP3 ADD MLOAD ISZERO ISZERO PUSH2 0x65A JUMP JUMPDEST PUSH2 0x9C5 SWAP2 SWAP3 POP RETURNDATASIZE DUP1 PUSH1 0x0 DUP4 RETURNDATACOPY PUSH2 0x9BD DUP2 DUP4 PUSH2 0x1044 JUMP JUMPDEST DUP2 ADD SWAP1 PUSH2 0x1225 JUMP JUMPDEST SWAP1 DUP5 PUSH2 0x64C JUMP JUMPDEST PUSH1 0x40 MLOAD RETURNDATASIZE PUSH1 0x0 DUP3 RETURNDATACOPY RETURNDATASIZE SWAP1 REVERT JUMPDEST PUSH1 0x0 SWAP2 SWAP3 POP PUSH2 0x9F0 SWAP1 RETURNDATASIZE DUP1 DUP5 DUP4 RETURNDATACOPY PUSH2 0x9BD DUP2 DUP4 PUSH2 0x1044 JUMP JUMPDEST SWAP2 SWAP1 PUSH2 0x61D JUMP JUMPDEST PUSH1 0x40 MLOAD PUSH4 0x2BB9ACF7 PUSH1 0xE0 SHL DUP2 MSTORE PUSH1 0x4 SWAP1 REVERT JUMPDEST POP DUP2 PUSH1 0x4 ADD CALLDATALOAD ISZERO PUSH2 0x5E1 JUMP JUMPDEST PUSH2 0xA1E CALLER PUSH2 0x1108 JUMP JUMPDEST PUSH1 0x40 MLOAD SWAP2 PUSH2 0xA2B DUP4 PUSH2 0x1028 JUMP JUMPDEST PUSH1 0x42 DUP4 MSTORE PUSH1 0x20 DUP4 ADD SWAP1 PUSH1 0x60 CALLDATASIZE DUP4 CALLDATACOPY DUP4 MLOAD ISZERO PUSH2 0x29F JUMPI PUSH1 0x30 DUP3 MSTORE8 DUP4 MLOAD PUSH1 0x1 SWAP1 DUP2 LT ISZERO PUSH2 0x29F JUMPI PUSH1 0x78 PUSH1 0x21 DUP7 ADD MSTORE8 PUSH1 0x41 SWAP1 JUMPDEST DUP1 DUP3 GT PUSH2 0xB23 JUMPI POP POP PUSH2 0xADF JUMPI PUSH1 0x48 PUSH2 0xAB0 SWAP3 PUSH2 0xABF SWAP3 PUSH2 0x1FE SWAP6 PUSH1 0x40 MLOAD SWAP6 DUP7 SWAP4 PUSH23 0x20B1B1B2B9B9A1B7B73A3937B61D1030B1B1B7BAB73A1 PUSH1 0x4D SHL PUSH1 0x20 DUP7 ADD MSTORE PUSH2 0x199 DUP2 MLOAD DUP1 SWAP3 PUSH1 0x20 PUSH1 0x37 DUP10 ADD SWAP2 ADD PUSH2 0xE11 JUMP JUMPDEST ADD SUB PUSH1 0x28 DUP2 ADD DUP5 MSTORE ADD DUP3 PUSH2 0x1044 JUMP JUMPDEST PUSH1 0x40 MLOAD PUSH3 0x461BCD PUSH1 0xE5 SHL DUP2 MSTORE PUSH1 0x20 PUSH1 0x4 DUP3 ADD MSTORE SWAP2 DUP3 SWAP2 PUSH1 0x24 DUP4 ADD SWAP1 PUSH2 0xE34 JUMP JUMPDEST PUSH1 0x64 PUSH1 0x40 MLOAD PUSH3 0x461BCD PUSH1 0xE5 SHL DUP2 MSTORE PUSH1 0x20 PUSH1 0x4 DUP3 ADD MSTORE PUSH1 0x20 PUSH1 0x24 DUP3 ADD MSTORE PUSH32 0x537472696E67733A20686578206C656E67746820696E73756666696369656E74 PUSH1 0x44 DUP3 ADD MSTORE REVERT JUMPDEST SWAP1 SWAP2 PUSH1 0xF DUP2 AND PUSH1 0x10 DUP2 LT ISZERO PUSH2 0x29F JUMPI PUSH16 0x181899199A1A9B1B9C1CB0B131B232B3 PUSH1 0x81 SHL SWAP1 BYTE PUSH2 0xB52 DUP5 DUP9 PUSH2 0x10F7 JUMP JUMPDEST MSTORE8 PUSH1 0x4 SHR SWAP2 DUP1 ISZERO PUSH2 0x289 JUMPI PUSH1 0x0 NOT ADD SWAP1 PUSH2 0xA5B JUMP JUMPDEST CALLVALUE PUSH2 0x2B5 JUMPI PUSH1 0x0 CALLDATASIZE PUSH1 0x3 NOT ADD SLT PUSH2 0x2B5 JUMPI PUSH1 0x20 PUSH1 0x1 PUSH1 0x1 PUSH1 0xA0 SHL SUB PUSH1 0x2 SLOAD AND PUSH1 0x40 MLOAD SWAP1 DUP2 MSTORE RETURN JUMPDEST CALLVALUE PUSH2 0x2B5 JUMPI PUSH1 0x0 CALLDATASIZE PUSH1 0x3 NOT ADD SLT PUSH2 0x2B5 JUMPI PUSH1 0x20 PUSH1 0x40 MLOAD PUSH1 0x0 DUP2 MSTORE RETURN JUMPDEST CALLVALUE PUSH2 0x2B5 JUMPI PUSH1 0x40 CALLDATASIZE PUSH1 0x3 NOT ADD SLT PUSH2 0x2B5 JUMPI PUSH2 0xBC3 PUSH2 0xDFB JUMP JUMPDEST PUSH1 0x4 CALLDATALOAD PUSH1 0x0 MSTORE PUSH1 0x0 PUSH1 0x20 MSTORE PUSH1 0x1 PUSH1 0x1 PUSH1 0xA0 SHL SUB PUSH1 0x40 PUSH1 0x0 KECCAK256 SWAP2 AND PUSH1 0x0 MSTORE PUSH1 0x20 MSTORE PUSH1 0x20 PUSH1 0xFF PUSH1 0x40 PUSH1 0x0 KECCAK256 SLOAD AND PUSH1 0x40 MLOAD SWAP1 ISZERO ISZERO DUP2 MSTORE RETURN JUMPDEST CALLVALUE PUSH2 0x2B5 JUMPI PUSH1 0x40 CALLDATASIZE PUSH1 0x3 NOT ADD SLT PUSH2 0x2B5 JUMPI PUSH2 0xC11 PUSH2 0xDFB JUMP JUMPDEST CALLER PUSH1 0x1 PUSH1 0x1 PUSH1 0xA0 SHL SUB DUP3 AND SUB PUSH2 0xC2D JUMPI PUSH2 0x519 SWAP1 PUSH1 0x4 CALLDATALOAD PUSH2 0x1066 JUMP JUMPDEST PUSH1 0x40 MLOAD PUSH3 0x461BCD PUSH1 0xE5 SHL DUP2 MSTORE PUSH1 0x20 PUSH1 0x4 DUP3 ADD MSTORE PUSH1 0x2F PUSH1 0x24 DUP3 ADD MSTORE PUSH32 0x416363657373436F6E74726F6C3A2063616E206F6E6C792072656E6F756E6365 PUSH1 0x44 DUP3 ADD MSTORE PUSH15 0x103937B632B9903337B91039B2B633 PUSH1 0x89 SHL PUSH1 0x64 DUP3 ADD MSTORE PUSH1 0x84 SWAP1 REVERT JUMPDEST CALLVALUE PUSH2 0x2B5 JUMPI PUSH1 0x40 CALLDATASIZE PUSH1 0x3 NOT ADD SLT PUSH2 0x2B5 JUMPI PUSH1 0x4 CALLDATALOAD PUSH2 0xCA6 PUSH2 0xDFB JUMP JUMPDEST DUP2 PUSH1 0x0 MSTORE PUSH1 0x0 PUSH1 0x20 MSTORE PUSH2 0xCC0 PUSH1 0x1 PUSH1 0x40 PUSH1 0x0 KECCAK256 ADD SLOAD PUSH2 0xE59 JUMP JUMPDEST DUP2 PUSH1 0x0 MSTORE PUSH1 0x0 PUSH1 0x20 MSTORE PUSH1 0x1 PUSH1 0x1 PUSH1 0xA0 SHL SUB PUSH1 0x40 PUSH1 0x0 KECCAK256 SWAP2 AND SWAP1 DUP2 PUSH1 0x0 MSTORE PUSH1 0x20 MSTORE PUSH1 0xFF PUSH1 0x40 PUSH1 0x0 KECCAK256 SLOAD AND ISZERO PUSH2 0xCF0 JUMPI STOP JUMPDEST DUP2 PUSH1 0x0 MSTORE PUSH1 0x0 PUSH1 0x20 MSTORE PUSH1 0x40 PUSH1 0x0 KECCAK256 DUP2 PUSH1 0x0 MSTORE PUSH1 0x20 MSTORE PUSH1 0x40 PUSH1 0x0 KECCAK256 PUSH1 0x1 PUSH1 0xFF NOT DUP3 SLOAD AND OR SWAP1 SSTORE CALLER SWAP2 PUSH32 0x2F8788117E7EFF1D82E926EC794901D17C78024A50270940304540A733656F0D PUSH1 0x0 DUP1 LOG4 STOP JUMPDEST CALLVALUE PUSH2 0x2B5 JUMPI PUSH1 0x20 CALLDATASIZE PUSH1 0x3 NOT ADD SLT PUSH2 0x2B5 JUMPI PUSH1 0x4 CALLDATALOAD PUSH1 0x0 MSTORE PUSH1 0x0 PUSH1 0x20 MSTORE PUSH1 0x20 PUSH1 0x1 PUSH1 0x40 PUSH1 0x0 KECCAK256 ADD SLOAD PUSH1 0x40 MLOAD SWAP1 DUP2 MSTORE RETURN JUMPDEST CALLVALUE PUSH2 0x2B5 JUMPI PUSH1 0x0 CALLDATASIZE PUSH1 0x3 NOT ADD SLT PUSH2 0x2B5 JUMPI PUSH1 0x20 PUSH1 0x40 MLOAD PUSH32 0x8502233096D909BEFBDA0999BB8EA2F3A6BE3C138B9FBF003752A4C8BCE86F6C DUP2 MSTORE RETURN JUMPDEST CALLVALUE PUSH2 0x2B5 JUMPI PUSH1 0x20 CALLDATASIZE PUSH1 0x3 NOT ADD SLT PUSH2 0x2B5 JUMPI PUSH1 0x4 CALLDATALOAD SWAP1 PUSH4 0xFFFFFFFF PUSH1 0xE0 SHL DUP3 AND DUP1 SWAP3 SUB PUSH2 0x2B5 JUMPI PUSH1 0x20 SWAP2 PUSH4 0x7965DB0B PUSH1 0xE0 SHL DUP2 EQ SWAP1 DUP2 ISZERO PUSH2 0xDEA JUMPI JUMPDEST POP ISZERO ISZERO DUP2 MSTORE RETURN JUMPDEST PUSH4 0x1FFC9A7 PUSH1 0xE0 SHL EQ SWAP1 POP DUP4 PUSH2 0xDE3 JUMP JUMPDEST PUSH1 0x24 CALLDATALOAD SWAP1 PUSH1 0x1 PUSH1 0x1 PUSH1 0xA0 SHL SUB DUP3 AND DUP3 SUB PUSH2 0x2B5 JUMPI JUMP JUMPDEST PUSH1 0x0 JUMPDEST DUP4 DUP2 LT PUSH2 0xE24 JUMPI POP POP PUSH1 0x0 SWAP2 ADD MSTORE JUMP JUMPDEST DUP2 DUP2 ADD MLOAD DUP4 DUP3 ADD MSTORE PUSH1 0x20 ADD PUSH2 0xE14 JUMP JUMPDEST SWAP1 PUSH1 0x20 SWAP2 PUSH2 0xE4D DUP2 MLOAD DUP1 SWAP3 DUP2 DUP6 MSTORE DUP6 DUP1 DUP7 ADD SWAP2 ADD PUSH2 0xE11 JUMP JUMPDEST PUSH1 0x1F ADD PUSH1 0x1F NOT AND ADD ADD SWAP1 JUMP JUMPDEST PUSH1 0x0 SWAP1 DUP1 DUP3 MSTORE PUSH1 0x20 SWAP1 DUP3 DUP3 MSTORE PUSH1 0x40 SWAP3 DUP4 DUP2 KECCAK256 CALLER DUP3 MSTORE DUP4 MSTORE PUSH1 0xFF DUP5 DUP3 KECCAK256 SLOAD AND ISZERO PUSH2 0xE82 JUMPI POP POP POP POP JUMP JUMPDEST PUSH2 0xE8B CALLER PUSH2 0x1108 JUMP JUMPDEST SWAP2 DUP5 MLOAD SWAP1 PUSH2 0xE98 DUP3 PUSH2 0x1028 JUMP JUMPDEST PUSH1 0x42 DUP3 MSTORE DUP5 DUP3 ADD SWAP3 PUSH1 0x60 CALLDATASIZE DUP6 CALLDATACOPY DUP3 MLOAD ISZERO PUSH2 0xFF8 JUMPI PUSH1 0x30 DUP5 MSTORE8 DUP3 MLOAD SWAP1 PUSH1 0x1 SWAP2 DUP3 LT ISZERO PUSH2 0xFF8 JUMPI SWAP1 PUSH1 0x78 PUSH1 0x21 DUP6 ADD MSTORE8 PUSH1 0x41 SWAP2 JUMPDEST DUP2 DUP4 GT PUSH2 0xF8A JUMPI POP POP POP PUSH2 0xF48 JUMPI PUSH1 0x48 PUSH2 0x1FE SWAP4 DUP7 SWAP4 PUSH2 0xF2C SWAP4 PUSH2 0xF1D SWAP9 MLOAD SWAP9 DUP10 SWAP4 PUSH23 0x20B1B1B2B9B9A1B7B73A3937B61D1030B1B1B7BAB73A1 PUSH1 0x4D SHL DUP11 DUP7 ADD MSTORE PUSH2 0x199 DUP2 MLOAD DUP1 SWAP3 DUP13 PUSH1 0x37 DUP10 ADD SWAP2 ADD PUSH2 0xE11 JUMP JUMPDEST ADD SUB PUSH1 0x28 DUP2 ADD DUP8 MSTORE ADD DUP6 PUSH2 0x1044 JUMP JUMPDEST MLOAD SWAP3 DUP4 SWAP3 PUSH3 0x461BCD PUSH1 0xE5 SHL DUP5 MSTORE PUSH1 0x4 DUP5 ADD MSTORE PUSH1 0x24 DUP4 ADD SWAP1 PUSH2 0xE34 JUMP JUMPDEST PUSH1 0x64 DUP5 DUP7 MLOAD SWAP1 PUSH3 0x461BCD PUSH1 0xE5 SHL DUP3 MSTORE DUP1 PUSH1 0x4 DUP4 ADD MSTORE PUSH1 0x24 DUP3 ADD MSTORE PUSH32 0x537472696E67733A20686578206C656E67746820696E73756666696369656E74 PUSH1 0x44 DUP3 ADD MSTORE REVERT JUMPDEST SWAP1 SWAP2 SWAP3 PUSH1 0xF DUP2 AND PUSH1 0x10 DUP2 LT ISZERO PUSH2 0xFE4 JUMPI PUSH16 0x181899199A1A9B1B9C1CB0B131B232B3 PUSH1 0x81 SHL SWAP1 BYTE PUSH2 0xFBA DUP6 DUP8 PUSH2 0x10F7 JUMP JUMPDEST MSTORE8 PUSH1 0x4 SHR SWAP3 DUP1 ISZERO PUSH2 0xFD0 JUMPI PUSH1 0x0 NOT ADD SWAP2 SWAP1 PUSH2 0xEC9 JUMP JUMPDEST PUSH4 0x4E487B71 PUSH1 0xE0 SHL DUP3 MSTORE PUSH1 0x11 PUSH1 0x4 MSTORE PUSH1 0x24 DUP3 REVERT JUMPDEST PUSH4 0x4E487B71 PUSH1 0xE0 SHL DUP4 MSTORE PUSH1 0x32 PUSH1 0x4 MSTORE PUSH1 0x24 DUP4 REVERT JUMPDEST PUSH4 0x4E487B71 PUSH1 0xE0 SHL DUP2 MSTORE PUSH1 0x32 PUSH1 0x4 MSTORE PUSH1 0x24 SWAP1 REVERT JUMPDEST PUSH1 0xA0 DUP2 ADD SWAP1 DUP2 LT PUSH8 0xFFFFFFFFFFFFFFFF DUP3 GT OR PUSH2 0x4C4 JUMPI PUSH1 0x40 MSTORE JUMP JUMPDEST PUSH1 0x80 DUP2 ADD SWAP1 DUP2 LT PUSH8 0xFFFFFFFFFFFFFFFF DUP3 GT OR PUSH2 0x4C4 JUMPI PUSH1 0x40 MSTORE JUMP JUMPDEST SWAP1 PUSH1 0x1F DUP1 NOT SWAP2 ADD AND DUP2 ADD SWAP1 DUP2 LT PUSH8 0xFFFFFFFFFFFFFFFF DUP3 GT OR PUSH2 0x4C4 JUMPI PUSH1 0x40 MSTORE JUMP JUMPDEST SWAP1 PUSH1 0x0 SWAP2 DUP1 DUP4 MSTORE DUP3 PUSH1 0x20 MSTORE PUSH1 0x1 PUSH1 0x1 PUSH1 0xA0 SHL SUB PUSH1 0x40 DUP5 KECCAK256 SWAP3 AND SWAP2 DUP3 DUP5 MSTORE PUSH1 0x20 MSTORE PUSH1 0xFF PUSH1 0x40 DUP5 KECCAK256 SLOAD AND PUSH2 0x1097 JUMPI POP POP POP JUMP JUMPDEST DUP1 DUP4 MSTORE DUP3 PUSH1 0x20 MSTORE PUSH1 0x40 DUP4 KECCAK256 DUP3 DUP5 MSTORE PUSH1 0x20 MSTORE PUSH1 0x40 DUP4 KECCAK256 PUSH1 0xFF NOT DUP2 SLOAD AND SWAP1 SSTORE PUSH32 0xF6391F5C32D9C69D2A47EA670B442974B53935D1EDC7FD64EB21E047A839171B CALLER SWAP4 DUP1 LOG4 JUMP JUMPDEST PUSH8 0xFFFFFFFFFFFFFFFF DUP2 GT PUSH2 0x4C4 JUMPI PUSH1 0x1F ADD PUSH1 0x1F NOT AND PUSH1 0x20 ADD SWAP1 JUMP JUMPDEST SWAP1 DUP2 MLOAD DUP2 LT ISZERO PUSH2 0x29F JUMPI ADD PUSH1 0x20 ADD SWAP1 JUMP JUMPDEST PUSH1 0x40 MLOAD SWAP1 PUSH1 0x60 DUP3 ADD DUP3 DUP2 LT PUSH8 0xFFFFFFFFFFFFFFFF DUP3 GT OR PUSH2 0x4C4 JUMPI PUSH1 0x40 MSTORE PUSH1 0x2A DUP3 MSTORE PUSH1 0x20 DUP3 ADD PUSH1 0x40 CALLDATASIZE DUP3 CALLDATACOPY DUP3 MLOAD ISZERO PUSH2 0x29F JUMPI PUSH1 0x30 SWAP1 MSTORE8 DUP2 MLOAD PUSH1 0x1 SWAP1 DUP2 LT ISZERO PUSH2 0x29F JUMPI PUSH1 0x78 PUSH1 0x21 DUP5 ADD MSTORE8 PUSH1 0x29 SWAP1 JUMPDEST DUP1 DUP3 GT PUSH2 0x1165 JUMPI POP POP PUSH2 0xADF JUMPI SWAP1 JUMP JUMPDEST SWAP1 SWAP2 PUSH1 0xF DUP2 AND PUSH1 0x10 DUP2 LT ISZERO PUSH2 0x11BE JUMPI PUSH16 0x181899199A1A9B1B9C1CB0B131B232B3 PUSH1 0x81 SHL SWAP1 BYTE PUSH2 0x1194 DUP5 DUP7 PUSH2 0x10F7 JUMP JUMPDEST MSTORE8 PUSH1 0x4 SHR SWAP2 DUP1 ISZERO PUSH2 0x11A9 JUMPI PUSH1 0x0 NOT ADD SWAP1 PUSH2 0x1155 JUMP JUMPDEST PUSH1 0x24 PUSH1 0x0 PUSH4 0x4E487B71 PUSH1 0xE0 SHL DUP2 MSTORE PUSH1 0x11 PUSH1 0x4 MSTORE REVERT JUMPDEST PUSH1 0x24 PUSH1 0x0 PUSH4 0x4E487B71 PUSH1 0xE0 SHL DUP2 MSTORE PUSH1 0x32 PUSH1 0x4 MSTORE REVERT JUMPDEST DUP2 PUSH1 0x1F DUP3 ADD SLT ISZERO PUSH2 0x2B5 JUMPI DUP1 MLOAD PUSH2 0x11E9 DUP2 PUSH2 0x10DB JUMP JUMPDEST SWAP3 PUSH2 0x11F7 PUSH1 0x40 MLOAD SWAP5 DUP6 PUSH2 0x1044 JUMP JUMPDEST DUP2 DUP5 MSTORE PUSH1 0x20 DUP3 DUP5 ADD ADD GT PUSH2 0x2B5 JUMPI PUSH2 0x1215 SWAP2 PUSH1 0x20 DUP1 DUP6 ADD SWAP2 ADD PUSH2 0xE11 JUMP JUMPDEST SWAP1 JUMP JUMPDEST MLOAD SWAP1 DUP2 ISZERO ISZERO DUP3 SUB PUSH2 0x2B5 JUMPI JUMP JUMPDEST PUSH1 0x20 DUP2 DUP4 SUB SLT PUSH2 0x2B5 JUMPI DUP1 MLOAD PUSH8 0xFFFFFFFFFFFFFFFF SWAP2 DUP3 DUP3 GT PUSH2 0x2B5 JUMPI ADD SWAP1 PUSH1 0xE0 DUP3 DUP5 SUB SLT PUSH2 0x2B5 JUMPI PUSH1 0x40 MLOAD SWAP3 PUSH1 0xE0 DUP5 ADD DUP5 DUP2 LT DUP4 DUP3 GT OR PUSH2 0x4C4 JUMPI PUSH1 0x40 MSTORE DUP3 MLOAD DUP3 DUP2 GT PUSH2 0x2B5 JUMPI DUP2 PUSH2 0x1279 SWAP2 DUP6 ADD PUSH2 0x11D3 JUMP JUMPDEST DUP5 MSTORE PUSH1 0x20 DUP4 ADD MLOAD PUSH1 0x5 DUP2 LT ISZERO PUSH2 0x2B5 JUMPI PUSH1 0x20 DUP6 ADD MSTORE PUSH2 0x129A PUSH1 0x40 DUP5 ADD PUSH2 0x1218 JUMP JUMPDEST PUSH1 0x40 DUP6 ADD MSTORE PUSH1 0x60 DUP4 ADD MLOAD SWAP2 DUP3 GT PUSH2 0x2B5 JUMPI PUSH2 0x12B6 SWAP2 DUP4 ADD PUSH2 0x11D3 JUMP JUMPDEST PUSH1 0x60 DUP4 ADD MSTORE PUSH1 0x80 DUP2 ADD MLOAD PUSH1 0x1 PUSH1 0x1 PUSH1 0xA0 SHL SUB DUP2 AND DUP2 SUB PUSH2 0x2B5 JUMPI PUSH2 0x12EC SWAP2 PUSH1 0xC0 SWAP2 PUSH1 0x80 DUP6 ADD MSTORE PUSH1 0xA0 DUP2 ADD MLOAD PUSH1 0xA0 DUP6 ADD MSTORE ADD PUSH2 0x1218 JUMP JUMPDEST PUSH1 0xC0 DUP3 ADD MSTORE SWAP1 JUMP JUMPDEST SWAP1 PUSH1 0x1 DUP3 DUP2 SHR SWAP3 AND DUP1 ISZERO PUSH2 0x1324 JUMPI JUMPDEST PUSH1 0x20 DUP4 LT EQ PUSH2 0x130E JUMPI JUMP JUMPDEST PUSH4 0x4E487B71 PUSH1 0xE0 SHL PUSH1 0x0 MSTORE PUSH1 0x22 PUSH1 0x4 MSTORE PUSH1 0x24 PUSH1 0x0 REVERT JUMPDEST SWAP2 PUSH1 0x7F AND SWAP2 PUSH2 0x1303 JUMP INVALID LOG2 PUSH5 0x6970667358 0x22 SLT KECCAK256 EXTCODECOPY PUSH24 0xED3AF835202F931C48099ACC7A528992B12727E0B5CA7C90 NOT 0xB5 TIMESTAMP PUSH30 0x4F4764736F6C634300081300332F8788117E7EFF1D82E926EC794901D17C PUSH25 0x24A50270940304540A733656F0D0000000000000000000000 "},"methodIdentifiers":{"DEFAULT_ADMIN_ROLE()":"a217fddf","TRANSFER_ROLE()":"206b60f9","getRoleAdmin(bytes32)":"248a9ca3","getTransfers(uint256)":"da9b3410","grantRole(bytes32,address)":"2f2ff15d","hasRole(bytes32,address)":"91d14854","renounceRole(bytes32,address)":"36568abe","revokeRole(bytes32,address)":"d547741f","setStakeholderContract(address)":"fd4174ca","stakeholderContract()":"bbf27b2b","supportsInterface(bytes4)":"01ffc9a7","transferBatch(uint256,address,string)":"c12bcaec"}}}}}