{"contracts/StakeholderContract.sol":{"StakeholderContract":{"abi":[{"inputs":[{"internalType":"address","name":"admin","type":"address"}],"stateMutability":"nonpayable","type":"constructor"},{"inputs":[],"name":"AlreadyRegistered","type":"error"},{"inputs":[],"name":"BadInput","type":"error"},{"inputs":[],"name":"NotRegistered","type":"error"},{"anonymous":false,"inputs":[{"indexed":true,"internalType":"address","name":"wallet","type":"address"},{"indexed":false,"internalType":"string","name":"name","type":"string"},{"indexed":false,"internalType":"enum StakeholderContract.Role","name":"role","type":"uint8"}],"name":"CompanyRegistered","type":"event"},{"anonymous":false,"inputs":[{"indexed":true,"internalType":"address","name":"wallet","type":"address"},{"indexed":false,"internalType":"bool","name":"kycCompleted","type":"bool"},{"indexed":false,"internalType":"string","name":"kycReference","type":"string"},{"indexed":false,"internalType":"bool","name":"active","type":"bool"}],"name":"CompanyUpdated","type":"event"},{"anonymous":false,"inputs":[{"indexed":true,"internalType":"bytes32","name":"role","type":"bytes32"},{"indexed":true,"internalType":"bytes32","name":"previousAdminRole","type":"bytes32"},{"indexed":true,"internalType":"bytes32","name":"newAdminRole","type":"bytes32"}],"name":"RoleAdminChanged","type":"event"},{"anonymous":false,"inputs":[{"indexed":true,"internalType":"bytes32","name":"role","type":"bytes32"},{"indexed":true,"internalType":"address","name":"account","type":"address"},{"indexed":true,"internalType":"address","name":"sender","type":"address"}],"name":"RoleGranted","type":"event"},{"anonymous":false,"inputs":[{"indexed":true,"internalType":"bytes32","name":"role","type":"bytes32"},{"indexed":true,"internalType":"address","name":"account","type":"address"},{"indexed":true,"internalType":"address","name":"sender","type":"address"}],"name":"RoleRevoked","type":"event"},{"inputs":[],"name":"DEFAULT_ADMIN_ROLE","outputs":[{"internalType":"bytes32","name":"","type":"bytes32"}],"stateMutability":"view","type":"function"},{"inputs":[],"name":"REGISTRAR_ROLE","outputs":[{"internalType":"bytes32","name":"","type":"bytes32"}],"stateMutability":"view","type":"function"},{"inputs":[{"internalType":"address","name":"wallet","type":"address"}],"name":"getCompany","outputs":[{"components":[{"internalType":"string","name":"name","type":"string"},{"internalType":"enum StakeholderContract.Role","name":"role","type":"uint8"},{"internalType":"bool","name":"kycCompleted","type":"bool"},{"internalType":"string","name":"kycReference","type":"string"},{"internalType":"address","name":"wallet","type":"address"},{"internalType":"uint256","name":"registeredAt","type":"uint256"},{"internalType":"bool","name":"active","type":"bool"}],"internalType":"struct StakeholderContract.Company","name":"","type":"tuple"}],"stateMutability":"view","type":"function"},{"inputs":[{"internalType":"bytes32","name":"role","type":"bytes32"}],"name":"getRoleAdmin","outputs":[{"internalType":"bytes32","name":"","type":"bytes32"}],"stateMutability":"view","type":"function"},{"inputs":[{"internalType":"bytes32","name":"role","type":"bytes32"},{"internalType":"address","name":"account","type":"address"}],"name":"grantRole","outputs":[],"stateMutability":"nonpayable","type":"function"},{"inputs":[{"internalType":"bytes32","name":"role","type":"bytes32"},{"internalType":"address","name":"account","type":"address"}],"name":"hasRole","outputs":[{"internalType":"bool","name":"","type":"bool"}],"stateMutability":"view","type":"function"},{"inputs":[],"name":"listCompanies","outputs":[{"components":[{"internalType":"string","name":"name","type":"string"},{"internalType":"enum StakeholderContract.Role","name":"role","type":"uint8"},{"internalType":"bool","name":"kycCompleted","type":"bool"},{"internalType":"string","name":"kycReference","type":"string"},{"internalType":"address","name":"wallet","type":"address"},{"internalType":"uint256","name":"registeredAt","type":"uint256"},{"internalType":"bool","name":"active","type":"bool"}],"internalType":"struct StakeholderContract.Company[]","name":"","type":"tuple[]"}],"stateMutability":"view","type":"function"},{"inputs":[{"internalType":"address","name":"wallet","type":"address"},{"internalType":"string","name":"name","type":"string"},{"internalType":"enum StakeholderContract.Role","name":"role","type":"uint8"}],"name":"registerCompany","outputs":[],"stateMutability":"nonpayable","type":"function"},{"inputs":[{"internalType":"bytes32","name":"role","type":"bytes32"},{"internalType":"address","name":"account","type":"address"}],"name":"renounceRole","outputs":[],"stateMutability":"nonpayable","type":"function"},{"inputs":[{"internalType":"bytes32","name":"role","type":"bytes32"},{"internalType":"address","name":"account","type":"address"}],"name":"revokeRole","outputs":[],"stateMutability":"nonpayable","type":"function"},{"inputs":[{"internalType":"address","name":"wallet","type":"address"},{"internalType":"bool","name":"active","type":"bool"}],"name":"setActive","outputs":[],"stateMutability":"nonpayable","type":"function"},{"inputs":[{"internalType":"address","name":"wallet","type":"address"},{"internalType":"bool","name":"completed","type":"bool"},{"internalType":"string","name":"kycReference","type":"string"}],"name":"setKYC","outputs":[],"stateMutability":"nonpayable","type":"function"},{"inputs":[{"internalType":"bytes4","name":"interfaceId","type":"bytes4"}],"name":"supportsInterface","outputs":[{"internalType":"bool","name":"","type":"bool"}],"stateMutability":"view","type":"function"}],"evm":{"bytecode":{"linkReferences":{},"object":"60803461013157601f620016ec38819003918201601f1916830192916001600160401b03841183851017610136578083926040958652833960209283918101031261013157516001600160a01b0381169081900361013157600091828052828152838320828452815260ff8484205416156100fa575b7fedcc084d3dcd65a1f7f23c65c46722faca6953d28e43150a467cf43e5c30923890818452838152848420838552815260ff8585205416156100c1575b845161157f90816200014d8239f35b8184528381528484209083855252838320600160ff19825416179055600080516020620016cc833981519152339380a4388080806100b2565b8280528281528383208284528152838320805460ff19166001179055338284600080516020620016cc8339815191528180a4610075565b600080fd5b634e487b7160e01b600052604160045260246000fdfe608080604052600436101561001357600080fd5b60003560e01c90816301ffc9a714610c9857508063248a9ca314610c695780632ce962cf14610bb55780632f2ff15d14610b0157806336568abe14610a6f57806344187237146108c257806362bc56e6146107e15780638e320bda1461060c57806391d14854146105be578063a217fddf146105a2578063c3c8b27c1461012f578063d547741f146100ee5763f68e9553146100ae57600080fd5b346100e95760003660031901126100e95760206040517fedcc084d3dcd65a1f7f23c65c46722faca6953d28e43150a467cf43e5c3092388152f35b600080fd5b346100e95760403660031901126100e95761012d60043561010d610d01565b90806000526000602052610128600160406000200154611048565b6111b2565b005b346100e95760603660031901126100e957610148610ceb565b60243567ffffffffffffffff81116100e957610168903690600401610ded565b91906044359260058410156100e95761017f610e1b565b6001600160a01b03831615801561059a575b8015610592575b610580576001600160a01b038316600052600160205260046040600020015461056e576040516101c781611158565b67ffffffffffffffff8211610447576040516101ed601f8401601f191660200182611190565b82815236838501116100e957828460208301376000602084830101528152610218856020830161135d565b6000604082015260405180602081011067ffffffffffffffff60208301111761044757602081016040526000815260608201526001600160a01b03841660808201524260a0820152600160c08201526001600160a01b0384166000526001602052604060002090805180519067ffffffffffffffff82116104475781906102a9826102a38754611369565b876113a3565b602090601f8311600114610502576000926104f7575b50508160011b916000199060031b1c19161782555b60208101516001830160058210156104e1578054604084015161ff0090151560081b1660ff9390931661ffff1990911617919091179055606081015180519067ffffffffffffffff82116104475761033c826103336002870154611369565b600287016113a3565b602090601f831160011461046857928260059360c0936103b9979660009261045d575b50508160011b916000199060031b1c19161760028501555b600384016001600160a01b036080830151166001600160a01b031982541617905560a081015160048501550151151591019060ff801983541691151516179055565b60025468010000000000000000811015610447577f69eee46bd182487ea2234921833a3c4dd7860678ce16cfc25127141be78b9c02936104078260016001600160a01b0394016002556113f7565b81549060031b9084808516831b921b191617905561044061043560405195869560408752604087019161142e565b966020850190610d6e565b16930390a2005b634e487b7160e01b600052604160045260246000fd5b015190508b8061035f565b906002850160005260206000209160005b601f19851681106104c957508360c0936103b9979693600193600597601f198116106104b0575b505050811b016002850155610377565b015160001960f88460031b161c191690558b80806104a0565b91926020600181928685015181550194019201610479565b634e487b7160e01b600052602160045260246000fd5b0151905088806102bf565b9250846000526020600020906000935b601f1984168510610553576001945083601f1981161061053a575b505050811b0182556102d4565b015160001960f88460031b161c1916905588808061052d565b81810151835560209485019460019093019290910190610512565b604051630ea075bf60e21b8152600490fd5b604051632bb9acf760e01b8152600490fd5b508315610198565b508015610191565b346100e95760003660031901126100e957602060405160008152f35b346100e95760403660031901126100e9576105d7610d01565b60043560005260006020526001600160a01b0360406000209116600052602052602060ff604060002054166040519015158152f35b346100e95760603660031901126100e957610625610ceb565b61062d610d17565b6044359067ffffffffffffffff908183116100e9576106586001600160a01b03933690600401610ded565b939094610663610e1b565b16928360005260016020938185526040600020916004830154156107cf57828101805461ff00191686151560081b61ff001617905560028301918411610447576106b7846106b18454611369565b846113a3565b6000601f85116001146107425761072a937feb5bf70dd3d6056bd71cd8d630a02ffbebf29f4103b77285f9225a3e3cb48484989993868060ff95600595600093610737575b501b906000198960031b1c19161790555b01541692606060405196879615158752860152606085019161142e565b90151560408301520390a2005b88013592508e6106fc565b601f1985169083600052876000209160005b8181106107ba57509360ff9360059361072a9793897feb5bf70dd3d6056bd71cd8d630a02ffbebf29f4103b77285f9225a3e3cb484849d9e98106107a0575b505087811b01905561070d565b87013560001960038b901b60f8161c191690558c80610793565b8b830135845592840192918901918901610754565b60405163aba4733960e01b8152600490fd5b346100e95760203660031901126100e9576107fa610ceb565b6108026114e5565b506001600160a01b03809116600052600160205260406000206040519161082883611158565b60405161084081610839818661144f565b0382611190565b835260ff60018301546108588282166020870161135d565b60081c161515604084015260405161087781610839816002870161144f565b6060840152600382015416608083015260ff60056004830154928360a0860152015416151560c0830152156107cf576108be90604051918291602083526020830190610d7b565b0390f35b346100e95760003660031901126100e957600280546108e08161151d565b916108ee6040519384611190565b818352601f196108fd8361151d565b0160005b818110610a5857505060005b828110610973576040805160208082528651818301819052600093600582901b8401810192808a01929185015b8287106109475785850386f35b909192938280610963600193603f198a82030186528851610d7b565b960192019601959291909261093a565b60056109db610981836113f7565b6001600160a01b03939193809454600392831b1c16600052600193602091858352604060002092604051966109b588611158565b6040516109c681610839818961144f565b885284015460ff968792838316908a0161135d565b60081c16151560408701526040516109f981610839818c880161144f565b6060870152820154166080850152600481015460a0850152015416151560c0820152610a258286611535565b52610a308185611535565b506000198114610a425760010161090d565b634e487b7160e01b600052601160045260246000fd5b602090610a636114e5565b82828801015201610901565b346100e95760403660031901126100e957610a88610d01565b336001600160a01b03821603610aa45761012d906004356111b2565b60405162461bcd60e51b815260206004820152602f60248201527f416363657373436f6e74726f6c3a2063616e206f6e6c792072656e6f756e636560448201526e103937b632b9903337b91039b2b63360891b6064820152608490fd5b346100e95760403660031901126100e957600435610b1d610d01565b816000526000602052610b37600160406000200154611048565b8160005260006020526001600160a01b0360406000209116908160005260205260ff6040600020541615610b6757005b8160005260006020526040600020816000526020526040600020600160ff1982541617905533917f2f8788117e7eff1d82e926ec794901d17c78024a50270940304540a733656f0d600080a4005b346100e95760403660031901126100e957610bce610ceb565b6001600160a01b03610bde610d17565b91610be7610e1b565b169081600052600160205260406000206004810154156107cf5781610c3c7feb5bf70dd3d6056bd71cd8d630a02ffbebf29f4103b77285f9225a3e3cb4848493600584019060ff801983541691151516179055565b60ff600183015460081c169061072a6040519384931515845260606020850152600260608501910161144f565b346100e95760203660031901126100e95760043560005260006020526020600160406000200154604051908152f35b346100e95760203660031901126100e9576004359063ffffffff60e01b82168092036100e957602091637965db0b60e01b8114908115610cda575b5015158152f35b6301ffc9a760e01b14905083610cd3565b600435906001600160a01b03821682036100e957565b602435906001600160a01b03821682036100e957565b6024359081151582036100e957565b60005b838110610d395750506000910152565b8181015183820152602001610d29565b90602091610d6281518092818552858086019101610d26565b601f01601f1916010190565b9060058210156104e15752565b9060c080610dc5610d95855160e0865260e0860190610d49565b610da760208701516020870190610d6e565b60408601511515604086015260608601518582036060870152610d49565b936001600160a01b03608082015116608085015260a081015160a08501520151151591015290565b9181601f840112156100e95782359167ffffffffffffffff83116100e957602083818601950101116100e957565b3360009081527f01ddc098da42acdf4176da08ec75800bc0fb2bce2be978b2037bcb0ae6966519602090815260408083205490927fedcc084d3dcd65a1f7f23c65c46722faca6953d28e43150a467cf43e5c3092389160ff1615610e7f5750505050565b610e883361124e565b91845190610e9582611174565b6042825284820192606036853782511561103457603084538251906001918210156110345790607860218501536041915b818311610fc657505050610f84576048610f80938693610f6493610f5598519889937f416363657373436f6e74726f6c3a206163636f756e74200000000000000000008a860152610f20815180928c603789019101610d26565b8401917f206973206d697373696e6720726f6c6520000000000000000000000000000000603784015251809386840190610d26565b01036028810187520185611190565b5192839262461bcd60e51b845260048401526024830190610d49565b0390fd5b60648486519062461bcd60e51b825280600483015260248201527f537472696e67733a20686578206c656e67746820696e73756666696369656e746044820152fd5b909192600f81166010811015611020576f181899199a1a9b1b9c1cb0b131b232b360811b901a610ff68587611227565b5360041c92801561100c57600019019190610ec6565b634e487b7160e01b82526011600452602482fd5b634e487b7160e01b83526032600452602483fd5b634e487b7160e01b81526032600452602490fd5b600090808252602090828252604092838120338252835260ff8482205416156110715750505050565b61107a3361124e565b9184519061108782611174565b6042825284820192606036853782511561103457603084538251906001918210156110345790607860218501536041915b81831161111257505050610f84576048610f80938693610f6493610f5598519889937f416363657373436f6e74726f6c3a206163636f756e74200000000000000000008a860152610f20815180928c603789019101610d26565b909192600f81166010811015611020576f181899199a1a9b1b9c1cb0b131b232b360811b901a6111428587611227565b5360041c92801561100c576000190191906110b8565b60e0810190811067ffffffffffffffff82111761044757604052565b6080810190811067ffffffffffffffff82111761044757604052565b90601f8019910116810190811067ffffffffffffffff82111761044757604052565b90600091808352826020526001600160a01b036040842092169182845260205260ff6040842054166111e357505050565b80835282602052604083208284526020526040832060ff1981541690557ff6391f5c32d9c69d2a47ea670b442974b53935d1edc7fd64eb21e047a839171b339380a4565b908151811015611238570160200190565b634e487b7160e01b600052603260045260246000fd5b604051906060820182811067ffffffffffffffff82111761044757604052602a82526020820160403682378251156112385760309053815160019081101561123857607860218401536029905b8082116112ef5750506112ab5790565b606460405162461bcd60e51b815260206004820152602060248201527f537472696e67733a20686578206c656e67746820696e73756666696369656e746044820152fd5b9091600f81166010811015611348576f181899199a1a9b1b9c1cb0b131b232b360811b901a61131e8486611227565b5360041c91801561133357600019019061129b565b60246000634e487b7160e01b81526011600452fd5b60246000634e487b7160e01b81526032600452fd5b60058210156104e15752565b90600182811c92168015611399575b602083101461138357565b634e487b7160e01b600052602260045260246000fd5b91607f1691611378565b90601f81116113b157505050565b600091825260208220906020601f850160051c830194106113ed575b601f0160051c01915b8281106113e257505050565b8181556001016113d6565b90925082906113cd565b6002548110156112385760026000527f405787fa12a823e0f2b7631cc41b3ba8828b3321ca811111fa75cd3aa3bb5ace0190600090565b908060209392818452848401376000828201840152601f01601f1916010190565b906000929180549161146083611369565b9182825260019384811690816000146114c25750600114611482575b50505050565b90919394506000526020928360002092846000945b8386106114ae57505050500101903880808061147c565b805485870183015294019385908201611497565b9294505050602093945060ff191683830152151560051b0101903880808061147c565b604051906114f282611158565b600060c083606081528260208201528260408201526060808201528260808201528260a08201520152565b67ffffffffffffffff81116104475760051b60200190565b80518210156112385760209160051b01019056fea2646970667358221220dedc10bf23082c8c667b3d5dd3e4d993606b73a95280e226740cbb5972ee8a5a64736f6c634300081300332f8788117e7eff1d82e926ec794901d17c78024a50270940304540a733656f0d","opcodes":"PUSH1 0x80 CALLVALUE PUSH2 0x131 JUMPI PUSH1 0x1F PUSH3 0x16EC CODESIZE DUP2 SWAP1 SUB SWAP2 DUP3 ADD PUSH1 0x1F NOT AND DUP4 ADD SWAP3 SWAP2 PUSH1 0x1 PUSH1 0x1 PUSH1 0x40 SHL SUB DUP5 GT DUP4 DUP6 LT OR PUSH2 0x136 JUMPI DUP1 DUP4 SWAP3 PUSH1 0x40 SWAP6 DUP7 MSTORE DUP4 CODECOPY PUSH1 0x20 SWAP3 DUP4 SWAP2 DUP2 ADD SUB SLT PUSH2 0x131 JUMPI MLOAD PUSH1 0x1 PUSH1 0x1 PUSH1 0xA0 SHL SUB DUP2 AND SWAP1 DUP2 SWAP1 SUB PUSH2 0x131 JUMPI PUSH1 0x0 SWAP2 DUP3 DUP1 MSTORE DUP3 DUP2 MSTORE DUP4 DUP4 KECCAK256 DUP3 DUP5 MSTORE DUP2 MSTORE PUSH1 0xFF DUP5 DUP5 KECCAK256 SLOAD AND ISZERO PUSH2 0xFA JUMPI JUMPDEST PUSH32 0xEDCC084D3DCD65A1F7F23C65C46722FACA6953D28E43150A467CF43E5C309238 SWAP1 DUP2 DUP5 MSTORE DUP4 DUP2 MSTORE DUP5 DUP5 KECCAK256 DUP4 DUP6 MSTORE DUP2 MSTORE PUSH1 0xFF DUP6 DUP6 KECCAK256 SLOAD AND ISZERO PUSH2 0xC1 JUMPI JUMPDEST DUP5 MLOAD PUSH2 0x157F SWAP1 DUP2 PUSH3 0x14D DUP3 CODECOPY RETURN JUMPDEST DUP2 DUP5 MSTORE DUP4 DUP2 MSTORE DUP5 DUP5 KECCAK256 SWAP1 DUP4 DUP6 MSTORE MSTORE DUP4 DUP4 KECCAK256 PUSH1 0x1 PUSH1 0xFF NOT DUP3 SLOAD AND OR SWAP1 SSTORE PUSH1 0x0 DUP1 MLOAD PUSH1 0x20 PUSH3 0x16CC DUP4 CODECOPY DUP2 MLOAD SWAP2 MSTORE CALLER SWAP4 DUP1 LOG4 CODESIZE DUP1 DUP1 DUP1 PUSH2 0xB2 JUMP JUMPDEST DUP3 DUP1 MSTORE DUP3 DUP2 MSTORE DUP4 DUP4 KECCAK256 DUP3 DUP5 MSTORE DUP2 MSTORE DUP4 DUP4 KECCAK256 DUP1 SLOAD PUSH1 0xFF NOT AND PUSH1 0x1 OR SWAP1 SSTORE CALLER DUP3 DUP5 PUSH1 0x0 DUP1 MLOAD PUSH1 0x20 PUSH3 0x16CC DUP4 CODECOPY DUP2 MLOAD SWAP2 MSTORE DUP2 DUP1 LOG4 PUSH2 0x75 JUMP JUMPDEST PUSH1 0x0 DUP1 REVERT JUMPDEST PUSH4 0x4E487B71 PUSH1 0xE0 SHL PUSH1 0x0 MSTORE PUSH1 0x41 PUSH1 0x4 MSTORE PUSH1 0x24 PUSH1 0x0 REVERT INVALID PUSH1 0x80 DUP1 PUSH1 0x40 MSTORE PUSH1 0x4 CALLDATASIZE LT ISZERO PUSH2 0x13 JUMPI PUSH1 0x0 DUP1 REVERT JUMPDEST PUSH1 0x0 CALLDATALOAD PUSH1 0xE0 SHR SWAP1 DUP2 PUSH4 0x1FFC9A7 EQ PUSH2 0xC98 JUMPI POP DUP1 PUSH4 0x248A9CA3 EQ PUSH2 0xC69 JUMPI DUP1 PUSH4 0x2CE962CF EQ PUSH2 0xBB5 JUMPI DUP1 PUSH4 0x2F2FF15D EQ PUSH2 0xB01 JUMPI DUP1 PUSH4 0x36568ABE EQ PUSH2 0xA6F JUMPI DUP1 PUSH4 0x44187237 EQ PUSH2 0x8C2 JUMPI DUP1 PUSH4 0x62BC56E6 EQ PUSH2 0x7E1 JUMPI DUP1 PUSH4 0x8E320BDA EQ PUSH2 0x60C JUMPI DUP1 PUSH4 0x91D14854 EQ PUSH2 0x5BE JUMPI DUP1 PUSH4 0xA217FDDF EQ PUSH2 0x5A2 JUMPI DUP1 PUSH4 0xC3C8B27C EQ PUSH2 0x12F JUMPI DUP1 PUSH4 0xD547741F EQ PUSH2 0xEE JUMPI PUSH4 0xF68E9553 EQ PUSH2 0xAE JUMPI PUSH1 0x0 DUP1 REVERT JUMPDEST CALLVALUE PUSH2 0xE9 JUMPI PUSH1 0x0 CALLDATASIZE PUSH1 0x3 NOT ADD SLT PUSH2 0xE9 JUMPI PUSH1 0x20 PUSH1 0x40 MLOAD PUSH32 0xEDCC084D3DCD65A1F7F23C65C46722FACA6953D28E43150A467CF43E5C309238 DUP2 MSTORE RETURN JUMPDEST PUSH1 0x0 DUP1 REVERT JUMPDEST CALLVALUE PUSH2 0xE9 JUMPI PUSH1 0x40 CALLDATASIZE PUSH1 0x3 NOT ADD SLT PUSH2 0xE9 JUMPI PUSH2 0x12D PUSH1 0x4 CALLDATALOAD PUSH2 0x10D PUSH2 0xD01 JUMP JUMPDEST SWAP1 DUP1 PUSH1 0x0 MSTORE PUSH1 0x0 PUSH1 0x20 MSTORE PUSH2 0x128 PUSH1 0x1 PUSH1 0x40 PUSH1 0x0 KECCAK256 ADD SLOAD PUSH2 0x1048 JUMP JUMPDEST PUSH2 0x11B2 JUMP JUMPDEST STOP JUMPDEST CALLVALUE PUSH2 0xE9 JUMPI PUSH1 0x60 CALLDATASIZE PUSH1 0x3 NOT ADD SLT PUSH2 0xE9 JUMPI PUSH2 0x148 PUSH2 0xCEB JUMP JUMPDEST PUSH1 0x24 CALLDATALOAD PUSH8 0xFFFFFFFFFFFFFFFF DUP2 GT PUSH2 0xE9 JUMPI PUSH2 0x168 SWAP1 CALLDATASIZE SWAP1 PUSH1 0x4 ADD PUSH2 0xDED JUMP JUMPDEST SWAP2 SWAP1 PUSH1 0x44 CALLDATALOAD SWAP3 PUSH1 0x5 DUP5 LT ISZERO PUSH2 0xE9 JUMPI PUSH2 0x17F PUSH2 0xE1B JUMP JUMPDEST PUSH1 0x1 PUSH1 0x1 PUSH1 0xA0 SHL SUB DUP4 AND ISZERO DUP1 ISZERO PUSH2 0x59A JUMPI JUMPDEST DUP1 ISZERO PUSH2 0x592 JUMPI JUMPDEST PUSH2 0x580 JUMPI PUSH1 0x1 PUSH1 0x1 PUSH1 0xA0 SHL SUB DUP4 AND PUSH1 0x0 MSTORE PUSH1 0x1 PUSH1 0x20 MSTORE PUSH1 0x4 PUSH1 0x40 PUSH1 0x0 KECCAK256 ADD SLOAD PUSH2 0x56E JUMPI PUSH1 0x40 MLOAD PUSH2 0x1C7 DUP2 PUSH2 0x1158 JUMP JUMPDEST PUSH8 0xFFFFFFFFFFFFFFFF DUP3 GT PUSH2 0x447 JUMPI PUSH1 0x40 MLOAD PUSH2 0x1ED PUSH1 0x1F DUP5 ADD PUSH1 0x1F NOT AND PUSH1 0x20 ADD DUP3 PUSH2 0x1190 JUMP JUMPDEST DUP3 DUP2 MSTORE CALLDATASIZE DUP4 DUP6 ADD GT PUSH2 0xE9 JUMPI DUP3 DUP5 PUSH1 0x20 DUP4 ADD CALLDATACOPY PUSH1 0x0 PUSH1 0x20 DUP5 DUP4 ADD ADD MSTORE DUP2 MSTORE PUSH2 0x218 DUP6 PUSH1 0x20 DUP4 ADD PUSH2 0x135D JUMP JUMPDEST PUSH1 0x0 PUSH1 0x40 DUP3 ADD MSTORE PUSH1 0x40 MLOAD DUP1 PUSH1 0x20 DUP2 ADD LT PUSH8 0xFFFFFFFFFFFFFFFF PUSH1 0x20 DUP4 ADD GT OR PUSH2 0x447 JUMPI PUSH1 0x20 DUP2 ADD PUSH1 0x40 MSTORE PUSH1 0x0 DUP2 MSTORE PUSH1 0x60 DUP3 ADD MSTORE PUSH1 0x1 PUSH1 0x1 PUSH1 0xA0 SHL SUB DUP5 AND PUSH1 0x80 DUP3 ADD MSTORE TIMESTAMP PUSH1 0xA0 DUP3 ADD MSTORE PUSH1 0x1 PUSH1 0xC0 DUP3 ADD MSTORE PUSH1 0x1 PUSH1 0x1 PUSH1 0xA0 SHL SUB DUP5 AND PUSH1 0x0 MSTORE PUSH1 0x1 PUSH1 0x20 MSTORE PUSH1 0x40 PUSH1 0x0 KECCAK256 SWAP1 DUP1 MLOAD DUP1 MLOAD SWAP1 PUSH8 0xFFFFFFFFFFFFFFFF DUP3 GT PUSH2 0x447 JUMPI DUP2 SWAP1 PUSH2 0x2A9 DUP3 PUSH2 0x2A3 DUP8 SLOAD PUSH2 0x1369 JUMP JUMPDEST DUP8 PUSH2 0x13A3 JUMP JUMPDEST PUSH1 0x20 SWAP1 PUSH1 0x1F DUP4 GT PUSH1 0x1 EQ PUSH2 0x502 JUMPI PUSH1 0x0 SWAP3 PUSH2 0x4F7 JUMPI JUMPDEST POP POP DUP2 PUSH1 0x1 SHL SWAP2 PUSH1 0x0 NOT SWAP1 PUSH1 0x3 SHL SHR NOT AND OR DUP3 SSTORE JUMPDEST PUSH1 0x20 DUP2 ADD MLOAD PUSH1 0x1 DUP4 ADD PUSH1 0x5 DUP3 LT ISZERO PUSH2 0x4E1 JUMPI DUP1 SLOAD PUSH1 0x40 DUP5 ADD MLOAD PUSH2 0xFF00 SWAP1 ISZERO ISZERO PUSH1 0x8 SHL AND PUSH1 0xFF SWAP4 SWAP1 SWAP4 AND PUSH2 0xFFFF NOT SWAP1 SWAP2 AND OR SWAP2 SWAP1 SWAP2 OR SWAP1 SSTORE PUSH1 0x60 DUP2 ADD MLOAD DUP1 MLOAD SWAP1 PUSH8 0xFFFFFFFFFFFFFFFF DUP3 GT PUSH2 0x447 JUMPI PUSH2 0x33C DUP3 PUSH2 0x333 PUSH1 0x2 DUP8 ADD SLOAD PUSH2 0x1369 JUMP JUMPDEST PUSH1 0x2 DUP8 ADD PUSH2 0x13A3 JUMP JUMPDEST PUSH1 0x20 SWAP1 PUSH1 0x1F DUP4 GT PUSH1 0x1 EQ PUSH2 0x468 JUMPI SWAP3 DUP3 PUSH1 0x5 SWAP4 PUSH1 0xC0 SWAP4 PUSH2 0x3B9 SWAP8 SWAP7 PUSH1 0x0 SWAP3 PUSH2 0x45D JUMPI JUMPDEST POP POP DUP2 PUSH1 0x1 SHL SWAP2 PUSH1 0x0 NOT SWAP1 PUSH1 0x3 SHL SHR NOT AND OR PUSH1 0x2 DUP6 ADD SSTORE JUMPDEST PUSH1 0x3 DUP5 ADD PUSH1 0x1 PUSH1 0x1 PUSH1 0xA0 SHL SUB PUSH1 0x80 DUP4 ADD MLOAD AND PUSH1 0x1 PUSH1 0x1 PUSH1 0xA0 SHL SUB NOT DUP3 SLOAD AND OR SWAP1 SSTORE PUSH1 0xA0 DUP2 ADD MLOAD PUSH1 0x4 DUP6 ADD SSTORE ADD MLOAD ISZERO ISZERO SWAP2 ADD SWAP1 PUSH1 0xFF DUP1 NOT DUP4 SLOAD AND SWAP2 ISZERO ISZERO AND OR SWAP1 SSTORE JUMP JUMPDEST PUSH1 0x2 SLOAD PUSH9 0x10000000000000000 DUP2 LT ISZERO PUSH2 0x447 JUMPI PUSH32 0x69EEE46BD182487EA2234921833A3C4DD7860678CE16CFC25127141BE78B9C02 SWAP4 PUSH2 0x407 DUP3 PUSH1 0x1 PUSH1 0x1 PUSH1 0x1 PUSH1 0xA0 SHL SUB SWAP5 ADD PUSH1 0x2 SSTORE PUSH2 0x13F7 JUMP JUMPDEST DUP2 SLOAD SWAP1 PUSH1 0x3 SHL SWAP1 DUP5 DUP1 DUP6 AND DUP4 SHL SWAP3 SHL NOT AND OR SWAP1 SSTORE PUSH2 0x440 PUSH2 0x435 PUSH1 0x40 MLOAD SWAP6 DUP7 SWAP6 PUSH1 0x40 DUP8 MSTORE PUSH1 0x40 DUP8 ADD SWAP2 PUSH2 0x142E JUMP JUMPDEST SWAP7 PUSH1 0x20 DUP6 ADD SWAP1 PUSH2 0xD6E JUMP JUMPDEST AND SWAP4 SUB SWAP1 LOG2 STOP JUMPDEST PUSH4 0x4E487B71 PUSH1 0xE0 SHL PUSH1 0x0 MSTORE PUSH1 0x41 PUSH1 0x4 MSTORE PUSH1 0x24 PUSH1 0x0 REVERT JUMPDEST ADD MLOAD SWAP1 POP DUP12 DUP1 PUSH2 0x35F JUMP JUMPDEST SWAP1 PUSH1 0x2 DUP6 ADD PUSH1 0x0 MSTORE PUSH1 0x20 PUSH1 0x0 KECCAK256 SWAP2 PUSH1 0x0 JUMPDEST PUSH1 0x1F NOT DUP6 AND DUP2 LT PUSH2 0x4C9 JUMPI POP DUP4 PUSH1 0xC0 SWAP4 PUSH2 0x3B9 SWAP8 SWAP7 SWAP4 PUSH1 0x1 SWAP4 PUSH1 0x5 SWAP8 PUSH1 0x1F NOT DUP2 AND LT PUSH2 0x4B0 JUMPI JUMPDEST POP POP POP DUP2 SHL ADD PUSH1 0x2 DUP6 ADD SSTORE PUSH2 0x377 JUMP JUMPDEST ADD MLOAD PUSH1 0x0 NOT PUSH1 0xF8 DUP5 PUSH1 0x3 SHL AND SHR NOT AND SWAP1 SSTORE DUP12 DUP1 DUP1 PUSH2 0x4A0 JUMP JUMPDEST SWAP2 SWAP3 PUSH1 0x20 PUSH1 0x1 DUP2 SWAP3 DUP7 DUP6 ADD MLOAD DUP2 SSTORE ADD SWAP5 ADD SWAP3 ADD PUSH2 0x479 JUMP JUMPDEST PUSH4 0x4E487B71 PUSH1 0xE0 SHL PUSH1 0x0 MSTORE PUSH1 0x21 PUSH1 0x4 MSTORE PUSH1 0x24 PUSH1 0x0 REVERT JUMPDEST ADD MLOAD SWAP1 POP DUP9 DUP1 PUSH2 0x2BF JUMP JUMPDEST SWAP3 POP DUP5 PUSH1 0x0 MSTORE PUSH1 0x20 PUSH1 0x0 KECCAK256 SWAP1 PUSH1 0x0 SWAP4 JUMPDEST PUSH1 0x1F NOT DUP5 AND DUP6 LT PUSH2 0x553 JUMPI PUSH1 0x1 SWAP5 POP DUP4 PUSH1 0x1F NOT DUP2 AND LT PUSH2 0x53A JUMPI JUMPDEST POP POP POP DUP2 SHL ADD DUP3 SSTORE PUSH2 0x2D4 JUMP JUMPDEST ADD MLOAD PUSH1 0x0 NOT PUSH1 0xF8 DUP5 PUSH1 0x3 SHL AND SHR NOT AND SWAP1 SSTORE DUP9 DUP1 DUP1 PUSH2 0x52D JUMP JUMPDEST DUP2 DUP2 ADD MLOAD DUP4 SSTORE PUSH1 0x20 SWAP5 DUP6 ADD SWAP5 PUSH1 0x1 SWAP1 SWAP4 ADD SWAP3 SWAP1 SWAP2 ADD SWAP1 PUSH2 0x512 JUMP JUMPDEST PUSH1 0x40 MLOAD PUSH4 0xEA075BF PUSH1 0xE2 SHL DUP2 MSTORE PUSH1 0x4 SWAP1 REVERT JUMPDEST PUSH1 0x40 MLOAD PUSH4 0x2BB9ACF7 PUSH1 0xE0 SHL DUP2 MSTORE PUSH1 0x4 SWAP1 REVERT JUMPDEST POP DUP4 ISZERO PUSH2 0x198 JUMP JUMPDEST POP DUP1 ISZERO PUSH2 0x191 JUMP JUMPDEST CALLVALUE PUSH2 0xE9 JUMPI PUSH1 0x0 CALLDATASIZE PUSH1 0x3 NOT ADD SLT PUSH2 0xE9 JUMPI PUSH1 0x20 PUSH1 0x40 MLOAD PUSH1 0x0 DUP2 MSTORE RETURN JUMPDEST CALLVALUE PUSH2 0xE9 JUMPI PUSH1 0x40 CALLDATASIZE PUSH1 0x3 NOT ADD SLT PUSH2 0xE9 JUMPI PUSH2 0x5D7 PUSH2 0xD01 JUMP JUMPDEST PUSH1 0x4 CALLDATALOAD PUSH1 0x0 MSTORE PUSH1 0x0 PUSH1 0x20 MSTORE PUSH1 0x1 PUSH1 0x1 PUSH1 0xA0 SHL SUB PUSH1 0x40 PUSH1 0x0 KECCAK256 SWAP2 AND PUSH1 0x0 MSTORE PUSH1 0x20 MSTORE PUSH1 0x20 PUSH1 0xFF PUSH1 0x40 PUSH1 0x0 KECCAK256 SLOAD AND PUSH1 0x40 MLOAD SWAP1 ISZERO ISZERO DUP2 MSTORE RETURN JUMPDEST CALLVALUE PUSH2 0xE9 JUMPI PUSH1 0x60 CALLDATASIZE PUSH1 0x3 NOT ADD SLT PUSH2 0xE9 JUMPI PUSH2 0x625 PUSH2 0xCEB JUMP JUMPDEST PUSH2 0x62D PUSH2 0xD17 JUMP JUMPDEST PUSH1 0x44 CALLDATALOAD SWAP1 PUSH8 0xFFFFFFFFFFFFFFFF SWAP1 DUP2 DUP4 GT PUSH2 0xE9 JUMPI PUSH2 0x658 PUSH1 0x1 PUSH1 0x1 PUSH1 0xA0 SHL SUB SWAP4 CALLDATASIZE SWAP1 PUSH1 0x4 ADD PUSH2 0xDED JUMP JUMPDEST SWAP4 SWAP1 SWAP5 PUSH2 0x663 PUSH2 0xE1B JUMP JUMPDEST AND SWAP3 DUP4 PUSH1 0x0 MSTORE PUSH1 0x1 PUSH1 0x20 SWAP4 DUP2 DUP6 MSTORE PUSH1 0x40 PUSH1 0x0 KECCAK256 SWAP2 PUSH1 0x4 DUP4 ADD SLOAD ISZERO PUSH2 0x7CF JUMPI DUP3 DUP2 ADD DUP1 SLOAD PUSH2 0xFF00 NOT AND DUP7 ISZERO ISZERO PUSH1 0x8 SHL PUSH2 0xFF00 AND OR SWAP1 SSTORE PUSH1 0x2 DUP4 ADD SWAP2 DUP5 GT PUSH2 0x447 JUMPI PUSH2 0x6B7 DUP5 PUSH2 0x6B1 DUP5 SLOAD PUSH2 0x1369 JUMP JUMPDEST DUP5 PUSH2 0x13A3 JUMP JUMPDEST PUSH1 0x0 PUSH1 0x1F DUP6 GT PUSH1 0x1 EQ PUSH2 0x742 JUMPI PUSH2 0x72A SWAP4 PUSH32 0xEB5BF70DD3D6056BD71CD8D630A02FFBEBF29F4103B77285F9225A3E3CB48484 SWAP9 SWAP10 SWAP4 DUP7 DUP1 PUSH1 0xFF SWAP6 PUSH1 0x5 SWAP6 PUSH1 0x0 SWAP4 PUSH2 0x737 JUMPI JUMPDEST POP SHL SWAP1 PUSH1 0x0 NOT DUP10 PUSH1 0x3 SHL SHR NOT AND OR SWAP1 SSTORE JUMPDEST ADD SLOAD AND SWAP3 PUSH1 0x60 PUSH1 0x40 MLOAD SWAP7 DUP8 SWAP7 ISZERO ISZERO DUP8 MSTORE DUP7 ADD MSTORE PUSH1 0x60 DUP6 ADD SWAP2 PUSH2 0x142E JUMP JUMPDEST SWAP1 ISZERO ISZERO PUSH1 0x40 DUP4 ADD MSTORE SUB SWAP1 LOG2 STOP JUMPDEST DUP9 ADD CALLDATALOAD SWAP3 POP DUP15 PUSH2 0x6FC JUMP JUMPDEST PUSH1 0x1F NOT DUP6 AND SWAP1 DUP4 PUSH1 0x0 MSTORE DUP8 PUSH1 0x0 KECCAK256 SWAP2 PUSH1 0x0 JUMPDEST DUP2 DUP2 LT PUSH2 0x7BA JUMPI POP SWAP4 PUSH1 0xFF SWAP4 PUSH1 0x5 SWAP4 PUSH2 0x72A SWAP8 SWAP4 DUP10 PUSH32 0xEB5BF70DD3D6056BD71CD8D630A02FFBEBF29F4103B77285F9225A3E3CB48484 SWAP14 SWAP15 SWAP9 LT PUSH2 0x7A0 JUMPI JUMPDEST POP POP DUP8 DUP2 SHL ADD SWAP1 SSTORE PUSH2 0x70D JUMP JUMPDEST DUP8 ADD CALLDATALOAD PUSH1 0x0 NOT PUSH1 0x3 DUP12 SWAP1 SHL PUSH1 0xF8 AND SHR NOT AND SWAP1 SSTORE DUP13 DUP1 PUSH2 0x793 JUMP JUMPDEST DUP12 DUP4 ADD CALLDATALOAD DUP5 SSTORE SWAP3 DUP5 ADD SWAP3 SWAP2 DUP10 ADD SWAP2 DUP10 ADD PUSH2 0x754 JUMP JUMPDEST PUSH1 0x40 MLOAD PUSH4 0xABA47339 PUSH1 0xE0 SHL DUP2 MSTORE PUSH1 0x4 SWAP1 REVERT JUMPDEST CALLVALUE PUSH2 0xE9 JUMPI PUSH1 0x20 CALLDATASIZE PUSH1 0x3 NOT ADD SLT PUSH2 0xE9 JUMPI PUSH2 0x7FA PUSH2 0xCEB JUMP JUMPDEST PUSH2 0x802 PUSH2 0x14E5 JUMP JUMPDEST POP PUSH1 0x1 PUSH1 0x1 PUSH1 0xA0 SHL SUB DUP1 SWAP2 AND PUSH1 0x0 MSTORE PUSH1 0x1 PUSH1 0x20 MSTORE PUSH1 0x40 PUSH1 0x0 KECCAK256 PUSH1 0x40 MLOAD SWAP2 PUSH2 0x828 DUP4 PUSH2 0x1158 JUMP JUMPDEST PUSH1 0x40 MLOAD PUSH2 0x840 DUP2 PUSH2 0x839 DUP2 DUP7 PUSH2 0x144F JUMP JUMPDEST SUB DUP3 PUSH2 0x1190 JUMP JUMPDEST DUP4 MSTORE PUSH1 0xFF PUSH1 0x1 DUP4 ADD SLOAD PUSH2 0x858 DUP3 DUP3 AND PUSH1 0x20 DUP8 ADD PUSH2 0x135D JUMP JUMPDEST PUSH1 0x8 SHR AND ISZERO ISZERO PUSH1 0x40 DUP5 ADD MSTORE PUSH1 0x40 MLOAD PUSH2 0x877 DUP2 PUSH2 0x839 DUP2 PUSH1 0x2 DUP8 ADD PUSH2 0x144F JUMP JUMPDEST PUSH1 0x60 DUP5 ADD MSTORE PUSH1 0x3 DUP3 ADD SLOAD AND PUSH1 0x80 DUP4 ADD MSTORE PUSH1 0xFF PUSH1 0x5 PUSH1 0x4 DUP4 ADD SLOAD SWAP3 DUP4 PUSH1 0xA0 DUP7 ADD MSTORE ADD SLOAD AND ISZERO ISZERO PUSH1 0xC0 DUP4 ADD MSTORE ISZERO PUSH2 0x7CF JUMPI PUSH2 0x8BE SWAP1 PUSH1 0x40 MLOAD SWAP2 DUP3 SWAP2 PUSH1 0x20 DUP4 MSTORE PUSH1 0x20 DUP4 ADD SWAP1 PUSH2 0xD7B JUMP JUMPDEST SUB SWAP1 RETURN JUMPDEST CALLVALUE PUSH2 0xE9 JUMPI PUSH1 0x0 CALLDATASIZE PUSH1 0x3 NOT ADD SLT PUSH2 0xE9 JUMPI PUSH1 0x2 DUP1 SLOAD PUSH2 0x8E0 DUP2 PUSH2 0x151D JUMP JUMPDEST SWAP2 PUSH2 0x8EE PUSH1 0x40 MLOAD SWAP4 DUP5 PUSH2 0x1190 JUMP JUMPDEST DUP2 DUP4 MSTORE PUSH1 0x1F NOT PUSH2 0x8FD DUP4 PUSH2 0x151D JUMP JUMPDEST ADD PUSH1 0x0 JUMPDEST DUP2 DUP2 LT PUSH2 0xA58 JUMPI POP POP PUSH1 0x0 JUMPDEST DUP3 DUP2 LT PUSH2 0x973 JUMPI PUSH1 0x40 DUP1 MLOAD PUSH1 0x20 DUP1 DUP3 MSTORE DUP7 MLOAD DUP2 DUP4 ADD DUP2 SWAP1 MSTORE PUSH1 0x0 SWAP4 PUSH1 0x5 DUP3 SWAP1 SHL DUP5 ADD DUP2 ADD SWAP3 DUP1 DUP11 ADD SWAP3 SWAP2 DUP6 ADD JUMPDEST DUP3 DUP8 LT PUSH2 0x947 JUMPI DUP6 DUP6 SUB DUP7 RETURN JUMPDEST SWAP1 SWAP2 SWAP3 SWAP4 DUP3 DUP1 PUSH2 0x963 PUSH1 0x1 SWAP4 PUSH1 0x3F NOT DUP11 DUP3 SUB ADD DUP7 MSTORE DUP9 MLOAD PUSH2 0xD7B JUMP JUMPDEST SWAP7 ADD SWAP3 ADD SWAP7 ADD SWAP6 SWAP3 SWAP2 SWAP1 SWAP3 PUSH2 0x93A JUMP JUMPDEST PUSH1 0x5 PUSH2 0x9DB PUSH2 0x981 DUP4 PUSH2 0x13F7 JUMP JUMPDEST PUSH1 0x1 PUSH1 0x1 PUSH1 0xA0 SHL SUB SWAP4 SWAP2 SWAP4 DUP1 SWAP5 SLOAD PUSH1 0x3 SWAP3 DUP4 SHL SHR AND PUSH1 0x0 MSTORE PUSH1 0x1 SWAP4 PUSH1 0x20 SWAP2 DUP6 DUP4 MSTORE PUSH1 0x40 PUSH1 0x0 KECCAK256 SWAP3 PUSH1 0x40 MLOAD SWAP7 PUSH2 0x9B5 DUP9 PUSH2 0x1158 JUMP JUMPDEST PUSH1 0x40 MLOAD PUSH2 0x9C6 DUP2 PUSH2 0x839 DUP2 DUP10 PUSH2 0x144F JUMP JUMPDEST DUP9 MSTORE DUP5 ADD SLOAD PUSH1 0xFF SWAP7 DUP8 SWAP3 DUP4 DUP4 AND SWAP1 DUP11 ADD PUSH2 0x135D JUMP JUMPDEST PUSH1 0x8 SHR AND ISZERO ISZERO PUSH1 0x40 DUP8 ADD MSTORE PUSH1 0x40 MLOAD PUSH2 0x9F9 DUP2 PUSH2 0x839 DUP2 DUP13 DUP9 ADD PUSH2 0x144F JUMP JUMPDEST PUSH1 0x60 DUP8 ADD MSTORE DUP3 ADD SLOAD AND PUSH1 0x80 DUP6 ADD MSTORE PUSH1 0x4 DUP2 ADD SLOAD PUSH1 0xA0 DUP6 ADD MSTORE ADD SLOAD AND ISZERO ISZERO PUSH1 0xC0 DUP3 ADD MSTORE PUSH2 0xA25 DUP3 DUP7 PUSH2 0x1535 JUMP JUMPDEST MSTORE PUSH2 0xA30 DUP2 DUP6 PUSH2 0x1535 JUMP JUMPDEST POP PUSH1 0x0 NOT DUP2 EQ PUSH2 0xA42 JUMPI PUSH1 0x1 ADD PUSH2 0x90D JUMP JUMPDEST PUSH4 0x4E487B71 PUSH1 0xE0 SHL PUSH1 0x0 MSTORE PUSH1 0x11 PUSH1 0x4 MSTORE PUSH1 0x24 PUSH1 0x0 REVERT JUMPDEST PUSH1 0x20 SWAP1 PUSH2 0xA63 PUSH2 0x14E5 JUMP JUMPDEST DUP3 DUP3 DUP9 ADD ADD MSTORE ADD PUSH2 0x901 JUMP JUMPDEST CALLVALUE PUSH2 0xE9 JUMPI PUSH1 0x40 CALLDATASIZE PUSH1 0x3 NOT ADD SLT PUSH2 0xE9 JUMPI PUSH2 0xA88 PUSH2 0xD01 JUMP JUMPDEST CALLER PUSH1 0x1 PUSH1 0x1 PUSH1 0xA0 SHL SUB DUP3 AND SUB PUSH2 0xAA4 JUMPI PUSH2 0x12D SWAP1 PUSH1 0x4 CALLDATALOAD PUSH2 0x11B2 JUMP JUMPDEST PUSH1 0x40 MLOAD PUSH3 0x461BCD PUSH1 0xE5 SHL DUP2 MSTORE PUSH1 0x20 PUSH1 0x4 DUP3 ADD MSTORE PUSH1 0x2F PUSH1 0x24 DUP3 ADD MSTORE PUSH32 0x416363657373436F6E74726F6C3A2063616E206F6E6C792072656E6F756E6365 PUSH1 0x44 DUP3 ADD MSTORE PUSH15 0x103937B632B9903337B91039B2B633 PUSH1 0x89 SHL PUSH1 0x64 DUP3 ADD MSTORE PUSH1 0x84 SWAP1 REVERT JUMPDEST CALLVALUE PUSH2 0xE9 JUMPI PUSH1 0x40 CALLDATASIZE PUSH1 0x3 NOT ADD SLT PUSH2 0xE9 JUMPI PUSH1 0x4 CALLDATALOAD PUSH2 0xB1D PUSH2 0xD01 JUMP JUMPDEST DUP2 PUSH1 0x0 MSTORE PUSH1 0x0 PUSH1 0x20 MSTORE PUSH2 0xB37 PUSH1 0x1 PUSH1 0x40 PUSH1 0x0 KECCAK256 ADD SLOAD PUSH2 0x1048 JUMP JUMPDEST DUP2 PUSH1 0x0 MSTORE PUSH1 0x0 PUSH1 0x20 MSTORE PUSH1 0x1 PUSH1 0x1 PUSH1 0xA0 SHL SUB PUSH1 0x40 PUSH1 0x0 KECCAK256 SWAP2 AND SWAP1 DUP2 PUSH1 0x0 MSTORE PUSH1 0x20 MSTORE PUSH1 0xFF PUSH1 0x40 PUSH1 0x0 KECCAK256 SLOAD AND ISZERO PUSH2 0xB67 JUMPI STOP JUMPDEST DUP2 PUSH1 0x0 MSTORE PUSH1 0x0 PUSH1 0x20 MSTORE PUSH1 0x40 PUSH1 0x0 KECCAK256 DUP2 PUSH1 0x0 MSTORE PUSH1 0x20 MSTORE PUSH1 0x40 PUSH1 0x0 KECCAK256 PUSH1 0x1 PUSH1 0xFF NOT DUP3 SLOAD AND OR SWAP1 SSTORE CALLER SWAP2 PUSH32 0x2F8788117E7EFF1D82E926EC794901D17C78024A50270940304540A733656F0D PUSH1 0x0 DUP1 LOG4 STOP JUMPDEST CALLVALUE PUSH2 0xE9 JUMPI PUSH1 0x40 CALLDATASIZE PUSH1 0x3 NOT ADD SLT PUSH2 0xE9 JUMPI PUSH2 0xBCE PUSH2 0xCEB JUMP JUMPDEST PUSH1 0x1 PUSH1 0x1 PUSH1 0xA0 SHL SUB PUSH2 0xBDE PUSH2 0xD17 JUMP JUMPDEST SWAP2 PUSH2 0xBE7 PUSH2 0xE1B JUMP JUMPDEST AND SWAP1 DUP2 PUSH1 0x0 MSTORE PUSH1 0x1 PUSH1 0x20 MSTORE PUSH1 0x40 PUSH1 0x0 KECCAK256 PUSH1 0x4 DUP2 ADD SLOAD ISZERO PUSH2 0x7CF JUMPI DUP2 PUSH2 0xC3C PUSH32 0xEB5BF70DD3D6056BD71CD8D630A02FFBEBF29F4103B77285F9225A3E3CB48484 SWAP4 PUSH1 0x5 DUP5 ADD SWAP1 PUSH1 0xFF DUP1 NOT DUP4 SLOAD AND SWAP2 ISZERO ISZERO AND OR SWAP1 SSTORE JUMP JUMPDEST PUSH1 0xFF PUSH1 0x1 DUP4 ADD SLOAD PUSH1 0x8 SHR AND SWAP1 PUSH2 0x72A PUSH1 0x40 MLOAD SWAP4 DUP5 SWAP4 ISZERO ISZERO DUP5 MSTORE PUSH1 0x60 PUSH1 0x20 DUP6 ADD MSTORE PUSH1 0x2 PUSH1 0x60 DUP6 ADD SWAP2 ADD PUSH2 0x144F JUMP JUMPDEST CALLVALUE PUSH2 0xE9 JUMPI PUSH1 0x20 CALLDATASIZE PUSH1 0x3 NOT ADD SLT PUSH2 0xE9 JUMPI PUSH1 0x4 CALLDATALOAD PUSH1 0x0 MSTORE PUSH1 0x0 PUSH1 0x20 MSTORE PUSH1 0x20 PUSH1 0x1 PUSH1 0x40 PUSH1 0x0 KECCAK256 ADD SLOAD PUSH1 0x40 MLOAD SWAP1 DUP2 MSTORE RETURN JUMPDEST CALLVALUE PUSH2 0xE9 JUMPI PUSH1 0x20 CALLDATASIZE PUSH1 0x3 NOT ADD SLT PUSH2 0xE9 JUMPI PUSH1 0x4 CALLDATALOAD SWAP1 PUSH4 0xFFFFFFFF PUSH1 0xE0 SHL DUP3 AND DUP1 SWAP3 SUB PUSH2 0xE9 JUMPI PUSH1 0x20 SWAP2 PUSH4 0x7965DB0B PUSH1 0xE0 SHL DUP2 EQ SWAP1 DUP2 ISZERO PUSH2 0xCDA JUMPI JUMPDEST POP ISZERO ISZERO DUP2 MSTORE RETURN JUMPDEST PUSH4 0x1FFC9A7 PUSH1 0xE0 SHL EQ SWAP1 POP DUP4 PUSH2 0xCD3 JUMP JUMPDEST PUSH1 0x4 CALLDATALOAD SWAP1 PUSH1 0x1 PUSH1 0x1 PUSH1 0xA0 SHL SUB DUP3 AND DUP3 SUB PUSH2 0xE9 JUMPI JUMP JUMPDEST PUSH1 0x24 CALLDATALOAD SWAP1 PUSH1 0x1 PUSH1 0x1 PUSH1 0xA0 SHL SUB DUP3 AND DUP3 SUB PUSH2 0xE9 JUMPI JUMP JUMPDEST PUSH1 0x24 CALLDATALOAD SWAP1 DUP2 ISZERO ISZERO DUP3 SUB PUSH2 0xE9 JUMPI JUMP JUMPDEST PUSH1 0x0 JUMPDEST DUP4 DUP2 LT PUSH2 0xD39 JUMPI POP POP PUSH1 0x0 SWAP2 ADD MSTORE JUMP JUMPDEST DUP2 DUP2 ADD MLOAD DUP4 DUP3 ADD MSTORE PUSH1 0x20 ADD PUSH2 0xD29 JUMP JUMPDEST SWAP1 PUSH1 0x20 SWAP2 PUSH2 0xD62 DUP2 MLOAD DUP1 SWAP3 DUP2 DUP6 MSTORE DUP6 DUP1 DUP7 ADD SWAP2 ADD PUSH2 0xD26 JUMP JUMPDEST PUSH1 0x1F ADD PUSH1 0x1F NOT AND ADD ADD SWAP1 JUMP JUMPDEST SWAP1 PUSH1 0x5 DUP3 LT ISZERO PUSH2 0x4E1 JUMPI MSTORE JUMP JUMPDEST SWAP1 PUSH1 0xC0 DUP1 PUSH2 0xDC5 PUSH2 0xD95 DUP6 MLOAD PUSH1 0xE0 DUP7 MSTORE PUSH1 0xE0 DUP7 ADD SWAP1 PUSH2 0xD49 JUMP JUMPDEST PUSH2 0xDA7 PUSH1 0x20 DUP8 ADD MLOAD PUSH1 0x20 DUP8 ADD SWAP1 PUSH2 0xD6E JUMP JUMPDEST PUSH1 0x40 DUP7 ADD MLOAD ISZERO ISZERO PUSH1 0x40 DUP7 ADD MSTORE PUSH1 0x60 DUP7 ADD MLOAD DUP6 DUP3 SUB PUSH1 0x60 DUP8 ADD MSTORE PUSH2 0xD49 JUMP JUMPDEST SWAP4 PUSH1 0x1 PUSH1 0x1 PUSH1 0xA0 SHL SUB PUSH1 0x80 DUP3 ADD MLOAD AND PUSH1 0x80 DUP6 ADD MSTORE PUSH1 0xA0 DUP2 ADD MLOAD PUSH1 0xA0 DUP6 ADD MSTORE ADD MLOAD ISZERO ISZERO SWAP2 ADD MSTORE SWAP1 JUMP JUMPDEST SWAP2 DUP2 PUSH1 0x1F DUP5 ADD SLT ISZERO PUSH2 0xE9 JUMPI DUP3 CALLDATALOAD SWAP2 PUSH8 0xFFFFFFFFFFFFFFFF DUP4 GT PUSH2 0xE9 JUMPI PUSH1 0x20 DUP4 DUP2 DUP7 ADD SWAP6 ADD ADD GT PUSH2 0xE9 JUMPI JUMP JUMPDEST CALLER PUSH1 0x0 SWAP1 DUP2 MSTORE PUSH32 0x1DDC098DA42ACDF4176DA08EC75800BC0FB2BCE2BE978B2037BCB0AE6966519 PUSH1 0x20 SWAP1 DUP2 MSTORE PUSH1 0x40 DUP1 DUP4 KECCAK256 SLOAD SWAP1 SWAP3 PUSH32 0xEDCC084D3DCD65A1F7F23C65C46722FACA6953D28E43150A467CF43E5C309238 SWAP2 PUSH1 0xFF AND ISZERO PUSH2 0xE7F JUMPI POP POP POP POP JUMP JUMPDEST PUSH2 0xE88 CALLER PUSH2 0x124E JUMP JUMPDEST SWAP2 DUP5 MLOAD SWAP1 PUSH2 0xE95 DUP3 PUSH2 0x1174 JUMP JUMPDEST PUSH1 0x42 DUP3 MSTORE DUP5 DUP3 ADD SWAP3 PUSH1 0x60 CALLDATASIZE DUP6 CALLDATACOPY DUP3 MLOAD ISZERO PUSH2 0x1034 JUMPI PUSH1 0x30 DUP5 MSTORE8 DUP3 MLOAD SWAP1 PUSH1 0x1 SWAP2 DUP3 LT ISZERO PUSH2 0x1034 JUMPI SWAP1 PUSH1 0x78 PUSH1 0x21 DUP6 ADD MSTORE8 PUSH1 0x41 SWAP2 JUMPDEST DUP2 DUP4 GT PUSH2 0xFC6 JUMPI POP POP POP PUSH2 0xF84 JUMPI PUSH1 0x48 PUSH2 0xF80 SWAP4 DUP7 SWAP4 PUSH2 0xF64 SWAP4 PUSH2 0xF55 SWAP9 MLOAD SWAP9 DUP10 SWAP4 PUSH32 0x416363657373436F6E74726F6C3A206163636F756E7420000000000000000000 DUP11 DUP7 ADD MSTORE PUSH2 0xF20 DUP2 MLOAD DUP1 SWAP3 DUP13 PUSH1 0x37 DUP10 ADD SWAP2 ADD PUSH2 0xD26 JUMP JUMPDEST DUP5 ADD SWAP2 PUSH32 0x206973206D697373696E6720726F6C6520000000000000000000000000000000 PUSH1 0x37 DUP5 ADD MSTORE MLOAD DUP1 SWAP4 DUP7 DUP5 ADD SWAP1 PUSH2 0xD26 JUMP JUMPDEST ADD SUB PUSH1 0x28 DUP2 ADD DUP8 MSTORE ADD DUP6 PUSH2 0x1190 JUMP JUMPDEST MLOAD SWAP3 DUP4 SWAP3 PUSH3 0x461BCD PUSH1 0xE5 SHL DUP5 MSTORE PUSH1 0x4 DUP5 ADD MSTORE PUSH1 0x24 DUP4 ADD SWAP1 PUSH2 0xD49 JUMP JUMPDEST SUB SWAP1 REVERT JUMPDEST PUSH1 0x64 DUP5 DUP7 MLOAD SWAP1 PUSH3 0x461BCD PUSH1 0xE5 SHL DUP3 MSTORE DUP1 PUSH1 0x4 DUP4 ADD MSTORE PUSH1 0x24 DUP3 ADD MSTORE PUSH32 0x537472696E67733A20686578206C656E67746820696E73756666696369656E74 PUSH1 0x44 DUP3 ADD MSTORE REVERT JUMPDEST SWAP1 SWAP2 SWAP3 PUSH1 0xF DUP2 AND PUSH1 0x10 DUP2 LT ISZERO PUSH2 0x1020 JUMPI PUSH16 0x181899199A1A9B1B9C1CB0B131B232B3 PUSH1 0x81 SHL SWAP1 BYTE PUSH2 0xFF6 DUP6 DUP8 PUSH2 0x1227 JUMP JUMPDEST MSTORE8 PUSH1 0x4 SHR SWAP3 DUP1 ISZERO PUSH2 0x100C JUMPI PUSH1 0x0 NOT ADD SWAP2 SWAP1 PUSH2 0xEC6 JUMP JUMPDEST PUSH4 0x4E487B71 PUSH1 0xE0 SHL DUP3 MSTORE PUSH1 0x11 PUSH1 0x4 MSTORE PUSH1 0x24 DUP3 REVERT JUMPDEST PUSH4 0x4E487B71 PUSH1 0xE0 SHL DUP4 MSTORE PUSH1 0x32 PUSH1 0x4 MSTORE PUSH1 0x24 DUP4 REVERT JUMPDEST PUSH4 0x4E487B71 PUSH1 0xE0 SHL DUP2 MSTORE PUSH1 0x32 PUSH1 0x4 MSTORE PUSH1 0x24 SWAP1 REVERT JUMPDEST PUSH1 0x0 SWAP1 DUP1 DUP3 MSTORE PUSH1 0x20 SWAP1 DUP3 DUP3 MSTORE PUSH1 0x40 SWAP3 DUP4 DUP2 KECCAK256 CALLER DUP3 MSTORE DUP4 MSTORE PUSH1 0xFF DUP5 DUP3 KECCAK256 SLOAD AND ISZERO PUSH2 0x1071 JUMPI POP POP POP POP JUMP JUMPDEST PUSH2 0x107A CALLER PUSH2 0x124E JUMP JUMPDEST SWAP2 DUP5 MLOAD SWAP1 PUSH2 0x1087 DUP3 PUSH2 0x1174 JUMP JUMPDEST PUSH1 0x42 DUP3 MSTORE DUP5 DUP3 ADD SWAP3 PUSH1 0x60 CALLDATASIZE DUP6 CALLDATACOPY DUP3 MLOAD ISZERO PUSH2 0x1034 JUMPI PUSH1 0x30 DUP5 MSTORE8 DUP3 MLOAD SWAP1 PUSH1 0x1 SWAP2 DUP3 LT ISZERO PUSH2 0x1034 JUMPI SWAP1 PUSH1 0x78 PUSH1 0x21 DUP6 ADD MSTORE8 PUSH1 0x41 SWAP2 JUMPDEST DUP2 DUP4 GT PUSH2 0x1112 JUMPI POP POP POP PUSH2 0xF84 JUMPI PUSH1 0x48 PUSH2 0xF80 SWAP4 DUP7 SWAP4 PUSH2 0xF64 SWAP4 PUSH2 0xF55 SWAP9 MLOAD SWAP9 DUP10 SWAP4 PUSH32 0x416363657373436F6E74726F6C3A206163636F756E7420000000000000000000 DUP11 DUP7 ADD MSTORE PUSH2 0xF20 DUP2 MLOAD DUP1 SWAP3 DUP13 PUSH1 0x37 DUP10 ADD SWAP2 ADD PUSH2 0xD26 JUMP JUMPDEST SWAP1 SWAP2 SWAP3 PUSH1 0xF DUP2 AND PUSH1 0x10 DUP2 LT ISZERO PUSH2 0x1020 JUMPI PUSH16 0x181899199A1A9B1B9C1CB0B131B232B3 PUSH1 0x81 SHL SWAP1 BYTE PUSH2 0x1142 DUP6 DUP8 PUSH2 0x1227 JUMP JUMPDEST MSTORE8 PUSH1 0x4 SHR SWAP3 DUP1 ISZERO PUSH2 0x100C JUMPI PUSH1 0x0 NOT ADD SWAP2 SWAP1 PUSH2 0x10B8 JUMP JUMPDEST PUSH1 0xE0 DUP2 ADD SWAP1 DUP2 LT PUSH8 0xFFFFFFFFFFFFFFFF DUP3 GT OR PUSH2 0x447 JUMPI PUSH1 0x40 MSTORE JUMP JUMPDEST PUSH1 0x80 DUP2 ADD SWAP1 DUP2 LT PUSH8 0xFFFFFFFFFFFFFFFF DUP3 GT OR PUSH2 0x447 JUMPI PUSH1 0x40 MSTORE JUMP JUMPDEST SWAP1 PUSH1 0x1F DUP1 NOT SWAP2 ADD AND DUP2 ADD SWAP1 DUP2 LT PUSH8 0xFFFFFFFFFFFFFFFF DUP3 GT OR PUSH2 0x447 JUMPI PUSH1 0x40 MSTORE JUMP JUMPDEST SWAP1 PUSH1 0x0 SWAP2 DUP1 DUP4 MSTORE DUP3 PUSH1 0x20 MSTORE PUSH1 0x1 PUSH1 0x1 PUSH1 0xA0 SHL SUB PUSH1 0x40 DUP5 KECCAK256 SWAP3 AND SWAP2 DUP3 DUP5 MSTORE PUSH1 0x20 MSTORE PUSH1 0xFF PUSH1 0x40 DUP5 KECCAK256 SLOAD AND PUSH2 0x11E3 JUMPI POP POP POP JUMP JUMPDEST DUP1 DUP4 MSTORE DUP3 PUSH1 0x20 MSTORE PUSH1 0x40 DUP4 KECCAK256 DUP3 DUP5 MSTORE PUSH1 0x20 MSTORE PUSH1 0x40 DUP4 KECCAK256 PUSH1 0xFF NOT DUP2 SLOAD AND SWAP1 SSTORE PUSH32 0xF6391F5C32D9C69D2A47EA670B442974B53935D1EDC7FD64EB21E047A839171B CALLER SWAP4 DUP1 LOG4 JUMP JUMPDEST SWAP1 DUP2 MLOAD DUP2 LT ISZERO PUSH2 0x1238 JUMPI ADD PUSH1 0x20 ADD SWAP1 JUMP JUMPDEST PUSH4 0x4E487B71 PUSH1 0xE0 SHL PUSH1 0x0 MSTORE PUSH1 0x32 PUSH1 0x4 MSTORE PUSH1 0x24 PUSH1 0x0 REVERT JUMPDEST PUSH1 0x40 MLOAD SWAP1 PUSH1 0x60 DUP3 ADD DUP3 DUP2 LT PUSH8 0xFFFFFFFFFFFFFFFF DUP3 GT OR PUSH2 0x447 JUMPI PUSH1 0x40 MSTORE PUSH1 0x2A DUP3 MSTORE PUSH1 0x20 DUP3 ADD PUSH1 0x40 CALLDATASIZE DUP3 CALLDATACOPY DUP3 MLOAD ISZERO PUSH2 0x1238 JUMPI PUSH1 0x30 SWAP1 MSTORE8 DUP2 MLOAD PUSH1 0x1 SWAP1 DUP2 LT ISZERO PUSH2 0x1238 JUMPI PUSH1 0x78 PUSH1 0x21 DUP5 ADD MSTORE8 PUSH1 0x29 SWAP1 JUMPDEST DUP1 DUP3 GT PUSH2 0x12EF JUMPI POP POP PUSH2 0x12AB JUMPI SWAP1 JUMP JUMPDEST PUSH1 0x64 PUSH1 0x40 MLOAD PUSH3 0x461BCD PUSH1 0xE5 SHL DUP2 MSTORE PUSH1 0x20 PUSH1 0x4 DUP3 ADD MSTORE PUSH1 0x20 PUSH1 0x24 DUP3 ADD MSTORE PUSH32 0x537472696E67733A20686578206C656E67746820696E73756666696369656E74 PUSH1 0x44 DUP3 ADD MSTORE REVERT JUMPDEST SWAP1 SWAP2 PUSH1 0xF DUP2 AND PUSH1 0x10 DUP2 LT ISZERO PUSH2 0x1348 JUMPI PUSH16 0x181899199A1A9B1B9C1CB0B131B232B3 PUSH1 0x81 SHL SWAP1 BYTE PUSH2 0x131E DUP5 DUP7 PUSH2 0x1227 JUMP JUMPDEST MSTORE8 PUSH1 0x4 SHR SWAP2 DUP1 ISZERO PUSH2 0x1333 JUMPI PUSH1 0x0 NOT ADD SWAP1 PUSH2 0x129B JUMP JUMPDEST PUSH1 0x24 PUSH1 0x0 PUSH4 0x4E487B71 PUSH1 0xE0 SHL DUP2 MSTORE PUSH1 0x11 PUSH1 0x4 MSTORE REVERT JUMPDEST PUSH1 0x24 PUSH1 0x0 PUSH4 0x4E487B71 PUSH1 0xE0 SHL DUP2 MSTORE PUSH1 0x32 PUSH1 0x4 MSTORE REVERT JUMPDEST PUSH1 0x5 DUP3 LT ISZERO PUSH2 0x4E1 JUMPI MSTORE JUMP JUMPDEST SWAP1 PUSH1 0x1 DUP3 DUP2 SHR SWAP3 AND DUP1 ISZERO PUSH2 0x1399 JUMPI JUMPDEST PUSH1 0x20 DUP4 LT EQ PUSH2 0x1383 JUMPI JUMP JUMPDEST PUSH4 0x4E487B71 PUSH1 0xE0 SHL PUSH1 0x0 MSTORE PUSH1 0x22 PUSH1 0x4 MSTORE PUSH1 0x24 PUSH1 0x0 REVERT JUMPDEST SWAP2 PUSH1 0x7F AND SWAP2 PUSH2 0x1378 JUMP JUMPDEST SWAP1 PUSH1 0x1F DUP2 GT PUSH2 0x13B1 JUMPI POP POP POP JUMP JUMPDEST PUSH1 0x0 SWAP2 DUP3 MSTORE PUSH1 0x20 DUP3 KECCAK256 SWAP1 PUSH1 0x20 PUSH1 0x1F DUP6 ADD PUSH1 0x5 SHR DUP4 ADD SWAP5 LT PUSH2 0x13ED JUMPI JUMPDEST PUSH1 0x1F ADD PUSH1 0x5 SHR ADD SWAP2 JUMPDEST DUP3 DUP2 LT PUSH2 0x13E2 JUMPI POP POP POP JUMP JUMPDEST DUP2 DUP2 SSTORE PUSH1 0x1 ADD PUSH2 0x13D6 JUMP JUMPDEST SWAP1 SWAP3 POP DUP3 SWAP1 PUSH2 0x13CD JUMP JUMPDEST PUSH1 0x2 SLOAD DUP2 LT ISZERO PUSH2 0x1238 JUMPI PUSH1 0x2 PUSH1 0x0 MSTORE PUSH32 0x405787FA12A823E0F2B7631CC41B3BA8828B3321CA811111FA75CD3AA3BB5ACE ADD SWAP1 PUSH1 0x0 SWAP1 JUMP JUMPDEST SWAP1 DUP1 PUSH1 0x20 SWAP4 SWAP3 DUP2 DUP5 MSTORE DUP5 DUP5 ADD CALLDATACOPY PUSH1 0x0 DUP3 DUP3 ADD DUP5 ADD MSTORE PUSH1 0x1F ADD PUSH1 0x1F NOT AND ADD ADD SWAP1 JUMP JUMPDEST SWAP1 PUSH1 0x0 SWAP3 SWAP2 DUP1 SLOAD SWAP2 PUSH2 0x1460 DUP4 PUSH2 0x1369 JUMP JUMPDEST SWAP2 DUP3 DUP3 MSTORE PUSH1 0x1 SWAP4 DUP5 DUP2 AND SWAP1 DUP2 PUSH1 0x0 EQ PUSH2 0x14C2 JUMPI POP PUSH1 0x1 EQ PUSH2 0x1482 JUMPI JUMPDEST POP POP POP POP JUMP JUMPDEST SWAP1 SWAP2 SWAP4 SWAP5 POP PUSH1 0x0 MSTORE PUSH1 0x20 SWAP3 DUP4 PUSH1 0x0 KECCAK256 SWAP3 DUP5 PUSH1 0x0 SWAP5 JUMPDEST DUP4 DUP7 LT PUSH2 0x14AE JUMPI POP POP POP POP ADD ADD SWAP1 CODESIZE DUP1 DUP1 DUP1 PUSH2 0x147C JUMP JUMPDEST DUP1 SLOAD DUP6 DUP8 ADD DUP4 ADD MSTORE SWAP5 ADD SWAP4 DUP6 SWAP1 DUP3 ADD PUSH2 0x1497 JUMP JUMPDEST SWAP3 SWAP5 POP POP POP PUSH1 0x20 SWAP4 SWAP5 POP PUSH1 0xFF NOT AND DUP4 DUP4 ADD MSTORE ISZERO ISZERO PUSH1 0x5 SHL ADD ADD SWAP1 CODESIZE DUP1 DUP1 DUP1 PUSH2 0x147C JUMP JUMPDEST PUSH1 0x40 MLOAD SWAP1 PUSH2 0x14F2 DUP3 PUSH2 0x1158 JUMP JUMPDEST PUSH1 0x0 PUSH1 0xC0 DUP4 PUSH1 0x60 DUP2 MSTORE DUP3 PUSH1 0x20 DUP3 ADD MSTORE DUP3 PUSH1 0x40 DUP3 ADD MSTORE PUSH1 0x60 DUP1 DUP3 ADD MSTORE DUP3 PUSH1 0x80 DUP3 ADD MSTORE DUP3 PUSH1 0xA0 DUP3 ADD MSTORE ADD MSTORE JUMP JUMPDEST PUSH8 0xFFFFFFFFFFFFFFFF DUP2 GT PUSH2 0x447 JUMPI PUSH1 0x5 SHL PUSH1 0x20 ADD SWAP1 JUMP JUMPDEST DUP1 MLOAD DUP3 LT ISZERO PUSH2 0x1238 JUMPI PUSH1 0x20 SWAP2 PUSH1 0x5 SHL ADD ADD SWAP1 JUMP INVALID LOG2 PUSH5 0x6970667358 0x22 SLT KECCAK256 0xDE 0xDC LT 0xBF 0x23 ADDMOD 0x2C DUP13 PUSH7 0x7B3D5DD3E4D993 PUSH1 0x6B PUSH20 0xA95280E226740CBB5972EE8A5A64736F6C634300 ADDMOD SGT STOP CALLER 0x2F DUP8 DUP9 GT PUSH31 0x7EFF1D82E926EC794901D17C78024A50270940304540A733656F0D00000000 "},"methodIdentifiers":{"DEFAULT_ADMIN_ROLE()":"a217fddf","REGISTRAR_ROLE()":"f68e9553","getCompany(address)":"62bc56e6","getRoleAdmin(bytes32)":"248a9ca3","grantRole(bytes32,address)":"2f2ff15d","hasRole(bytes32,address)":"91d14854","listCompanies()":"44187237","registerCompany(address,string,uint8)":"c3c8b27c","renounceRole(bytes32,address)":"36568abe","revokeRole(bytes32,address)":"d547741f","setActive(address,bool)":"2ce962cf","setKYC(address,bool,string)":"8e320bda","supportsInterface(bytes4)":"01ffc9a7"}}}}}