{"contracts/GovernanceContract.sol":{"GovernanceContract":{"abi":[{"inputs":[{"internalType":"address[]","name":"initialOwners","type":"address[]"},{"internalType":"uint256","name":"initialQuorum","type":"uint256"},{"internalType":"address","name":"admin","type":"address"}],"stateMutability":"nonpayable","type":"constructor"},{"inputs":[],"name":"AlreadyVoted","type":"error"},{"inputs":[],"name":"DuplicateOwner","type":"error"},{"inputs":[],"name":"InvalidOwner","type":"error"},{"inputs":[],"name":"InvalidQuorum","type":"error"},{"inputs":[],"name":"NotAdmin","type":"error"},{"inputs":[],"name":"NotOwner","type":"error"},{"inputs":[],"name":"ProposalNotFound","type":"error"},{"inputs":[],"name":"VotingClosed","type":"error"},{"anonymous":false,"inputs":[{"indexed":true,"internalType":"address","name":"owner","type":"address"}],"name":"OwnerAdded","type":"event"},{"anonymous":false,"inputs":[{"indexed":true,"internalType":"address","name":"owner","type":"address"}],"name":"OwnerRemoved","type":"event"},{"anonymous":false,"inputs":[{"indexed":true,"internalType":"uint256","name":"proposalId","type":"uint256"},{"indexed":true,"internalType":"address","name":"proposer","type":"address"},{"indexed":false,"internalType":"string","name":"description","type":"string"},{"indexed":false,"internalType":"uint256","name":"deadline","type":"uint256"}],"name":"ProposalCreated","type":"event"},{"anonymous":false,"inputs":[{"indexed":true,"internalType":"uint256","name":"proposalId","type":"uint256"},{"indexed":false,"internalType":"bool","name":"passed","type":"bool"}],"name":"ProposalExecuted","type":"event"},{"anonymous":false,"inputs":[{"indexed":false,"internalType":"uint256","name":"quorum","type":"uint256"}],"name":"QuorumUpdated","type":"event"},{"anonymous":false,"inputs":[{"indexed":true,"internalType":"bytes32","name":"role","type":"bytes32"},{"indexed":true,"internalType":"bytes32","name":"previousAdminRole","type":"bytes32"},{"indexed":true,"internalType":"bytes32","name":"newAdminRole","type":"bytes32"}],"name":"RoleAdminChanged","type":"event"},{"anonymous":false,"inputs":[{"indexed":true,"internalType":"bytes32","name":"role","type":"bytes32"},{"indexed":true,"internalType":"address","name":"account","type":"address"},{"indexed":true,"internalType":"address","name":"sender","type":"address"}],"name":"RoleGranted","type":"event"},{"anonymous":false,"inputs":[{"indexed":true,"internalType":"bytes32","name":"role","type":"bytes32"},{"indexed":true,"internalType":"address","name":"account","type":"address"},{"indexed":true,"internalType":"address","name":"sender","type":"address"}],"name":"RoleRevoked","type":"event"},{"anonymous":false,"inputs":[{"indexed":true,"internalType":"address","name":"account","type":"address"},{"indexed":false,"internalType":"bytes32","name":"role","type":"bytes32"}],"name":"RolesAssigned","type":"event"},{"anonymous":false,"inputs":[{"indexed":true,"internalType":"address","name":"account","type":"address"},{"indexed":false,"internalType":"bytes32","name":"role","type":"bytes32"}],"name":"RolesRevoked","type":"event"},{"anonymous":false,"inputs":[{"indexed":true,"internalType":"uint256","name":"proposalId","type":"uint256"},{"indexed":true,"internalType":"address","name":"voter","type":"address"},{"indexed":false,"internalType":"bool","name":"support","type":"bool"},{"indexed":false,"internalType":"uint256","name":"weight","type":"uint256"}],"name":"Voted","type":"event"},{"inputs":[],"name":"ADMIN_ROLE","outputs":[{"internalType":"bytes32","name":"","type":"bytes32"}],"stateMutability":"view","type":"function"},{"inputs":[],"name":"AUDITOR_ROLE","outputs":[{"internalType":"bytes32","name":"","type":"bytes32"}],"stateMutability":"view","type":"function"},{"inputs":[],"name":"DEFAULT_ADMIN_ROLE","outputs":[{"internalType":"bytes32","name":"","type":"bytes32"}],"stateMutability":"view","type":"function"},{"inputs":[],"name":"VIEWER_ROLE","outputs":[{"internalType":"bytes32","name":"","type":"bytes32"}],"stateMutability":"view","type":"function"},{"inputs":[{"internalType":"address","name":"newOwner","type":"address"}],"name":"addOwner","outputs":[],"stateMutability":"nonpayable","type":"function"},{"inputs":[{"internalType":"string","name":"description","type":"string"},{"internalType":"uint256","name":"votingPeriodSeconds","type":"uint256"}],"name":"createProposal","outputs":[{"internalType":"uint256","name":"","type":"uint256"}],"stateMutability":"nonpayable","type":"function"},{"inputs":[{"internalType":"uint256","name":"proposalId","type":"uint256"}],"name":"execute","outputs":[{"internalType":"bool","name":"passed","type":"bool"}],"stateMutability":"nonpayable","type":"function"},{"inputs":[{"internalType":"uint256","name":"proposalId","type":"uint256"}],"name":"getProposal","outputs":[{"internalType":"address","name":"proposer","type":"address"},{"internalType":"string","name":"description","type":"string"},{"internalType":"uint256","name":"createdAt","type":"uint256"},{"internalType":"uint256","name":"yesVotes","type":"uint256"},{"internalType":"uint256","name":"noVotes","type":"uint256"},{"internalType":"uint256","name":"deadline","type":"uint256"},{"internalType":"bool","name":"executed","type":"bool"}],"stateMutability":"view","type":"function"},{"inputs":[{"internalType":"bytes32","name":"role","type":"bytes32"}],"name":"getRoleAdmin","outputs":[{"internalType":"bytes32","name":"","type":"bytes32"}],"stateMutability":"view","type":"function"},{"inputs":[{"internalType":"address","name":"account","type":"address"}],"name":"grantAdmin","outputs":[],"stateMutability":"nonpayable","type":"function"},{"inputs":[{"internalType":"address","name":"account","type":"address"}],"name":"grantAuditor","outputs":[],"stateMutability":"nonpayable","type":"function"},{"inputs":[{"internalType":"bytes32","name":"role","type":"bytes32"},{"internalType":"address","name":"account","type":"address"}],"name":"grantRole","outputs":[],"stateMutability":"nonpayable","type":"function"},{"inputs":[{"internalType":"address","name":"account","type":"address"}],"name":"grantViewer","outputs":[],"stateMutability":"nonpayable","type":"function"},{"inputs":[{"internalType":"bytes32","name":"role","type":"bytes32"},{"internalType":"address","name":"account","type":"address"}],"name":"hasRole","outputs":[{"internalType":"bool","name":"","type":"bool"}],"stateMutability":"view","type":"function"},{"inputs":[],"name":"owners","outputs":[{"internalType":"address[]","name":"","type":"address[]"}],"stateMutability":"view","type":"function"},{"inputs":[],"name":"proposalCount","outputs":[{"internalType":"uint256","name":"","type":"uint256"}],"stateMutability":"view","type":"function"},{"inputs":[],"name":"quorum","outputs":[{"internalType":"uint256","name":"","type":"uint256"}],"stateMutability":"view","type":"function"},{"inputs":[{"internalType":"address","name":"owner","type":"address"}],"name":"removeOwner","outputs":[],"stateMutability":"nonpayable","type":"function"},{"inputs":[{"internalType":"bytes32","name":"role","type":"bytes32"},{"internalType":"address","name":"account","type":"address"}],"name":"renounceRole","outputs":[],"stateMutability":"nonpayable","type":"function"},{"inputs":[{"internalType":"bytes32","name":"role","type":"bytes32"},{"internalType":"address","name":"account","type":"address"}],"name":"revokeRole","outputs":[],"stateMutability":"nonpayable","type":"function"},{"inputs":[{"internalType":"address","name":"account","type":"address"},{"internalType":"bytes32","name":"role","type":"bytes32"}],"name":"revokeRoleFrom","outputs":[],"stateMutability":"nonpayable","type":"function"},{"inputs":[{"internalType":"uint256","name":"newQuorum","type":"uint256"}],"name":"setQuorum","outputs":[],"stateMutability":"nonpayable","type":"function"},{"inputs":[{"internalType":"bytes4","name":"interfaceId","type":"bytes4"}],"name":"supportsInterface","outputs":[{"internalType":"bool","name":"","type":"bool"}],"stateMutability":"view","type":"function"},{"inputs":[{"internalType":"uint256","name":"proposalId","type":"uint256"},{"internalType":"bool","name":"support","type":"bool"}],"name":"vote","outputs":[],"stateMutability":"nonpayable","type":"function"}],"evm":{"bytecode":{"linkReferences":{},"object":"60406080815234620002d85762001b6690813803806200001f81620002f3565b9384398201606083820312620002d85782516001600160401b0390818111620002d85784019082601f83011215620002d8578151908111620002dd5760059281841b602093848062000073818501620002f3565b809681520192820101928311620002d85784809101915b838310620002bd5750620000a79250869150870151960162000319565b815115620002875760005b8251811015620001305780851b83018401516001600160a01b031680156200011f57620000df906200032e565b156200010e576000198114620000f857600101620000b2565b634e487b7160e01b600052601160045260246000fd5b8551632f1ef11560e21b8152600490fd5b86516349e27cff60e01b8152600490fd5b85848389801580156200027b575b6200026a5782817ff18f88786aae85a652aadb99a82462616489a33370c9bcc7b245906812ef7cd1926003558551908152a160008080528083528381206001600160a01b039092168082529183528390205460ff16156200022c575b7fa49807205ce4d355092ef5a8a18f56e8913cf4a201fbe287825b095693c217759182600052600081528360002082600052815260ff84600020541615620001ec575b83516117909081620003b68239f35b82600052600081528360002090826000525282600020600160ff19825416179055339160008051602062001b46833981519152600080a4818080620001dd565b60008052600082528260002081600052825282600020600160ff198254161790553381600060008051602062001b468339815191528180a46200019a565b835163d173577960e01b8152600490fd5b5060015481116200013e565b845162461bcd60e51b815260048101849052600f60248201526e13dddb995c9cc81c995c5d5a5c9959608a1b6044820152606490fd5b8190620002ca8462000319565b81520191019084906200008a565b600080fd5b634e487b7160e01b600052604160045260246000fd5b6040519190601f01601f191682016001600160401b03811183821017620002dd57604052565b51906001600160a01b0382168203620002d857565b6000908082526002602052604082205415600014620003b1576001918254680100000000000000008110156200039d578381018085558110156200038957908260409285835260208320015583549281526002602052205590565b634e487b7160e01b82526032600452602482fd5b634e487b7160e01b82526041600452602482fd5b509056fe608060408181526004908136101561001657600080fd5b600092833560e01c90816301ffc9a71461107b575080630c570c1b14610fc35780631703a01814610fa4578063173825d914610ebe578063248a9ca314610e945780632f2ff15d14610dec57806335bb3e1614610d4457806335facf7814610a6b57806336568abe146109d957806350219eaf1461099e5780636e1d616e146109635780637065cb48146108ae57806375b238fc1461088557806391d1485414610840578063a217fddf14610825578063ace67b001461079b578063affe39c1146106e9578063c1ba4e5914610652578063c7f758a81461051f578063c9d27afe146103b8578063d547741f1461037c578063da35c6641461035e578063e55b4f931461024b5763fe0d94c11461012c57600080fd5b3461024757602092836003193601126102445782359033815260028552828120541561023557808284925260058652209260028401541561022757600584015442111561021957600684019081549060ff82166101e35760038601549060035482101596876101d5575b50505060019060ff19161790557f948f4a9cd986f1118c3fbd459f7a22b23c0693e1ca3ef06a6a8be5aa7d39cc0384835194151594858152a251908152f35b015410945060013880610196565b845162461bcd60e51b8152908101879052601060248201526f185b1c9958591e48195e1958dd5d195960821b6044820152606490fd5b825163335b65a560e11b8152fd5b825163635e873760e01b8152fd5b5050516330cd747160e01b8152fd5b80fd5b8280fd5b5034610247576020908160031936011261035a576102676110cf565b9260008051602061173b8339815191528552848352818520338652835260ff82862054161561034c5750907f0b84a5e332fb0b142f30741aef41cc60e9e12a8eefbadd1b88a5f64857e0bf2f917f59a1c48e5837ad7a7f3dcedcbe129bf3249ec4fbf651fd4f5e2600ead39fe2f5908186528583526001600160a01b03818720951694858752835260ff818720541615610304575b51908152a280f35b8186528583528086208587528352808620805460ff191660011790553385837f2f8788117e7eff1d82e926ec794901d17c78024a50270940304540a733656f0d8980a46102fc565b9051637bfa4b9f60e01b8152fd5b8380fd5b50903461024757826003193601126102475760209250549051908152f35b50346102475780600319360112610247576103b591356103b0600161039f6110ea565b938387528660205286200154611148565b6114c1565b80f35b5082903461051b578060031936011261051b578235602435918215159283810361051757859033865260026020528286205415610508578386526005602052828620906002820154156104f857600582015442116104e857600782013388528060205260ff85892054166104d857338852602052838720805460ff191660011790551561049d576003018054600181019250821061048a577f7c2de587c00d75474a0c6c6fa96fd3b45dc974cd4e8a75f712bb84c950dce1b59394959650555b8051938452600160208501523393a380f35b634e487b7160e01b865260118752602486fd5b018054906001820180921161048a577f7c2de587c00d75474a0c6c6fa96fd3b45dc974cd4e8a75f712bb84c950dce1b5939495965055610478565b8451637c9a1cf960e01b81528490fd5b835163335b65a560e11b81528390fd5b835163635e873760e01b81528390fd5b5090516330cd747160e01b8152fd5b8480fd5b5080fd5b503461024757602092836003193601126102445782358152600584528181206002810154918215610642576001600160a01b038254169460019384840194600385015492850154938960ff6006600589015498015416978951938382549261058684611700565b8088529383811690811561061e57506001146105e6575b5050505050906105b2816105c8930382611489565b60e088519a8b9a8b528a015260e0890190611123565b958701526060860152608085015260a0840152151560c08301520390f35b9080949550528383205b82841061060b5750505082010189826105c86105b23861059d565b80548685018601529284019281016105f0565b60ff19168689015250505050151560051b830101905089826105c86105b23861059d565b5050505163635e873760e01b8152fd5b50346102475760203660031901126102475781359160008051602061173b83398151915284528360205281842033855260205260ff82852054161561034c57821580156106de575b6106d05750816020917ff18f88786aae85a652aadb99a82462616489a33370c9bcc7b245906812ef7cd19360035551908152a180f35b905163d173577960e01b8152fd5b50600154831161069a565b83823461051b578160031936011261051b5780516001805480835281855260208084019592939186907fb10e2d527612073b26eecdfd717e6a320cf44b4afac2b0732d9fcbe2b7fa0cf690855b818110610788575050508261074c910383611489565b8451948186019282875251809352850195925b82811061076c5785870386f35b83516001600160a01b031687529581019592810192840161075f565b8254845292840192918701918701610736565b50346102475780600319360112610247576107b46110cf565b906024359260008051602061173b83398151915285528460205281852033865260205260ff82862054161561034c57506001600160a01b038260209261081b7f93197f4ced482a570e163380a2ecb2cdc73cd9a08c4c5c9a9e2986000b62e12c95876114c1565b519485521692a280f35b83823461051b578160031936011261051b5751908152602090f35b5090346102475781600319360112610247578160209360ff926108616110ea565b903582528186526001600160a01b0383832091168252855220541690519015158152f35b83823461051b578160031936011261051b576020905160008051602061173b8339815191528152f35b509034610247576020366003190112610247576108c96110cf565b60008051602061173b83398151915284528360205282842033855260205260ff838520541615610954576001600160a01b03169182156109475761090c83611594565b1561093a5750507f994a936646fe87ffe4f1e469d3d6aa417d6b855598397f323de5b449f765f0c38280a280f35b51632f1ef11560e21b8152fd5b516349e27cff60e01b8152fd5b509051637bfa4b9f60e01b8152fd5b83823461051b578160031936011261051b57602090517f59a1c48e5837ad7a7f3dcedcbe129bf3249ec4fbf651fd4f5e2600ead39fe2f58152f35b83823461051b578160031936011261051b57602090517f4e8c8e9ca39468bb90c81b80f979119441019fdac7cbbbd930e0a604f8777d1d8152f35b5091903461051b578260031936011261051b576109f46110ea565b90336001600160a01b03831603610a1057906103b591356114c1565b608490602085519162461bcd60e51b8352820152602f60248201527f416363657373436f6e74726f6c3a2063616e206f6e6c792072656e6f756e636560448201526e103937b632b9903337b91039b2b63360891b6064820152fd5b5082903461051b578060031936011261051b5767ffffffffffffffff833581811161035a573660238201121561035a578085013591821161035a576024943686848401011161051757853594338152602096600288528582205415610d34578415610d0357603c87101580610cf6575b15610cc85782549660001990818914610cb65760018099019889865589855260058b528a89862093336001600160a01b03198654161785558983860193610b228554611700565b601f8111610c5c575b508789601f8411600114610be457839495508a94610bd7575b50501b918a60031b1c19161790555b426002830155420193844211610bc55750918584927f98120a6aaa04295520ab4e01c6c1235dd316e822cc9ff31db7b3f197366d18bd9560058b98960155885194898652828a87015201606085013760608684010152878201526060813395601f80199101168101030190a351908152f35b634e487b7160e01b8452601190528183fd5b8c01013592508738610b44565b928a949192958d601f198316918988528881892098925b848410610c35575050505010610c1b575b5050505088811b019055610b53565b60f88d60031b161c19918b0101351690558c808681610c0c565b8295509688839597989a929394999a01013581550196019401918a93928f928f8990610bfb565b909293915084895281892090601f8d0160051c8201928d10610cac575b918f949391601f8e940160051c01905b818110610c965750610b2b565b9092508193945089815501918b918f9493610c89565b9091508190610c79565b634e487b7160e01b8452601185528284fd5b82600a6064928a89519362461bcd60e51b855284015282015269189859081c195c9a5bd960b21b6044820152fd5b5062278d00871115610adb565b82600d6064928a89519362461bcd60e51b85528401528201526c19195cd8c81c995c5d5a5c9959609a1b6044820152fd5b85516330cd747160e01b81528390fd5b5082903461051b5760208060031936011261024757610d616110cf565b9160008051602061173b83398151915290818552848352808520338652835260ff818620541615610ddd57907f0b84a5e332fb0b142f30741aef41cc60e9e12a8eefbadd1b88a5f64857e0bf2f92918186528583526001600160a01b03818720951694858752835260ff8187205416156103045751908152a280f35b51637bfa4b9f60e01b81528590fd5b5090346102475781600319360112610247573590610e086110ea565b9082845283602052610e1f60018286200154611148565b828452836020526001600160a01b0381852092169182855260205260ff818520541615610e4a578380f35b828452836020528084208285526020528320600160ff1982541617905533917f2f8788117e7eff1d82e926ec794901d17c78024a50270940304540a733656f0d8480a43880808380f35b50903461024757602036600319011261024757816020936001923581528085522001549051908152f35b503461024757602036600319011261024757610ed86110cf565b60008051602061173b83398151915284528360205281842033855260205260ff828520541615610f96576001600160a01b031691610f1583611616565b15610f88575060035490600154809211610f53575b50507f58619076adf5bb0943d100ef88d52d7c3fd691b19d3a9071b555b651fbf418da8280a280f35b816020917ff18f88786aae85a652aadb99a82462616489a33370c9bcc7b245906812ef7cd19360035551908152a13880610f2a565b90516349e27cff60e01b8152fd5b5051637bfa4b9f60e01b8152fd5b83823461051b578160031936011261051b576020906003549051908152f35b5034610247576020908160031936011261035a57610fdf6110cf565b9260008051602061173b8339815191528552848352818520338652835260ff82862054161561034c5750907f0b84a5e332fb0b142f30741aef41cc60e9e12a8eefbadd1b88a5f64857e0bf2f917f4e8c8e9ca39468bb90c81b80f979119441019fdac7cbbbd930e0a604f8777d1d908186528583526001600160a01b03818720951694858752835260ff8187205416156103045751908152a280f35b84908434610247576020366003190112610247573563ffffffff60e01b81168091036102475760209250637965db0b60e01b81149081156110be575b5015158152f35b6301ffc9a760e01b149050836110b7565b600435906001600160a01b03821682036110e557565b600080fd5b602435906001600160a01b03821682036110e557565b60005b8381106111135750506000910152565b8181015183820152602001611103565b9060209161113c81518092818552858086019101611100565b601f01601f1916010190565b600090808252602090828252604092838120338252835260ff8482205416156111715750505050565b83519167ffffffffffffffff90336060850183811186821017611475578752602a85528585019187368437855115611461576030835385519160019283101561144d576078602188015360295b8381116113e357506113a1579087519360808501908582109082111761138d57885260428452868401946060368737845115611379576030865384518210156113795790607860218601536041915b81831161130b575050506112c9576112c59386936112a99361129a6048946112659a519a8b957f416363657373436f6e74726f6c3a206163636f756e74200000000000000000008c8801525180926037880190611100565b8401917f206973206d697373696e6720726f6c6520000000000000000000000000000000603784015251809386840190611100565b01036028810187520185611489565b5192839262461bcd60e51b845260048401526024830190611123565b0390fd5b60648587519062461bcd60e51b825280600483015260248201527f537472696e67733a20686578206c656e67746820696e73756666696369656e746044820152fd5b909192600f81166010811015611365576f181899199a1a9b1b9c1cb0b131b232b360811b901a61133b8588611536565b5360041c9280156113515760001901919061120d565b634e487b7160e01b82526011600452602482fd5b634e487b7160e01b83526032600452602483fd5b634e487b7160e01b81526032600452602490fd5b634e487b7160e01b86526041600452602486fd5b60648789519062461bcd60e51b825280600483015260248201527f537472696e67733a20686578206c656e67746820696e73756666696369656e746044820152fd5b90600f81166010811015611439576f181899199a1a9b1b9c1cb0b131b232b360811b901a611411838a611536565b5360041c90801561142557600019016111be565b634e487b7160e01b87526011600452602487fd5b634e487b7160e01b88526032600452602488fd5b634e487b7160e01b86526032600452602486fd5b634e487b7160e01b85526032600452602485fd5b634e487b7160e01b85526041600452602485fd5b90601f8019910116810190811067ffffffffffffffff8211176114ab57604052565b634e487b7160e01b600052604160045260246000fd5b90600091808352826020526001600160a01b036040842092169182845260205260ff6040842054166114f257505050565b80835282602052604083208284526020526040832060ff1981541690557ff6391f5c32d9c69d2a47ea670b442974b53935d1edc7fd64eb21e047a839171b339380a4565b908151811015611547570160200190565b634e487b7160e01b600052603260045260246000fd5b6001548110156115475760016000527fb10e2d527612073b26eecdfd717e6a320cf44b4afac2b0732d9fcbe2b7fa0cf60190600090565b60008181526002602052604081205461161157600154680100000000000000008110156115fd5790826115e96115d28460016040960160015561155d565b819391549060031b91821b91600019901b19161790565b905560015492815260026020522055600190565b634e487b7160e01b82526041600452602482fd5b905090565b60008181526002602052604081205490919080156116fb57600019908082018181116116e757600154908382019182116116d35780820361169f575b505050600154801561168b5781019061166a8261155d565b909182549160031b1b19169055600155815260026020526040812055600190565b634e487b7160e01b84526031600452602484fd5b6116bd6116ae6115d29361155d565b90549060031b1c92839261155d565b9055845260026020526040842055388080611652565b634e487b7160e01b86526011600452602486fd5b634e487b7160e01b85526011600452602485fd5b505090565b90600182811c92168015611730575b602083101461171a57565b634e487b7160e01b600052602260045260246000fd5b91607f169161170f56fea49807205ce4d355092ef5a8a18f56e8913cf4a201fbe287825b095693c21775a26469706673582212208b4d1898bba961433ff54e9a4ae5cf6157423b2c1e079d1340b822776c4d724364736f6c634300081300332f8788117e7eff1d82e926ec794901d17c78024a50270940304540a733656f0d","opcodes":"PUSH1 0x40 PUSH1 0x80 DUP2 MSTORE CALLVALUE PUSH3 0x2D8 JUMPI PUSH3 0x1B66 SWAP1 DUP2 CODESIZE SUB DUP1 PUSH3 0x1F DUP2 PUSH3 0x2F3 JUMP JUMPDEST SWAP4 DUP5 CODECOPY DUP3 ADD PUSH1 0x60 DUP4 DUP3 SUB SLT PUSH3 0x2D8 JUMPI DUP3 MLOAD PUSH1 0x1 PUSH1 0x1 PUSH1 0x40 SHL SUB SWAP1 DUP2 DUP2 GT PUSH3 0x2D8 JUMPI DUP5 ADD SWAP1 DUP3 PUSH1 0x1F DUP4 ADD SLT ISZERO PUSH3 0x2D8 JUMPI DUP2 MLOAD SWAP1 DUP2 GT PUSH3 0x2DD JUMPI PUSH1 0x5 SWAP3 DUP2 DUP5 SHL PUSH1 0x20 SWAP4 DUP5 DUP1 PUSH3 0x73 DUP2 DUP6 ADD PUSH3 0x2F3 JUMP JUMPDEST DUP1 SWAP7 DUP2 MSTORE ADD SWAP3 DUP3 ADD ADD SWAP3 DUP4 GT PUSH3 0x2D8 JUMPI DUP5 DUP1 SWAP2 ADD SWAP2 JUMPDEST DUP4 DUP4 LT PUSH3 0x2BD JUMPI POP PUSH3 0xA7 SWAP3 POP DUP7 SWAP2 POP DUP8 ADD MLOAD SWAP7 ADD PUSH3 0x319 JUMP JUMPDEST DUP2 MLOAD ISZERO PUSH3 0x287 JUMPI PUSH1 0x0 JUMPDEST DUP3 MLOAD DUP2 LT ISZERO PUSH3 0x130 JUMPI DUP1 DUP6 SHL DUP4 ADD DUP5 ADD MLOAD PUSH1 0x1 PUSH1 0x1 PUSH1 0xA0 SHL SUB AND DUP1 ISZERO PUSH3 0x11F JUMPI PUSH3 0xDF SWAP1 PUSH3 0x32E JUMP JUMPDEST ISZERO PUSH3 0x10E JUMPI PUSH1 0x0 NOT DUP2 EQ PUSH3 0xF8 JUMPI PUSH1 0x1 ADD PUSH3 0xB2 JUMP JUMPDEST PUSH4 0x4E487B71 PUSH1 0xE0 SHL PUSH1 0x0 MSTORE PUSH1 0x11 PUSH1 0x4 MSTORE PUSH1 0x24 PUSH1 0x0 REVERT JUMPDEST DUP6 MLOAD PUSH4 0x2F1EF115 PUSH1 0xE2 SHL DUP2 MSTORE PUSH1 0x4 SWAP1 REVERT JUMPDEST DUP7 MLOAD PUSH4 0x49E27CFF PUSH1 0xE0 SHL DUP2 MSTORE PUSH1 0x4 SWAP1 REVERT JUMPDEST DUP6 DUP5 DUP4 DUP10 DUP1 ISZERO DUP1 ISZERO PUSH3 0x27B JUMPI JUMPDEST PUSH3 0x26A JUMPI DUP3 DUP2 PUSH32 0xF18F88786AAE85A652AADB99A82462616489A33370C9BCC7B245906812EF7CD1 SWAP3 PUSH1 0x3 SSTORE DUP6 MLOAD SWAP1 DUP2 MSTORE LOG1 PUSH1 0x0 DUP1 DUP1 MSTORE DUP1 DUP4 MSTORE DUP4 DUP2 KECCAK256 PUSH1 0x1 PUSH1 0x1 PUSH1 0xA0 SHL SUB SWAP1 SWAP3 AND DUP1 DUP3 MSTORE SWAP2 DUP4 MSTORE DUP4 SWAP1 KECCAK256 SLOAD PUSH1 0xFF AND ISZERO PUSH3 0x22C JUMPI JUMPDEST PUSH32 0xA49807205CE4D355092EF5A8A18F56E8913CF4A201FBE287825B095693C21775 SWAP2 DUP3 PUSH1 0x0 MSTORE PUSH1 0x0 DUP2 MSTORE DUP4 PUSH1 0x0 KECCAK256 DUP3 PUSH1 0x0 MSTORE DUP2 MSTORE PUSH1 0xFF DUP5 PUSH1 0x0 KECCAK256 SLOAD AND ISZERO PUSH3 0x1EC JUMPI JUMPDEST DUP4 MLOAD PUSH2 0x1790 SWAP1 DUP2 PUSH3 0x3B6 DUP3 CODECOPY RETURN JUMPDEST DUP3 PUSH1 0x0 MSTORE PUSH1 0x0 DUP2 MSTORE DUP4 PUSH1 0x0 KECCAK256 SWAP1 DUP3 PUSH1 0x0 MSTORE MSTORE DUP3 PUSH1 0x0 KECCAK256 PUSH1 0x1 PUSH1 0xFF NOT DUP3 SLOAD AND OR SWAP1 SSTORE CALLER SWAP2 PUSH1 0x0 DUP1 MLOAD PUSH1 0x20 PUSH3 0x1B46 DUP4 CODECOPY DUP2 MLOAD SWAP2 MSTORE PUSH1 0x0 DUP1 LOG4 DUP2 DUP1 DUP1 PUSH3 0x1DD JUMP JUMPDEST PUSH1 0x0 DUP1 MSTORE PUSH1 0x0 DUP3 MSTORE DUP3 PUSH1 0x0 KECCAK256 DUP2 PUSH1 0x0 MSTORE DUP3 MSTORE DUP3 PUSH1 0x0 KECCAK256 PUSH1 0x1 PUSH1 0xFF NOT DUP3 SLOAD AND OR SWAP1 SSTORE CALLER DUP2 PUSH1 0x0 PUSH1 0x0 DUP1 MLOAD PUSH1 0x20 PUSH3 0x1B46 DUP4 CODECOPY DUP2 MLOAD SWAP2 MSTORE DUP2 DUP1 LOG4 PUSH3 0x19A JUMP JUMPDEST DUP4 MLOAD PUSH4 0xD1735779 PUSH1 0xE0 SHL DUP2 MSTORE PUSH1 0x4 SWAP1 REVERT JUMPDEST POP PUSH1 0x1 SLOAD DUP2 GT PUSH3 0x13E JUMP JUMPDEST DUP5 MLOAD PUSH3 0x461BCD PUSH1 0xE5 SHL DUP2 MSTORE PUSH1 0x4 DUP2 ADD DUP5 SWAP1 MSTORE PUSH1 0xF PUSH1 0x24 DUP3 ADD MSTORE PUSH15 0x13DDDB995C9CC81C995C5D5A5C9959 PUSH1 0x8A SHL PUSH1 0x44 DUP3 ADD MSTORE PUSH1 0x64 SWAP1 REVERT JUMPDEST DUP2 SWAP1 PUSH3 0x2CA DUP5 PUSH3 0x319 JUMP JUMPDEST DUP2 MSTORE ADD SWAP2 ADD SWAP1 DUP5 SWAP1 PUSH3 0x8A JUMP JUMPDEST PUSH1 0x0 DUP1 REVERT JUMPDEST PUSH4 0x4E487B71 PUSH1 0xE0 SHL PUSH1 0x0 MSTORE PUSH1 0x41 PUSH1 0x4 MSTORE PUSH1 0x24 PUSH1 0x0 REVERT JUMPDEST PUSH1 0x40 MLOAD SWAP2 SWAP1 PUSH1 0x1F ADD PUSH1 0x1F NOT AND DUP3 ADD PUSH1 0x1 PUSH1 0x1 PUSH1 0x40 SHL SUB DUP2 GT DUP4 DUP3 LT OR PUSH3 0x2DD JUMPI PUSH1 0x40 MSTORE JUMP JUMPDEST MLOAD SWAP1 PUSH1 0x1 PUSH1 0x1 PUSH1 0xA0 SHL SUB DUP3 AND DUP3 SUB PUSH3 0x2D8 JUMPI JUMP JUMPDEST PUSH1 0x0 SWAP1 DUP1 DUP3 MSTORE PUSH1 0x2 PUSH1 0x20 MSTORE PUSH1 0x40 DUP3 KECCAK256 SLOAD ISZERO PUSH1 0x0 EQ PUSH3 0x3B1 JUMPI PUSH1 0x1 SWAP2 DUP3 SLOAD PUSH9 0x10000000000000000 DUP2 LT ISZERO PUSH3 0x39D JUMPI DUP4 DUP2 ADD DUP1 DUP6 SSTORE DUP2 LT ISZERO PUSH3 0x389 JUMPI SWAP1 DUP3 PUSH1 0x40 SWAP3 DUP6 DUP4 MSTORE PUSH1 0x20 DUP4 KECCAK256 ADD SSTORE DUP4 SLOAD SWAP3 DUP2 MSTORE PUSH1 0x2 PUSH1 0x20 MSTORE KECCAK256 SSTORE SWAP1 JUMP JUMPDEST PUSH4 0x4E487B71 PUSH1 0xE0 SHL DUP3 MSTORE PUSH1 0x32 PUSH1 0x4 MSTORE PUSH1 0x24 DUP3 REVERT JUMPDEST PUSH4 0x4E487B71 PUSH1 0xE0 SHL DUP3 MSTORE PUSH1 0x41 PUSH1 0x4 MSTORE PUSH1 0x24 DUP3 REVERT JUMPDEST POP SWAP1 JUMP INVALID PUSH1 0x80 PUSH1 0x40 DUP2 DUP2 MSTORE PUSH1 0x4 SWAP1 DUP2 CALLDATASIZE LT ISZERO PUSH2 0x16 JUMPI PUSH1 0x0 DUP1 REVERT JUMPDEST PUSH1 0x0 SWAP3 DUP4 CALLDATALOAD PUSH1 0xE0 SHR SWAP1 DUP2 PUSH4 0x1FFC9A7 EQ PUSH2 0x107B JUMPI POP DUP1 PUSH4 0xC570C1B EQ PUSH2 0xFC3 JUMPI DUP1 PUSH4 0x1703A018 EQ PUSH2 0xFA4 JUMPI DUP1 PUSH4 0x173825D9 EQ PUSH2 0xEBE JUMPI DUP1 PUSH4 0x248A9CA3 EQ PUSH2 0xE94 JUMPI DUP1 PUSH4 0x2F2FF15D EQ PUSH2 0xDEC JUMPI DUP1 PUSH4 0x35BB3E16 EQ PUSH2 0xD44 JUMPI DUP1 PUSH4 0x35FACF78 EQ PUSH2 0xA6B JUMPI DUP1 PUSH4 0x36568ABE EQ PUSH2 0x9D9 JUMPI DUP1 PUSH4 0x50219EAF EQ PUSH2 0x99E JUMPI DUP1 PUSH4 0x6E1D616E EQ PUSH2 0x963 JUMPI DUP1 PUSH4 0x7065CB48 EQ PUSH2 0x8AE JUMPI DUP1 PUSH4 0x75B238FC EQ PUSH2 0x885 JUMPI DUP1 PUSH4 0x91D14854 EQ PUSH2 0x840 JUMPI DUP1 PUSH4 0xA217FDDF EQ PUSH2 0x825 JUMPI DUP1 PUSH4 0xACE67B00 EQ PUSH2 0x79B JUMPI DUP1 PUSH4 0xAFFE39C1 EQ PUSH2 0x6E9 JUMPI DUP1 PUSH4 0xC1BA4E59 EQ PUSH2 0x652 JUMPI DUP1 PUSH4 0xC7F758A8 EQ PUSH2 0x51F JUMPI DUP1 PUSH4 0xC9D27AFE EQ PUSH2 0x3B8 JUMPI DUP1 PUSH4 0xD547741F EQ PUSH2 0x37C JUMPI DUP1 PUSH4 0xDA35C664 EQ PUSH2 0x35E JUMPI DUP1 PUSH4 0xE55B4F93 EQ PUSH2 0x24B JUMPI PUSH4 0xFE0D94C1 EQ PUSH2 0x12C JUMPI PUSH1 0x0 DUP1 REVERT JUMPDEST CALLVALUE PUSH2 0x247 JUMPI PUSH1 0x20 SWAP3 DUP4 PUSH1 0x3 NOT CALLDATASIZE ADD SLT PUSH2 0x244 JUMPI DUP3 CALLDATALOAD SWAP1 CALLER DUP2 MSTORE PUSH1 0x2 DUP6 MSTORE DUP3 DUP2 KECCAK256 SLOAD ISZERO PUSH2 0x235 JUMPI DUP1 DUP3 DUP5 SWAP3 MSTORE PUSH1 0x5 DUP7 MSTORE KECCAK256 SWAP3 PUSH1 0x2 DUP5 ADD SLOAD ISZERO PUSH2 0x227 JUMPI PUSH1 0x5 DUP5 ADD SLOAD TIMESTAMP GT ISZERO PUSH2 0x219 JUMPI PUSH1 0x6 DUP5 ADD SWAP1 DUP2 SLOAD SWAP1 PUSH1 0xFF DUP3 AND PUSH2 0x1E3 JUMPI PUSH1 0x3 DUP7 ADD SLOAD SWAP1 PUSH1 0x3 SLOAD DUP3 LT ISZERO SWAP7 DUP8 PUSH2 0x1D5 JUMPI JUMPDEST POP POP POP PUSH1 0x1 SWAP1 PUSH1 0xFF NOT AND OR SWAP1 SSTORE PUSH32 0x948F4A9CD986F1118C3FBD459F7A22B23C0693E1CA3EF06A6A8BE5AA7D39CC03 DUP5 DUP4 MLOAD SWAP5 ISZERO ISZERO SWAP5 DUP6 DUP2 MSTORE LOG2 MLOAD SWAP1 DUP2 MSTORE RETURN JUMPDEST ADD SLOAD LT SWAP5 POP PUSH1 0x1 CODESIZE DUP1 PUSH2 0x196 JUMP JUMPDEST DUP5 MLOAD PUSH3 0x461BCD PUSH1 0xE5 SHL DUP2 MSTORE SWAP1 DUP2 ADD DUP8 SWAP1 MSTORE PUSH1 0x10 PUSH1 0x24 DUP3 ADD MSTORE PUSH16 0x185B1C9958591E48195E1958DD5D1959 PUSH1 0x82 SHL PUSH1 0x44 DUP3 ADD MSTORE PUSH1 0x64 SWAP1 REVERT JUMPDEST DUP3 MLOAD PUSH4 0x335B65A5 PUSH1 0xE1 SHL DUP2 MSTORE REVERT JUMPDEST DUP3 MLOAD PUSH4 0x635E8737 PUSH1 0xE0 SHL DUP2 MSTORE REVERT JUMPDEST POP POP MLOAD PUSH4 0x30CD7471 PUSH1 0xE0 SHL DUP2 MSTORE REVERT JUMPDEST DUP1 REVERT JUMPDEST DUP3 DUP1 REVERT JUMPDEST POP CALLVALUE PUSH2 0x247 JUMPI PUSH1 0x20 SWAP1 DUP2 PUSH1 0x3 NOT CALLDATASIZE ADD SLT PUSH2 0x35A JUMPI PUSH2 0x267 PUSH2 0x10CF JUMP JUMPDEST SWAP3 PUSH1 0x0 DUP1 MLOAD PUSH1 0x20 PUSH2 0x173B DUP4 CODECOPY DUP2 MLOAD SWAP2 MSTORE DUP6 MSTORE DUP5 DUP4 MSTORE DUP2 DUP6 KECCAK256 CALLER DUP7 MSTORE DUP4 MSTORE PUSH1 0xFF DUP3 DUP7 KECCAK256 SLOAD AND ISZERO PUSH2 0x34C JUMPI POP SWAP1 PUSH32 0xB84A5E332FB0B142F30741AEF41CC60E9E12A8EEFBADD1B88A5F64857E0BF2F SWAP2 PUSH32 0x59A1C48E5837AD7A7F3DCEDCBE129BF3249EC4FBF651FD4F5E2600EAD39FE2F5 SWAP1 DUP2 DUP7 MSTORE DUP6 DUP4 MSTORE PUSH1 0x1 PUSH1 0x1 PUSH1 0xA0 SHL SUB DUP2 DUP8 KECCAK256 SWAP6 AND SWAP5 DUP6 DUP8 MSTORE DUP4 MSTORE PUSH1 0xFF DUP2 DUP8 KECCAK256 SLOAD AND ISZERO PUSH2 0x304 JUMPI JUMPDEST MLOAD SWAP1 DUP2 MSTORE LOG2 DUP1 RETURN JUMPDEST DUP2 DUP7 MSTORE DUP6 DUP4 MSTORE DUP1 DUP7 KECCAK256 DUP6 DUP8 MSTORE DUP4 MSTORE DUP1 DUP7 KECCAK256 DUP1 SLOAD PUSH1 0xFF NOT AND PUSH1 0x1 OR SWAP1 SSTORE CALLER DUP6 DUP4 PUSH32 0x2F8788117E7EFF1D82E926EC794901D17C78024A50270940304540A733656F0D DUP10 DUP1 LOG4 PUSH2 0x2FC JUMP JUMPDEST SWAP1 MLOAD PUSH4 0x7BFA4B9F PUSH1 0xE0 SHL DUP2 MSTORE REVERT JUMPDEST DUP4 DUP1 REVERT JUMPDEST POP SWAP1 CALLVALUE PUSH2 0x247 JUMPI DUP3 PUSH1 0x3 NOT CALLDATASIZE ADD SLT PUSH2 0x247 JUMPI PUSH1 0x20 SWAP3 POP SLOAD SWAP1 MLOAD SWAP1 DUP2 MSTORE RETURN JUMPDEST POP CALLVALUE PUSH2 0x247 JUMPI DUP1 PUSH1 0x3 NOT CALLDATASIZE ADD SLT PUSH2 0x247 JUMPI PUSH2 0x3B5 SWAP2 CALLDATALOAD PUSH2 0x3B0 PUSH1 0x1 PUSH2 0x39F PUSH2 0x10EA JUMP JUMPDEST SWAP4 DUP4 DUP8 MSTORE DUP7 PUSH1 0x20 MSTORE DUP7 KECCAK256 ADD SLOAD PUSH2 0x1148 JUMP JUMPDEST PUSH2 0x14C1 JUMP JUMPDEST DUP1 RETURN JUMPDEST POP DUP3 SWAP1 CALLVALUE PUSH2 0x51B JUMPI DUP1 PUSH1 0x3 NOT CALLDATASIZE ADD SLT PUSH2 0x51B JUMPI DUP3 CALLDATALOAD PUSH1 0x24 CALLDATALOAD SWAP2 DUP3 ISZERO ISZERO SWAP3 DUP4 DUP2 SUB PUSH2 0x517 JUMPI DUP6 SWAP1 CALLER DUP7 MSTORE PUSH1 0x2 PUSH1 0x20 MSTORE DUP3 DUP7 KECCAK256 SLOAD ISZERO PUSH2 0x508 JUMPI DUP4 DUP7 MSTORE PUSH1 0x5 PUSH1 0x20 MSTORE DUP3 DUP7 KECCAK256 SWAP1 PUSH1 0x2 DUP3 ADD SLOAD ISZERO PUSH2 0x4F8 JUMPI PUSH1 0x5 DUP3 ADD SLOAD TIMESTAMP GT PUSH2 0x4E8 JUMPI PUSH1 0x7 DUP3 ADD CALLER DUP9 MSTORE DUP1 PUSH1 0x20 MSTORE PUSH1 0xFF DUP6 DUP10 KECCAK256 SLOAD AND PUSH2 0x4D8 JUMPI CALLER DUP9 MSTORE PUSH1 0x20 MSTORE DUP4 DUP8 KECCAK256 DUP1 SLOAD PUSH1 0xFF NOT AND PUSH1 0x1 OR SWAP1 SSTORE ISZERO PUSH2 0x49D JUMPI PUSH1 0x3 ADD DUP1 SLOAD PUSH1 0x1 DUP2 ADD SWAP3 POP DUP3 LT PUSH2 0x48A JUMPI PUSH32 0x7C2DE587C00D75474A0C6C6FA96FD3B45DC974CD4E8A75F712BB84C950DCE1B5 SWAP4 SWAP5 SWAP6 SWAP7 POP SSTORE JUMPDEST DUP1 MLOAD SWAP4 DUP5 MSTORE PUSH1 0x1 PUSH1 0x20 DUP6 ADD MSTORE CALLER SWAP4 LOG3 DUP1 RETURN JUMPDEST PUSH4 0x4E487B71 PUSH1 0xE0 SHL DUP7 MSTORE PUSH1 0x11 DUP8 MSTORE PUSH1 0x24 DUP7 REVERT JUMPDEST ADD DUP1 SLOAD SWAP1 PUSH1 0x1 DUP3 ADD DUP1 SWAP3 GT PUSH2 0x48A JUMPI PUSH32 0x7C2DE587C00D75474A0C6C6FA96FD3B45DC974CD4E8A75F712BB84C950DCE1B5 SWAP4 SWAP5 SWAP6 SWAP7 POP SSTORE PUSH2 0x478 JUMP JUMPDEST DUP5 MLOAD PUSH4 0x7C9A1CF9 PUSH1 0xE0 SHL DUP2 MSTORE DUP5 SWAP1 REVERT JUMPDEST DUP4 MLOAD PUSH4 0x335B65A5 PUSH1 0xE1 SHL DUP2 MSTORE DUP4 SWAP1 REVERT JUMPDEST DUP4 MLOAD PUSH4 0x635E8737 PUSH1 0xE0 SHL DUP2 MSTORE DUP4 SWAP1 REVERT JUMPDEST POP SWAP1 MLOAD PUSH4 0x30CD7471 PUSH1 0xE0 SHL DUP2 MSTORE REVERT JUMPDEST DUP5 DUP1 REVERT JUMPDEST POP DUP1 REVERT JUMPDEST POP CALLVALUE PUSH2 0x247 JUMPI PUSH1 0x20 SWAP3 DUP4 PUSH1 0x3 NOT CALLDATASIZE ADD SLT PUSH2 0x244 JUMPI DUP3 CALLDATALOAD DUP2 MSTORE PUSH1 0x5 DUP5 MSTORE DUP2 DUP2 KECCAK256 PUSH1 0x2 DUP2 ADD SLOAD SWAP2 DUP3 ISZERO PUSH2 0x642 JUMPI PUSH1 0x1 PUSH1 0x1 PUSH1 0xA0 SHL SUB DUP3 SLOAD AND SWAP5 PUSH1 0x1 SWAP4 DUP5 DUP5 ADD SWAP5 PUSH1 0x3 DUP6 ADD SLOAD SWAP3 DUP6 ADD SLOAD SWAP4 DUP10 PUSH1 0xFF PUSH1 0x6 PUSH1 0x5 DUP10 ADD SLOAD SWAP9 ADD SLOAD AND SWAP8 DUP10 MLOAD SWAP4 DUP4 DUP3 SLOAD SWAP3 PUSH2 0x586 DUP5 PUSH2 0x1700 JUMP JUMPDEST DUP1 DUP9 MSTORE SWAP4 DUP4 DUP2 AND SWAP1 DUP2 ISZERO PUSH2 0x61E JUMPI POP PUSH1 0x1 EQ PUSH2 0x5E6 JUMPI JUMPDEST POP POP POP POP POP SWAP1 PUSH2 0x5B2 DUP2 PUSH2 0x5C8 SWAP4 SUB DUP3 PUSH2 0x1489 JUMP JUMPDEST PUSH1 0xE0 DUP9 MLOAD SWAP11 DUP12 SWAP11 DUP12 MSTORE DUP11 ADD MSTORE PUSH1 0xE0 DUP10 ADD SWAP1 PUSH2 0x1123 JUMP JUMPDEST SWAP6 DUP8 ADD MSTORE PUSH1 0x60 DUP7 ADD MSTORE PUSH1 0x80 DUP6 ADD MSTORE PUSH1 0xA0 DUP5 ADD MSTORE ISZERO ISZERO PUSH1 0xC0 DUP4 ADD MSTORE SUB SWAP1 RETURN JUMPDEST SWAP1 DUP1 SWAP5 SWAP6 POP MSTORE DUP4 DUP4 KECCAK256 JUMPDEST DUP3 DUP5 LT PUSH2 0x60B JUMPI POP POP POP DUP3 ADD ADD DUP10 DUP3 PUSH2 0x5C8 PUSH2 0x5B2 CODESIZE PUSH2 0x59D JUMP JUMPDEST DUP1 SLOAD DUP7 DUP6 ADD DUP7 ADD MSTORE SWAP3 DUP5 ADD SWAP3 DUP2 ADD PUSH2 0x5F0 JUMP JUMPDEST PUSH1 0xFF NOT AND DUP7 DUP10 ADD MSTORE POP POP POP POP ISZERO ISZERO PUSH1 0x5 SHL DUP4 ADD ADD SWAP1 POP DUP10 DUP3 PUSH2 0x5C8 PUSH2 0x5B2 CODESIZE PUSH2 0x59D JUMP JUMPDEST POP POP POP MLOAD PUSH4 0x635E8737 PUSH1 0xE0 SHL DUP2 MSTORE REVERT JUMPDEST POP CALLVALUE PUSH2 0x247 JUMPI PUSH1 0x20 CALLDATASIZE PUSH1 0x3 NOT ADD SLT PUSH2 0x247 JUMPI DUP2 CALLDATALOAD SWAP2 PUSH1 0x0 DUP1 MLOAD PUSH1 0x20 PUSH2 0x173B DUP4 CODECOPY DUP2 MLOAD SWAP2 MSTORE DUP5 MSTORE DUP4 PUSH1 0x20 MSTORE DUP2 DUP5 KECCAK256 CALLER DUP6 MSTORE PUSH1 0x20 MSTORE PUSH1 0xFF DUP3 DUP6 KECCAK256 SLOAD AND ISZERO PUSH2 0x34C JUMPI DUP3 ISZERO DUP1 ISZERO PUSH2 0x6DE JUMPI JUMPDEST PUSH2 0x6D0 JUMPI POP DUP2 PUSH1 0x20 SWAP2 PUSH32 0xF18F88786AAE85A652AADB99A82462616489A33370C9BCC7B245906812EF7CD1 SWAP4 PUSH1 0x3 SSTORE MLOAD SWAP1 DUP2 MSTORE LOG1 DUP1 RETURN JUMPDEST SWAP1 MLOAD PUSH4 0xD1735779 PUSH1 0xE0 SHL DUP2 MSTORE REVERT JUMPDEST POP PUSH1 0x1 SLOAD DUP4 GT PUSH2 0x69A JUMP JUMPDEST DUP4 DUP3 CALLVALUE PUSH2 0x51B JUMPI DUP2 PUSH1 0x3 NOT CALLDATASIZE ADD SLT PUSH2 0x51B JUMPI DUP1 MLOAD PUSH1 0x1 DUP1 SLOAD DUP1 DUP4 MSTORE DUP2 DUP6 MSTORE PUSH1 0x20 DUP1 DUP5 ADD SWAP6 SWAP3 SWAP4 SWAP2 DUP7 SWAP1 PUSH32 0xB10E2D527612073B26EECDFD717E6A320CF44B4AFAC2B0732D9FCBE2B7FA0CF6 SWAP1 DUP6 JUMPDEST DUP2 DUP2 LT PUSH2 0x788 JUMPI POP POP POP DUP3 PUSH2 0x74C SWAP2 SUB DUP4 PUSH2 0x1489 JUMP JUMPDEST DUP5 MLOAD SWAP5 DUP2 DUP7 ADD SWAP3 DUP3 DUP8 MSTORE MLOAD DUP1 SWAP4 MSTORE DUP6 ADD SWAP6 SWAP3 JUMPDEST DUP3 DUP2 LT PUSH2 0x76C JUMPI DUP6 DUP8 SUB DUP7 RETURN JUMPDEST DUP4 MLOAD PUSH1 0x1 PUSH1 0x1 PUSH1 0xA0 SHL SUB AND DUP8 MSTORE SWAP6 DUP2 ADD SWAP6 SWAP3 DUP2 ADD SWAP3 DUP5 ADD PUSH2 0x75F JUMP JUMPDEST DUP3 SLOAD DUP5 MSTORE SWAP3 DUP5 ADD SWAP3 SWAP2 DUP8 ADD SWAP2 DUP8 ADD PUSH2 0x736 JUMP JUMPDEST POP CALLVALUE PUSH2 0x247 JUMPI DUP1 PUSH1 0x3 NOT CALLDATASIZE ADD SLT PUSH2 0x247 JUMPI PUSH2 0x7B4 PUSH2 0x10CF JUMP JUMPDEST SWAP1 PUSH1 0x24 CALLDATALOAD SWAP3 PUSH1 0x0 DUP1 MLOAD PUSH1 0x20 PUSH2 0x173B DUP4 CODECOPY DUP2 MLOAD SWAP2 MSTORE DUP6 MSTORE DUP5 PUSH1 0x20 MSTORE DUP2 DUP6 KECCAK256 CALLER DUP7 MSTORE PUSH1 0x20 MSTORE PUSH1 0xFF DUP3 DUP7 KECCAK256 SLOAD AND ISZERO PUSH2 0x34C JUMPI POP PUSH1 0x1 PUSH1 0x1 PUSH1 0xA0 SHL SUB DUP3 PUSH1 0x20 SWAP3 PUSH2 0x81B PUSH32 0x93197F4CED482A570E163380A2ECB2CDC73CD9A08C4C5C9A9E2986000B62E12C SWAP6 DUP8 PUSH2 0x14C1 JUMP JUMPDEST MLOAD SWAP5 DUP6 MSTORE AND SWAP3 LOG2 DUP1 RETURN JUMPDEST DUP4 DUP3 CALLVALUE PUSH2 0x51B JUMPI DUP2 PUSH1 0x3 NOT CALLDATASIZE ADD SLT PUSH2 0x51B JUMPI MLOAD SWAP1 DUP2 MSTORE PUSH1 0x20 SWAP1 RETURN JUMPDEST POP SWAP1 CALLVALUE PUSH2 0x247 JUMPI DUP2 PUSH1 0x3 NOT CALLDATASIZE ADD SLT PUSH2 0x247 JUMPI DUP2 PUSH1 0x20 SWAP4 PUSH1 0xFF SWAP3 PUSH2 0x861 PUSH2 0x10EA JUMP JUMPDEST SWAP1 CALLDATALOAD DUP3 MSTORE DUP2 DUP7 MSTORE PUSH1 0x1 PUSH1 0x1 PUSH1 0xA0 SHL SUB DUP4 DUP4 KECCAK256 SWAP2 AND DUP3 MSTORE DUP6 MSTORE KECCAK256 SLOAD AND SWAP1 MLOAD SWAP1 ISZERO ISZERO DUP2 MSTORE RETURN JUMPDEST DUP4 DUP3 CALLVALUE PUSH2 0x51B JUMPI DUP2 PUSH1 0x3 NOT CALLDATASIZE ADD SLT PUSH2 0x51B JUMPI PUSH1 0x20 SWAP1 MLOAD PUSH1 0x0 DUP1 MLOAD PUSH1 0x20 PUSH2 0x173B DUP4 CODECOPY DUP2 MLOAD SWAP2 MSTORE DUP2 MSTORE RETURN JUMPDEST POP SWAP1 CALLVALUE PUSH2 0x247 JUMPI PUSH1 0x20 CALLDATASIZE PUSH1 0x3 NOT ADD SLT PUSH2 0x247 JUMPI PUSH2 0x8C9 PUSH2 0x10CF JUMP JUMPDEST PUSH1 0x0 DUP1 MLOAD PUSH1 0x20 PUSH2 0x173B DUP4 CODECOPY DUP2 MLOAD SWAP2 MSTORE DUP5 MSTORE DUP4 PUSH1 0x20 MSTORE DUP3 DUP5 KECCAK256 CALLER DUP6 MSTORE PUSH1 0x20 MSTORE PUSH1 0xFF DUP4 DUP6 KECCAK256 SLOAD AND ISZERO PUSH2 0x954 JUMPI PUSH1 0x1 PUSH1 0x1 PUSH1 0xA0 SHL SUB AND SWAP2 DUP3 ISZERO PUSH2 0x947 JUMPI PUSH2 0x90C DUP4 PUSH2 0x1594 JUMP JUMPDEST ISZERO PUSH2 0x93A JUMPI POP POP PUSH32 0x994A936646FE87FFE4F1E469D3D6AA417D6B855598397F323DE5B449F765F0C3 DUP3 DUP1 LOG2 DUP1 RETURN JUMPDEST MLOAD PUSH4 0x2F1EF115 PUSH1 0xE2 SHL DUP2 MSTORE REVERT JUMPDEST MLOAD PUSH4 0x49E27CFF PUSH1 0xE0 SHL DUP2 MSTORE REVERT JUMPDEST POP SWAP1 MLOAD PUSH4 0x7BFA4B9F PUSH1 0xE0 SHL DUP2 MSTORE REVERT JUMPDEST DUP4 DUP3 CALLVALUE PUSH2 0x51B JUMPI DUP2 PUSH1 0x3 NOT CALLDATASIZE ADD SLT PUSH2 0x51B JUMPI PUSH1 0x20 SWAP1 MLOAD PUSH32 0x59A1C48E5837AD7A7F3DCEDCBE129BF3249EC4FBF651FD4F5E2600EAD39FE2F5 DUP2 MSTORE RETURN JUMPDEST DUP4 DUP3 CALLVALUE PUSH2 0x51B JUMPI DUP2 PUSH1 0x3 NOT CALLDATASIZE ADD SLT PUSH2 0x51B JUMPI PUSH1 0x20 SWAP1 MLOAD PUSH32 0x4E8C8E9CA39468BB90C81B80F979119441019FDAC7CBBBD930E0A604F8777D1D DUP2 MSTORE RETURN JUMPDEST POP SWAP2 SWAP1 CALLVALUE PUSH2 0x51B JUMPI DUP3 PUSH1 0x3 NOT CALLDATASIZE ADD SLT PUSH2 0x51B JUMPI PUSH2 0x9F4 PUSH2 0x10EA JUMP JUMPDEST SWAP1 CALLER PUSH1 0x1 PUSH1 0x1 PUSH1 0xA0 SHL SUB DUP4 AND SUB PUSH2 0xA10 JUMPI SWAP1 PUSH2 0x3B5 SWAP2 CALLDATALOAD PUSH2 0x14C1 JUMP JUMPDEST PUSH1 0x84 SWAP1 PUSH1 0x20 DUP6 MLOAD SWAP2 PUSH3 0x461BCD PUSH1 0xE5 SHL DUP4 MSTORE DUP3 ADD MSTORE PUSH1 0x2F PUSH1 0x24 DUP3 ADD MSTORE PUSH32 0x416363657373436F6E74726F6C3A2063616E206F6E6C792072656E6F756E6365 PUSH1 0x44 DUP3 ADD MSTORE PUSH15 0x103937B632B9903337B91039B2B633 PUSH1 0x89 SHL PUSH1 0x64 DUP3 ADD MSTORE REVERT JUMPDEST POP DUP3 SWAP1 CALLVALUE PUSH2 0x51B JUMPI DUP1 PUSH1 0x3 NOT CALLDATASIZE ADD SLT PUSH2 0x51B JUMPI PUSH8 0xFFFFFFFFFFFFFFFF DUP4 CALLDATALOAD DUP2 DUP2 GT PUSH2 0x35A JUMPI CALLDATASIZE PUSH1 0x23 DUP3 ADD SLT ISZERO PUSH2 0x35A JUMPI DUP1 DUP6 ADD CALLDATALOAD SWAP2 DUP3 GT PUSH2 0x35A JUMPI PUSH1 0x24 SWAP5 CALLDATASIZE DUP7 DUP5 DUP5 ADD ADD GT PUSH2 0x517 JUMPI DUP6 CALLDATALOAD SWAP5 CALLER DUP2 MSTORE PUSH1 0x20 SWAP7 PUSH1 0x2 DUP9 MSTORE DUP6 DUP3 KECCAK256 SLOAD ISZERO PUSH2 0xD34 JUMPI DUP5 ISZERO PUSH2 0xD03 JUMPI PUSH1 0x3C DUP8 LT ISZERO DUP1 PUSH2 0xCF6 JUMPI JUMPDEST ISZERO PUSH2 0xCC8 JUMPI DUP3 SLOAD SWAP7 PUSH1 0x0 NOT SWAP1 DUP2 DUP10 EQ PUSH2 0xCB6 JUMPI PUSH1 0x1 DUP1 SWAP10 ADD SWAP9 DUP10 DUP7 SSTORE DUP10 DUP6 MSTORE PUSH1 0x5 DUP12 MSTORE DUP11 DUP10 DUP7 KECCAK256 SWAP4 CALLER PUSH1 0x1 PUSH1 0x1 PUSH1 0xA0 SHL SUB NOT DUP7 SLOAD AND OR DUP6 SSTORE DUP10 DUP4 DUP7 ADD SWAP4 PUSH2 0xB22 DUP6 SLOAD PUSH2 0x1700 JUMP JUMPDEST PUSH1 0x1F DUP2 GT PUSH2 0xC5C JUMPI JUMPDEST POP DUP8 DUP10 PUSH1 0x1F DUP5 GT PUSH1 0x1 EQ PUSH2 0xBE4 JUMPI DUP4 SWAP5 SWAP6 POP DUP11 SWAP5 PUSH2 0xBD7 JUMPI JUMPDEST POP POP SHL SWAP2 DUP11 PUSH1 0x3 SHL SHR NOT AND OR SWAP1 SSTORE JUMPDEST TIMESTAMP PUSH1 0x2 DUP4 ADD SSTORE TIMESTAMP ADD SWAP4 DUP5 TIMESTAMP GT PUSH2 0xBC5 JUMPI POP SWAP2 DUP6 DUP5 SWAP3 PUSH32 0x98120A6AAA04295520AB4E01C6C1235DD316E822CC9FF31DB7B3F197366D18BD SWAP6 PUSH1 0x5 DUP12 SWAP9 SWAP7 ADD SSTORE DUP9 MLOAD SWAP5 DUP10 DUP7 MSTORE DUP3 DUP11 DUP8 ADD MSTORE ADD PUSH1 0x60 DUP6 ADD CALLDATACOPY PUSH1 0x60 DUP7 DUP5 ADD ADD MSTORE DUP8 DUP3 ADD MSTORE PUSH1 0x60 DUP2 CALLER SWAP6 PUSH1 0x1F DUP1 NOT SWAP2 ADD AND DUP2 ADD SUB ADD SWAP1 LOG3 MLOAD SWAP1 DUP2 MSTORE RETURN JUMPDEST PUSH4 0x4E487B71 PUSH1 0xE0 SHL DUP5 MSTORE PUSH1 0x11 SWAP1 MSTORE DUP2 DUP4 REVERT JUMPDEST DUP13 ADD ADD CALLDATALOAD SWAP3 POP DUP8 CODESIZE PUSH2 0xB44 JUMP JUMPDEST SWAP3 DUP11 SWAP5 SWAP2 SWAP3 SWAP6 DUP14 PUSH1 0x1F NOT DUP4 AND SWAP2 DUP10 DUP9 MSTORE DUP9 DUP2 DUP10 KECCAK256 SWAP9 SWAP3 JUMPDEST DUP5 DUP5 LT PUSH2 0xC35 JUMPI POP POP POP POP LT PUSH2 0xC1B JUMPI JUMPDEST POP POP POP POP DUP9 DUP2 SHL ADD SWAP1 SSTORE PUSH2 0xB53 JUMP JUMPDEST PUSH1 0xF8 DUP14 PUSH1 0x3 SHL AND SHR NOT SWAP2 DUP12 ADD ADD CALLDATALOAD AND SWAP1 SSTORE DUP13 DUP1 DUP7 DUP2 PUSH2 0xC0C JUMP JUMPDEST DUP3 SWAP6 POP SWAP7 DUP9 DUP4 SWAP6 SWAP8 SWAP9 SWAP11 SWAP3 SWAP4 SWAP5 SWAP10 SWAP11 ADD ADD CALLDATALOAD DUP2 SSTORE ADD SWAP7 ADD SWAP5 ADD SWAP2 DUP11 SWAP4 SWAP3 DUP16 SWAP3 DUP16 DUP10 SWAP1 PUSH2 0xBFB JUMP JUMPDEST SWAP1 SWAP3 SWAP4 SWAP2 POP DUP5 DUP10 MSTORE DUP2 DUP10 KECCAK256 SWAP1 PUSH1 0x1F DUP14 ADD PUSH1 0x5 SHR DUP3 ADD SWAP3 DUP14 LT PUSH2 0xCAC JUMPI JUMPDEST SWAP2 DUP16 SWAP5 SWAP4 SWAP2 PUSH1 0x1F DUP15 SWAP5 ADD PUSH1 0x5 SHR ADD SWAP1 JUMPDEST DUP2 DUP2 LT PUSH2 0xC96 JUMPI POP PUSH2 0xB2B JUMP JUMPDEST SWAP1 SWAP3 POP DUP2 SWAP4 SWAP5 POP DUP10 DUP2 SSTORE ADD SWAP2 DUP12 SWAP2 DUP16 SWAP5 SWAP4 PUSH2 0xC89 JUMP JUMPDEST SWAP1 SWAP2 POP DUP2 SWAP1 PUSH2 0xC79 JUMP JUMPDEST PUSH4 0x4E487B71 PUSH1 0xE0 SHL DUP5 MSTORE PUSH1 0x11 DUP6 MSTORE DUP3 DUP5 REVERT JUMPDEST DUP3 PUSH1 0xA PUSH1 0x64 SWAP3 DUP11 DUP10 MLOAD SWAP4 PUSH3 0x461BCD PUSH1 0xE5 SHL DUP6 MSTORE DUP5 ADD MSTORE DUP3 ADD MSTORE PUSH10 0x189859081C195C9A5BD9 PUSH1 0xB2 SHL PUSH1 0x44 DUP3 ADD MSTORE REVERT JUMPDEST POP PUSH3 0x278D00 DUP8 GT ISZERO PUSH2 0xADB JUMP JUMPDEST DUP3 PUSH1 0xD PUSH1 0x64 SWAP3 DUP11 DUP10 MLOAD SWAP4 PUSH3 0x461BCD PUSH1 0xE5 SHL DUP6 MSTORE DUP5 ADD MSTORE DUP3 ADD MSTORE PUSH13 0x19195CD8C81C995C5D5A5C9959 PUSH1 0x9A SHL PUSH1 0x44 DUP3 ADD MSTORE REVERT JUMPDEST DUP6 MLOAD PUSH4 0x30CD7471 PUSH1 0xE0 SHL DUP2 MSTORE DUP4 SWAP1 REVERT JUMPDEST POP DUP3 SWAP1 CALLVALUE PUSH2 0x51B JUMPI PUSH1 0x20 DUP1 PUSH1 0x3 NOT CALLDATASIZE ADD SLT PUSH2 0x247 JUMPI PUSH2 0xD61 PUSH2 0x10CF JUMP JUMPDEST SWAP2 PUSH1 0x0 DUP1 MLOAD PUSH1 0x20 PUSH2 0x173B DUP4 CODECOPY DUP2 MLOAD SWAP2 MSTORE SWAP1 DUP2 DUP6 MSTORE DUP5 DUP4 MSTORE DUP1 DUP6 KECCAK256 CALLER DUP7 MSTORE DUP4 MSTORE PUSH1 0xFF DUP2 DUP7 KECCAK256 SLOAD AND ISZERO PUSH2 0xDDD JUMPI SWAP1 PUSH32 0xB84A5E332FB0B142F30741AEF41CC60E9E12A8EEFBADD1B88A5F64857E0BF2F SWAP3 SWAP2 DUP2 DUP7 MSTORE DUP6 DUP4 MSTORE PUSH1 0x1 PUSH1 0x1 PUSH1 0xA0 SHL SUB DUP2 DUP8 KECCAK256 SWAP6 AND SWAP5 DUP6 DUP8 MSTORE DUP4 MSTORE PUSH1 0xFF DUP2 DUP8 KECCAK256 SLOAD AND ISZERO PUSH2 0x304 JUMPI MLOAD SWAP1 DUP2 MSTORE LOG2 DUP1 RETURN JUMPDEST MLOAD PUSH4 0x7BFA4B9F PUSH1 0xE0 SHL DUP2 MSTORE DUP6 SWAP1 REVERT JUMPDEST POP SWAP1 CALLVALUE PUSH2 0x247 JUMPI DUP2 PUSH1 0x3 NOT CALLDATASIZE ADD SLT PUSH2 0x247 JUMPI CALLDATALOAD SWAP1 PUSH2 0xE08 PUSH2 0x10EA JUMP JUMPDEST SWAP1 DUP3 DUP5 MSTORE DUP4 PUSH1 0x20 MSTORE PUSH2 0xE1F PUSH1 0x1 DUP3 DUP7 KECCAK256 ADD SLOAD PUSH2 0x1148 JUMP JUMPDEST DUP3 DUP5 MSTORE DUP4 PUSH1 0x20 MSTORE PUSH1 0x1 PUSH1 0x1 PUSH1 0xA0 SHL SUB DUP2 DUP6 KECCAK256 SWAP3 AND SWAP2 DUP3 DUP6 MSTORE PUSH1 0x20 MSTORE PUSH1 0xFF DUP2 DUP6 KECCAK256 SLOAD AND ISZERO PUSH2 0xE4A JUMPI DUP4 DUP1 RETURN JUMPDEST DUP3 DUP5 MSTORE DUP4 PUSH1 0x20 MSTORE DUP1 DUP5 KECCAK256 DUP3 DUP6 MSTORE PUSH1 0x20 MSTORE DUP4 KECCAK256 PUSH1 0x1 PUSH1 0xFF NOT DUP3 SLOAD AND OR SWAP1 SSTORE CALLER SWAP2 PUSH32 0x2F8788117E7EFF1D82E926EC794901D17C78024A50270940304540A733656F0D DUP5 DUP1 LOG4 CODESIZE DUP1 DUP1 DUP4 DUP1 RETURN JUMPDEST POP SWAP1 CALLVALUE PUSH2 0x247 JUMPI PUSH1 0x20 CALLDATASIZE PUSH1 0x3 NOT ADD SLT PUSH2 0x247 JUMPI DUP2 PUSH1 0x20 SWAP4 PUSH1 0x1 SWAP3 CALLDATALOAD DUP2 MSTORE DUP1 DUP6 MSTORE KECCAK256 ADD SLOAD SWAP1 MLOAD SWAP1 DUP2 MSTORE RETURN JUMPDEST POP CALLVALUE PUSH2 0x247 JUMPI PUSH1 0x20 CALLDATASIZE PUSH1 0x3 NOT ADD SLT PUSH2 0x247 JUMPI PUSH2 0xED8 PUSH2 0x10CF JUMP JUMPDEST PUSH1 0x0 DUP1 MLOAD PUSH1 0x20 PUSH2 0x173B DUP4 CODECOPY DUP2 MLOAD SWAP2 MSTORE DUP5 MSTORE DUP4 PUSH1 0x20 MSTORE DUP2 DUP5 KECCAK256 CALLER DUP6 MSTORE PUSH1 0x20 MSTORE PUSH1 0xFF DUP3 DUP6 KECCAK256 SLOAD AND ISZERO PUSH2 0xF96 JUMPI PUSH1 0x1 PUSH1 0x1 PUSH1 0xA0 SHL SUB AND SWAP2 PUSH2 0xF15 DUP4 PUSH2 0x1616 JUMP JUMPDEST ISZERO PUSH2 0xF88 JUMPI POP PUSH1 0x3 SLOAD SWAP1 PUSH1 0x1 SLOAD DUP1 SWAP3 GT PUSH2 0xF53 JUMPI JUMPDEST POP POP PUSH32 0x58619076ADF5BB0943D100EF88D52D7C3FD691B19D3A9071B555B651FBF418DA DUP3 DUP1 LOG2 DUP1 RETURN JUMPDEST DUP2 PUSH1 0x20 SWAP2 PUSH32 0xF18F88786AAE85A652AADB99A82462616489A33370C9BCC7B245906812EF7CD1 SWAP4 PUSH1 0x3 SSTORE MLOAD SWAP1 DUP2 MSTORE LOG1 CODESIZE DUP1 PUSH2 0xF2A JUMP JUMPDEST SWAP1 MLOAD PUSH4 0x49E27CFF PUSH1 0xE0 SHL DUP2 MSTORE REVERT JUMPDEST POP MLOAD PUSH4 0x7BFA4B9F PUSH1 0xE0 SHL DUP2 MSTORE REVERT JUMPDEST DUP4 DUP3 CALLVALUE PUSH2 0x51B JUMPI DUP2 PUSH1 0x3 NOT CALLDATASIZE ADD SLT PUSH2 0x51B JUMPI PUSH1 0x20 SWAP1 PUSH1 0x3 SLOAD SWAP1 MLOAD SWAP1 DUP2 MSTORE RETURN JUMPDEST POP CALLVALUE PUSH2 0x247 JUMPI PUSH1 0x20 SWAP1 DUP2 PUSH1 0x3 NOT CALLDATASIZE ADD SLT PUSH2 0x35A JUMPI PUSH2 0xFDF PUSH2 0x10CF JUMP JUMPDEST SWAP3 PUSH1 0x0 DUP1 MLOAD PUSH1 0x20 PUSH2 0x173B DUP4 CODECOPY DUP2 MLOAD SWAP2 MSTORE DUP6 MSTORE DUP5 DUP4 MSTORE DUP2 DUP6 KECCAK256 CALLER DUP7 MSTORE DUP4 MSTORE PUSH1 0xFF DUP3 DUP7 KECCAK256 SLOAD AND ISZERO PUSH2 0x34C JUMPI POP SWAP1 PUSH32 0xB84A5E332FB0B142F30741AEF41CC60E9E12A8EEFBADD1B88A5F64857E0BF2F SWAP2 PUSH32 0x4E8C8E9CA39468BB90C81B80F979119441019FDAC7CBBBD930E0A604F8777D1D SWAP1 DUP2 DUP7 MSTORE DUP6 DUP4 MSTORE PUSH1 0x1 PUSH1 0x1 PUSH1 0xA0 SHL SUB DUP2 DUP8 KECCAK256 SWAP6 AND SWAP5 DUP6 DUP8 MSTORE DUP4 MSTORE PUSH1 0xFF DUP2 DUP8 KECCAK256 SLOAD AND ISZERO PUSH2 0x304 JUMPI MLOAD SWAP1 DUP2 MSTORE LOG2 DUP1 RETURN JUMPDEST DUP5 SWAP1 DUP5 CALLVALUE PUSH2 0x247 JUMPI PUSH1 0x20 CALLDATASIZE PUSH1 0x3 NOT ADD SLT PUSH2 0x247 JUMPI CALLDATALOAD PUSH4 0xFFFFFFFF PUSH1 0xE0 SHL DUP2 AND DUP1 SWAP2 SUB PUSH2 0x247 JUMPI PUSH1 0x20 SWAP3 POP PUSH4 0x7965DB0B PUSH1 0xE0 SHL DUP2 EQ SWAP1 DUP2 ISZERO PUSH2 0x10BE JUMPI JUMPDEST POP ISZERO ISZERO DUP2 MSTORE RETURN JUMPDEST PUSH4 0x1FFC9A7 PUSH1 0xE0 SHL EQ SWAP1 POP DUP4 PUSH2 0x10B7 JUMP JUMPDEST PUSH1 0x4 CALLDATALOAD SWAP1 PUSH1 0x1 PUSH1 0x1 PUSH1 0xA0 SHL SUB DUP3 AND DUP3 SUB PUSH2 0x10E5 JUMPI JUMP JUMPDEST PUSH1 0x0 DUP1 REVERT JUMPDEST PUSH1 0x24 CALLDATALOAD SWAP1 PUSH1 0x1 PUSH1 0x1 PUSH1 0xA0 SHL SUB DUP3 AND DUP3 SUB PUSH2 0x10E5 JUMPI JUMP JUMPDEST PUSH1 0x0 JUMPDEST DUP4 DUP2 LT PUSH2 0x1113 JUMPI POP POP PUSH1 0x0 SWAP2 ADD MSTORE JUMP JUMPDEST DUP2 DUP2 ADD MLOAD DUP4 DUP3 ADD MSTORE PUSH1 0x20 ADD PUSH2 0x1103 JUMP JUMPDEST SWAP1 PUSH1 0x20 SWAP2 PUSH2 0x113C DUP2 MLOAD DUP1 SWAP3 DUP2 DUP6 MSTORE DUP6 DUP1 DUP7 ADD SWAP2 ADD PUSH2 0x1100 JUMP JUMPDEST PUSH1 0x1F ADD PUSH1 0x1F NOT AND ADD ADD SWAP1 JUMP JUMPDEST PUSH1 0x0 SWAP1 DUP1 DUP3 MSTORE PUSH1 0x20 SWAP1 DUP3 DUP3 MSTORE PUSH1 0x40 SWAP3 DUP4 DUP2 KECCAK256 CALLER DUP3 MSTORE DUP4 MSTORE PUSH1 0xFF DUP5 DUP3 KECCAK256 SLOAD AND ISZERO PUSH2 0x1171 JUMPI POP POP POP POP JUMP JUMPDEST DUP4 MLOAD SWAP2 PUSH8 0xFFFFFFFFFFFFFFFF SWAP1 CALLER PUSH1 0x60 DUP6 ADD DUP4 DUP2 GT DUP7 DUP3 LT OR PUSH2 0x1475 JUMPI DUP8 MSTORE PUSH1 0x2A DUP6 MSTORE DUP6 DUP6 ADD SWAP2 DUP8 CALLDATASIZE DUP5 CALLDATACOPY DUP6 MLOAD ISZERO PUSH2 0x1461 JUMPI PUSH1 0x30 DUP4 MSTORE8 DUP6 MLOAD SWAP2 PUSH1 0x1 SWAP3 DUP4 LT ISZERO PUSH2 0x144D JUMPI PUSH1 0x78 PUSH1 0x21 DUP9 ADD MSTORE8 PUSH1 0x29 JUMPDEST DUP4 DUP2 GT PUSH2 0x13E3 JUMPI POP PUSH2 0x13A1 JUMPI SWAP1 DUP8 MLOAD SWAP4 PUSH1 0x80 DUP6 ADD SWAP1 DUP6 DUP3 LT SWAP1 DUP3 GT OR PUSH2 0x138D JUMPI DUP9 MSTORE PUSH1 0x42 DUP5 MSTORE DUP7 DUP5 ADD SWAP5 PUSH1 0x60 CALLDATASIZE DUP8 CALLDATACOPY DUP5 MLOAD ISZERO PUSH2 0x1379 JUMPI PUSH1 0x30 DUP7 MSTORE8 DUP5 MLOAD DUP3 LT ISZERO PUSH2 0x1379 JUMPI SWAP1 PUSH1 0x78 PUSH1 0x21 DUP7 ADD MSTORE8 PUSH1 0x41 SWAP2 JUMPDEST DUP2 DUP4 GT PUSH2 0x130B JUMPI POP POP POP PUSH2 0x12C9 JUMPI PUSH2 0x12C5 SWAP4 DUP7 SWAP4 PUSH2 0x12A9 SWAP4 PUSH2 0x129A PUSH1 0x48 SWAP5 PUSH2 0x1265 SWAP11 MLOAD SWAP11 DUP12 SWAP6 PUSH32 0x416363657373436F6E74726F6C3A206163636F756E7420000000000000000000 DUP13 DUP9 ADD MSTORE MLOAD DUP1 SWAP3 PUSH1 0x37 DUP9 ADD SWAP1 PUSH2 0x1100 JUMP JUMPDEST DUP5 ADD SWAP2 PUSH32 0x206973206D697373696E6720726F6C6520000000000000000000000000000000 PUSH1 0x37 DUP5 ADD MSTORE MLOAD DUP1 SWAP4 DUP7 DUP5 ADD SWAP1 PUSH2 0x1100 JUMP JUMPDEST ADD SUB PUSH1 0x28 DUP2 ADD DUP8 MSTORE ADD DUP6 PUSH2 0x1489 JUMP JUMPDEST MLOAD SWAP3 DUP4 SWAP3 PUSH3 0x461BCD PUSH1 0xE5 SHL DUP5 MSTORE PUSH1 0x4 DUP5 ADD MSTORE PUSH1 0x24 DUP4 ADD SWAP1 PUSH2 0x1123 JUMP JUMPDEST SUB SWAP1 REVERT JUMPDEST PUSH1 0x64 DUP6 DUP8 MLOAD SWAP1 PUSH3 0x461BCD PUSH1 0xE5 SHL DUP3 MSTORE DUP1 PUSH1 0x4 DUP4 ADD MSTORE PUSH1 0x24 DUP3 ADD MSTORE PUSH32 0x537472696E67733A20686578206C656E67746820696E73756666696369656E74 PUSH1 0x44 DUP3 ADD MSTORE REVERT JUMPDEST SWAP1 SWAP2 SWAP3 PUSH1 0xF DUP2 AND PUSH1 0x10 DUP2 LT ISZERO PUSH2 0x1365 JUMPI PUSH16 0x181899199A1A9B1B9C1CB0B131B232B3 PUSH1 0x81 SHL SWAP1 BYTE PUSH2 0x133B DUP6 DUP9 PUSH2 0x1536 JUMP JUMPDEST MSTORE8 PUSH1 0x4 SHR SWAP3 DUP1 ISZERO PUSH2 0x1351 JUMPI PUSH1 0x0 NOT ADD SWAP2 SWAP1 PUSH2 0x120D JUMP JUMPDEST PUSH4 0x4E487B71 PUSH1 0xE0 SHL DUP3 MSTORE PUSH1 0x11 PUSH1 0x4 MSTORE PUSH1 0x24 DUP3 REVERT JUMPDEST PUSH4 0x4E487B71 PUSH1 0xE0 SHL DUP4 MSTORE PUSH1 0x32 PUSH1 0x4 MSTORE PUSH1 0x24 DUP4 REVERT JUMPDEST PUSH4 0x4E487B71 PUSH1 0xE0 SHL DUP2 MSTORE PUSH1 0x32 PUSH1 0x4 MSTORE PUSH1 0x24 SWAP1 REVERT JUMPDEST PUSH4 0x4E487B71 PUSH1 0xE0 SHL DUP7 MSTORE PUSH1 0x41 PUSH1 0x4 MSTORE PUSH1 0x24 DUP7 REVERT JUMPDEST PUSH1 0x64 DUP8 DUP10 MLOAD SWAP1 PUSH3 0x461BCD PUSH1 0xE5 SHL DUP3 MSTORE DUP1 PUSH1 0x4 DUP4 ADD MSTORE PUSH1 0x24 DUP3 ADD MSTORE PUSH32 0x537472696E67733A20686578206C656E67746820696E73756666696369656E74 PUSH1 0x44 DUP3 ADD MSTORE REVERT JUMPDEST SWAP1 PUSH1 0xF DUP2 AND PUSH1 0x10 DUP2 LT ISZERO PUSH2 0x1439 JUMPI PUSH16 0x181899199A1A9B1B9C1CB0B131B232B3 PUSH1 0x81 SHL SWAP1 BYTE PUSH2 0x1411 DUP4 DUP11 PUSH2 0x1536 JUMP JUMPDEST MSTORE8 PUSH1 0x4 SHR SWAP1 DUP1 ISZERO PUSH2 0x1425 JUMPI PUSH1 0x0 NOT ADD PUSH2 0x11BE JUMP JUMPDEST PUSH4 0x4E487B71 PUSH1 0xE0 SHL DUP8 MSTORE PUSH1 0x11 PUSH1 0x4 MSTORE PUSH1 0x24 DUP8 REVERT JUMPDEST PUSH4 0x4E487B71 PUSH1 0xE0 SHL DUP9 MSTORE PUSH1 0x32 PUSH1 0x4 MSTORE PUSH1 0x24 DUP9 REVERT JUMPDEST PUSH4 0x4E487B71 PUSH1 0xE0 SHL DUP7 MSTORE PUSH1 0x32 PUSH1 0x4 MSTORE PUSH1 0x24 DUP7 REVERT JUMPDEST PUSH4 0x4E487B71 PUSH1 0xE0 SHL DUP6 MSTORE PUSH1 0x32 PUSH1 0x4 MSTORE PUSH1 0x24 DUP6 REVERT JUMPDEST PUSH4 0x4E487B71 PUSH1 0xE0 SHL DUP6 MSTORE PUSH1 0x41 PUSH1 0x4 MSTORE PUSH1 0x24 DUP6 REVERT JUMPDEST SWAP1 PUSH1 0x1F DUP1 NOT SWAP2 ADD AND DUP2 ADD SWAP1 DUP2 LT PUSH8 0xFFFFFFFFFFFFFFFF DUP3 GT OR PUSH2 0x14AB JUMPI PUSH1 0x40 MSTORE JUMP JUMPDEST PUSH4 0x4E487B71 PUSH1 0xE0 SHL PUSH1 0x0 MSTORE PUSH1 0x41 PUSH1 0x4 MSTORE PUSH1 0x24 PUSH1 0x0 REVERT JUMPDEST SWAP1 PUSH1 0x0 SWAP2 DUP1 DUP4 MSTORE DUP3 PUSH1 0x20 MSTORE PUSH1 0x1 PUSH1 0x1 PUSH1 0xA0 SHL SUB PUSH1 0x40 DUP5 KECCAK256 SWAP3 AND SWAP2 DUP3 DUP5 MSTORE PUSH1 0x20 MSTORE PUSH1 0xFF PUSH1 0x40 DUP5 KECCAK256 SLOAD AND PUSH2 0x14F2 JUMPI POP POP POP JUMP JUMPDEST DUP1 DUP4 MSTORE DUP3 PUSH1 0x20 MSTORE PUSH1 0x40 DUP4 KECCAK256 DUP3 DUP5 MSTORE PUSH1 0x20 MSTORE PUSH1 0x40 DUP4 KECCAK256 PUSH1 0xFF NOT DUP2 SLOAD AND SWAP1 SSTORE PUSH32 0xF6391F5C32D9C69D2A47EA670B442974B53935D1EDC7FD64EB21E047A839171B CALLER SWAP4 DUP1 LOG4 JUMP JUMPDEST SWAP1 DUP2 MLOAD DUP2 LT ISZERO PUSH2 0x1547 JUMPI ADD PUSH1 0x20 ADD SWAP1 JUMP JUMPDEST PUSH4 0x4E487B71 PUSH1 0xE0 SHL PUSH1 0x0 MSTORE PUSH1 0x32 PUSH1 0x4 MSTORE PUSH1 0x24 PUSH1 0x0 REVERT JUMPDEST PUSH1 0x1 SLOAD DUP2 LT ISZERO PUSH2 0x1547 JUMPI PUSH1 0x1 PUSH1 0x0 MSTORE PUSH32 0xB10E2D527612073B26EECDFD717E6A320CF44B4AFAC2B0732D9FCBE2B7FA0CF6 ADD SWAP1 PUSH1 0x0 SWAP1 JUMP JUMPDEST PUSH1 0x0 DUP2 DUP2 MSTORE PUSH1 0x2 PUSH1 0x20 MSTORE PUSH1 0x40 DUP2 KECCAK256 SLOAD PUSH2 0x1611 JUMPI PUSH1 0x1 SLOAD PUSH9 0x10000000000000000 DUP2 LT ISZERO PUSH2 0x15FD JUMPI SWAP1 DUP3 PUSH2 0x15E9 PUSH2 0x15D2 DUP5 PUSH1 0x1 PUSH1 0x40 SWAP7 ADD PUSH1 0x1 SSTORE PUSH2 0x155D JUMP JUMPDEST DUP2 SWAP4 SWAP2 SLOAD SWAP1 PUSH1 0x3 SHL SWAP2 DUP3 SHL SWAP2 PUSH1 0x0 NOT SWAP1 SHL NOT AND OR SWAP1 JUMP JUMPDEST SWAP1 SSTORE PUSH1 0x1 SLOAD SWAP3 DUP2 MSTORE PUSH1 0x2 PUSH1 0x20 MSTORE KECCAK256 SSTORE PUSH1 0x1 SWAP1 JUMP JUMPDEST PUSH4 0x4E487B71 PUSH1 0xE0 SHL DUP3 MSTORE PUSH1 0x41 PUSH1 0x4 MSTORE PUSH1 0x24 DUP3 REVERT JUMPDEST SWAP1 POP SWAP1 JUMP JUMPDEST PUSH1 0x0 DUP2 DUP2 MSTORE PUSH1 0x2 PUSH1 0x20 MSTORE PUSH1 0x40 DUP2 KECCAK256 SLOAD SWAP1 SWAP2 SWAP1 DUP1 ISZERO PUSH2 0x16FB JUMPI PUSH1 0x0 NOT SWAP1 DUP1 DUP3 ADD DUP2 DUP2 GT PUSH2 0x16E7 JUMPI PUSH1 0x1 SLOAD SWAP1 DUP4 DUP3 ADD SWAP2 DUP3 GT PUSH2 0x16D3 JUMPI DUP1 DUP3 SUB PUSH2 0x169F JUMPI JUMPDEST POP POP POP PUSH1 0x1 SLOAD DUP1 ISZERO PUSH2 0x168B JUMPI DUP2 ADD SWAP1 PUSH2 0x166A DUP3 PUSH2 0x155D JUMP JUMPDEST SWAP1 SWAP2 DUP3 SLOAD SWAP2 PUSH1 0x3 SHL SHL NOT AND SWAP1 SSTORE PUSH1 0x1 SSTORE DUP2 MSTORE PUSH1 0x2 PUSH1 0x20 MSTORE PUSH1 0x40 DUP2 KECCAK256 SSTORE PUSH1 0x1 SWAP1 JUMP JUMPDEST PUSH4 0x4E487B71 PUSH1 0xE0 SHL DUP5 MSTORE PUSH1 0x31 PUSH1 0x4 MSTORE PUSH1 0x24 DUP5 REVERT JUMPDEST PUSH2 0x16BD PUSH2 0x16AE PUSH2 0x15D2 SWAP4 PUSH2 0x155D JUMP JUMPDEST SWAP1 SLOAD SWAP1 PUSH1 0x3 SHL SHR SWAP3 DUP4 SWAP3 PUSH2 0x155D JUMP JUMPDEST SWAP1 SSTORE DUP5 MSTORE PUSH1 0x2 PUSH1 0x20 MSTORE PUSH1 0x40 DUP5 KECCAK256 SSTORE CODESIZE DUP1 DUP1 PUSH2 0x1652 JUMP JUMPDEST PUSH4 0x4E487B71 PUSH1 0xE0 SHL DUP7 MSTORE PUSH1 0x11 PUSH1 0x4 MSTORE PUSH1 0x24 DUP7 REVERT JUMPDEST PUSH4 0x4E487B71 PUSH1 0xE0 SHL DUP6 MSTORE PUSH1 0x11 PUSH1 0x4 MSTORE PUSH1 0x24 DUP6 REVERT JUMPDEST POP POP SWAP1 JUMP JUMPDEST SWAP1 PUSH1 0x1 DUP3 DUP2 SHR SWAP3 AND DUP1 ISZERO PUSH2 0x1730 JUMPI JUMPDEST PUSH1 0x20 DUP4 LT EQ PUSH2 0x171A JUMPI JUMP JUMPDEST PUSH4 0x4E487B71 PUSH1 0xE0 SHL PUSH1 0x0 MSTORE PUSH1 0x22 PUSH1 0x4 MSTORE PUSH1 0x24 PUSH1 0x0 REVERT JUMPDEST SWAP2 PUSH1 0x7F AND SWAP2 PUSH2 0x170F JUMP INVALID LOG4 SWAP9 SMOD KECCAK256 0x5C 0xE4 0xD3 SSTORE MULMOD 0x2E CREATE2 0xA8 LOG1 DUP16 JUMP 0xE8 SWAP2 EXTCODECOPY DELEGATECALL LOG2 ADD 0xFB 0xE2 DUP8 DUP3 JUMPDEST MULMOD JUMP SWAP4 0xC2 OR PUSH22 0xA26469706673582212208B4D1898BBA961433FF54E9A 0x4A 0xE5 0xCF PUSH2 0x5742 EXTCODESIZE 0x2C 0x1E SMOD SWAP14 SGT BLOCKHASH 0xB8 0x22 PUSH24 0x6C4D724364736F6C634300081300332F8788117E7EFF1D82 0xE9 0x26 0xEC PUSH26 0x4901D17C78024A50270940304540A733656F0D00000000000000 "},"methodIdentifiers":{"ADMIN_ROLE()":"75b238fc","AUDITOR_ROLE()":"6e1d616e","DEFAULT_ADMIN_ROLE()":"a217fddf","VIEWER_ROLE()":"50219eaf","addOwner(address)":"7065cb48","createProposal(string,uint256)":"35facf78","execute(uint256)":"fe0d94c1","getProposal(uint256)":"c7f758a8","getRoleAdmin(bytes32)":"248a9ca3","grantAdmin(address)":"35bb3e16","grantAuditor(address)":"e55b4f93","grantRole(bytes32,address)":"2f2ff15d","grantViewer(address)":"0c570c1b","hasRole(bytes32,address)":"91d14854","owners()":"affe39c1","proposalCount()":"da35c664","quorum()":"1703a018","removeOwner(address)":"173825d9","renounceRole(bytes32,address)":"36568abe","revokeRole(bytes32,address)":"d547741f","revokeRoleFrom(address,bytes32)":"ace67b00","setQuorum(uint256)":"c1ba4e59","supportsInterface(bytes4)":"01ffc9a7","vote(uint256,bool)":"c9d27afe"}}}}}