{"project/contracts/PharbitSensor.sol":{"PharbitSensor":{"abi":[{"inputs":[{"internalType":"address","name":"admin","type":"address"}],"stateMutability":"nonpayable","type":"constructor"},{"inputs":[],"name":"AccessControlBadConfirmation","type":"error"},{"inputs":[{"internalType":"address","name":"account","type":"address"},{"internalType":"bytes32","name":"neededRole","type":"bytes32"}],"name":"AccessControlUnauthorizedAccount","type":"error"},{"anonymous":false,"inputs":[{"indexed":true,"internalType":"bytes32","name":"role","type":"bytes32"},{"indexed":true,"internalType":"bytes32","name":"previousAdminRole","type":"bytes32"},{"indexed":true,"internalType":"bytes32","name":"newAdminRole","type":"bytes32"}],"name":"RoleAdminChanged","type":"event"},{"anonymous":false,"inputs":[{"indexed":true,"internalType":"bytes32","name":"role","type":"bytes32"},{"indexed":true,"internalType":"address","name":"account","type":"address"},{"indexed":true,"internalType":"address","name":"sender","type":"address"}],"name":"RoleGranted","type":"event"},{"anonymous":false,"inputs":[{"indexed":true,"internalType":"bytes32","name":"role","type":"bytes32"},{"indexed":true,"internalType":"address","name":"account","type":"address"},{"indexed":true,"internalType":"address","name":"sender","type":"address"}],"name":"RoleRevoked","type":"event"},{"anonymous":false,"inputs":[{"indexed":true,"internalType":"address","name":"sensor","type":"address"},{"indexed":false,"internalType":"string","name":"manufacturer","type":"string"},{"indexed":false,"internalType":"string","name":"model","type":"string"}],"name":"SensorRegistered","type":"event"},{"anonymous":false,"inputs":[{"indexed":true,"internalType":"address","name":"sensor","type":"address"},{"indexed":false,"internalType":"bool","name":"active","type":"bool"}],"name":"SensorStatus","type":"event"},{"inputs":[],"name":"ADMIN_ROLE","outputs":[{"internalType":"bytes32","name":"","type":"bytes32"}],"stateMutability":"view","type":"function"},{"inputs":[],"name":"DEFAULT_ADMIN_ROLE","outputs":[{"internalType":"bytes32","name":"","type":"bytes32"}],"stateMutability":"view","type":"function"},{"inputs":[],"name":"IOT_ROLE","outputs":[{"internalType":"bytes32","name":"","type":"bytes32"}],"stateMutability":"view","type":"function"},{"inputs":[{"internalType":"bytes32","name":"role","type":"bytes32"}],"name":"getRoleAdmin","outputs":[{"internalType":"bytes32","name":"","type":"bytes32"}],"stateMutability":"view","type":"function"},{"inputs":[{"internalType":"bytes32","name":"role","type":"bytes32"},{"internalType":"address","name":"account","type":"address"}],"name":"grantRole","outputs":[],"stateMutability":"nonpayable","type":"function"},{"inputs":[{"internalType":"bytes32","name":"role","type":"bytes32"},{"internalType":"address","name":"account","type":"address"}],"name":"hasRole","outputs":[{"internalType":"bool","name":"","type":"bool"}],"stateMutability":"view","type":"function"},{"inputs":[{"internalType":"address","name":"sensor","type":"address"},{"components":[{"internalType":"string","name":"manufacturer","type":"string"},{"internalType":"string","name":"model","type":"string"},{"internalType":"string","name":"metadataURI","type":"string"},{"internalType":"bool","name":"active","type":"bool"}],"internalType":"struct PharbitSensor.Sensor","name":"info","type":"tuple"},{"internalType":"bytes32","name":"pubKeyHash","type":"bytes32"}],"name":"registerSensor","outputs":[],"stateMutability":"nonpayable","type":"function"},{"inputs":[{"internalType":"bytes32","name":"role","type":"bytes32"},{"internalType":"address","name":"callerConfirmation","type":"address"}],"name":"renounceRole","outputs":[],"stateMutability":"nonpayable","type":"function"},{"inputs":[{"internalType":"bytes32","name":"role","type":"bytes32"},{"internalType":"address","name":"account","type":"address"}],"name":"revokeRole","outputs":[],"stateMutability":"nonpayable","type":"function"},{"inputs":[{"internalType":"address","name":"","type":"address"}],"name":"sensorPubKeyHash","outputs":[{"internalType":"bytes32","name":"","type":"bytes32"}],"stateMutability":"view","type":"function"},{"inputs":[{"internalType":"address","name":"","type":"address"}],"name":"sensors","outputs":[{"internalType":"string","name":"manufacturer","type":"string"},{"internalType":"string","name":"model","type":"string"},{"internalType":"string","name":"metadataURI","type":"string"},{"internalType":"bool","name":"active","type":"bool"}],"stateMutability":"view","type":"function"},{"inputs":[{"internalType":"address","name":"sensor","type":"address"},{"internalType":"bool","name":"active","type":"bool"}],"name":"setActive","outputs":[],"stateMutability":"nonpayable","type":"function"},{"inputs":[{"internalType":"bytes4","name":"interfaceId","type":"bytes4"}],"name":"supportsInterface","outputs":[{"internalType":"bool","name":"","type":"bool"}],"stateMutability":"view","type":"function"}],"evm":{"bytecode":{"linkReferences":{},"object":"608060405234801561000f575f80fd5b50604051610f1a380380610f1a83398101604081905261002e91610113565b6100385f8261006a565b506100637fa49807205ce4d355092ef5a8a18f56e8913cf4a201fbe287825b095693c217758261006a565b5050610140565b5f828152602081815260408083206001600160a01b038516845290915281205460ff1661010a575f838152602081815260408083206001600160a01b03861684529091529020805460ff191660011790556100c23390565b6001600160a01b0316826001600160a01b0316847f2f8788117e7eff1d82e926ec794901d17c78024a50270940304540a733656f0d60405160405180910390a450600161010d565b505f5b92915050565b5f60208284031215610123575f80fd5b81516001600160a01b0381168114610139575f80fd5b9392505050565b610dcd8061014d5f395ff3fe608060405234801561000f575f80fd5b50600436106100cb575f3560e01c80633cab13911161008857806391d148541161006357806391d14854146101cf578063a217fddf146101e2578063c3e8fb97146101e9578063d547741f1461020c575f80fd5b80633cab1391146101765780635c83aed11461019557806375b238fc146101a8575f80fd5b8063016ad78f146100cf57806301ffc9a7146100f6578063248a9ca3146101195780632ce962cf1461013b5780632f2ff15d1461015057806336568abe14610163575b5f80fd5b6100e35f80516020610d7883398151915281565b6040519081526020015b60405180910390f35b610109610104366004610882565b61021f565b60405190151581526020016100ed565b6100e36101273660046108b0565b5f9081526020819052604090206001015490565b61014e6101493660046108ef565b610255565b005b61014e61015e366004610924565b610396565b61014e610171366004610924565b6103c0565b6100e361018436600461094e565b60026020525f908152604090205481565b61014e6101a3366004610967565b6103f8565b6100e37fa49807205ce4d355092ef5a8a18f56e8913cf4a201fbe287825b095693c2177581565b6101096101dd366004610924565b610538565b6100e35f81565b6101fc6101f736600461094e565b610560565b6040516100ed9493929190610a02565b61014e61021a366004610924565b61071c565b5f6001600160e01b03198216637965db0b60e01b148061024f57506301ffc9a760e01b6001600160e01b03198316145b92915050565b7fa49807205ce4d355092ef5a8a18f56e8913cf4a201fbe287825b095693c2177561027f81610740565b6001600160a01b0383165f90815260016020526040902080546102a190610a4e565b90505f036102e75760405162461bcd60e51b815260206004820152600e60248201526d139bdd081c9959da5cdd195c995960921b60448201526064015b60405180910390fd5b6001600160a01b0383165f908152600160205260409020600301805460ff191683158015919091179091556103335761032d5f80516020610d788339815191528461074d565b5061034c565b61034a5f80516020610d78833981519152846107dc565b505b826001600160a01b03167fab6a15174bc9c3e140a1e12a6cd6d2b8c3d55408103785472c87c0cf2a205a2b83604051610389911515815260200190565b60405180910390a2505050565b5f828152602081905260409020600101546103b081610740565b6103ba838361074d565b50505050565b6001600160a01b03811633146103e95760405163334bd91960e11b815260040160405180910390fd5b6103f382826107dc565b505050565b7fa49807205ce4d355092ef5a8a18f56e8913cf4a201fbe287825b095693c2177561042281610740565b6001600160a01b0384166104695760405162461bcd60e51b815260206004820152600e60248201526d24b73b30b634b21039b2b739b7b960911b60448201526064016102de565b6001600160a01b0384165f908152600160205260409020839061048c8282610bf9565b50506001600160a01b0384165f908152600160208181526040808420600301805460ff19169093179092556002905290208290556104d75f80516020610d788339815191528561074d565b506001600160a01b0384167fb62da694986d1919eaf04d22339e24dd79232c346b22beb896d9d41086f94a8261050d8580610a86565b61051a6020880188610a86565b60405161052a9493929190610d46565b60405180910390a250505050565b5f918252602082815260408084206001600160a01b0393909316845291905290205460ff1690565b60016020525f908152604090208054819061057a90610a4e565b80601f01602080910402602001604051908101604052809291908181526020018280546105a690610a4e565b80156105f15780601f106105c8576101008083540402835291602001916105f1565b820191905f5260205f20905b8154815290600101906020018083116105d457829003601f168201915b50505050509080600101805461060690610a4e565b80601f016020809104026020016040519081016040528092919081815260200182805461063290610a4e565b801561067d5780601f106106545761010080835404028352916020019161067d565b820191905f5260205f20905b81548152906001019060200180831161066057829003601f168201915b50505050509080600201805461069290610a4e565b80601f01602080910402602001604051908101604052809291908181526020018280546106be90610a4e565b80156107095780601f106106e057610100808354040283529160200191610709565b820191905f5260205f20905b8154815290600101906020018083116106ec57829003601f168201915b5050506003909301549192505060ff1684565b5f8281526020819052604090206001015461073681610740565b6103ba83836107dc565b61074a8133610845565b50565b5f6107588383610538565b6107d5575f838152602081815260408083206001600160a01b03861684529091529020805460ff1916600117905561078d3390565b6001600160a01b0316826001600160a01b0316847f2f8788117e7eff1d82e926ec794901d17c78024a50270940304540a733656f0d60405160405180910390a450600161024f565b505f61024f565b5f6107e78383610538565b156107d5575f838152602081815260408083206001600160a01b0386168085529252808320805460ff1916905551339286917ff6391f5c32d9c69d2a47ea670b442974b53935d1edc7fd64eb21e047a839171b9190a450600161024f565b61084f8282610538565b61087e5760405163e2517d3f60e01b81526001600160a01b0382166004820152602481018390526044016102de565b5050565b5f60208284031215610892575f80fd5b81356001600160e01b0319811681146108a9575f80fd5b9392505050565b5f602082840312156108c0575f80fd5b5035919050565b80356001600160a01b03811681146108dd575f80fd5b919050565b801515811461074a575f80fd5b5f8060408385031215610900575f80fd5b610909836108c7565b91506020830135610919816108e2565b809150509250929050565b5f8060408385031215610935575f80fd5b82359150610945602084016108c7565b90509250929050565b5f6020828403121561095e575f80fd5b6108a9826108c7565b5f805f60608486031215610979575f80fd5b610982846108c7565b9250602084013567ffffffffffffffff81111561099d575f80fd5b8401608081870312156109ae575f80fd5b929592945050506040919091013590565b5f81518084525f5b818110156109e3576020818501810151868301820152016109c7565b505f602082860101526020601f19601f83011685010191505092915050565b608081525f610a1460808301876109bf565b8281036020840152610a2681876109bf565b90508281036040840152610a3a81866109bf565b915050821515606083015295945050505050565b600181811c90821680610a6257607f821691505b602082108103610a8057634e487b7160e01b5f52602260045260245ffd5b50919050565b5f808335601e19843603018112610a9b575f80fd5b83018035915067ffffffffffffffff821115610ab5575f80fd5b602001915036819003821315610ac9575f80fd5b9250929050565b634e487b7160e01b5f52604160045260245ffd5b601f8211156103f3575f81815260208120601f850160051c81016020861015610b0a5750805b601f850160051c820191505b81811015610b2957828155600101610b16565b505050505050565b67ffffffffffffffff831115610b4957610b49610ad0565b610b5d83610b578354610a4e565b83610ae4565b5f601f841160018114610b8e575f8515610b775750838201355b5f19600387901b1c1916600186901b178355610be6565b5f83815260209020601f19861690835b82811015610bbe5786850135825560209485019460019092019101610b9e565b5086821015610bda575f1960f88860031b161c19848701351681555b505060018560011b0183555b5050505050565b5f813561024f816108e2565b610c038283610a86565b67ffffffffffffffff811115610c1b57610c1b610ad0565b610c2f81610c298554610a4e565b85610ae4565b5f601f821160018114610c60575f8315610c495750838201355b5f19600385901b1c1916600184901b178555610cb8565b5f85815260209020601f19841690835b82811015610c905786850135825560209485019460019092019101610c70565b5084821015610cac575f1960f88660031b161c19848701351681555b505060018360011b0185555b50505050610cc96020830183610a86565b610cd7818360018601610b31565b5050610ce66040830183610a86565b610cf4818360028601610b31565b505061087e610d0560608401610bed565b6003830160ff1981541660ff8315151681178255505050565b81835281816020850137505f828201602090810191909152601f909101601f19169091010190565b604081525f610d59604083018688610d1e565b8281036020840152610d6c818587610d1e565b97965050505050505056fe20d9bb381123487c7458dc4b1e41409eafb0e74092b8def477c5c636cc4f4b73a2646970667358221220d01b9dd84635b1afe712f5e7945ba9b64a7084621e6e84dbf73ccf0864f4335164736f6c63430008140033","opcodes":"PUSH1 0x80 PUSH1 0x40 MSTORE CALLVALUE DUP1 ISZERO PUSH2 0xF JUMPI PUSH0 DUP1 REVERT JUMPDEST POP PUSH1 0x40 MLOAD PUSH2 0xF1A CODESIZE SUB DUP1 PUSH2 0xF1A DUP4 CODECOPY DUP2 ADD PUSH1 0x40 DUP2 SWAP1 MSTORE PUSH2 0x2E SWAP2 PUSH2 0x113 JUMP JUMPDEST PUSH2 0x38 PUSH0 DUP3 PUSH2 0x6A JUMP JUMPDEST POP PUSH2 0x63 PUSH32 0xA49807205CE4D355092EF5A8A18F56E8913CF4A201FBE287825B095693C21775 DUP3 PUSH2 0x6A JUMP JUMPDEST POP POP PUSH2 0x140 JUMP JUMPDEST PUSH0 DUP3 DUP2 MSTORE PUSH1 0x20 DUP2 DUP2 MSTORE PUSH1 0x40 DUP1 DUP4 KECCAK256 PUSH1 0x1 PUSH1 0x1 PUSH1 0xA0 SHL SUB DUP6 AND DUP5 MSTORE SWAP1 SWAP2 MSTORE DUP2 KECCAK256 SLOAD PUSH1 0xFF AND PUSH2 0x10A JUMPI PUSH0 DUP4 DUP2 MSTORE PUSH1 0x20 DUP2 DUP2 MSTORE PUSH1 0x40 DUP1 DUP4 KECCAK256 PUSH1 0x1 PUSH1 0x1 PUSH1 0xA0 SHL SUB DUP7 AND DUP5 MSTORE SWAP1 SWAP2 MSTORE SWAP1 KECCAK256 DUP1 SLOAD PUSH1 0xFF NOT AND PUSH1 0x1 OR SWAP1 SSTORE PUSH2 0xC2 CALLER SWAP1 JUMP JUMPDEST PUSH1 0x1 PUSH1 0x1 PUSH1 0xA0 SHL SUB AND DUP3 PUSH1 0x1 PUSH1 0x1 PUSH1 0xA0 SHL SUB AND DUP5 PUSH32 0x2F8788117E7EFF1D82E926EC794901D17C78024A50270940304540A733656F0D PUSH1 0x40 MLOAD PUSH1 0x40 MLOAD DUP1 SWAP2 SUB SWAP1 LOG4 POP PUSH1 0x1 PUSH2 0x10D JUMP JUMPDEST POP PUSH0 JUMPDEST SWAP3 SWAP2 POP POP JUMP JUMPDEST PUSH0 PUSH1 0x20 DUP3 DUP5 SUB SLT ISZERO PUSH2 0x123 JUMPI PUSH0 DUP1 REVERT JUMPDEST DUP2 MLOAD PUSH1 0x1 PUSH1 0x1 PUSH1 0xA0 SHL SUB DUP2 AND DUP2 EQ PUSH2 0x139 JUMPI PUSH0 DUP1 REVERT JUMPDEST SWAP4 SWAP3 POP POP POP JUMP JUMPDEST PUSH2 0xDCD DUP1 PUSH2 0x14D PUSH0 CODECOPY PUSH0 RETURN INVALID PUSH1 0x80 PUSH1 0x40 MSTORE CALLVALUE DUP1 ISZERO PUSH2 0xF JUMPI PUSH0 DUP1 REVERT JUMPDEST POP PUSH1 0x4 CALLDATASIZE LT PUSH2 0xCB JUMPI PUSH0 CALLDATALOAD PUSH1 0xE0 SHR DUP1 PUSH4 0x3CAB1391 GT PUSH2 0x88 JUMPI DUP1 PUSH4 0x91D14854 GT PUSH2 0x63 JUMPI DUP1 PUSH4 0x91D14854 EQ PUSH2 0x1CF JUMPI DUP1 PUSH4 0xA217FDDF EQ PUSH2 0x1E2 JUMPI DUP1 PUSH4 0xC3E8FB97 EQ PUSH2 0x1E9 JUMPI DUP1 PUSH4 0xD547741F EQ PUSH2 0x20C JUMPI PUSH0 DUP1 REVERT JUMPDEST DUP1 PUSH4 0x3CAB1391 EQ PUSH2 0x176 JUMPI DUP1 PUSH4 0x5C83AED1 EQ PUSH2 0x195 JUMPI DUP1 PUSH4 0x75B238FC EQ PUSH2 0x1A8 JUMPI PUSH0 DUP1 REVERT JUMPDEST DUP1 PUSH4 0x16AD78F EQ PUSH2 0xCF JUMPI DUP1 PUSH4 0x1FFC9A7 EQ PUSH2 0xF6 JUMPI DUP1 PUSH4 0x248A9CA3 EQ PUSH2 0x119 JUMPI DUP1 PUSH4 0x2CE962CF EQ PUSH2 0x13B JUMPI DUP1 PUSH4 0x2F2FF15D EQ PUSH2 0x150 JUMPI DUP1 PUSH4 0x36568ABE EQ PUSH2 0x163 JUMPI JUMPDEST PUSH0 DUP1 REVERT JUMPDEST PUSH2 0xE3 PUSH0 DUP1 MLOAD PUSH1 0x20 PUSH2 0xD78 DUP4 CODECOPY DUP2 MLOAD SWAP2 MSTORE DUP2 JUMP JUMPDEST PUSH1 0x40 MLOAD SWAP1 DUP2 MSTORE PUSH1 0x20 ADD JUMPDEST PUSH1 0x40 MLOAD DUP1 SWAP2 SUB SWAP1 RETURN JUMPDEST PUSH2 0x109 PUSH2 0x104 CALLDATASIZE PUSH1 0x4 PUSH2 0x882 JUMP JUMPDEST PUSH2 0x21F JUMP JUMPDEST PUSH1 0x40 MLOAD SWAP1 ISZERO ISZERO DUP2 MSTORE PUSH1 0x20 ADD PUSH2 0xED JUMP JUMPDEST PUSH2 0xE3 PUSH2 0x127 CALLDATASIZE PUSH1 0x4 PUSH2 0x8B0 JUMP JUMPDEST PUSH0 SWAP1 DUP2 MSTORE PUSH1 0x20 DUP2 SWAP1 MSTORE PUSH1 0x40 SWAP1 KECCAK256 PUSH1 0x1 ADD SLOAD SWAP1 JUMP JUMPDEST PUSH2 0x14E PUSH2 0x149 CALLDATASIZE PUSH1 0x4 PUSH2 0x8EF JUMP JUMPDEST PUSH2 0x255 JUMP JUMPDEST STOP JUMPDEST PUSH2 0x14E PUSH2 0x15E CALLDATASIZE PUSH1 0x4 PUSH2 0x924 JUMP JUMPDEST PUSH2 0x396 JUMP JUMPDEST PUSH2 0x14E PUSH2 0x171 CALLDATASIZE PUSH1 0x4 PUSH2 0x924 JUMP JUMPDEST PUSH2 0x3C0 JUMP JUMPDEST PUSH2 0xE3 PUSH2 0x184 CALLDATASIZE PUSH1 0x4 PUSH2 0x94E JUMP JUMPDEST PUSH1 0x2 PUSH1 0x20 MSTORE PUSH0 SWAP1 DUP2 MSTORE PUSH1 0x40 SWAP1 KECCAK256 SLOAD DUP2 JUMP JUMPDEST PUSH2 0x14E PUSH2 0x1A3 CALLDATASIZE PUSH1 0x4 PUSH2 0x967 JUMP JUMPDEST PUSH2 0x3F8 JUMP JUMPDEST PUSH2 0xE3 PUSH32 0xA49807205CE4D355092EF5A8A18F56E8913CF4A201FBE287825B095693C21775 DUP2 JUMP JUMPDEST PUSH2 0x109 PUSH2 0x1DD CALLDATASIZE PUSH1 0x4 PUSH2 0x924 JUMP JUMPDEST PUSH2 0x538 JUMP JUMPDEST PUSH2 0xE3 PUSH0 DUP2 JUMP JUMPDEST PUSH2 0x1FC PUSH2 0x1F7 CALLDATASIZE PUSH1 0x4 PUSH2 0x94E JUMP JUMPDEST PUSH2 0x560 JUMP JUMPDEST PUSH1 0x40 MLOAD PUSH2 0xED SWAP5 SWAP4 SWAP3 SWAP2 SWAP1 PUSH2 0xA02 JUMP JUMPDEST PUSH2 0x14E PUSH2 0x21A CALLDATASIZE PUSH1 0x4 PUSH2 0x924 JUMP JUMPDEST PUSH2 0x71C JUMP JUMPDEST PUSH0 PUSH1 0x1 PUSH1 0x1 PUSH1 0xE0 SHL SUB NOT DUP3 AND PUSH4 0x7965DB0B PUSH1 0xE0 SHL EQ DUP1 PUSH2 0x24F JUMPI POP PUSH4 0x1FFC9A7 PUSH1 0xE0 SHL PUSH1 0x1 PUSH1 0x1 PUSH1 0xE0 SHL SUB NOT DUP4 AND EQ JUMPDEST SWAP3 SWAP2 POP POP JUMP JUMPDEST PUSH32 0xA49807205CE4D355092EF5A8A18F56E8913CF4A201FBE287825B095693C21775 PUSH2 0x27F DUP2 PUSH2 0x740 JUMP JUMPDEST PUSH1 0x1 PUSH1 0x1 PUSH1 0xA0 SHL SUB DUP4 AND PUSH0 SWAP1 DUP2 MSTORE PUSH1 0x1 PUSH1 0x20 MSTORE PUSH1 0x40 SWAP1 KECCAK256 DUP1 SLOAD PUSH2 0x2A1 SWAP1 PUSH2 0xA4E JUMP JUMPDEST SWAP1 POP PUSH0 SUB PUSH2 0x2E7 JUMPI PUSH1 0x40 MLOAD PUSH3 0x461BCD PUSH1 0xE5 SHL DUP2 MSTORE PUSH1 0x20 PUSH1 0x4 DUP3 ADD MSTORE PUSH1 0xE PUSH1 0x24 DUP3 ADD MSTORE PUSH14 0x139BDD081C9959DA5CDD195C9959 PUSH1 0x92 SHL PUSH1 0x44 DUP3 ADD MSTORE PUSH1 0x64 ADD JUMPDEST PUSH1 0x40 MLOAD DUP1 SWAP2 SUB SWAP1 REVERT JUMPDEST PUSH1 0x1 PUSH1 0x1 PUSH1 0xA0 SHL SUB DUP4 AND PUSH0 SWAP1 DUP2 MSTORE PUSH1 0x1 PUSH1 0x20 MSTORE PUSH1 0x40 SWAP1 KECCAK256 PUSH1 0x3 ADD DUP1 SLOAD PUSH1 0xFF NOT AND DUP4 ISZERO DUP1 ISZERO SWAP2 SWAP1 SWAP2 OR SWAP1 SWAP2 SSTORE PUSH2 0x333 JUMPI PUSH2 0x32D PUSH0 DUP1 MLOAD PUSH1 0x20 PUSH2 0xD78 DUP4 CODECOPY DUP2 MLOAD SWAP2 MSTORE DUP5 PUSH2 0x74D JUMP JUMPDEST POP PUSH2 0x34C JUMP JUMPDEST PUSH2 0x34A PUSH0 DUP1 MLOAD PUSH1 0x20 PUSH2 0xD78 DUP4 CODECOPY DUP2 MLOAD SWAP2 MSTORE DUP5 PUSH2 0x7DC JUMP JUMPDEST POP JUMPDEST DUP3 PUSH1 0x1 PUSH1 0x1 PUSH1 0xA0 SHL SUB AND PUSH32 0xAB6A15174BC9C3E140A1E12A6CD6D2B8C3D55408103785472C87C0CF2A205A2B DUP4 PUSH1 0x40 MLOAD PUSH2 0x389 SWAP2 ISZERO ISZERO DUP2 MSTORE PUSH1 0x20 ADD SWAP1 JUMP JUMPDEST PUSH1 0x40 MLOAD DUP1 SWAP2 SUB SWAP1 LOG2 POP POP POP JUMP JUMPDEST PUSH0 DUP3 DUP2 MSTORE PUSH1 0x20 DUP2 SWAP1 MSTORE PUSH1 0x40 SWAP1 KECCAK256 PUSH1 0x1 ADD SLOAD PUSH2 0x3B0 DUP2 PUSH2 0x740 JUMP JUMPDEST PUSH2 0x3BA DUP4 DUP4 PUSH2 0x74D JUMP JUMPDEST POP POP POP POP JUMP JUMPDEST PUSH1 0x1 PUSH1 0x1 PUSH1 0xA0 SHL SUB DUP2 AND CALLER EQ PUSH2 0x3E9 JUMPI PUSH1 0x40 MLOAD PUSH4 0x334BD919 PUSH1 0xE1 SHL DUP2 MSTORE PUSH1 0x4 ADD PUSH1 0x40 MLOAD DUP1 SWAP2 SUB SWAP1 REVERT JUMPDEST PUSH2 0x3F3 DUP3 DUP3 PUSH2 0x7DC JUMP JUMPDEST POP POP POP JUMP JUMPDEST PUSH32 0xA49807205CE4D355092EF5A8A18F56E8913CF4A201FBE287825B095693C21775 PUSH2 0x422 DUP2 PUSH2 0x740 JUMP JUMPDEST PUSH1 0x1 PUSH1 0x1 PUSH1 0xA0 SHL SUB DUP5 AND PUSH2 0x469 JUMPI PUSH1 0x40 MLOAD PUSH3 0x461BCD PUSH1 0xE5 SHL DUP2 MSTORE PUSH1 0x20 PUSH1 0x4 DUP3 ADD MSTORE PUSH1 0xE PUSH1 0x24 DUP3 ADD MSTORE PUSH14 0x24B73B30B634B21039B2B739B7B9 PUSH1 0x91 SHL PUSH1 0x44 DUP3 ADD MSTORE PUSH1 0x64 ADD PUSH2 0x2DE JUMP JUMPDEST PUSH1 0x1 PUSH1 0x1 PUSH1 0xA0 SHL SUB DUP5 AND PUSH0 SWAP1 DUP2 MSTORE PUSH1 0x1 PUSH1 0x20 MSTORE PUSH1 0x40 SWAP1 KECCAK256 DUP4 SWAP1 PUSH2 0x48C DUP3 DUP3 PUSH2 0xBF9 JUMP JUMPDEST POP POP PUSH1 0x1 PUSH1 0x1 PUSH1 0xA0 SHL SUB DUP5 AND PUSH0 SWAP1 DUP2 MSTORE PUSH1 0x1 PUSH1 0x20 DUP2 DUP2 MSTORE PUSH1 0x40 DUP1 DUP5 KECCAK256 PUSH1 0x3 ADD DUP1 SLOAD PUSH1 0xFF NOT AND SWAP1 SWAP4 OR SWAP1 SWAP3 SSTORE PUSH1 0x2 SWAP1 MSTORE SWAP1 KECCAK256 DUP3 SWAP1 SSTORE PUSH2 0x4D7 PUSH0 DUP1 MLOAD PUSH1 0x20 PUSH2 0xD78 DUP4 CODECOPY DUP2 MLOAD SWAP2 MSTORE DUP6 PUSH2 0x74D JUMP JUMPDEST POP PUSH1 0x1 PUSH1 0x1 PUSH1 0xA0 SHL SUB DUP5 AND PUSH32 0xB62DA694986D1919EAF04D22339E24DD79232C346B22BEB896D9D41086F94A82 PUSH2 0x50D DUP6 DUP1 PUSH2 0xA86 JUMP JUMPDEST PUSH2 0x51A PUSH1 0x20 DUP9 ADD DUP9 PUSH2 0xA86 JUMP JUMPDEST PUSH1 0x40 MLOAD PUSH2 0x52A SWAP5 SWAP4 SWAP3 SWAP2 SWAP1 PUSH2 0xD46 JUMP JUMPDEST PUSH1 0x40 MLOAD DUP1 SWAP2 SUB SWAP1 LOG2 POP POP POP POP JUMP JUMPDEST PUSH0 SWAP2 DUP3 MSTORE PUSH1 0x20 DUP3 DUP2 MSTORE PUSH1 0x40 DUP1 DUP5 KECCAK256 PUSH1 0x1 PUSH1 0x1 PUSH1 0xA0 SHL SUB SWAP4 SWAP1 SWAP4 AND DUP5 MSTORE SWAP2 SWAP1 MSTORE SWAP1 KECCAK256 SLOAD PUSH1 0xFF AND SWAP1 JUMP JUMPDEST PUSH1 0x1 PUSH1 0x20 MSTORE PUSH0 SWAP1 DUP2 MSTORE PUSH1 0x40 SWAP1 KECCAK256 DUP1 SLOAD DUP2 SWAP1 PUSH2 0x57A SWAP1 PUSH2 0xA4E JUMP JUMPDEST DUP1 PUSH1 0x1F ADD PUSH1 0x20 DUP1 SWAP2 DIV MUL PUSH1 0x20 ADD PUSH1 0x40 MLOAD SWAP1 DUP2 ADD PUSH1 0x40 MSTORE DUP1 SWAP3 SWAP2 SWAP1 DUP2 DUP2 MSTORE PUSH1 0x20 ADD DUP3 DUP1 SLOAD PUSH2 0x5A6 SWAP1 PUSH2 0xA4E JUMP JUMPDEST DUP1 ISZERO PUSH2 0x5F1 JUMPI DUP1 PUSH1 0x1F LT PUSH2 0x5C8 JUMPI PUSH2 0x100 DUP1 DUP4 SLOAD DIV MUL DUP4 MSTORE SWAP2 PUSH1 0x20 ADD SWAP2 PUSH2 0x5F1 JUMP JUMPDEST DUP3 ADD SWAP2 SWAP1 PUSH0 MSTORE PUSH1 0x20 PUSH0 KECCAK256 SWAP1 JUMPDEST DUP2 SLOAD DUP2 MSTORE SWAP1 PUSH1 0x1 ADD SWAP1 PUSH1 0x20 ADD DUP1 DUP4 GT PUSH2 0x5D4 JUMPI DUP3 SWAP1 SUB PUSH1 0x1F AND DUP3 ADD SWAP2 JUMPDEST POP POP POP POP POP SWAP1 DUP1 PUSH1 0x1 ADD DUP1 SLOAD PUSH2 0x606 SWAP1 PUSH2 0xA4E JUMP JUMPDEST DUP1 PUSH1 0x1F ADD PUSH1 0x20 DUP1 SWAP2 DIV MUL PUSH1 0x20 ADD PUSH1 0x40 MLOAD SWAP1 DUP2 ADD PUSH1 0x40 MSTORE DUP1 SWAP3 SWAP2 SWAP1 DUP2 DUP2 MSTORE PUSH1 0x20 ADD DUP3 DUP1 SLOAD PUSH2 0x632 SWAP1 PUSH2 0xA4E JUMP JUMPDEST DUP1 ISZERO PUSH2 0x67D JUMPI DUP1 PUSH1 0x1F LT PUSH2 0x654 JUMPI PUSH2 0x100 DUP1 DUP4 SLOAD DIV MUL DUP4 MSTORE SWAP2 PUSH1 0x20 ADD SWAP2 PUSH2 0x67D JUMP JUMPDEST DUP3 ADD SWAP2 SWAP1 PUSH0 MSTORE PUSH1 0x20 PUSH0 KECCAK256 SWAP1 JUMPDEST DUP2 SLOAD DUP2 MSTORE SWAP1 PUSH1 0x1 ADD SWAP1 PUSH1 0x20 ADD DUP1 DUP4 GT PUSH2 0x660 JUMPI DUP3 SWAP1 SUB PUSH1 0x1F AND DUP3 ADD SWAP2 JUMPDEST POP POP POP POP POP SWAP1 DUP1 PUSH1 0x2 ADD DUP1 SLOAD PUSH2 0x692 SWAP1 PUSH2 0xA4E JUMP JUMPDEST DUP1 PUSH1 0x1F ADD PUSH1 0x20 DUP1 SWAP2 DIV MUL PUSH1 0x20 ADD PUSH1 0x40 MLOAD SWAP1 DUP2 ADD PUSH1 0x40 MSTORE DUP1 SWAP3 SWAP2 SWAP1 DUP2 DUP2 MSTORE PUSH1 0x20 ADD DUP3 DUP1 SLOAD PUSH2 0x6BE SWAP1 PUSH2 0xA4E JUMP JUMPDEST DUP1 ISZERO PUSH2 0x709 JUMPI DUP1 PUSH1 0x1F LT PUSH2 0x6E0 JUMPI PUSH2 0x100 DUP1 DUP4 SLOAD DIV MUL DUP4 MSTORE SWAP2 PUSH1 0x20 ADD SWAP2 PUSH2 0x709 JUMP JUMPDEST DUP3 ADD SWAP2 SWAP1 PUSH0 MSTORE PUSH1 0x20 PUSH0 KECCAK256 SWAP1 JUMPDEST DUP2 SLOAD DUP2 MSTORE SWAP1 PUSH1 0x1 ADD SWAP1 PUSH1 0x20 ADD DUP1 DUP4 GT PUSH2 0x6EC JUMPI DUP3 SWAP1 SUB PUSH1 0x1F AND DUP3 ADD SWAP2 JUMPDEST POP POP POP PUSH1 0x3 SWAP1 SWAP4 ADD SLOAD SWAP2 SWAP3 POP POP PUSH1 0xFF AND DUP5 JUMP JUMPDEST PUSH0 DUP3 DUP2 MSTORE PUSH1 0x20 DUP2 SWAP1 MSTORE PUSH1 0x40 SWAP1 KECCAK256 PUSH1 0x1 ADD SLOAD PUSH2 0x736 DUP2 PUSH2 0x740 JUMP JUMPDEST PUSH2 0x3BA DUP4 DUP4 PUSH2 0x7DC JUMP JUMPDEST PUSH2 0x74A DUP2 CALLER PUSH2 0x845 JUMP JUMPDEST POP JUMP JUMPDEST PUSH0 PUSH2 0x758 DUP4 DUP4 PUSH2 0x538 JUMP JUMPDEST PUSH2 0x7D5 JUMPI PUSH0 DUP4 DUP2 MSTORE PUSH1 0x20 DUP2 DUP2 MSTORE PUSH1 0x40 DUP1 DUP4 KECCAK256 PUSH1 0x1 PUSH1 0x1 PUSH1 0xA0 SHL SUB DUP7 AND DUP5 MSTORE SWAP1 SWAP2 MSTORE SWAP1 KECCAK256 DUP1 SLOAD PUSH1 0xFF NOT AND PUSH1 0x1 OR SWAP1 SSTORE PUSH2 0x78D CALLER SWAP1 JUMP JUMPDEST PUSH1 0x1 PUSH1 0x1 PUSH1 0xA0 SHL SUB AND DUP3 PUSH1 0x1 PUSH1 0x1 PUSH1 0xA0 SHL SUB AND DUP5 PUSH32 0x2F8788117E7EFF1D82E926EC794901D17C78024A50270940304540A733656F0D PUSH1 0x40 MLOAD PUSH1 0x40 MLOAD DUP1 SWAP2 SUB SWAP1 LOG4 POP PUSH1 0x1 PUSH2 0x24F JUMP JUMPDEST POP PUSH0 PUSH2 0x24F JUMP JUMPDEST PUSH0 PUSH2 0x7E7 DUP4 DUP4 PUSH2 0x538 JUMP JUMPDEST ISZERO PUSH2 0x7D5 JUMPI PUSH0 DUP4 DUP2 MSTORE PUSH1 0x20 DUP2 DUP2 MSTORE PUSH1 0x40 DUP1 DUP4 KECCAK256 PUSH1 0x1 PUSH1 0x1 PUSH1 0xA0 SHL SUB DUP7 AND DUP1 DUP6 MSTORE SWAP3 MSTORE DUP1 DUP4 KECCAK256 DUP1 SLOAD PUSH1 0xFF NOT AND SWAP1 SSTORE MLOAD CALLER SWAP3 DUP7 SWAP2 PUSH32 0xF6391F5C32D9C69D2A47EA670B442974B53935D1EDC7FD64EB21E047A839171B SWAP2 SWAP1 LOG4 POP PUSH1 0x1 PUSH2 0x24F JUMP JUMPDEST PUSH2 0x84F DUP3 DUP3 PUSH2 0x538 JUMP JUMPDEST PUSH2 0x87E JUMPI PUSH1 0x40 MLOAD PUSH4 0xE2517D3F PUSH1 0xE0 SHL DUP2 MSTORE PUSH1 0x1 PUSH1 0x1 PUSH1 0xA0 SHL SUB DUP3 AND PUSH1 0x4 DUP3 ADD MSTORE PUSH1 0x24 DUP2 ADD DUP4 SWAP1 MSTORE PUSH1 0x44 ADD PUSH2 0x2DE JUMP JUMPDEST POP POP JUMP JUMPDEST PUSH0 PUSH1 0x20 DUP3 DUP5 SUB SLT ISZERO PUSH2 0x892 JUMPI PUSH0 DUP1 REVERT JUMPDEST DUP2 CALLDATALOAD PUSH1 0x1 PUSH1 0x1 PUSH1 0xE0 SHL SUB NOT DUP2 AND DUP2 EQ PUSH2 0x8A9 JUMPI PUSH0 DUP1 REVERT JUMPDEST SWAP4 SWAP3 POP POP POP JUMP JUMPDEST PUSH0 PUSH1 0x20 DUP3 DUP5 SUB SLT ISZERO PUSH2 0x8C0 JUMPI PUSH0 DUP1 REVERT JUMPDEST POP CALLDATALOAD SWAP2 SWAP1 POP JUMP JUMPDEST DUP1 CALLDATALOAD PUSH1 0x1 PUSH1 0x1 PUSH1 0xA0 SHL SUB DUP2 AND DUP2 EQ PUSH2 0x8DD JUMPI PUSH0 DUP1 REVERT JUMPDEST SWAP2 SWAP1 POP JUMP JUMPDEST DUP1 ISZERO ISZERO DUP2 EQ PUSH2 0x74A JUMPI PUSH0 DUP1 REVERT JUMPDEST PUSH0 DUP1 PUSH1 0x40 DUP4 DUP6 SUB SLT ISZERO PUSH2 0x900 JUMPI PUSH0 DUP1 REVERT JUMPDEST PUSH2 0x909 DUP4 PUSH2 0x8C7 JUMP JUMPDEST SWAP2 POP PUSH1 0x20 DUP4 ADD CALLDATALOAD PUSH2 0x919 DUP2 PUSH2 0x8E2 JUMP JUMPDEST DUP1 SWAP2 POP POP SWAP3 POP SWAP3 SWAP1 POP JUMP JUMPDEST PUSH0 DUP1 PUSH1 0x40 DUP4 DUP6 SUB SLT ISZERO PUSH2 0x935 JUMPI PUSH0 DUP1 REVERT JUMPDEST DUP3 CALLDATALOAD SWAP2 POP PUSH2 0x945 PUSH1 0x20 DUP5 ADD PUSH2 0x8C7 JUMP JUMPDEST SWAP1 POP SWAP3 POP SWAP3 SWAP1 POP JUMP JUMPDEST PUSH0 PUSH1 0x20 DUP3 DUP5 SUB SLT ISZERO PUSH2 0x95E JUMPI PUSH0 DUP1 REVERT JUMPDEST PUSH2 0x8A9 DUP3 PUSH2 0x8C7 JUMP JUMPDEST PUSH0 DUP1 PUSH0 PUSH1 0x60 DUP5 DUP7 SUB SLT ISZERO PUSH2 0x979 JUMPI PUSH0 DUP1 REVERT JUMPDEST PUSH2 0x982 DUP5 PUSH2 0x8C7 JUMP JUMPDEST SWAP3 POP PUSH1 0x20 DUP5 ADD CALLDATALOAD PUSH8 0xFFFFFFFFFFFFFFFF DUP2 GT ISZERO PUSH2 0x99D JUMPI PUSH0 DUP1 REVERT JUMPDEST DUP5 ADD PUSH1 0x80 DUP2 DUP8 SUB SLT ISZERO PUSH2 0x9AE JUMPI PUSH0 DUP1 REVERT JUMPDEST SWAP3 SWAP6 SWAP3 SWAP5 POP POP POP PUSH1 0x40 SWAP2 SWAP1 SWAP2 ADD CALLDATALOAD SWAP1 JUMP JUMPDEST PUSH0 DUP2 MLOAD DUP1 DUP5 MSTORE PUSH0 JUMPDEST DUP2 DUP2 LT ISZERO PUSH2 0x9E3 JUMPI PUSH1 0x20 DUP2 DUP6 ADD DUP2 ADD MLOAD DUP7 DUP4 ADD DUP3 ADD MSTORE ADD PUSH2 0x9C7 JUMP JUMPDEST POP PUSH0 PUSH1 0x20 DUP3 DUP7 ADD ADD MSTORE PUSH1 0x20 PUSH1 0x1F NOT PUSH1 0x1F DUP4 ADD AND DUP6 ADD ADD SWAP2 POP POP SWAP3 SWAP2 POP POP JUMP JUMPDEST PUSH1 0x80 DUP2 MSTORE PUSH0 PUSH2 0xA14 PUSH1 0x80 DUP4 ADD DUP8 PUSH2 0x9BF JUMP JUMPDEST DUP3 DUP2 SUB PUSH1 0x20 DUP5 ADD MSTORE PUSH2 0xA26 DUP2 DUP8 PUSH2 0x9BF JUMP JUMPDEST SWAP1 POP DUP3 DUP2 SUB PUSH1 0x40 DUP5 ADD MSTORE PUSH2 0xA3A DUP2 DUP7 PUSH2 0x9BF JUMP JUMPDEST SWAP2 POP POP DUP3 ISZERO ISZERO PUSH1 0x60 DUP4 ADD MSTORE SWAP6 SWAP5 POP POP POP POP POP JUMP JUMPDEST PUSH1 0x1 DUP2 DUP2 SHR SWAP1 DUP3 AND DUP1 PUSH2 0xA62 JUMPI PUSH1 0x7F DUP3 AND SWAP2 POP JUMPDEST PUSH1 0x20 DUP3 LT DUP2 SUB PUSH2 0xA80 JUMPI PUSH4 0x4E487B71 PUSH1 0xE0 SHL PUSH0 MSTORE PUSH1 0x22 PUSH1 0x4 MSTORE PUSH1 0x24 PUSH0 REVERT JUMPDEST POP SWAP2 SWAP1 POP JUMP JUMPDEST PUSH0 DUP1 DUP4 CALLDATALOAD PUSH1 0x1E NOT DUP5 CALLDATASIZE SUB ADD DUP2 SLT PUSH2 0xA9B JUMPI PUSH0 DUP1 REVERT JUMPDEST DUP4 ADD DUP1 CALLDATALOAD SWAP2 POP PUSH8 0xFFFFFFFFFFFFFFFF DUP3 GT ISZERO PUSH2 0xAB5 JUMPI PUSH0 DUP1 REVERT JUMPDEST PUSH1 0x20 ADD SWAP2 POP CALLDATASIZE DUP2 SWAP1 SUB DUP3 SGT ISZERO PUSH2 0xAC9 JUMPI PUSH0 DUP1 REVERT JUMPDEST SWAP3 POP SWAP3 SWAP1 POP JUMP JUMPDEST PUSH4 0x4E487B71 PUSH1 0xE0 SHL PUSH0 MSTORE PUSH1 0x41 PUSH1 0x4 MSTORE PUSH1 0x24 PUSH0 REVERT JUMPDEST PUSH1 0x1F DUP3 GT ISZERO PUSH2 0x3F3 JUMPI PUSH0 DUP2 DUP2 MSTORE PUSH1 0x20 DUP2 KECCAK256 PUSH1 0x1F DUP6 ADD PUSH1 0x5 SHR DUP2 ADD PUSH1 0x20 DUP7 LT ISZERO PUSH2 0xB0A JUMPI POP DUP1 JUMPDEST PUSH1 0x1F DUP6 ADD PUSH1 0x5 SHR DUP3 ADD SWAP2 POP JUMPDEST DUP2 DUP2 LT ISZERO PUSH2 0xB29 JUMPI DUP3 DUP2 SSTORE PUSH1 0x1 ADD PUSH2 0xB16 JUMP JUMPDEST POP POP POP POP POP POP JUMP JUMPDEST PUSH8 0xFFFFFFFFFFFFFFFF DUP4 GT ISZERO PUSH2 0xB49 JUMPI PUSH2 0xB49 PUSH2 0xAD0 JUMP JUMPDEST PUSH2 0xB5D DUP4 PUSH2 0xB57 DUP4 SLOAD PUSH2 0xA4E JUMP JUMPDEST DUP4 PUSH2 0xAE4 JUMP JUMPDEST PUSH0 PUSH1 0x1F DUP5 GT PUSH1 0x1 DUP2 EQ PUSH2 0xB8E JUMPI PUSH0 DUP6 ISZERO PUSH2 0xB77 JUMPI POP DUP4 DUP3 ADD CALLDATALOAD JUMPDEST PUSH0 NOT PUSH1 0x3 DUP8 SWAP1 SHL SHR NOT AND PUSH1 0x1 DUP7 SWAP1 SHL OR DUP4 SSTORE PUSH2 0xBE6 JUMP JUMPDEST PUSH0 DUP4 DUP2 MSTORE PUSH1 0x20 SWAP1 KECCAK256 PUSH1 0x1F NOT DUP7 AND SWAP1 DUP4 JUMPDEST DUP3 DUP2 LT ISZERO PUSH2 0xBBE JUMPI DUP7 DUP6 ADD CALLDATALOAD DUP3 SSTORE PUSH1 0x20 SWAP5 DUP6 ADD SWAP5 PUSH1 0x1 SWAP1 SWAP3 ADD SWAP2 ADD PUSH2 0xB9E JUMP JUMPDEST POP DUP7 DUP3 LT ISZERO PUSH2 0xBDA JUMPI PUSH0 NOT PUSH1 0xF8 DUP9 PUSH1 0x3 SHL AND SHR NOT DUP5 DUP8 ADD CALLDATALOAD AND DUP2 SSTORE JUMPDEST POP POP PUSH1 0x1 DUP6 PUSH1 0x1 SHL ADD DUP4 SSTORE JUMPDEST POP POP POP POP POP JUMP JUMPDEST PUSH0 DUP2 CALLDATALOAD PUSH2 0x24F DUP2 PUSH2 0x8E2 JUMP JUMPDEST PUSH2 0xC03 DUP3 DUP4 PUSH2 0xA86 JUMP JUMPDEST PUSH8 0xFFFFFFFFFFFFFFFF DUP2 GT ISZERO PUSH2 0xC1B JUMPI PUSH2 0xC1B PUSH2 0xAD0 JUMP JUMPDEST PUSH2 0xC2F DUP2 PUSH2 0xC29 DUP6 SLOAD PUSH2 0xA4E JUMP JUMPDEST DUP6 PUSH2 0xAE4 JUMP JUMPDEST PUSH0 PUSH1 0x1F DUP3 GT PUSH1 0x1 DUP2 EQ PUSH2 0xC60 JUMPI PUSH0 DUP4 ISZERO PUSH2 0xC49 JUMPI POP DUP4 DUP3 ADD CALLDATALOAD JUMPDEST PUSH0 NOT PUSH1 0x3 DUP6 SWAP1 SHL SHR NOT AND PUSH1 0x1 DUP5 SWAP1 SHL OR DUP6 SSTORE PUSH2 0xCB8 JUMP JUMPDEST PUSH0 DUP6 DUP2 MSTORE PUSH1 0x20 SWAP1 KECCAK256 PUSH1 0x1F NOT DUP5 AND SWAP1 DUP4 JUMPDEST DUP3 DUP2 LT ISZERO PUSH2 0xC90 JUMPI DUP7 DUP6 ADD CALLDATALOAD DUP3 SSTORE PUSH1 0x20 SWAP5 DUP6 ADD SWAP5 PUSH1 0x1 SWAP1 SWAP3 ADD SWAP2 ADD PUSH2 0xC70 JUMP JUMPDEST POP DUP5 DUP3 LT ISZERO PUSH2 0xCAC JUMPI PUSH0 NOT PUSH1 0xF8 DUP7 PUSH1 0x3 SHL AND SHR NOT DUP5 DUP8 ADD CALLDATALOAD AND DUP2 SSTORE JUMPDEST POP POP PUSH1 0x1 DUP4 PUSH1 0x1 SHL ADD DUP6 SSTORE JUMPDEST POP POP POP POP PUSH2 0xCC9 PUSH1 0x20 DUP4 ADD DUP4 PUSH2 0xA86 JUMP JUMPDEST PUSH2 0xCD7 DUP2 DUP4 PUSH1 0x1 DUP7 ADD PUSH2 0xB31 JUMP JUMPDEST POP POP PUSH2 0xCE6 PUSH1 0x40 DUP4 ADD DUP4 PUSH2 0xA86 JUMP JUMPDEST PUSH2 0xCF4 DUP2 DUP4 PUSH1 0x2 DUP7 ADD PUSH2 0xB31 JUMP JUMPDEST POP POP PUSH2 0x87E PUSH2 0xD05 PUSH1 0x60 DUP5 ADD PUSH2 0xBED JUMP JUMPDEST PUSH1 0x3 DUP4 ADD PUSH1 0xFF NOT DUP2 SLOAD AND PUSH1 0xFF DUP4 ISZERO ISZERO AND DUP2 OR DUP3 SSTORE POP POP POP JUMP JUMPDEST DUP2 DUP4 MSTORE DUP2 DUP2 PUSH1 0x20 DUP6 ADD CALLDATACOPY POP PUSH0 DUP3 DUP3 ADD PUSH1 0x20 SWAP1 DUP2 ADD SWAP2 SWAP1 SWAP2 MSTORE PUSH1 0x1F SWAP1 SWAP2 ADD PUSH1 0x1F NOT AND SWAP1 SWAP2 ADD ADD SWAP1 JUMP JUMPDEST PUSH1 0x40 DUP2 MSTORE PUSH0 PUSH2 0xD59 PUSH1 0x40 DUP4 ADD DUP7 DUP9 PUSH2 0xD1E JUMP JUMPDEST DUP3 DUP2 SUB PUSH1 0x20 DUP5 ADD MSTORE PUSH2 0xD6C DUP2 DUP6 DUP8 PUSH2 0xD1E JUMP JUMPDEST SWAP8 SWAP7 POP POP POP POP POP POP POP JUMP INVALID KECCAK256 0xD9 0xBB CODESIZE GT 0x23 BASEFEE PUSH29 0x7458DC4B1E41409EAFB0E74092B8DEF477C5C636CC4F4B73A264697066 PUSH20 0x58221220D01B9DD84635B1AFE712F5E7945BA9B6 0x4A PUSH17 0x84621E6E84DBF73CCF0864F4335164736F PUSH13 0x63430008140033000000000000 "},"methodIdentifiers":{"ADMIN_ROLE()":"75b238fc","DEFAULT_ADMIN_ROLE()":"a217fddf","IOT_ROLE()":"016ad78f","getRoleAdmin(bytes32)":"248a9ca3","grantRole(bytes32,address)":"2f2ff15d","hasRole(bytes32,address)":"91d14854","registerSensor(address,(string,string,string,bool),bytes32)":"5c83aed1","renounceRole(bytes32,address)":"36568abe","revokeRole(bytes32,address)":"d547741f","sensorPubKeyHash(address)":"3cab1391","sensors(address)":"c3e8fb97","setActive(address,bool)":"2ce962cf","supportsInterface(bytes4)":"01ffc9a7"}}}}}