{"project/contracts/PharbitGovernance.sol":{"PharbitGovernance":{"abi":[{"inputs":[{"internalType":"address","name":"admin","type":"address"},{"internalType":"int16","name":"minTempC","type":"int16"},{"internalType":"int16","name":"maxTempC","type":"int16"},{"internalType":"uint256","name":"sensorWindowSec","type":"uint256"}],"stateMutability":"nonpayable","type":"constructor"},{"inputs":[],"name":"AccessControlBadConfirmation","type":"error"},{"inputs":[{"internalType":"address","name":"account","type":"address"},{"internalType":"bytes32","name":"neededRole","type":"bytes32"}],"name":"AccessControlUnauthorizedAccount","type":"error"},{"anonymous":false,"inputs":[{"components":[{"internalType":"int16","name":"minTempC","type":"int16"},{"internalType":"int16","name":"maxTempC","type":"int16"},{"internalType":"uint256","name":"sensorWindowSec","type":"uint256"}],"indexed":false,"internalType":"struct PharbitGovernance.Params","name":"params","type":"tuple"}],"name":"ParamsUpdated","type":"event"},{"anonymous":false,"inputs":[{"indexed":true,"internalType":"bytes32","name":"role","type":"bytes32"},{"indexed":true,"internalType":"bytes32","name":"previousAdminRole","type":"bytes32"},{"indexed":true,"internalType":"bytes32","name":"newAdminRole","type":"bytes32"}],"name":"RoleAdminChanged","type":"event"},{"anonymous":false,"inputs":[{"indexed":true,"internalType":"bytes32","name":"role","type":"bytes32"},{"indexed":true,"internalType":"address","name":"account","type":"address"},{"indexed":true,"internalType":"address","name":"sender","type":"address"}],"name":"RoleGranted","type":"event"},{"anonymous":false,"inputs":[{"indexed":true,"internalType":"bytes32","name":"role","type":"bytes32"},{"indexed":true,"internalType":"address","name":"account","type":"address"},{"indexed":true,"internalType":"address","name":"sender","type":"address"}],"name":"RoleRevoked","type":"event"},{"inputs":[],"name":"DEFAULT_ADMIN_ROLE","outputs":[{"internalType":"bytes32","name":"","type":"bytes32"}],"stateMutability":"view","type":"function"},{"inputs":[],"name":"GOVERNOR_ROLE","outputs":[{"internalType":"bytes32","name":"","type":"bytes32"}],"stateMutability":"view","type":"function"},{"inputs":[{"internalType":"bytes32","name":"role","type":"bytes32"}],"name":"getRoleAdmin","outputs":[{"internalType":"bytes32","name":"","type":"bytes32"}],"stateMutability":"view","type":"function"},{"inputs":[{"internalType":"bytes32","name":"role","type":"bytes32"},{"internalType":"address","name":"account","type":"address"}],"name":"grantRole","outputs":[],"stateMutability":"nonpayable","type":"function"},{"inputs":[{"internalType":"bytes32","name":"role","type":"bytes32"},{"internalType":"address","name":"account","type":"address"}],"name":"hasRole","outputs":[{"internalType":"bool","name":"","type":"bool"}],"stateMutability":"view","type":"function"},{"inputs":[],"name":"params","outputs":[{"internalType":"int16","name":"minTempC","type":"int16"},{"internalType":"int16","name":"maxTempC","type":"int16"},{"internalType":"uint256","name":"sensorWindowSec","type":"uint256"}],"stateMutability":"view","type":"function"},{"inputs":[{"internalType":"bytes32","name":"role","type":"bytes32"},{"internalType":"address","name":"callerConfirmation","type":"address"}],"name":"renounceRole","outputs":[],"stateMutability":"nonpayable","type":"function"},{"inputs":[{"internalType":"bytes32","name":"role","type":"bytes32"},{"internalType":"address","name":"account","type":"address"}],"name":"revokeRole","outputs":[],"stateMutability":"nonpayable","type":"function"},{"inputs":[{"internalType":"bytes4","name":"interfaceId","type":"bytes4"}],"name":"supportsInterface","outputs":[{"internalType":"bool","name":"","type":"bool"}],"stateMutability":"view","type":"function"},{"inputs":[{"components":[{"internalType":"int16","name":"minTempC","type":"int16"},{"internalType":"int16","name":"maxTempC","type":"int16"},{"internalType":"uint256","name":"sensorWindowSec","type":"uint256"}],"internalType":"struct PharbitGovernance.Params","name":"p","type":"tuple"}],"name":"updateParams","outputs":[],"stateMutability":"nonpayable","type":"function"}],"evm":{"bytecode":{"linkReferences":{},"object":"608060405234801561000f575f80fd5b506040516107c33803806107c383398101604081905261002e916101c2565b6100385f85610103565b506100637f7935bd0ae54bc31f548c14dba4d37c5c64b3f8ca900cb468fb8abd54d5894f5585610103565b5060408051606081018252600185810b825284810b6020830152908201839052805461ffff808616620100000263ffffffff1990921690871617178155600283905590517fe91255cc5c01ba45353278efa766a454cdb8532309f4c1005b3697039aaef05b916100f2918154600181810b835260109190911c810b602083015290910154604082015260600190565b60405180910390a150505050610217565b5f828152602081815260408083206001600160a01b038516845290915281205460ff166101a3575f838152602081815260408083206001600160a01b03861684529091529020805460ff1916600117905561015b3390565b6001600160a01b0316826001600160a01b0316847f2f8788117e7eff1d82e926ec794901d17c78024a50270940304540a733656f0d60405160405180910390a45060016101a6565b505f5b92915050565b8051600181900b81146101bd575f80fd5b919050565b5f805f80608085870312156101d5575f80fd5b84516001600160a01b03811681146101eb575f80fd5b93506101f9602086016101ac565b9250610207604086016101ac565b6060959095015193969295505050565b61059f806102245f395ff3fe608060405234801561000f575f80fd5b506004361061009b575f3560e01c806391d148541161006357806391d1485414610132578063a217fddf14610145578063ccc574901461014c578063cff0ab9614610173578063d547741f146101b1575f80fd5b806301ffc9a71461009f578063248a9ca3146100c75780632f2ff15d146100f757806336568abe1461010c578063663ffc651461011f575b5f80fd5b6100b26100ad366004610475565b6101c4565b60405190151581526020015b60405180910390f35b6100e96100d53660046104a3565b5f9081526020819052604090206001015490565b6040519081526020016100be565b61010a6101053660046104ba565b6101fa565b005b61010a61011a3660046104ba565b610224565b61010a61012d3660046104f3565b61025c565b6100b26101403660046104ba565b6102e3565b6100e95f81565b6100e97f7935bd0ae54bc31f548c14dba4d37c5c64b3f8ca900cb468fb8abd54d5894f5581565b6001805460025461018e9282810b92620100009004900b9083565b60408051600194850b81529290930b6020830152918101919091526060016100be565b61010a6101bf3660046104ba565b61030b565b5f6001600160e01b03198216637965db0b60e01b14806101f457506301ffc9a760e01b6001600160e01b03198316145b92915050565b5f828152602081905260409020600101546102148161032f565b61021e838361033c565b50505050565b6001600160a01b038116331461024d5760405163334bd91960e11b815260040160405180910390fd5b61025782826103cb565b505050565b7f7935bd0ae54bc31f548c14dba4d37c5c64b3f8ca900cb468fb8abd54d5894f556102868161032f565b816001610293828261051a565b5050604080516001805480820b835260101c900b60208201526002548183015290517fe91255cc5c01ba45353278efa766a454cdb8532309f4c1005b3697039aaef05b9181900360600190a15050565b5f918252602082815260408084206001600160a01b0393909316845291905290205460ff1690565b5f828152602081905260409020600101546103258161032f565b61021e83836103cb565b6103398133610434565b50565b5f61034783836102e3565b6103c4575f838152602081815260408083206001600160a01b03861684529091529020805460ff1916600117905561037c3390565b6001600160a01b0316826001600160a01b0316847f2f8788117e7eff1d82e926ec794901d17c78024a50270940304540a733656f0d60405160405180910390a45060016101f4565b505f6101f4565b5f6103d683836102e3565b156103c4575f838152602081815260408083206001600160a01b0386168085529252808320805460ff1916905551339286917ff6391f5c32d9c69d2a47ea670b442974b53935d1edc7fd64eb21e047a839171b9190a45060016101f4565b61043e82826102e3565b6104715760405163e2517d3f60e01b81526001600160a01b03821660048201526024810183905260440160405180910390fd5b5050565b5f60208284031215610485575f80fd5b81356001600160e01b03198116811461049c575f80fd5b9392505050565b5f602082840312156104b3575f80fd5b5035919050565b5f80604083850312156104cb575f80fd5b8235915060208301356001600160a01b03811681146104e8575f80fd5b809150509250929050565b5f60608284031215610503575f80fd5b50919050565b5f81358060010b81146101f4575f80fd5b61052382610509565b815461ffff82811661ffff19831617845561054060208601610509565b60101b63ffff00001681841663ffffffff1984161717845550505060408201356001820155505056fea26469706673582212207a95c9f1a4699c1dd9776310743a2de576a4ebfe21e187c267b0aa36fce7704764736f6c63430008140033","opcodes":"PUSH1 0x80 PUSH1 0x40 MSTORE CALLVALUE DUP1 ISZERO PUSH2 0xF JUMPI PUSH0 DUP1 REVERT JUMPDEST POP PUSH1 0x40 MLOAD PUSH2 0x7C3 CODESIZE SUB DUP1 PUSH2 0x7C3 DUP4 CODECOPY DUP2 ADD PUSH1 0x40 DUP2 SWAP1 MSTORE PUSH2 0x2E SWAP2 PUSH2 0x1C2 JUMP JUMPDEST PUSH2 0x38 PUSH0 DUP6 PUSH2 0x103 JUMP JUMPDEST POP PUSH2 0x63 PUSH32 0x7935BD0AE54BC31F548C14DBA4D37C5C64B3F8CA900CB468FB8ABD54D5894F55 DUP6 PUSH2 0x103 JUMP JUMPDEST POP PUSH1 0x40 DUP1 MLOAD PUSH1 0x60 DUP2 ADD DUP3 MSTORE PUSH1 0x1 DUP6 DUP2 SIGNEXTEND DUP3 MSTORE DUP5 DUP2 SIGNEXTEND PUSH1 0x20 DUP4 ADD MSTORE SWAP1 DUP3 ADD DUP4 SWAP1 MSTORE DUP1 SLOAD PUSH2 0xFFFF DUP1 DUP7 AND PUSH3 0x10000 MUL PUSH4 0xFFFFFFFF NOT SWAP1 SWAP3 AND SWAP1 DUP8 AND OR OR DUP2 SSTORE PUSH1 0x2 DUP4 SWAP1 SSTORE SWAP1 MLOAD PUSH32 0xE91255CC5C01BA45353278EFA766A454CDB8532309F4C1005B3697039AAEF05B SWAP2 PUSH2 0xF2 SWAP2 DUP2 SLOAD PUSH1 0x1 DUP2 DUP2 SIGNEXTEND DUP4 MSTORE PUSH1 0x10 SWAP2 SWAP1 SWAP2 SHR DUP2 SIGNEXTEND PUSH1 0x20 DUP4 ADD MSTORE SWAP1 SWAP2 ADD SLOAD PUSH1 0x40 DUP3 ADD MSTORE PUSH1 0x60 ADD SWAP1 JUMP JUMPDEST PUSH1 0x40 MLOAD DUP1 SWAP2 SUB SWAP1 LOG1 POP POP POP POP PUSH2 0x217 JUMP JUMPDEST PUSH0 DUP3 DUP2 MSTORE PUSH1 0x20 DUP2 DUP2 MSTORE PUSH1 0x40 DUP1 DUP4 KECCAK256 PUSH1 0x1 PUSH1 0x1 PUSH1 0xA0 SHL SUB DUP6 AND DUP5 MSTORE SWAP1 SWAP2 MSTORE DUP2 KECCAK256 SLOAD PUSH1 0xFF AND PUSH2 0x1A3 JUMPI PUSH0 DUP4 DUP2 MSTORE PUSH1 0x20 DUP2 DUP2 MSTORE PUSH1 0x40 DUP1 DUP4 KECCAK256 PUSH1 0x1 PUSH1 0x1 PUSH1 0xA0 SHL SUB DUP7 AND DUP5 MSTORE SWAP1 SWAP2 MSTORE SWAP1 KECCAK256 DUP1 SLOAD PUSH1 0xFF NOT AND PUSH1 0x1 OR SWAP1 SSTORE PUSH2 0x15B CALLER SWAP1 JUMP JUMPDEST PUSH1 0x1 PUSH1 0x1 PUSH1 0xA0 SHL SUB AND DUP3 PUSH1 0x1 PUSH1 0x1 PUSH1 0xA0 SHL SUB AND DUP5 PUSH32 0x2F8788117E7EFF1D82E926EC794901D17C78024A50270940304540A733656F0D PUSH1 0x40 MLOAD PUSH1 0x40 MLOAD DUP1 SWAP2 SUB SWAP1 LOG4 POP PUSH1 0x1 PUSH2 0x1A6 JUMP JUMPDEST POP PUSH0 JUMPDEST SWAP3 SWAP2 POP POP JUMP JUMPDEST DUP1 MLOAD PUSH1 0x1 DUP2 SWAP1 SIGNEXTEND DUP2 EQ PUSH2 0x1BD JUMPI PUSH0 DUP1 REVERT JUMPDEST SWAP2 SWAP1 POP JUMP JUMPDEST PUSH0 DUP1 PUSH0 DUP1 PUSH1 0x80 DUP6 DUP8 SUB SLT ISZERO PUSH2 0x1D5 JUMPI PUSH0 DUP1 REVERT JUMPDEST DUP5 MLOAD PUSH1 0x1 PUSH1 0x1 PUSH1 0xA0 SHL SUB DUP2 AND DUP2 EQ PUSH2 0x1EB JUMPI PUSH0 DUP1 REVERT JUMPDEST SWAP4 POP PUSH2 0x1F9 PUSH1 0x20 DUP7 ADD PUSH2 0x1AC JUMP JUMPDEST SWAP3 POP PUSH2 0x207 PUSH1 0x40 DUP7 ADD PUSH2 0x1AC JUMP JUMPDEST PUSH1 0x60 SWAP6 SWAP1 SWAP6 ADD MLOAD SWAP4 SWAP7 SWAP3 SWAP6 POP POP POP JUMP JUMPDEST PUSH2 0x59F DUP1 PUSH2 0x224 PUSH0 CODECOPY PUSH0 RETURN INVALID PUSH1 0x80 PUSH1 0x40 MSTORE CALLVALUE DUP1 ISZERO PUSH2 0xF JUMPI PUSH0 DUP1 REVERT JUMPDEST POP PUSH1 0x4 CALLDATASIZE LT PUSH2 0x9B JUMPI PUSH0 CALLDATALOAD PUSH1 0xE0 SHR DUP1 PUSH4 0x91D14854 GT PUSH2 0x63 JUMPI DUP1 PUSH4 0x91D14854 EQ PUSH2 0x132 JUMPI DUP1 PUSH4 0xA217FDDF EQ PUSH2 0x145 JUMPI DUP1 PUSH4 0xCCC57490 EQ PUSH2 0x14C JUMPI DUP1 PUSH4 0xCFF0AB96 EQ PUSH2 0x173 JUMPI DUP1 PUSH4 0xD547741F EQ PUSH2 0x1B1 JUMPI PUSH0 DUP1 REVERT JUMPDEST DUP1 PUSH4 0x1FFC9A7 EQ PUSH2 0x9F JUMPI DUP1 PUSH4 0x248A9CA3 EQ PUSH2 0xC7 JUMPI DUP1 PUSH4 0x2F2FF15D EQ PUSH2 0xF7 JUMPI DUP1 PUSH4 0x36568ABE EQ PUSH2 0x10C JUMPI DUP1 PUSH4 0x663FFC65 EQ PUSH2 0x11F JUMPI JUMPDEST PUSH0 DUP1 REVERT JUMPDEST PUSH2 0xB2 PUSH2 0xAD CALLDATASIZE PUSH1 0x4 PUSH2 0x475 JUMP JUMPDEST PUSH2 0x1C4 JUMP JUMPDEST PUSH1 0x40 MLOAD SWAP1 ISZERO ISZERO DUP2 MSTORE PUSH1 0x20 ADD JUMPDEST PUSH1 0x40 MLOAD DUP1 SWAP2 SUB SWAP1 RETURN JUMPDEST PUSH2 0xE9 PUSH2 0xD5 CALLDATASIZE PUSH1 0x4 PUSH2 0x4A3 JUMP JUMPDEST PUSH0 SWAP1 DUP2 MSTORE PUSH1 0x20 DUP2 SWAP1 MSTORE PUSH1 0x40 SWAP1 KECCAK256 PUSH1 0x1 ADD SLOAD SWAP1 JUMP JUMPDEST PUSH1 0x40 MLOAD SWAP1 DUP2 MSTORE PUSH1 0x20 ADD PUSH2 0xBE JUMP JUMPDEST PUSH2 0x10A PUSH2 0x105 CALLDATASIZE PUSH1 0x4 PUSH2 0x4BA JUMP JUMPDEST PUSH2 0x1FA JUMP JUMPDEST STOP JUMPDEST PUSH2 0x10A PUSH2 0x11A CALLDATASIZE PUSH1 0x4 PUSH2 0x4BA JUMP JUMPDEST PUSH2 0x224 JUMP JUMPDEST PUSH2 0x10A PUSH2 0x12D CALLDATASIZE PUSH1 0x4 PUSH2 0x4F3 JUMP JUMPDEST PUSH2 0x25C JUMP JUMPDEST PUSH2 0xB2 PUSH2 0x140 CALLDATASIZE PUSH1 0x4 PUSH2 0x4BA JUMP JUMPDEST PUSH2 0x2E3 JUMP JUMPDEST PUSH2 0xE9 PUSH0 DUP2 JUMP JUMPDEST PUSH2 0xE9 PUSH32 0x7935BD0AE54BC31F548C14DBA4D37C5C64B3F8CA900CB468FB8ABD54D5894F55 DUP2 JUMP JUMPDEST PUSH1 0x1 DUP1 SLOAD PUSH1 0x2 SLOAD PUSH2 0x18E SWAP3 DUP3 DUP2 SIGNEXTEND SWAP3 PUSH3 0x10000 SWAP1 DIV SWAP1 SIGNEXTEND SWAP1 DUP4 JUMP JUMPDEST PUSH1 0x40 DUP1 MLOAD PUSH1 0x1 SWAP5 DUP6 SIGNEXTEND DUP2 MSTORE SWAP3 SWAP1 SWAP4 SIGNEXTEND PUSH1 0x20 DUP4 ADD MSTORE SWAP2 DUP2 ADD SWAP2 SWAP1 SWAP2 MSTORE PUSH1 0x60 ADD PUSH2 0xBE JUMP JUMPDEST PUSH2 0x10A PUSH2 0x1BF CALLDATASIZE PUSH1 0x4 PUSH2 0x4BA JUMP JUMPDEST PUSH2 0x30B JUMP JUMPDEST PUSH0 PUSH1 0x1 PUSH1 0x1 PUSH1 0xE0 SHL SUB NOT DUP3 AND PUSH4 0x7965DB0B PUSH1 0xE0 SHL EQ DUP1 PUSH2 0x1F4 JUMPI POP PUSH4 0x1FFC9A7 PUSH1 0xE0 SHL PUSH1 0x1 PUSH1 0x1 PUSH1 0xE0 SHL SUB NOT DUP4 AND EQ JUMPDEST SWAP3 SWAP2 POP POP JUMP JUMPDEST PUSH0 DUP3 DUP2 MSTORE PUSH1 0x20 DUP2 SWAP1 MSTORE PUSH1 0x40 SWAP1 KECCAK256 PUSH1 0x1 ADD SLOAD PUSH2 0x214 DUP2 PUSH2 0x32F JUMP JUMPDEST PUSH2 0x21E DUP4 DUP4 PUSH2 0x33C JUMP JUMPDEST POP POP POP POP JUMP JUMPDEST PUSH1 0x1 PUSH1 0x1 PUSH1 0xA0 SHL SUB DUP2 AND CALLER EQ PUSH2 0x24D JUMPI PUSH1 0x40 MLOAD PUSH4 0x334BD919 PUSH1 0xE1 SHL DUP2 MSTORE PUSH1 0x4 ADD PUSH1 0x40 MLOAD DUP1 SWAP2 SUB SWAP1 REVERT JUMPDEST PUSH2 0x257 DUP3 DUP3 PUSH2 0x3CB JUMP JUMPDEST POP POP POP JUMP JUMPDEST PUSH32 0x7935BD0AE54BC31F548C14DBA4D37C5C64B3F8CA900CB468FB8ABD54D5894F55 PUSH2 0x286 DUP2 PUSH2 0x32F JUMP JUMPDEST DUP2 PUSH1 0x1 PUSH2 0x293 DUP3 DUP3 PUSH2 0x51A JUMP JUMPDEST POP POP PUSH1 0x40 DUP1 MLOAD PUSH1 0x1 DUP1 SLOAD DUP1 DUP3 SIGNEXTEND DUP4 MSTORE PUSH1 0x10 SHR SWAP1 SIGNEXTEND PUSH1 0x20 DUP3 ADD MSTORE PUSH1 0x2 SLOAD DUP2 DUP4 ADD MSTORE SWAP1 MLOAD PUSH32 0xE91255CC5C01BA45353278EFA766A454CDB8532309F4C1005B3697039AAEF05B SWAP2 DUP2 SWAP1 SUB PUSH1 0x60 ADD SWAP1 LOG1 POP POP JUMP JUMPDEST PUSH0 SWAP2 DUP3 MSTORE PUSH1 0x20 DUP3 DUP2 MSTORE PUSH1 0x40 DUP1 DUP5 KECCAK256 PUSH1 0x1 PUSH1 0x1 PUSH1 0xA0 SHL SUB SWAP4 SWAP1 SWAP4 AND DUP5 MSTORE SWAP2 SWAP1 MSTORE SWAP1 KECCAK256 SLOAD PUSH1 0xFF AND SWAP1 JUMP JUMPDEST PUSH0 DUP3 DUP2 MSTORE PUSH1 0x20 DUP2 SWAP1 MSTORE PUSH1 0x40 SWAP1 KECCAK256 PUSH1 0x1 ADD SLOAD PUSH2 0x325 DUP2 PUSH2 0x32F JUMP JUMPDEST PUSH2 0x21E DUP4 DUP4 PUSH2 0x3CB JUMP JUMPDEST PUSH2 0x339 DUP2 CALLER PUSH2 0x434 JUMP JUMPDEST POP JUMP JUMPDEST PUSH0 PUSH2 0x347 DUP4 DUP4 PUSH2 0x2E3 JUMP JUMPDEST PUSH2 0x3C4 JUMPI PUSH0 DUP4 DUP2 MSTORE PUSH1 0x20 DUP2 DUP2 MSTORE PUSH1 0x40 DUP1 DUP4 KECCAK256 PUSH1 0x1 PUSH1 0x1 PUSH1 0xA0 SHL SUB DUP7 AND DUP5 MSTORE SWAP1 SWAP2 MSTORE SWAP1 KECCAK256 DUP1 SLOAD PUSH1 0xFF NOT AND PUSH1 0x1 OR SWAP1 SSTORE PUSH2 0x37C CALLER SWAP1 JUMP JUMPDEST PUSH1 0x1 PUSH1 0x1 PUSH1 0xA0 SHL SUB AND DUP3 PUSH1 0x1 PUSH1 0x1 PUSH1 0xA0 SHL SUB AND DUP5 PUSH32 0x2F8788117E7EFF1D82E926EC794901D17C78024A50270940304540A733656F0D PUSH1 0x40 MLOAD PUSH1 0x40 MLOAD DUP1 SWAP2 SUB SWAP1 LOG4 POP PUSH1 0x1 PUSH2 0x1F4 JUMP JUMPDEST POP PUSH0 PUSH2 0x1F4 JUMP JUMPDEST PUSH0 PUSH2 0x3D6 DUP4 DUP4 PUSH2 0x2E3 JUMP JUMPDEST ISZERO PUSH2 0x3C4 JUMPI PUSH0 DUP4 DUP2 MSTORE PUSH1 0x20 DUP2 DUP2 MSTORE PUSH1 0x40 DUP1 DUP4 KECCAK256 PUSH1 0x1 PUSH1 0x1 PUSH1 0xA0 SHL SUB DUP7 AND DUP1 DUP6 MSTORE SWAP3 MSTORE DUP1 DUP4 KECCAK256 DUP1 SLOAD PUSH1 0xFF NOT AND SWAP1 SSTORE MLOAD CALLER SWAP3 DUP7 SWAP2 PUSH32 0xF6391F5C32D9C69D2A47EA670B442974B53935D1EDC7FD64EB21E047A839171B SWAP2 SWAP1 LOG4 POP PUSH1 0x1 PUSH2 0x1F4 JUMP JUMPDEST PUSH2 0x43E DUP3 DUP3 PUSH2 0x2E3 JUMP JUMPDEST PUSH2 0x471 JUMPI PUSH1 0x40 MLOAD PUSH4 0xE2517D3F PUSH1 0xE0 SHL DUP2 MSTORE PUSH1 0x1 PUSH1 0x1 PUSH1 0xA0 SHL SUB DUP3 AND PUSH1 0x4 DUP3 ADD MSTORE PUSH1 0x24 DUP2 ADD DUP4 SWAP1 MSTORE PUSH1 0x44 ADD PUSH1 0x40 MLOAD DUP1 SWAP2 SUB SWAP1 REVERT JUMPDEST POP POP JUMP JUMPDEST PUSH0 PUSH1 0x20 DUP3 DUP5 SUB SLT ISZERO PUSH2 0x485 JUMPI PUSH0 DUP1 REVERT JUMPDEST DUP2 CALLDATALOAD PUSH1 0x1 PUSH1 0x1 PUSH1 0xE0 SHL SUB NOT DUP2 AND DUP2 EQ PUSH2 0x49C JUMPI PUSH0 DUP1 REVERT JUMPDEST SWAP4 SWAP3 POP POP POP JUMP JUMPDEST PUSH0 PUSH1 0x20 DUP3 DUP5 SUB SLT ISZERO PUSH2 0x4B3 JUMPI PUSH0 DUP1 REVERT JUMPDEST POP CALLDATALOAD SWAP2 SWAP1 POP JUMP JUMPDEST PUSH0 DUP1 PUSH1 0x40 DUP4 DUP6 SUB SLT ISZERO PUSH2 0x4CB JUMPI PUSH0 DUP1 REVERT JUMPDEST DUP3 CALLDATALOAD SWAP2 POP PUSH1 0x20 DUP4 ADD CALLDATALOAD PUSH1 0x1 PUSH1 0x1 PUSH1 0xA0 SHL SUB DUP2 AND DUP2 EQ PUSH2 0x4E8 JUMPI PUSH0 DUP1 REVERT JUMPDEST DUP1 SWAP2 POP POP SWAP3 POP SWAP3 SWAP1 POP JUMP JUMPDEST PUSH0 PUSH1 0x60 DUP3 DUP5 SUB SLT ISZERO PUSH2 0x503 JUMPI PUSH0 DUP1 REVERT JUMPDEST POP SWAP2 SWAP1 POP JUMP JUMPDEST PUSH0 DUP2 CALLDATALOAD DUP1 PUSH1 0x1 SIGNEXTEND DUP2 EQ PUSH2 0x1F4 JUMPI PUSH0 DUP1 REVERT JUMPDEST PUSH2 0x523 DUP3 PUSH2 0x509 JUMP JUMPDEST DUP2 SLOAD PUSH2 0xFFFF DUP3 DUP2 AND PUSH2 0xFFFF NOT DUP4 AND OR DUP5 SSTORE PUSH2 0x540 PUSH1 0x20 DUP7 ADD PUSH2 0x509 JUMP JUMPDEST PUSH1 0x10 SHL PUSH4 0xFFFF0000 AND DUP2 DUP5 AND PUSH4 0xFFFFFFFF NOT DUP5 AND OR OR DUP5 SSTORE POP POP POP PUSH1 0x40 DUP3 ADD CALLDATALOAD PUSH1 0x1 DUP3 ADD SSTORE POP POP JUMP INVALID LOG2 PUSH5 0x6970667358 0x22 SLT KECCAK256 PUSH27 0x95C9F1A4699C1DD9776310743A2DE576A4EBFE21E187C267B0AA36 0xFC 0xE7 PUSH17 0x4764736F6C634300081400330000000000 "},"methodIdentifiers":{"DEFAULT_ADMIN_ROLE()":"a217fddf","GOVERNOR_ROLE()":"ccc57490","getRoleAdmin(bytes32)":"248a9ca3","grantRole(bytes32,address)":"2f2ff15d","hasRole(bytes32,address)":"91d14854","params()":"cff0ab96","renounceRole(bytes32,address)":"36568abe","revokeRole(bytes32,address)":"d547741f","supportsInterface(bytes4)":"01ffc9a7","updateParams((int16,int16,uint256))":"663ffc65"}}}}}