{
  "_format": "hh-sol-artifact-1",
  "contractName": "BatchContract",
  "sourceName": "contracts/BatchContract.sol",
  "abi": [
    {
      "inputs": [
        {
          "internalType": "address",
          "name": "admin",
          "type": "address"
        }
      ],
      "stateMutability": "nonpayable",
      "type": "constructor"
    },
    {
      "inputs": [],
      "name": "BadInput",
      "type": "error"
    },
    {
      "inputs": [],
      "name": "NotFound",
      "type": "error"
    },
    {
      "anonymous": false,
      "inputs": [
        {
          "indexed": true,
          "internalType": "uint256",
          "name": "batchId",
          "type": "uint256"
        },
        {
          "indexed": false,
          "internalType": "string",
          "name": "productName",
          "type": "string"
        },
        {
          "indexed": true,
          "internalType": "address",
          "name": "manufacturer",
          "type": "address"
        },
        {
          "indexed": false,
          "internalType": "uint256",
          "name": "expiryDate",
          "type": "uint256"
        }
      ],
      "name": "BatchCreated",
      "type": "event"
    },
    {
      "anonymous": false,
      "inputs": [
        {
          "indexed": true,
          "internalType": "uint256",
          "name": "batchId",
          "type": "uint256"
        },
        {
          "indexed": false,
          "internalType": "string",
          "name": "reason",
          "type": "string"
        }
      ],
      "name": "BatchRecalled",
      "type": "event"
    },
    {
      "anonymous": false,
      "inputs": [
        {
          "indexed": true,
          "internalType": "bytes32",
          "name": "role",
          "type": "bytes32"
        },
        {
          "indexed": true,
          "internalType": "bytes32",
          "name": "previousAdminRole",
          "type": "bytes32"
        },
        {
          "indexed": true,
          "internalType": "bytes32",
          "name": "newAdminRole",
          "type": "bytes32"
        }
      ],
      "name": "RoleAdminChanged",
      "type": "event"
    },
    {
      "anonymous": false,
      "inputs": [
        {
          "indexed": true,
          "internalType": "bytes32",
          "name": "role",
          "type": "bytes32"
        },
        {
          "indexed": true,
          "internalType": "address",
          "name": "account",
          "type": "address"
        },
        {
          "indexed": true,
          "internalType": "address",
          "name": "sender",
          "type": "address"
        }
      ],
      "name": "RoleGranted",
      "type": "event"
    },
    {
      "anonymous": false,
      "inputs": [
        {
          "indexed": true,
          "internalType": "bytes32",
          "name": "role",
          "type": "bytes32"
        },
        {
          "indexed": true,
          "internalType": "address",
          "name": "account",
          "type": "address"
        },
        {
          "indexed": true,
          "internalType": "address",
          "name": "sender",
          "type": "address"
        }
      ],
      "name": "RoleRevoked",
      "type": "event"
    },
    {
      "inputs": [],
      "name": "BATCH_MANAGER_ROLE",
      "outputs": [
        {
          "internalType": "bytes32",
          "name": "",
          "type": "bytes32"
        }
      ],
      "stateMutability": "view",
      "type": "function"
    },
    {
      "inputs": [],
      "name": "DEFAULT_ADMIN_ROLE",
      "outputs": [
        {
          "internalType": "bytes32",
          "name": "",
          "type": "bytes32"
        }
      ],
      "stateMutability": "view",
      "type": "function"
    },
    {
      "inputs": [
        {
          "internalType": "string",
          "name": "productName",
          "type": "string"
        },
        {
          "internalType": "string",
          "name": "metadataURI",
          "type": "string"
        },
        {
          "internalType": "uint256",
          "name": "manufactureDate",
          "type": "uint256"
        },
        {
          "internalType": "uint256",
          "name": "expiryDate",
          "type": "uint256"
        },
        {
          "internalType": "address",
          "name": "manufacturer",
          "type": "address"
        }
      ],
      "name": "createBatch",
      "outputs": [
        {
          "internalType": "uint256",
          "name": "id",
          "type": "uint256"
        }
      ],
      "stateMutability": "nonpayable",
      "type": "function"
    },
    {
      "inputs": [
        {
          "internalType": "uint256",
          "name": "batchId",
          "type": "uint256"
        }
      ],
      "name": "getBatch",
      "outputs": [
        {
          "components": [
            {
              "internalType": "string",
              "name": "productName",
              "type": "string"
            },
            {
              "internalType": "string",
              "name": "metadataURI",
              "type": "string"
            },
            {
              "internalType": "uint256",
              "name": "manufactureDate",
              "type": "uint256"
            },
            {
              "internalType": "uint256",
              "name": "expiryDate",
              "type": "uint256"
            },
            {
              "internalType": "address",
              "name": "manufacturer",
              "type": "address"
            },
            {
              "internalType": "bool",
              "name": "recalled",
              "type": "bool"
            },
            {
              "internalType": "uint256",
              "name": "createdAt",
              "type": "uint256"
            }
          ],
          "internalType": "struct BatchContract.Batch",
          "name": "",
          "type": "tuple"
        }
      ],
      "stateMutability": "view",
      "type": "function"
    },
    {
      "inputs": [
        {
          "internalType": "bytes32",
          "name": "role",
          "type": "bytes32"
        }
      ],
      "name": "getRoleAdmin",
      "outputs": [
        {
          "internalType": "bytes32",
          "name": "",
          "type": "bytes32"
        }
      ],
      "stateMutability": "view",
      "type": "function"
    },
    {
      "inputs": [
        {
          "internalType": "bytes32",
          "name": "role",
          "type": "bytes32"
        },
        {
          "internalType": "address",
          "name": "account",
          "type": "address"
        }
      ],
      "name": "grantRole",
      "outputs": [],
      "stateMutability": "nonpayable",
      "type": "function"
    },
    {
      "inputs": [
        {
          "internalType": "bytes32",
          "name": "role",
          "type": "bytes32"
        },
        {
          "internalType": "address",
          "name": "account",
          "type": "address"
        }
      ],
      "name": "hasRole",
      "outputs": [
        {
          "internalType": "bool",
          "name": "",
          "type": "bool"
        }
      ],
      "stateMutability": "view",
      "type": "function"
    },
    {
      "inputs": [
        {
          "internalType": "uint256",
          "name": "batchId",
          "type": "uint256"
        }
      ],
      "name": "isExpired",
      "outputs": [
        {
          "internalType": "bool",
          "name": "",
          "type": "bool"
        }
      ],
      "stateMutability": "view",
      "type": "function"
    },
    {
      "inputs": [],
      "name": "nextBatchId",
      "outputs": [
        {
          "internalType": "uint256",
          "name": "",
          "type": "uint256"
        }
      ],
      "stateMutability": "view",
      "type": "function"
    },
    {
      "inputs": [
        {
          "internalType": "uint256",
          "name": "batchId",
          "type": "uint256"
        },
        {
          "internalType": "string",
          "name": "reason",
          "type": "string"
        }
      ],
      "name": "recall",
      "outputs": [],
      "stateMutability": "nonpayable",
      "type": "function"
    },
    {
      "inputs": [
        {
          "internalType": "bytes32",
          "name": "role",
          "type": "bytes32"
        },
        {
          "internalType": "address",
          "name": "account",
          "type": "address"
        }
      ],
      "name": "renounceRole",
      "outputs": [],
      "stateMutability": "nonpayable",
      "type": "function"
    },
    {
      "inputs": [
        {
          "internalType": "bytes32",
          "name": "role",
          "type": "bytes32"
        },
        {
          "internalType": "address",
          "name": "account",
          "type": "address"
        }
      ],
      "name": "revokeRole",
      "outputs": [],
      "stateMutability": "nonpayable",
      "type": "function"
    },
    {
      "inputs": [
        {
          "internalType": "bytes4",
          "name": "interfaceId",
          "type": "bytes4"
        }
      ],
      "name": "supportsInterface",
      "outputs": [
        {
          "internalType": "bool",
          "name": "",
          "type": "bool"
        }
      ],
      "stateMutability": "view",
      "type": "function"
    }
  ],
  "bytecode": "0x60803461013257601f61136638819003918201601f1916830192916001600160401b03841183851017610137578083926040958652833960209283918101031261013257516001600160a01b03811690819003610132576001600255600091828052828152838320828452815260ff8484205416156100fc575b7f28eb28c26cbbd48a6bfad016505ccf4a189452995f59d16217af8920961ed25c90818452838152848420838552815260ff8585205416156100c4575b84516111f8908161014e8239f35b8184528381528484209083855252838320600160ff19825416179055600080516020611346833981519152339380a4388080806100b6565b8280528281528383208284528152838320805460ff191660011790553382846000805160206113468339815191528180a4610079565b600080fd5b634e487b7160e01b600052604160045260246000fdfe608080604052600436101561001357600080fd5b60003560e01c90816301ffc9a714610a59575080630ed5bdae146105b55780630f50d8131461057a578063248a9ca31461054b5780632f2ff15d1461049757806336568abe1461040557806338d44ad51461035d5780635ac442821461022d5780638462a7f81461020f57806391d14854146101c1578063a217fddf146101a5578063d547741f146101645763d9548e53146100ae57600080fd5b3461015f57602036600319011261015f576004356000526001602052604060002060c06040516100dd81610e75565b6100e68361111c565b81526100f46001840161111c565b60208201526002830154604082015260056003840154936060830194855260ff60048201546001600160a01b038116608086015260a01c16151560a0840152015491829101521561014d57602090514211604051908152f35b60405163c5723b5160e01b8152600490fd5b600080fd5b3461015f57604036600319011261015f576101a3600435610183610ada565b9080600052600060205261019e600160406000200154610d65565b610ecf565b005b3461015f57600036600319011261015f57602060405160008152f35b3461015f57604036600319011261015f576101da610ada565b60043560005260006020526001600160a01b0360406000209116600052602052602060ff604060002054166040519015158152f35b3461015f57600036600319011261015f576020600254604051908152f35b3461015f5760208060031936011261015f57600060c060405161024f81610e75565b606081526060848201528260408201528260608201528260808201528260a082015201526004356000526001815260406000206040519061028f82610e75565b6102988161111c565b82526102a66001820161111c565b928083019384526002820154916040840192835260038101549060608501918252600481015491608086019060056001600160a01b0393848616845260ff60a08a019660a01c161515865201549460c08801958087521561014d5760e098610324610337926040519b8c9b828d5251918c01526101008b0190610b13565b9051898203601f190160408b0152610b13565b95516060880152516080870152511660a085015251151560c08401525160e08301520390f35b3461015f57604036600319011261015f5760043560243567ffffffffffffffff811161015f57610391903690600401610aac565b9061039a610b38565b82600052600160205260406000209160058301541561014d5760047f8f8994662430cbb3a0b089f812f1c51f46ef020e2ccc019cee8988c3312b4a669301600160a01b60ff60a01b198254161790556104006040519283926020845260208401916110fb565b0390a2005b3461015f57604036600319011261015f5761041e610ada565b336001600160a01b0382160361043a576101a390600435610ecf565b60405162461bcd60e51b815260206004820152602f60248201527f416363657373436f6e74726f6c3a2063616e206f6e6c792072656e6f756e636560448201526e103937b632b9903337b91039b2b63360891b6064820152608490fd5b3461015f57604036600319011261015f576004356104b3610ada565b8160005260006020526104cd600160406000200154610d65565b8160005260006020526001600160a01b0360406000209116908160005260205260ff60406000205416156104fd57005b8160005260006020526040600020816000526020526040600020600160ff1982541617905533917f2f8788117e7eff1d82e926ec794901d17c78024a50270940304540a733656f0d600080a4005b3461015f57602036600319011261015f5760043560005260006020526020600160406000200154604051908152f35b3461015f57600036600319011261015f5760206040517f28eb28c26cbbd48a6bfad016505ccf4a189452995f59d16217af8920961ed25c8152f35b3461015f5760a036600319011261015f5760043567ffffffffffffffff811161015f576105e6903690600401610aac565b60243567ffffffffffffffff811161015f57610606903690600401610aac565b608492919235916001600160a01b038316830361015f57610625610b38565b80158015610a51575b610a3f576044356064351180610a34575b15610a06576002549360001985146109f05761067d90600186016002556040519361066985610e75565b61067436858a61107a565b8552369161107a565b6020830152604435604083015260643560608301526001600160a01b0383166080830152600060a08301524260c08301528360005260016020526040600020825180519067ffffffffffffffff82116109135781906106dc84546110c1565b601f81116109a0575b50602090601f831160011461093457600092610929575b50508160011b916000199060031b1c19161781555b602083015180519067ffffffffffffffff82116109135761073560018401546110c1565b601f81116108cc575b5091869391602098938990601f831160011461083157968260059360c0937f9e1a4c9f9c1b1a06cf8079472fa44345759d5f173e6134740adae2e4f698c526999a600092610826575b50508160011b916000199060031b1c19161760018501555b6040810151600285015560608101516003850155600484016001600160a01b0360808301511681549060ff60a01b60a0850151151560a01b16916affffffffffffffffffffff60a81b161717905501519101556001600160a01b036108116040519384936040855260408501916110fb565b956064358984015216940390a3604051908152f35b015190508d80610787565b60018498939298016000528a6000209060005b601f19841681106108b2575082600594927f9e1a4c9f9c1b1a06cf8079472fa44345759d5f173e6134740adae2e4f698c526999a60019360c096601f19811610610899575b505050811b01600185015561079f565b015160001960f88460031b161c191690558d8080610889565b818a01518355988c01988b98506001909201918c01610844565b600184016000526020600020601f840160051c81016020851061090c575b601f830160051c8201811061090057505061073e565b600081556001016108ea565b50806108ea565b634e487b7160e01b600052604160045260246000fd5b0151905088806106fc565b9250836000526020600020906000935b601f1984168510610985576001945083601f1981161061096c575b505050811b018155610711565b015160001960f88460031b161c1916905588808061095f565b81810151835560209485019460019093019290910190610944565b909150836000526020600020601f840160051c8101602085106109e9575b90849392915b601f830160051c820181106109da5750506106e5565b600081558594506001016109c4565b50806109be565b634e487b7160e01b600052601160045260246000fd5b60405162461bcd60e51b815260206004820152600660248201526565787069727960d01b6044820152606490fd5b50426064351161063f565b604051632bb9acf760e01b8152600490fd5b50811561062e565b3461015f57602036600319011261015f576004359063ffffffff60e01b821680920361015f57602091637965db0b60e01b8114908115610a9b575b5015158152f35b6301ffc9a760e01b14905083610a94565b9181601f8401121561015f5782359167ffffffffffffffff831161015f576020838186019501011161015f57565b602435906001600160a01b038216820361015f57565b60005b838110610b035750506000910152565b8181015183820152602001610af3565b90602091610b2c81518092818552858086019101610af0565b601f01601f1916010190565b3360009081527f0eca2fdc6ecf34558d66be619b512eb8aeceae095ef0d035077dd168378bea5f602090815260408083205490927f28eb28c26cbbd48a6bfad016505ccf4a189452995f59d16217af8920961ed25c9160ff1615610b9c5750505050565b610ba533610f6b565b91845190610bb282610e91565b60428252848201926060368537825115610d515760308453825190600191821015610d515790607860218501536041915b818311610ce357505050610ca1576048610c9d938693610c8193610c7298519889937f416363657373436f6e74726f6c3a206163636f756e74200000000000000000008a860152610c3d815180928c603789019101610af0565b8401917f206973206d697373696e6720726f6c6520000000000000000000000000000000603784015251809386840190610af0565b01036028810187520185610ead565b5192839262461bcd60e51b845260048401526024830190610b13565b0390fd5b60648486519062461bcd60e51b825280600483015260248201527f537472696e67733a20686578206c656e67746820696e73756666696369656e746044820152fd5b909192600f81166010811015610d3d576f181899199a1a9b1b9c1cb0b131b232b360811b901a610d138587610f44565b5360041c928015610d2957600019019190610be3565b634e487b7160e01b82526011600452602482fd5b634e487b7160e01b83526032600452602483fd5b634e487b7160e01b81526032600452602490fd5b600090808252602090828252604092838120338252835260ff848220541615610d8e5750505050565b610d9733610f6b565b91845190610da482610e91565b60428252848201926060368537825115610d515760308453825190600191821015610d515790607860218501536041915b818311610e2f57505050610ca1576048610c9d938693610c8193610c7298519889937f416363657373436f6e74726f6c3a206163636f756e74200000000000000000008a860152610c3d815180928c603789019101610af0565b909192600f81166010811015610d3d576f181899199a1a9b1b9c1cb0b131b232b360811b901a610e5f8587610f44565b5360041c928015610d2957600019019190610dd5565b60e0810190811067ffffffffffffffff82111761091357604052565b6080810190811067ffffffffffffffff82111761091357604052565b90601f8019910116810190811067ffffffffffffffff82111761091357604052565b90600091808352826020526001600160a01b036040842092169182845260205260ff604084205416610f0057505050565b80835282602052604083208284526020526040832060ff1981541690557ff6391f5c32d9c69d2a47ea670b442974b53935d1edc7fd64eb21e047a839171b339380a4565b908151811015610f55570160200190565b634e487b7160e01b600052603260045260246000fd5b604051906060820182811067ffffffffffffffff82111761091357604052602a8252602082016040368237825115610f5557603090538151600190811015610f5557607860218401536029905b80821161100c575050610fc85790565b606460405162461bcd60e51b815260206004820152602060248201527f537472696e67733a20686578206c656e67746820696e73756666696369656e746044820152fd5b9091600f81166010811015611065576f181899199a1a9b1b9c1cb0b131b232b360811b901a61103b8486610f44565b5360041c918015611050576000190190610fb8565b60246000634e487b7160e01b81526011600452fd5b60246000634e487b7160e01b81526032600452fd5b92919267ffffffffffffffff821161091357604051916110a4601f8201601f191660200184610ead565b82948184528183011161015f578281602093846000960137010152565b90600182811c921680156110f1575b60208310146110db57565b634e487b7160e01b600052602260045260246000fd5b91607f16916110d0565b908060209392818452848401376000828201840152601f01601f1916010190565b9060405191826000825492611130846110c1565b90818452600194858116908160001461119f575060011461115c575b505061115a92500383610ead565b565b9093915060005260209081600020936000915b81831061118757505061115a9350820101388061114c565b8554888401850152948501948794509183019161116f565b91505061115a94506020925060ff191682840152151560051b820101388061114c56fea2646970667358221220273131db72b78a43d091fd1f6d44f42a689064bc7891d261faa50aaa3d1709d264736f6c634300081300332f8788117e7eff1d82e926ec794901d17c78024a50270940304540a733656f0d",
  "linkReferences": {},
  "deployedLinkReferences": {}
}