{
  "_format": "hh-sol-artifact-1",
  "contractName": "StakeholderContract",
  "sourceName": "contracts/StakeholderContract.sol",
  "abi": [
    {
      "inputs": [
        {
          "internalType": "address",
          "name": "admin",
          "type": "address"
        }
      ],
      "stateMutability": "nonpayable",
      "type": "constructor"
    },
    {
      "inputs": [],
      "name": "AlreadyRegistered",
      "type": "error"
    },
    {
      "inputs": [],
      "name": "BadInput",
      "type": "error"
    },
    {
      "inputs": [],
      "name": "NotRegistered",
      "type": "error"
    },
    {
      "anonymous": false,
      "inputs": [
        {
          "indexed": true,
          "internalType": "address",
          "name": "wallet",
          "type": "address"
        },
        {
          "indexed": false,
          "internalType": "string",
          "name": "name",
          "type": "string"
        },
        {
          "indexed": false,
          "internalType": "enum StakeholderContract.Role",
          "name": "role",
          "type": "uint8"
        }
      ],
      "name": "CompanyRegistered",
      "type": "event"
    },
    {
      "anonymous": false,
      "inputs": [
        {
          "indexed": true,
          "internalType": "address",
          "name": "wallet",
          "type": "address"
        },
        {
          "indexed": false,
          "internalType": "bool",
          "name": "kycCompleted",
          "type": "bool"
        },
        {
          "indexed": false,
          "internalType": "string",
          "name": "kycReference",
          "type": "string"
        },
        {
          "indexed": false,
          "internalType": "bool",
          "name": "active",
          "type": "bool"
        }
      ],
      "name": "CompanyUpdated",
      "type": "event"
    },
    {
      "anonymous": false,
      "inputs": [
        {
          "indexed": true,
          "internalType": "bytes32",
          "name": "role",
          "type": "bytes32"
        },
        {
          "indexed": true,
          "internalType": "bytes32",
          "name": "previousAdminRole",
          "type": "bytes32"
        },
        {
          "indexed": true,
          "internalType": "bytes32",
          "name": "newAdminRole",
          "type": "bytes32"
        }
      ],
      "name": "RoleAdminChanged",
      "type": "event"
    },
    {
      "anonymous": false,
      "inputs": [
        {
          "indexed": true,
          "internalType": "bytes32",
          "name": "role",
          "type": "bytes32"
        },
        {
          "indexed": true,
          "internalType": "address",
          "name": "account",
          "type": "address"
        },
        {
          "indexed": true,
          "internalType": "address",
          "name": "sender",
          "type": "address"
        }
      ],
      "name": "RoleGranted",
      "type": "event"
    },
    {
      "anonymous": false,
      "inputs": [
        {
          "indexed": true,
          "internalType": "bytes32",
          "name": "role",
          "type": "bytes32"
        },
        {
          "indexed": true,
          "internalType": "address",
          "name": "account",
          "type": "address"
        },
        {
          "indexed": true,
          "internalType": "address",
          "name": "sender",
          "type": "address"
        }
      ],
      "name": "RoleRevoked",
      "type": "event"
    },
    {
      "inputs": [],
      "name": "DEFAULT_ADMIN_ROLE",
      "outputs": [
        {
          "internalType": "bytes32",
          "name": "",
          "type": "bytes32"
        }
      ],
      "stateMutability": "view",
      "type": "function"
    },
    {
      "inputs": [],
      "name": "REGISTRAR_ROLE",
      "outputs": [
        {
          "internalType": "bytes32",
          "name": "",
          "type": "bytes32"
        }
      ],
      "stateMutability": "view",
      "type": "function"
    },
    {
      "inputs": [
        {
          "internalType": "address",
          "name": "wallet",
          "type": "address"
        }
      ],
      "name": "getCompany",
      "outputs": [
        {
          "components": [
            {
              "internalType": "string",
              "name": "name",
              "type": "string"
            },
            {
              "internalType": "enum StakeholderContract.Role",
              "name": "role",
              "type": "uint8"
            },
            {
              "internalType": "bool",
              "name": "kycCompleted",
              "type": "bool"
            },
            {
              "internalType": "string",
              "name": "kycReference",
              "type": "string"
            },
            {
              "internalType": "address",
              "name": "wallet",
              "type": "address"
            },
            {
              "internalType": "uint256",
              "name": "registeredAt",
              "type": "uint256"
            },
            {
              "internalType": "bool",
              "name": "active",
              "type": "bool"
            }
          ],
          "internalType": "struct StakeholderContract.Company",
          "name": "",
          "type": "tuple"
        }
      ],
      "stateMutability": "view",
      "type": "function"
    },
    {
      "inputs": [
        {
          "internalType": "bytes32",
          "name": "role",
          "type": "bytes32"
        }
      ],
      "name": "getRoleAdmin",
      "outputs": [
        {
          "internalType": "bytes32",
          "name": "",
          "type": "bytes32"
        }
      ],
      "stateMutability": "view",
      "type": "function"
    },
    {
      "inputs": [
        {
          "internalType": "bytes32",
          "name": "role",
          "type": "bytes32"
        },
        {
          "internalType": "address",
          "name": "account",
          "type": "address"
        }
      ],
      "name": "grantRole",
      "outputs": [],
      "stateMutability": "nonpayable",
      "type": "function"
    },
    {
      "inputs": [
        {
          "internalType": "bytes32",
          "name": "role",
          "type": "bytes32"
        },
        {
          "internalType": "address",
          "name": "account",
          "type": "address"
        }
      ],
      "name": "hasRole",
      "outputs": [
        {
          "internalType": "bool",
          "name": "",
          "type": "bool"
        }
      ],
      "stateMutability": "view",
      "type": "function"
    },
    {
      "inputs": [],
      "name": "listCompanies",
      "outputs": [
        {
          "components": [
            {
              "internalType": "string",
              "name": "name",
              "type": "string"
            },
            {
              "internalType": "enum StakeholderContract.Role",
              "name": "role",
              "type": "uint8"
            },
            {
              "internalType": "bool",
              "name": "kycCompleted",
              "type": "bool"
            },
            {
              "internalType": "string",
              "name": "kycReference",
              "type": "string"
            },
            {
              "internalType": "address",
              "name": "wallet",
              "type": "address"
            },
            {
              "internalType": "uint256",
              "name": "registeredAt",
              "type": "uint256"
            },
            {
              "internalType": "bool",
              "name": "active",
              "type": "bool"
            }
          ],
          "internalType": "struct StakeholderContract.Company[]",
          "name": "",
          "type": "tuple[]"
        }
      ],
      "stateMutability": "view",
      "type": "function"
    },
    {
      "inputs": [
        {
          "internalType": "address",
          "name": "wallet",
          "type": "address"
        },
        {
          "internalType": "string",
          "name": "name",
          "type": "string"
        },
        {
          "internalType": "enum StakeholderContract.Role",
          "name": "role",
          "type": "uint8"
        }
      ],
      "name": "registerCompany",
      "outputs": [],
      "stateMutability": "nonpayable",
      "type": "function"
    },
    {
      "inputs": [
        {
          "internalType": "bytes32",
          "name": "role",
          "type": "bytes32"
        },
        {
          "internalType": "address",
          "name": "account",
          "type": "address"
        }
      ],
      "name": "renounceRole",
      "outputs": [],
      "stateMutability": "nonpayable",
      "type": "function"
    },
    {
      "inputs": [
        {
          "internalType": "bytes32",
          "name": "role",
          "type": "bytes32"
        },
        {
          "internalType": "address",
          "name": "account",
          "type": "address"
        }
      ],
      "name": "revokeRole",
      "outputs": [],
      "stateMutability": "nonpayable",
      "type": "function"
    },
    {
      "inputs": [
        {
          "internalType": "address",
          "name": "wallet",
          "type": "address"
        },
        {
          "internalType": "bool",
          "name": "active",
          "type": "bool"
        }
      ],
      "name": "setActive",
      "outputs": [],
      "stateMutability": "nonpayable",
      "type": "function"
    },
    {
      "inputs": [
        {
          "internalType": "address",
          "name": "wallet",
          "type": "address"
        },
        {
          "internalType": "bool",
          "name": "completed",
          "type": "bool"
        },
        {
          "internalType": "string",
          "name": "kycReference",
          "type": "string"
        }
      ],
      "name": "setKYC",
      "outputs": [],
      "stateMutability": "nonpayable",
      "type": "function"
    },
    {
      "inputs": [
        {
          "internalType": "bytes4",
          "name": "interfaceId",
          "type": "bytes4"
        }
      ],
      "name": "supportsInterface",
      "outputs": [
        {
          "internalType": "bool",
          "name": "",
          "type": "bool"
        }
      ],
      "stateMutability": "view",
      "type": "function"
    }
  ],
  "bytecode": "0x60803461013157601f620016ec38819003918201601f1916830192916001600160401b03841183851017610136578083926040958652833960209283918101031261013157516001600160a01b0381169081900361013157600091828052828152838320828452815260ff8484205416156100fa575b7fedcc084d3dcd65a1f7f23c65c46722faca6953d28e43150a467cf43e5c30923890818452838152848420838552815260ff8585205416156100c1575b845161157f90816200014d8239f35b8184528381528484209083855252838320600160ff19825416179055600080516020620016cc833981519152339380a4388080806100b2565b8280528281528383208284528152838320805460ff19166001179055338284600080516020620016cc8339815191528180a4610075565b600080fd5b634e487b7160e01b600052604160045260246000fdfe608080604052600436101561001357600080fd5b60003560e01c90816301ffc9a714610c9857508063248a9ca314610c695780632ce962cf14610bb55780632f2ff15d14610b0157806336568abe14610a6f57806344187237146108c257806362bc56e6146107e15780638e320bda1461060c57806391d14854146105be578063a217fddf146105a2578063c3c8b27c1461012f578063d547741f146100ee5763f68e9553146100ae57600080fd5b346100e95760003660031901126100e95760206040517fedcc084d3dcd65a1f7f23c65c46722faca6953d28e43150a467cf43e5c3092388152f35b600080fd5b346100e95760403660031901126100e95761012d60043561010d610d01565b90806000526000602052610128600160406000200154611048565b6111b2565b005b346100e95760603660031901126100e957610148610ceb565b60243567ffffffffffffffff81116100e957610168903690600401610ded565b91906044359260058410156100e95761017f610e1b565b6001600160a01b03831615801561059a575b8015610592575b610580576001600160a01b038316600052600160205260046040600020015461056e576040516101c781611158565b67ffffffffffffffff8211610447576040516101ed601f8401601f191660200182611190565b82815236838501116100e957828460208301376000602084830101528152610218856020830161135d565b6000604082015260405180602081011067ffffffffffffffff60208301111761044757602081016040526000815260608201526001600160a01b03841660808201524260a0820152600160c08201526001600160a01b0384166000526001602052604060002090805180519067ffffffffffffffff82116104475781906102a9826102a38754611369565b876113a3565b602090601f8311600114610502576000926104f7575b50508160011b916000199060031b1c19161782555b60208101516001830160058210156104e1578054604084015161ff0090151560081b1660ff9390931661ffff1990911617919091179055606081015180519067ffffffffffffffff82116104475761033c826103336002870154611369565b600287016113a3565b602090601f831160011461046857928260059360c0936103b9979660009261045d575b50508160011b916000199060031b1c19161760028501555b600384016001600160a01b036080830151166001600160a01b031982541617905560a081015160048501550151151591019060ff801983541691151516179055565b60025468010000000000000000811015610447577f69eee46bd182487ea2234921833a3c4dd7860678ce16cfc25127141be78b9c02936104078260016001600160a01b0394016002556113f7565b81549060031b9084808516831b921b191617905561044061043560405195869560408752604087019161142e565b966020850190610d6e565b16930390a2005b634e487b7160e01b600052604160045260246000fd5b015190508b8061035f565b906002850160005260206000209160005b601f19851681106104c957508360c0936103b9979693600193600597601f198116106104b0575b505050811b016002850155610377565b015160001960f88460031b161c191690558b80806104a0565b91926020600181928685015181550194019201610479565b634e487b7160e01b600052602160045260246000fd5b0151905088806102bf565b9250846000526020600020906000935b601f1984168510610553576001945083601f1981161061053a575b505050811b0182556102d4565b015160001960f88460031b161c1916905588808061052d565b81810151835560209485019460019093019290910190610512565b604051630ea075bf60e21b8152600490fd5b604051632bb9acf760e01b8152600490fd5b508315610198565b508015610191565b346100e95760003660031901126100e957602060405160008152f35b346100e95760403660031901126100e9576105d7610d01565b60043560005260006020526001600160a01b0360406000209116600052602052602060ff604060002054166040519015158152f35b346100e95760603660031901126100e957610625610ceb565b61062d610d17565b6044359067ffffffffffffffff908183116100e9576106586001600160a01b03933690600401610ded565b939094610663610e1b565b16928360005260016020938185526040600020916004830154156107cf57828101805461ff00191686151560081b61ff001617905560028301918411610447576106b7846106b18454611369565b846113a3565b6000601f85116001146107425761072a937feb5bf70dd3d6056bd71cd8d630a02ffbebf29f4103b77285f9225a3e3cb48484989993868060ff95600595600093610737575b501b906000198960031b1c19161790555b01541692606060405196879615158752860152606085019161142e565b90151560408301520390a2005b88013592508e6106fc565b601f1985169083600052876000209160005b8181106107ba57509360ff9360059361072a9793897feb5bf70dd3d6056bd71cd8d630a02ffbebf29f4103b77285f9225a3e3cb484849d9e98106107a0575b505087811b01905561070d565b87013560001960038b901b60f8161c191690558c80610793565b8b830135845592840192918901918901610754565b60405163aba4733960e01b8152600490fd5b346100e95760203660031901126100e9576107fa610ceb565b6108026114e5565b506001600160a01b03809116600052600160205260406000206040519161082883611158565b60405161084081610839818661144f565b0382611190565b835260ff60018301546108588282166020870161135d565b60081c161515604084015260405161087781610839816002870161144f565b6060840152600382015416608083015260ff60056004830154928360a0860152015416151560c0830152156107cf576108be90604051918291602083526020830190610d7b565b0390f35b346100e95760003660031901126100e957600280546108e08161151d565b916108ee6040519384611190565b818352601f196108fd8361151d565b0160005b818110610a5857505060005b828110610973576040805160208082528651818301819052600093600582901b8401810192808a01929185015b8287106109475785850386f35b909192938280610963600193603f198a82030186528851610d7b565b960192019601959291909261093a565b60056109db610981836113f7565b6001600160a01b03939193809454600392831b1c16600052600193602091858352604060002092604051966109b588611158565b6040516109c681610839818961144f565b885284015460ff968792838316908a0161135d565b60081c16151560408701526040516109f981610839818c880161144f565b6060870152820154166080850152600481015460a0850152015416151560c0820152610a258286611535565b52610a308185611535565b506000198114610a425760010161090d565b634e487b7160e01b600052601160045260246000fd5b602090610a636114e5565b82828801015201610901565b346100e95760403660031901126100e957610a88610d01565b336001600160a01b03821603610aa45761012d906004356111b2565b60405162461bcd60e51b815260206004820152602f60248201527f416363657373436f6e74726f6c3a2063616e206f6e6c792072656e6f756e636560448201526e103937b632b9903337b91039b2b63360891b6064820152608490fd5b346100e95760403660031901126100e957600435610b1d610d01565b816000526000602052610b37600160406000200154611048565b8160005260006020526001600160a01b0360406000209116908160005260205260ff6040600020541615610b6757005b8160005260006020526040600020816000526020526040600020600160ff1982541617905533917f2f8788117e7eff1d82e926ec794901d17c78024a50270940304540a733656f0d600080a4005b346100e95760403660031901126100e957610bce610ceb565b6001600160a01b03610bde610d17565b91610be7610e1b565b169081600052600160205260406000206004810154156107cf5781610c3c7feb5bf70dd3d6056bd71cd8d630a02ffbebf29f4103b77285f9225a3e3cb4848493600584019060ff801983541691151516179055565b60ff600183015460081c169061072a6040519384931515845260606020850152600260608501910161144f565b346100e95760203660031901126100e95760043560005260006020526020600160406000200154604051908152f35b346100e95760203660031901126100e9576004359063ffffffff60e01b82168092036100e957602091637965db0b60e01b8114908115610cda575b5015158152f35b6301ffc9a760e01b14905083610cd3565b600435906001600160a01b03821682036100e957565b602435906001600160a01b03821682036100e957565b6024359081151582036100e957565b60005b838110610d395750506000910152565b8181015183820152602001610d29565b90602091610d6281518092818552858086019101610d26565b601f01601f1916010190565b9060058210156104e15752565b9060c080610dc5610d95855160e0865260e0860190610d49565b610da760208701516020870190610d6e565b60408601511515604086015260608601518582036060870152610d49565b936001600160a01b03608082015116608085015260a081015160a08501520151151591015290565b9181601f840112156100e95782359167ffffffffffffffff83116100e957602083818601950101116100e957565b3360009081527f01ddc098da42acdf4176da08ec75800bc0fb2bce2be978b2037bcb0ae6966519602090815260408083205490927fedcc084d3dcd65a1f7f23c65c46722faca6953d28e43150a467cf43e5c3092389160ff1615610e7f5750505050565b610e883361124e565b91845190610e9582611174565b6042825284820192606036853782511561103457603084538251906001918210156110345790607860218501536041915b818311610fc657505050610f84576048610f80938693610f6493610f5598519889937f416363657373436f6e74726f6c3a206163636f756e74200000000000000000008a860152610f20815180928c603789019101610d26565b8401917f206973206d697373696e6720726f6c6520000000000000000000000000000000603784015251809386840190610d26565b01036028810187520185611190565b5192839262461bcd60e51b845260048401526024830190610d49565b0390fd5b60648486519062461bcd60e51b825280600483015260248201527f537472696e67733a20686578206c656e67746820696e73756666696369656e746044820152fd5b909192600f81166010811015611020576f181899199a1a9b1b9c1cb0b131b232b360811b901a610ff68587611227565b5360041c92801561100c57600019019190610ec6565b634e487b7160e01b82526011600452602482fd5b634e487b7160e01b83526032600452602483fd5b634e487b7160e01b81526032600452602490fd5b600090808252602090828252604092838120338252835260ff8482205416156110715750505050565b61107a3361124e565b9184519061108782611174565b6042825284820192606036853782511561103457603084538251906001918210156110345790607860218501536041915b81831161111257505050610f84576048610f80938693610f6493610f5598519889937f416363657373436f6e74726f6c3a206163636f756e74200000000000000000008a860152610f20815180928c603789019101610d26565b909192600f81166010811015611020576f181899199a1a9b1b9c1cb0b131b232b360811b901a6111428587611227565b5360041c92801561100c576000190191906110b8565b60e0810190811067ffffffffffffffff82111761044757604052565b6080810190811067ffffffffffffffff82111761044757604052565b90601f8019910116810190811067ffffffffffffffff82111761044757604052565b90600091808352826020526001600160a01b036040842092169182845260205260ff6040842054166111e357505050565b80835282602052604083208284526020526040832060ff1981541690557ff6391f5c32d9c69d2a47ea670b442974b53935d1edc7fd64eb21e047a839171b339380a4565b908151811015611238570160200190565b634e487b7160e01b600052603260045260246000fd5b604051906060820182811067ffffffffffffffff82111761044757604052602a82526020820160403682378251156112385760309053815160019081101561123857607860218401536029905b8082116112ef5750506112ab5790565b606460405162461bcd60e51b815260206004820152602060248201527f537472696e67733a20686578206c656e67746820696e73756666696369656e746044820152fd5b9091600f81166010811015611348576f181899199a1a9b1b9c1cb0b131b232b360811b901a61131e8486611227565b5360041c91801561133357600019019061129b565b60246000634e487b7160e01b81526011600452fd5b60246000634e487b7160e01b81526032600452fd5b60058210156104e15752565b90600182811c92168015611399575b602083101461138357565b634e487b7160e01b600052602260045260246000fd5b91607f1691611378565b90601f81116113b157505050565b600091825260208220906020601f850160051c830194106113ed575b601f0160051c01915b8281106113e257505050565b8181556001016113d6565b90925082906113cd565b6002548110156112385760026000527f405787fa12a823e0f2b7631cc41b3ba8828b3321ca811111fa75cd3aa3bb5ace0190600090565b908060209392818452848401376000828201840152601f01601f1916010190565b906000929180549161146083611369565b9182825260019384811690816000146114c25750600114611482575b50505050565b90919394506000526020928360002092846000945b8386106114ae57505050500101903880808061147c565b805485870183015294019385908201611497565b9294505050602093945060ff191683830152151560051b0101903880808061147c565b604051906114f282611158565b600060c083606081528260208201528260408201526060808201528260808201528260a08201520152565b67ffffffffffffffff81116104475760051b60200190565b80518210156112385760209160051b01019056fea2646970667358221220dedc10bf23082c8c667b3d5dd3e4d993606b73a95280e226740cbb5972ee8a5a64736f6c634300081300332f8788117e7eff1d82e926ec794901d17c78024a50270940304540a733656f0d",
  "linkReferences": {},
  "deployedLinkReferences": {}
}