{
  "_format": "hh-sol-artifact-1",
  "contractName": "PharbitGovernance",
  "sourceName": "contracts/PharbitGovernance.sol",
  "abi": [
    {
      "inputs": [
        {
          "internalType": "address",
          "name": "admin",
          "type": "address"
        },
        {
          "internalType": "int16",
          "name": "minTempC",
          "type": "int16"
        },
        {
          "internalType": "int16",
          "name": "maxTempC",
          "type": "int16"
        },
        {
          "internalType": "uint256",
          "name": "sensorWindowSec",
          "type": "uint256"
        }
      ],
      "stateMutability": "nonpayable",
      "type": "constructor"
    },
    {
      "inputs": [],
      "name": "AccessControlBadConfirmation",
      "type": "error"
    },
    {
      "inputs": [
        {
          "internalType": "address",
          "name": "account",
          "type": "address"
        },
        {
          "internalType": "bytes32",
          "name": "neededRole",
          "type": "bytes32"
        }
      ],
      "name": "AccessControlUnauthorizedAccount",
      "type": "error"
    },
    {
      "anonymous": false,
      "inputs": [
        {
          "components": [
            {
              "internalType": "int16",
              "name": "minTempC",
              "type": "int16"
            },
            {
              "internalType": "int16",
              "name": "maxTempC",
              "type": "int16"
            },
            {
              "internalType": "uint256",
              "name": "sensorWindowSec",
              "type": "uint256"
            }
          ],
          "indexed": false,
          "internalType": "struct PharbitGovernance.Params",
          "name": "params",
          "type": "tuple"
        }
      ],
      "name": "ParamsUpdated",
      "type": "event"
    },
    {
      "anonymous": false,
      "inputs": [
        {
          "indexed": true,
          "internalType": "bytes32",
          "name": "role",
          "type": "bytes32"
        },
        {
          "indexed": true,
          "internalType": "bytes32",
          "name": "previousAdminRole",
          "type": "bytes32"
        },
        {
          "indexed": true,
          "internalType": "bytes32",
          "name": "newAdminRole",
          "type": "bytes32"
        }
      ],
      "name": "RoleAdminChanged",
      "type": "event"
    },
    {
      "anonymous": false,
      "inputs": [
        {
          "indexed": true,
          "internalType": "bytes32",
          "name": "role",
          "type": "bytes32"
        },
        {
          "indexed": true,
          "internalType": "address",
          "name": "account",
          "type": "address"
        },
        {
          "indexed": true,
          "internalType": "address",
          "name": "sender",
          "type": "address"
        }
      ],
      "name": "RoleGranted",
      "type": "event"
    },
    {
      "anonymous": false,
      "inputs": [
        {
          "indexed": true,
          "internalType": "bytes32",
          "name": "role",
          "type": "bytes32"
        },
        {
          "indexed": true,
          "internalType": "address",
          "name": "account",
          "type": "address"
        },
        {
          "indexed": true,
          "internalType": "address",
          "name": "sender",
          "type": "address"
        }
      ],
      "name": "RoleRevoked",
      "type": "event"
    },
    {
      "inputs": [],
      "name": "DEFAULT_ADMIN_ROLE",
      "outputs": [
        {
          "internalType": "bytes32",
          "name": "",
          "type": "bytes32"
        }
      ],
      "stateMutability": "view",
      "type": "function"
    },
    {
      "inputs": [],
      "name": "GOVERNOR_ROLE",
      "outputs": [
        {
          "internalType": "bytes32",
          "name": "",
          "type": "bytes32"
        }
      ],
      "stateMutability": "view",
      "type": "function"
    },
    {
      "inputs": [
        {
          "internalType": "bytes32",
          "name": "role",
          "type": "bytes32"
        }
      ],
      "name": "getRoleAdmin",
      "outputs": [
        {
          "internalType": "bytes32",
          "name": "",
          "type": "bytes32"
        }
      ],
      "stateMutability": "view",
      "type": "function"
    },
    {
      "inputs": [
        {
          "internalType": "bytes32",
          "name": "role",
          "type": "bytes32"
        },
        {
          "internalType": "address",
          "name": "account",
          "type": "address"
        }
      ],
      "name": "grantRole",
      "outputs": [],
      "stateMutability": "nonpayable",
      "type": "function"
    },
    {
      "inputs": [
        {
          "internalType": "bytes32",
          "name": "role",
          "type": "bytes32"
        },
        {
          "internalType": "address",
          "name": "account",
          "type": "address"
        }
      ],
      "name": "hasRole",
      "outputs": [
        {
          "internalType": "bool",
          "name": "",
          "type": "bool"
        }
      ],
      "stateMutability": "view",
      "type": "function"
    },
    {
      "inputs": [],
      "name": "params",
      "outputs": [
        {
          "internalType": "int16",
          "name": "minTempC",
          "type": "int16"
        },
        {
          "internalType": "int16",
          "name": "maxTempC",
          "type": "int16"
        },
        {
          "internalType": "uint256",
          "name": "sensorWindowSec",
          "type": "uint256"
        }
      ],
      "stateMutability": "view",
      "type": "function"
    },
    {
      "inputs": [
        {
          "internalType": "bytes32",
          "name": "role",
          "type": "bytes32"
        },
        {
          "internalType": "address",
          "name": "callerConfirmation",
          "type": "address"
        }
      ],
      "name": "renounceRole",
      "outputs": [],
      "stateMutability": "nonpayable",
      "type": "function"
    },
    {
      "inputs": [
        {
          "internalType": "bytes32",
          "name": "role",
          "type": "bytes32"
        },
        {
          "internalType": "address",
          "name": "account",
          "type": "address"
        }
      ],
      "name": "revokeRole",
      "outputs": [],
      "stateMutability": "nonpayable",
      "type": "function"
    },
    {
      "inputs": [
        {
          "internalType": "bytes4",
          "name": "interfaceId",
          "type": "bytes4"
        }
      ],
      "name": "supportsInterface",
      "outputs": [
        {
          "internalType": "bool",
          "name": "",
          "type": "bool"
        }
      ],
      "stateMutability": "view",
      "type": "function"
    },
    {
      "inputs": [
        {
          "components": [
            {
              "internalType": "int16",
              "name": "minTempC",
              "type": "int16"
            },
            {
              "internalType": "int16",
              "name": "maxTempC",
              "type": "int16"
            },
            {
              "internalType": "uint256",
              "name": "sensorWindowSec",
              "type": "uint256"
            }
          ],
          "internalType": "struct PharbitGovernance.Params",
          "name": "p",
          "type": "tuple"
        }
      ],
      "name": "updateParams",
      "outputs": [],
      "stateMutability": "nonpayable",
      "type": "function"
    }
  ],
  "bytecode": "0x608060405234801561001057600080fd5b506040516107ea3803806107ea83398101604081905261002f916101c8565b61003a600085610105565b506100657f7935bd0ae54bc31f548c14dba4d37c5c64b3f8ca900cb468fb8abd54d5894f5585610105565b5060408051606081018252600185810b825284810b6020830152908201839052805461ffff808616620100000263ffffffff1990921690871617178155600283905590517fe91255cc5c01ba45353278efa766a454cdb8532309f4c1005b3697039aaef05b916100f4918154600181810b835260109190911c810b602083015290910154604082015260600190565b60405180910390a150505050610221565b6000828152602081815260408083206001600160a01b038516845290915281205460ff166101a7576000838152602081815260408083206001600160a01b03861684529091529020805460ff1916600117905561015f3390565b6001600160a01b0316826001600160a01b0316847f2f8788117e7eff1d82e926ec794901d17c78024a50270940304540a733656f0d60405160405180910390a45060016101ab565b5060005b92915050565b8051600181900b81146101c357600080fd5b919050565b600080600080608085870312156101de57600080fd5b84516001600160a01b03811681146101f557600080fd5b9350610203602086016101b1565b9250610211604086016101b1565b6060959095015193969295505050565b6105ba806102306000396000f3fe608060405234801561001057600080fd5b506004361061009e5760003560e01c806391d148541161006657806391d1485414610137578063a217fddf1461014a578063ccc5749014610152578063cff0ab9614610179578063d547741f146101b757600080fd5b806301ffc9a7146100a3578063248a9ca3146100cb5780632f2ff15d146100fc57806336568abe14610111578063663ffc6514610124575b600080fd5b6100b66100b1366004610484565b6101ca565b60405190151581526020015b60405180910390f35b6100ee6100d93660046104b5565b60009081526020819052604090206001015490565b6040519081526020016100c2565b61010f61010a3660046104ce565b610201565b005b61010f61011f3660046104ce565b61022c565b61010f61013236600461050a565b610264565b6100b66101453660046104ce565b6102eb565b6100ee600081565b6100ee7f7935bd0ae54bc31f548c14dba4d37c5c64b3f8ca900cb468fb8abd54d5894f5581565b600180546002546101949282810b92620100009004900b9083565b60408051600194850b81529290930b6020830152918101919091526060016100c2565b61010f6101c53660046104ce565b610314565b60006001600160e01b03198216637965db0b60e01b14806101fb57506301ffc9a760e01b6001600160e01b03198316145b92915050565b60008281526020819052604090206001015461021c81610339565b6102268383610346565b50505050565b6001600160a01b03811633146102555760405163334bd91960e11b815260040160405180910390fd5b61025f82826103d8565b505050565b7f7935bd0ae54bc31f548c14dba4d37c5c64b3f8ca900cb468fb8abd54d5894f5561028e81610339565b81600161029b8282610535565b5050604080516001805480820b835260101c900b60208201526002548183015290517fe91255cc5c01ba45353278efa766a454cdb8532309f4c1005b3697039aaef05b9181900360600190a15050565b6000918252602082815260408084206001600160a01b0393909316845291905290205460ff1690565b60008281526020819052604090206001015461032f81610339565b61022683836103d8565b6103438133610443565b50565b600061035283836102eb565b6103d0576000838152602081815260408083206001600160a01b03861684529091529020805460ff191660011790556103883390565b6001600160a01b0316826001600160a01b0316847f2f8788117e7eff1d82e926ec794901d17c78024a50270940304540a733656f0d60405160405180910390a45060016101fb565b5060006101fb565b60006103e483836102eb565b156103d0576000838152602081815260408083206001600160a01b0386168085529252808320805460ff1916905551339286917ff6391f5c32d9c69d2a47ea670b442974b53935d1edc7fd64eb21e047a839171b9190a45060016101fb565b61044d82826102eb565b6104805760405163e2517d3f60e01b81526001600160a01b03821660048201526024810183905260440160405180910390fd5b5050565b60006020828403121561049657600080fd5b81356001600160e01b0319811681146104ae57600080fd5b9392505050565b6000602082840312156104c757600080fd5b5035919050565b600080604083850312156104e157600080fd5b8235915060208301356001600160a01b03811681146104ff57600080fd5b809150509250929050565b60006060828403121561051c57600080fd5b50919050565b600081358060010b81146101fb57600080fd5b61053e82610522565b815461ffff82811661ffff19831617845561055b60208601610522565b60101b63ffff00001681841663ffffffff1984161717845550505060408201356001820155505056fea2646970667358221220cc92c75c58331b3da3bf063a58bac54299b4e4ee79cd9b0f65f3fedd2afefa5264736f6c63430008140033",
  "linkReferences": {},
  "deployedLinkReferences": {}
}