{
  "_format": "hh-sol-artifact-1",
  "contractName": "PharbitBatch",
  "sourceName": "contracts/PharbitBatch.sol",
  "abi": [
    {
      "inputs": [
        {
          "internalType": "address",
          "name": "stakeholderContract",
          "type": "address"
        },
        {
          "internalType": "address",
          "name": "admin",
          "type": "address"
        }
      ],
      "stateMutability": "nonpayable",
      "type": "constructor"
    },
    {
      "inputs": [],
      "name": "AccessControlBadConfirmation",
      "type": "error"
    },
    {
      "inputs": [
        {
          "internalType": "address",
          "name": "account",
          "type": "address"
        },
        {
          "internalType": "bytes32",
          "name": "neededRole",
          "type": "bytes32"
        }
      ],
      "name": "AccessControlUnauthorizedAccount",
      "type": "error"
    },
    {
      "anonymous": false,
      "inputs": [
        {
          "indexed": true,
          "internalType": "string",
          "name": "batchId",
          "type": "string"
        },
        {
          "indexed": true,
          "internalType": "address",
          "name": "manufacturer",
          "type": "address"
        },
        {
          "indexed": false,
          "internalType": "uint256",
          "name": "quantity",
          "type": "uint256"
        },
        {
          "indexed": false,
          "internalType": "uint256",
          "name": "expiration",
          "type": "uint256"
        }
      ],
      "name": "BatchCreated",
      "type": "event"
    },
    {
      "anonymous": false,
      "inputs": [
        {
          "indexed": true,
          "internalType": "string",
          "name": "batchId",
          "type": "string"
        },
        {
          "indexed": false,
          "internalType": "enum PharbitBatch.BatchStatus",
          "name": "newStatus",
          "type": "uint8"
        },
        {
          "indexed": true,
          "internalType": "address",
          "name": "actor",
          "type": "address"
        }
      ],
      "name": "BatchStatusUpdated",
      "type": "event"
    },
    {
      "anonymous": false,
      "inputs": [
        {
          "indexed": true,
          "internalType": "string",
          "name": "batchId",
          "type": "string"
        },
        {
          "indexed": true,
          "internalType": "address",
          "name": "from",
          "type": "address"
        },
        {
          "indexed": true,
          "internalType": "address",
          "name": "to",
          "type": "address"
        }
      ],
      "name": "CustodyTransferred",
      "type": "event"
    },
    {
      "anonymous": false,
      "inputs": [
        {
          "indexed": true,
          "internalType": "bytes32",
          "name": "role",
          "type": "bytes32"
        },
        {
          "indexed": true,
          "internalType": "bytes32",
          "name": "previousAdminRole",
          "type": "bytes32"
        },
        {
          "indexed": true,
          "internalType": "bytes32",
          "name": "newAdminRole",
          "type": "bytes32"
        }
      ],
      "name": "RoleAdminChanged",
      "type": "event"
    },
    {
      "anonymous": false,
      "inputs": [
        {
          "indexed": true,
          "internalType": "bytes32",
          "name": "role",
          "type": "bytes32"
        },
        {
          "indexed": true,
          "internalType": "address",
          "name": "account",
          "type": "address"
        },
        {
          "indexed": true,
          "internalType": "address",
          "name": "sender",
          "type": "address"
        }
      ],
      "name": "RoleGranted",
      "type": "event"
    },
    {
      "anonymous": false,
      "inputs": [
        {
          "indexed": true,
          "internalType": "bytes32",
          "name": "role",
          "type": "bytes32"
        },
        {
          "indexed": true,
          "internalType": "address",
          "name": "account",
          "type": "address"
        },
        {
          "indexed": true,
          "internalType": "address",
          "name": "sender",
          "type": "address"
        }
      ],
      "name": "RoleRevoked",
      "type": "event"
    },
    {
      "anonymous": false,
      "inputs": [
        {
          "indexed": true,
          "internalType": "string",
          "name": "batchId",
          "type": "string"
        },
        {
          "components": [
            {
              "internalType": "int16",
              "name": "temperatureC",
              "type": "int16"
            },
            {
              "internalType": "uint8",
              "name": "humidity",
              "type": "uint8"
            },
            {
              "internalType": "int32",
              "name": "latE7",
              "type": "int32"
            },
            {
              "internalType": "int32",
              "name": "lonE7",
              "type": "int32"
            },
            {
              "internalType": "bool",
              "name": "tampering",
              "type": "bool"
            },
            {
              "internalType": "uint256",
              "name": "timestamp",
              "type": "uint256"
            }
          ],
          "indexed": false,
          "internalType": "struct PharbitBatch.SensorData",
          "name": "data",
          "type": "tuple"
        },
        {
          "indexed": true,
          "internalType": "address",
          "name": "device",
          "type": "address"
        }
      ],
      "name": "SensorDataRecorded",
      "type": "event"
    },
    {
      "inputs": [],
      "name": "ADMIN_ROLE",
      "outputs": [
        {
          "internalType": "bytes32",
          "name": "",
          "type": "bytes32"
        }
      ],
      "stateMutability": "view",
      "type": "function"
    },
    {
      "inputs": [],
      "name": "DEFAULT_ADMIN_ROLE",
      "outputs": [
        {
          "internalType": "bytes32",
          "name": "",
          "type": "bytes32"
        }
      ],
      "stateMutability": "view",
      "type": "function"
    },
    {
      "inputs": [
        {
          "internalType": "string",
          "name": "batchId",
          "type": "string"
        },
        {
          "internalType": "string",
          "name": "medicineName",
          "type": "string"
        },
        {
          "internalType": "uint256",
          "name": "quantity",
          "type": "uint256"
        },
        {
          "internalType": "uint256",
          "name": "expiration",
          "type": "uint256"
        },
        {
          "internalType": "address",
          "name": "custodian",
          "type": "address"
        }
      ],
      "name": "createBatch",
      "outputs": [],
      "stateMutability": "nonpayable",
      "type": "function"
    },
    {
      "inputs": [
        {
          "internalType": "string",
          "name": "batchId",
          "type": "string"
        }
      ],
      "name": "getBatch",
      "outputs": [
        {
          "components": [
            {
              "internalType": "string",
              "name": "batchId",
              "type": "string"
            },
            {
              "internalType": "string",
              "name": "medicineName",
              "type": "string"
            },
            {
              "internalType": "address",
              "name": "manufacturer",
              "type": "address"
            },
            {
              "internalType": "uint256",
              "name": "quantity",
              "type": "uint256"
            },
            {
              "internalType": "uint256",
              "name": "expiration",
              "type": "uint256"
            },
            {
              "internalType": "enum PharbitBatch.BatchStatus",
              "name": "status",
              "type": "uint8"
            },
            {
              "internalType": "address",
              "name": "custodian",
              "type": "address"
            }
          ],
          "internalType": "struct PharbitBatch.BatchInfo",
          "name": "",
          "type": "tuple"
        }
      ],
      "stateMutability": "view",
      "type": "function"
    },
    {
      "inputs": [
        {
          "internalType": "bytes32",
          "name": "role",
          "type": "bytes32"
        }
      ],
      "name": "getRoleAdmin",
      "outputs": [
        {
          "internalType": "bytes32",
          "name": "",
          "type": "bytes32"
        }
      ],
      "stateMutability": "view",
      "type": "function"
    },
    {
      "inputs": [
        {
          "internalType": "string",
          "name": "batchId",
          "type": "string"
        }
      ],
      "name": "getSensorData",
      "outputs": [
        {
          "components": [
            {
              "internalType": "int16",
              "name": "temperatureC",
              "type": "int16"
            },
            {
              "internalType": "uint8",
              "name": "humidity",
              "type": "uint8"
            },
            {
              "internalType": "int32",
              "name": "latE7",
              "type": "int32"
            },
            {
              "internalType": "int32",
              "name": "lonE7",
              "type": "int32"
            },
            {
              "internalType": "bool",
              "name": "tampering",
              "type": "bool"
            },
            {
              "internalType": "uint256",
              "name": "timestamp",
              "type": "uint256"
            }
          ],
          "internalType": "struct PharbitBatch.SensorData[]",
          "name": "",
          "type": "tuple[]"
        }
      ],
      "stateMutability": "view",
      "type": "function"
    },
    {
      "inputs": [
        {
          "internalType": "bytes32",
          "name": "role",
          "type": "bytes32"
        },
        {
          "internalType": "address",
          "name": "account",
          "type": "address"
        }
      ],
      "name": "grantRole",
      "outputs": [],
      "stateMutability": "nonpayable",
      "type": "function"
    },
    {
      "inputs": [
        {
          "internalType": "bytes32",
          "name": "role",
          "type": "bytes32"
        },
        {
          "internalType": "address",
          "name": "account",
          "type": "address"
        }
      ],
      "name": "hasRole",
      "outputs": [
        {
          "internalType": "bool",
          "name": "",
          "type": "bool"
        }
      ],
      "stateMutability": "view",
      "type": "function"
    },
    {
      "inputs": [
        {
          "internalType": "string",
          "name": "batchId",
          "type": "string"
        },
        {
          "components": [
            {
              "internalType": "int16",
              "name": "temperatureC",
              "type": "int16"
            },
            {
              "internalType": "uint8",
              "name": "humidity",
              "type": "uint8"
            },
            {
              "internalType": "int32",
              "name": "latE7",
              "type": "int32"
            },
            {
              "internalType": "int32",
              "name": "lonE7",
              "type": "int32"
            },
            {
              "internalType": "bool",
              "name": "tampering",
              "type": "bool"
            },
            {
              "internalType": "uint256",
              "name": "timestamp",
              "type": "uint256"
            }
          ],
          "internalType": "struct PharbitBatch.SensorData",
          "name": "data",
          "type": "tuple"
        }
      ],
      "name": "recordSensorData",
      "outputs": [],
      "stateMutability": "nonpayable",
      "type": "function"
    },
    {
      "inputs": [
        {
          "internalType": "bytes32",
          "name": "role",
          "type": "bytes32"
        },
        {
          "internalType": "address",
          "name": "callerConfirmation",
          "type": "address"
        }
      ],
      "name": "renounceRole",
      "outputs": [],
      "stateMutability": "nonpayable",
      "type": "function"
    },
    {
      "inputs": [
        {
          "internalType": "bytes32",
          "name": "role",
          "type": "bytes32"
        },
        {
          "internalType": "address",
          "name": "account",
          "type": "address"
        }
      ],
      "name": "revokeRole",
      "outputs": [],
      "stateMutability": "nonpayable",
      "type": "function"
    },
    {
      "inputs": [],
      "name": "stakeholder",
      "outputs": [
        {
          "internalType": "contract IPharbitStakeholder",
          "name": "",
          "type": "address"
        }
      ],
      "stateMutability": "view",
      "type": "function"
    },
    {
      "inputs": [
        {
          "internalType": "bytes4",
          "name": "interfaceId",
          "type": "bytes4"
        }
      ],
      "name": "supportsInterface",
      "outputs": [
        {
          "internalType": "bool",
          "name": "",
          "type": "bool"
        }
      ],
      "stateMutability": "view",
      "type": "function"
    },
    {
      "inputs": [
        {
          "internalType": "string",
          "name": "batchId",
          "type": "string"
        },
        {
          "internalType": "address",
          "name": "newCustodian",
          "type": "address"
        }
      ],
      "name": "transferCustody",
      "outputs": [],
      "stateMutability": "nonpayable",
      "type": "function"
    },
    {
      "inputs": [
        {
          "internalType": "string",
          "name": "batchId",
          "type": "string"
        },
        {
          "internalType": "enum PharbitBatch.BatchStatus",
          "name": "newStatus",
          "type": "uint8"
        }
      ],
      "name": "updateBatchStatus",
      "outputs": [],
      "stateMutability": "nonpayable",
      "type": "function"
    },
    {
      "inputs": [
        {
          "internalType": "string",
          "name": "batchId",
          "type": "string"
        }
      ],
      "name": "verifyBatch",
      "outputs": [
        {
          "components": [
            {
              "internalType": "string",
              "name": "batchId",
              "type": "string"
            },
            {
              "internalType": "string",
              "name": "medicineName",
              "type": "string"
            },
            {
              "internalType": "address",
              "name": "manufacturer",
              "type": "address"
            },
            {
              "internalType": "uint256",
              "name": "quantity",
              "type": "uint256"
            },
            {
              "internalType": "uint256",
              "name": "expiration",
              "type": "uint256"
            },
            {
              "internalType": "enum PharbitBatch.BatchStatus",
              "name": "status",
              "type": "uint8"
            },
            {
              "internalType": "address",
              "name": "custodian",
              "type": "address"
            }
          ],
          "internalType": "struct PharbitBatch.BatchInfo",
          "name": "info",
          "type": "tuple"
        },
        {
          "internalType": "bool",
          "name": "isValid",
          "type": "bool"
        }
      ],
      "stateMutability": "view",
      "type": "function"
    }
  ],
  "bytecode": "0x60806040523480156200001157600080fd5b506040516200219f3803806200219f83398101604081905262000034916200015e565b600180546001600160a01b0319166001600160a01b0384161790556200005c60008262000092565b50620000897fa49807205ce4d355092ef5a8a18f56e8913cf4a201fbe287825b095693c217758262000092565b50505062000196565b6000828152602081815260408083206001600160a01b038516845290915281205460ff1662000137576000838152602081815260408083206001600160a01b03861684529091529020805460ff19166001179055620000ee3390565b6001600160a01b0316826001600160a01b0316847f2f8788117e7eff1d82e926ec794901d17c78024a50270940304540a733656f0d60405160405180910390a45060016200013b565b5060005b92915050565b80516001600160a01b03811681146200015957600080fd5b919050565b600080604083850312156200017257600080fd5b6200017d8362000141565b91506200018d6020840162000141565b90509250929050565b611ff980620001a66000396000f3fe608060405234801561001057600080fd5b50600436106101005760003560e01c806375b238fc11610097578063d547741f11610066578063d547741f14610234578063e906dc4214610247578063f033139314610268578063f9ca42741461029357600080fd5b806375b238fc146101df57806391d1485414610206578063a217fddf14610219578063b50a3c871461022157600080fd5b80632f2ff15d116100d35780632f2ff15d1461019357806336568abe146101a65780635f570371146101b95780636f5c148e146101cc57600080fd5b806301ffc9a7146101055780630968f4c31461012d5780630ed5bdae1461014d578063248a9ca314610162575b600080fd5b610118610113366004611778565b6102b3565b60405190151581526020015b60405180910390f35b61014061013b3660046117e4565b6102ea565b6040516101249190611826565b61016061015b3660046118cd565b6103f1565b005b610185610170366004611960565b60009081526020819052604090206001015490565b604051908152602001610124565b6101606101a1366004611979565b610853565b6101606101b4366004611979565b61087e565b6101606101c73660046119a5565b6108b6565b6101606101da366004611a04565b610b17565b6101857fa49807205ce4d355092ef5a8a18f56e8913cf4a201fbe287825b095693c2177581565b610118610214366004611979565b610cc7565b610185600081565b61016061022f366004611a58565b610cf0565b610160610242366004611979565b6110d7565b61025a6102553660046117e4565b6110fc565b604051610124929190611bbe565b60015461027b906001600160a01b031681565b6040516001600160a01b039091168152602001610124565b6102a66102a13660046117e4565b61134e565b6040516101249190611be2565b60006001600160e01b03198216637965db0b60e01b14806102e457506301ffc9a760e01b6001600160e01b03198316145b92915050565b60606003600061032f85858080601f01602080910402602001604051908101604052809392919081815260200183838082843760009201919091525061155092505050565b8152602001908152602001600020805480602002602001604051908101604052809291908181526020016000905b828210156103e55760008481526020908190206040805160c081018252600286029092018054600181810b855260ff62010000830481168688015263010000008304600390810b95870195909552670100000000000000830490940b6060860152600160581b9091049092161515608084015281015460a0830152908352909201910161035d565b50505050905092915050565b60015460408051630965288b60e41b815290516001600160a01b03909216916391d1485491839163965288b0916004808201926020929091908290030181865afa158015610443573d6000803e3d6000fd5b505050506040513d601f19601f820116820180604052508101906104679190611bf5565b6040516001600160e01b031960e084901b1681526004810191909152336024820152604401602060405180830381865afa1580156104a9573d6000803e3d6000fd5b505050506040513d601f19601f820116820180604052508101906104cd9190611c1c565b6105115760405162461bcd60e51b815260206004820152601060248201526f2737ba1036b0b73ab330b1ba3ab932b960811b60448201526064015b60405180910390fd5b856105515760405162461bcd60e51b815260206004820152601060248201526f18985d18da1259081c995c5d5a5c995960821b6044820152606401610508565b600061059288888080601f01602080910402602001604051908101604052809392919081815260200183838082843760009201919091525061155092505050565b600081815260026020819052604090912001549091506001600160a01b0316156105ed5760405162461bcd60e51b815260206004820152600c60248201526b42617463682065786973747360a01b6044820152606401610508565b4283116106315760405162461bcd60e51b815260206004820152601260248201527124b73b30b634b21032bc3834b930ba34b7b760711b6044820152606401610508565b6000841161066f5760405162461bcd60e51b815260206004820152600b60248201526a496e76616c69642071747960a81b6044820152606401610508565b6040518060e0016040528089898080601f016020809104026020016040519081016040528093929190818152602001838380828437600092019190915250505090825250604080516020601f8a01819004810282018101909252888152918101919089908990819084018382808284376000920182905250938552505033602084015250604082018790526060820186905260809091019081526001600160a01b0384166020918201526000838152600290915260409020815181906107359082611cd7565b506020820151600182019061074a9082611cd7565b5060408201518160020160006101000a8154816001600160a01b0302191690836001600160a01b03160217905550606082015181600301556080820151816004015560a08201518160050160006101000a81548160ff021916908360038111156107b6576107b6611b03565b021790555060c09190910151600590910180546001600160a01b0390921661010002610100600160a81b03199092169190911790556107f6600482611580565b506040513390610809908a908a90611d97565b6040805191829003822087835260208301879052917fc1aa2bdd1815cbfae4ffb57d47e56c444b60aa0c57b4ff7f416b2910b94f6a03910160405180910390a35050505050505050565b60008281526020819052604090206001015461086e81611593565b61087883836115a0565b50505050565b6001600160a01b03811633146108a75760405163334bd91960e11b815260040160405180910390fd5b6108b18282611632565b505050565b6001546040805163016ad78f60e01b815290516001600160a01b03909216916391d1485491839163016ad78f916004808201926020929091908290030181865afa158015610908573d6000803e3d6000fd5b505050506040513d601f19601f8201168201806040525081019061092c9190611bf5565b6040516001600160e01b031960e084901b1681526004810191909152336024820152604401602060405180830381865afa15801561096e573d6000803e3d6000fd5b505050506040513d601f19601f820116820180604052508101906109929190611c1c565b6109c85760405162461bcd60e51b8152602060048201526007602482015266139bdd08125bd560ca1b6044820152606401610508565b6000610a0984848080601f01602080910402602001604051908101604052809392919081815260200183838082843760009201919091525061155092505050565b600081815260026020819052604090912001549091506001600160a01b0316610a445760405162461bcd60e51b815260040161050890611da7565b42610a5660a084013562015180611dc9565b1015610a915760405162461bcd60e51b815260206004820152600a6024820152695374616c65206461746160b01b6044820152606401610508565b6000818152600360209081526040822080546001810182559083529120839160020201610abe8282611e31565b50506040513390610ad29086908690611d97565b60405180910390207fa03d8a84397685c6c25dfb72854eec2819de199182204231bc7f6929547d2ba384604051610b099190611f1c565b60405180910390a350505050565b6000610b5884848080601f01602080910402602001604051908101604052809392919081815260200183838082843760009201919091525061155092505050565b600081815260026020819052604090912001549091506001600160a01b0316610b935760405162461bcd60e51b815260040161050890611da7565b60008181526002602052604090206005015461010090046001600160a01b0316338114610bfa5760405162461bcd60e51b81526020600482015260156024820152742737ba1031bab93932b73a1031bab9ba37b234b0b760591b6044820152606401610508565b6001600160a01b038316610c445760405162461bcd60e51b815260206004820152601160248201527024b73b30b634b21031bab9ba37b234b0b760791b6044820152606401610508565b6000828152600260205260409081902060050180546001600160a01b038087166101008102610100600160a81b031990931692909217909255915190831690610c909088908890611d97565b604051908190038120907f7fc70ede9a8a9960e2e93000354bb546cc9206bf59f2a62291d8abea2db4a7c590600090a45050505050565b6000918252602082815260408084206001600160a01b0393909316845291905290205460ff1690565b60015460408051630965288b60e41b815290516000926001600160a01b0316916391d1485491839163965288b09160048083019260209291908290030181865afa158015610d42573d6000803e3d6000fd5b505050506040513d601f19601f82011682018060405250810190610d669190611bf5565b6040516001600160e01b031960e084901b1681526004810191909152336024820152604401602060405180830381865afa158015610da8573d6000803e3d6000fd5b505050506040513d601f19601f82011682018060405250810190610dcc9190611c1c565b80610eae575060015460408051633c2f61f360e21b815290516001600160a01b03909216916391d1485491839163f0bd87cc916004808201926020929091908290030181865afa158015610e24573d6000803e3d6000fd5b505050506040513d601f19601f82011682018060405250810190610e489190611bf5565b6040516001600160e01b031960e084901b1681526004810191909152336024820152604401602060405180830381865afa158015610e8a573d6000803e3d6000fd5b505050506040513d601f19601f82011682018060405250810190610eae9190611c1c565b80610f9057506001546040805163f0c58ea760e01b815290516001600160a01b03909216916391d1485491839163f0c58ea7916004808201926020929091908290030181865afa158015610f06573d6000803e3d6000fd5b505050506040513d601f19601f82011682018060405250810190610f2a9190611bf5565b6040516001600160e01b031960e084901b1681526004810191909152336024820152604401602060405180830381865afa158015610f6c573d6000803e3d6000fd5b505050506040513d601f19601f82011682018060405250810190610f909190611c1c565b905080610fd05760405162461bcd60e51b815260206004820152600e60248201526d139bdd08185d5d1a1bdc9a5e995960921b6044820152606401610508565b600061101185858080601f01602080910402602001604051908101604052809392919081815260200183838082843760009201919091525061155092505050565b600081815260026020819052604090912001549091506001600160a01b031661104c5760405162461bcd60e51b815260040161050890611da7565b6000818152600260205260409020600501805484919060ff1916600183600381111561107a5761107a611b03565b021790555060405133906110919087908790611d97565b60405180910390207fd221a94c902cd121acca6830365dbc39036318ef5da31b23888fd5e99939d9f5856040516110c89190611f99565b60405180910390a35050505050565b6000828152602081905260409020600101546110f281611593565b6108788383611632565b611104611721565b60008061114685858080601f01602080910402602001604051908101604052809392919081815260200183838082843760009201919091525061155092505050565b9050600260008281526020019081526020016000206040518060e001604052908160008201805461117690611c4f565b80601f01602080910402602001604051908101604052809291908181526020018280546111a290611c4f565b80156111ef5780601f106111c4576101008083540402835291602001916111ef565b820191906000526020600020905b8154815290600101906020018083116111d257829003601f168201915b5050505050815260200160018201805461120890611c4f565b80601f016020809104026020016040519081016040528092919081815260200182805461123490611c4f565b80156112815780601f1061125657610100808354040283529160200191611281565b820191906000526020600020905b81548152906001019060200180831161126457829003601f168201915b505050918352505060028201546001600160a01b03166020820152600380830154604083015260048301546060830152600583015460809092019160ff16908111156112cf576112cf611b03565b60038111156112e0576112e0611b03565b8152600591909101546001600160a01b036101009091048116602090920191909152604082015191945016611319575060009050611347565b6080830151600082815260036020526040902054429091119015158482801561133f5750815b945094505050505b9250929050565b611356611721565b6002600061139985858080601f01602080910402602001604051908101604052809392919081815260200183838082843760009201919091525061155092505050565b81526020019081526020016000206040518060e00160405290816000820180546113c290611c4f565b80601f01602080910402602001604051908101604052809291908181526020018280546113ee90611c4f565b801561143b5780601f106114105761010080835404028352916020019161143b565b820191906000526020600020905b81548152906001019060200180831161141e57829003601f168201915b5050505050815260200160018201805461145490611c4f565b80601f016020809104026020016040519081016040528092919081815260200182805461148090611c4f565b80156114cd5780601f106114a2576101008083540402835291602001916114cd565b820191906000526020600020905b8154815290600101906020018083116114b057829003601f168201915b505050918352505060028201546001600160a01b03166020820152600380830154604083015260048301546060830152600583015460809092019160ff169081111561151b5761151b611b03565b600381111561152c5761152c611b03565b81526005919091015461010090046001600160a01b03166020909101529392505050565b6000816040516020016115639190611fa7565b604051602081830303815290604052805190602001209050919050565b600061158c838361169d565b9392505050565b61159d81336116e4565b50565b60006115ac8383610cc7565b61162a576000838152602081815260408083206001600160a01b03861684529091529020805460ff191660011790556115e23390565b6001600160a01b0316826001600160a01b0316847f2f8788117e7eff1d82e926ec794901d17c78024a50270940304540a733656f0d60405160405180910390a45060016102e4565b5060006102e4565b600061163e8383610cc7565b1561162a576000838152602081815260408083206001600160a01b0386168085529252808320805460ff1916905551339286917ff6391f5c32d9c69d2a47ea670b442974b53935d1edc7fd64eb21e047a839171b9190a45060016102e4565b600081815260018301602052604081205461162a575081546001818101845560008481526020808220909301849055845484825282860190935260409020919091556102e4565b6116ee8282610cc7565b61171d5760405163e2517d3f60e01b81526001600160a01b038216600482015260248101839052604401610508565b5050565b6040518060e00160405280606081526020016060815260200160006001600160a01b0316815260200160008152602001600081526020016000600381111561176b5761176b611b03565b8152600060209091015290565b60006020828403121561178a57600080fd5b81356001600160e01b03198116811461158c57600080fd5b60008083601f8401126117b457600080fd5b50813567ffffffffffffffff8111156117cc57600080fd5b60208301915083602082850101111561134757600080fd5b600080602083850312156117f757600080fd5b823567ffffffffffffffff81111561180e57600080fd5b61181a858286016117a2565b90969095509350505050565b602080825282518282018190526000919060409081850190868401855b828110156118a45781518051600190810b86528782015160ff168887015286820151600390810b8888015260608084015190910b9087015260808083015115159087015260a0918201519186019190915260c0909401939186019101611843565b5091979650505050505050565b80356001600160a01b03811681146118c857600080fd5b919050565b600080600080600080600060a0888a0312156118e857600080fd5b873567ffffffffffffffff8082111561190057600080fd5b61190c8b838c016117a2565b909950975060208a013591508082111561192557600080fd5b506119328a828b016117a2565b9096509450506040880135925060608801359150611952608089016118b1565b905092959891949750929550565b60006020828403121561197257600080fd5b5035919050565b6000806040838503121561198c57600080fd5b8235915061199c602084016118b1565b90509250929050565b600080600083850360e08112156119bb57600080fd5b843567ffffffffffffffff8111156119d257600080fd5b6119de878288016117a2565b90955093505060c0601f19820112156119f657600080fd5b506020840190509250925092565b600080600060408486031215611a1957600080fd5b833567ffffffffffffffff811115611a3057600080fd5b611a3c868287016117a2565b9094509250611a4f9050602085016118b1565b90509250925092565b600080600060408486031215611a6d57600080fd5b833567ffffffffffffffff811115611a8457600080fd5b611a90868287016117a2565b909450925050602084013560048110611aa857600080fd5b809150509250925092565b60005b83811015611ace578181015183820152602001611ab6565b50506000910152565b60008151808452611aef816020860160208601611ab3565b601f01601f19169290920160200192915050565b634e487b7160e01b600052602160045260246000fd5b60048110611b3757634e487b7160e01b600052602160045260246000fd5b9052565b6000815160e08452611b5060e0850182611ad7565b905060208301518482036020860152611b698282611ad7565b915050604083015160018060a01b038082166040870152606085015160608701526080850151608087015260a08501519150611ba860a0870183611b19565b60c0948501511694909301939093525090919050565b604081526000611bd16040830185611b3b565b905082151560208301529392505050565b60208152600061158c6020830184611b3b565b600060208284031215611c0757600080fd5b5051919050565b801515811461159d57600080fd5b600060208284031215611c2e57600080fd5b815161158c81611c0e565b634e487b7160e01b600052604160045260246000fd5b600181811c90821680611c6357607f821691505b602082108103611c8357634e487b7160e01b600052602260045260246000fd5b50919050565b601f8211156108b157600081815260208120601f850160051c81016020861015611cb05750805b601f850160051c820191505b81811015611ccf57828155600101611cbc565b505050505050565b815167ffffffffffffffff811115611cf157611cf1611c39565b611d0581611cff8454611c4f565b84611c89565b602080601f831160018114611d3a5760008415611d225750858301515b600019600386901b1c1916600185901b178555611ccf565b600085815260208120601f198616915b82811015611d6957888601518255948401946001909101908401611d4a565b5085821015611d875787850151600019600388901b60f8161c191681555b5050505050600190811b01905550565b8183823760009101908152919050565b60208082526008908201526709cde40c4c2e8c6d60c31b604082015260600190565b808201808211156102e457634e487b7160e01b600052601160045260246000fd5b8060010b811461159d57600080fd5b60ff8116811461159d57600080fd5b8060030b811461159d57600080fd5b600081356102e481611e08565b600081356102e481611c0e565b8135611e3c81611dea565b815461ffff82811661ffff1983161784556020850135611e5b81611df9565b62ff000060109190911b16921662ffffff19821681178317845591604085013590611e8582611e08565b8160181b66ffffffff000000168466ffffffffffffff19851617821717855550505050611ee1611eb760608401611e17565b825460389190911b6affffffff00000000000000166affffffff0000000000000019909116178255565b611f0e611ef060808401611e24565b82805460ff60581b191691151560581b60ff60581b16919091179055565b60a082013560018201555050565b60c081018235611f2b81611dea565b60010b82526020830135611f3e81611df9565b60ff1660208301526040830135611f5481611e08565b60030b60408301526060830135611f6a81611e08565b60030b60608301526080830135611f8081611c0e565b80151560808401525060a083013560a083015292915050565b602081016102e48284611b19565b60008251611fb9818460208701611ab3565b919091019291505056fea2646970667358221220e3e39e92cc2a54b9c26c5df4fb41e9f96d3308479d0d11c12580dce2e0d4e3e564736f6c63430008140033",
  "linkReferences": {},
  "deployedLinkReferences": {}
}