{
  "_format": "hh-sol-artifact-1",
  "contractName": "PharbitStakeholder",
  "sourceName": "contracts/PharbitStakeholder.sol",
  "abi": [
    {
      "inputs": [
        {
          "internalType": "address",
          "name": "admin",
          "type": "address"
        }
      ],
      "stateMutability": "nonpayable",
      "type": "constructor"
    },
    {
      "inputs": [],
      "name": "AccessControlBadConfirmation",
      "type": "error"
    },
    {
      "inputs": [
        {
          "internalType": "address",
          "name": "account",
          "type": "address"
        },
        {
          "internalType": "bytes32",
          "name": "neededRole",
          "type": "bytes32"
        }
      ],
      "name": "AccessControlUnauthorizedAccount",
      "type": "error"
    },
    {
      "anonymous": false,
      "inputs": [
        {
          "indexed": true,
          "internalType": "bytes32",
          "name": "role",
          "type": "bytes32"
        },
        {
          "indexed": true,
          "internalType": "bytes32",
          "name": "previousAdminRole",
          "type": "bytes32"
        },
        {
          "indexed": true,
          "internalType": "bytes32",
          "name": "newAdminRole",
          "type": "bytes32"
        }
      ],
      "name": "RoleAdminChanged",
      "type": "event"
    },
    {
      "anonymous": false,
      "inputs": [
        {
          "indexed": true,
          "internalType": "bytes32",
          "name": "role",
          "type": "bytes32"
        },
        {
          "indexed": true,
          "internalType": "address",
          "name": "account",
          "type": "address"
        },
        {
          "indexed": true,
          "internalType": "address",
          "name": "sender",
          "type": "address"
        }
      ],
      "name": "RoleGranted",
      "type": "event"
    },
    {
      "anonymous": false,
      "inputs": [
        {
          "indexed": true,
          "internalType": "bytes32",
          "name": "role",
          "type": "bytes32"
        },
        {
          "indexed": true,
          "internalType": "address",
          "name": "account",
          "type": "address"
        },
        {
          "indexed": true,
          "internalType": "address",
          "name": "sender",
          "type": "address"
        }
      ],
      "name": "RoleRevoked",
      "type": "event"
    },
    {
      "anonymous": false,
      "inputs": [
        {
          "indexed": true,
          "internalType": "address",
          "name": "account",
          "type": "address"
        },
        {
          "indexed": false,
          "internalType": "string",
          "name": "name",
          "type": "string"
        },
        {
          "indexed": false,
          "internalType": "string",
          "name": "role",
          "type": "string"
        }
      ],
      "name": "StakeholderRegistered",
      "type": "event"
    },
    {
      "anonymous": false,
      "inputs": [
        {
          "indexed": true,
          "internalType": "address",
          "name": "account",
          "type": "address"
        },
        {
          "indexed": false,
          "internalType": "bool",
          "name": "active",
          "type": "bool"
        }
      ],
      "name": "StakeholderUpdated",
      "type": "event"
    },
    {
      "inputs": [],
      "name": "DEFAULT_ADMIN_ROLE",
      "outputs": [
        {
          "internalType": "bytes32",
          "name": "",
          "type": "bytes32"
        }
      ],
      "stateMutability": "view",
      "type": "function"
    },
    {
      "inputs": [],
      "name": "DISTRIBUTOR_ROLE",
      "outputs": [
        {
          "internalType": "bytes32",
          "name": "",
          "type": "bytes32"
        }
      ],
      "stateMutability": "view",
      "type": "function"
    },
    {
      "inputs": [],
      "name": "HOSPITAL_ROLE",
      "outputs": [
        {
          "internalType": "bytes32",
          "name": "",
          "type": "bytes32"
        }
      ],
      "stateMutability": "view",
      "type": "function"
    },
    {
      "inputs": [],
      "name": "IOT_ROLE",
      "outputs": [
        {
          "internalType": "bytes32",
          "name": "",
          "type": "bytes32"
        }
      ],
      "stateMutability": "view",
      "type": "function"
    },
    {
      "inputs": [],
      "name": "MANUFACTURER_ROLE",
      "outputs": [
        {
          "internalType": "bytes32",
          "name": "",
          "type": "bytes32"
        }
      ],
      "stateMutability": "view",
      "type": "function"
    },
    {
      "inputs": [],
      "name": "PHARMACY_ROLE",
      "outputs": [
        {
          "internalType": "bytes32",
          "name": "",
          "type": "bytes32"
        }
      ],
      "stateMutability": "view",
      "type": "function"
    },
    {
      "inputs": [],
      "name": "REGULATOR_ROLE",
      "outputs": [
        {
          "internalType": "bytes32",
          "name": "",
          "type": "bytes32"
        }
      ],
      "stateMutability": "view",
      "type": "function"
    },
    {
      "inputs": [
        {
          "internalType": "bytes32",
          "name": "role",
          "type": "bytes32"
        }
      ],
      "name": "getRoleAdmin",
      "outputs": [
        {
          "internalType": "bytes32",
          "name": "",
          "type": "bytes32"
        }
      ],
      "stateMutability": "view",
      "type": "function"
    },
    {
      "inputs": [
        {
          "internalType": "bytes32",
          "name": "role",
          "type": "bytes32"
        },
        {
          "internalType": "address",
          "name": "account",
          "type": "address"
        }
      ],
      "name": "grantRole",
      "outputs": [],
      "stateMutability": "nonpayable",
      "type": "function"
    },
    {
      "inputs": [
        {
          "internalType": "address",
          "name": "account",
          "type": "address"
        },
        {
          "internalType": "bytes32[]",
          "name": "roles",
          "type": "bytes32[]"
        }
      ],
      "name": "hasAnyRole",
      "outputs": [
        {
          "internalType": "bool",
          "name": "",
          "type": "bool"
        }
      ],
      "stateMutability": "view",
      "type": "function"
    },
    {
      "inputs": [
        {
          "internalType": "bytes32",
          "name": "role",
          "type": "bytes32"
        },
        {
          "internalType": "address",
          "name": "account",
          "type": "address"
        }
      ],
      "name": "hasRole",
      "outputs": [
        {
          "internalType": "bool",
          "name": "",
          "type": "bool"
        }
      ],
      "stateMutability": "view",
      "type": "function"
    },
    {
      "inputs": [
        {
          "internalType": "address",
          "name": "account",
          "type": "address"
        },
        {
          "internalType": "string",
          "name": "name",
          "type": "string"
        },
        {
          "internalType": "string",
          "name": "contact",
          "type": "string"
        },
        {
          "internalType": "string",
          "name": "metadataURI",
          "type": "string"
        },
        {
          "internalType": "bytes32",
          "name": "role",
          "type": "bytes32"
        }
      ],
      "name": "registerStakeholder",
      "outputs": [],
      "stateMutability": "nonpayable",
      "type": "function"
    },
    {
      "inputs": [
        {
          "internalType": "bytes32",
          "name": "role",
          "type": "bytes32"
        },
        {
          "internalType": "address",
          "name": "callerConfirmation",
          "type": "address"
        }
      ],
      "name": "renounceRole",
      "outputs": [],
      "stateMutability": "nonpayable",
      "type": "function"
    },
    {
      "inputs": [
        {
          "internalType": "bytes32",
          "name": "role",
          "type": "bytes32"
        },
        {
          "internalType": "address",
          "name": "account",
          "type": "address"
        }
      ],
      "name": "revokeRole",
      "outputs": [],
      "stateMutability": "nonpayable",
      "type": "function"
    },
    {
      "inputs": [
        {
          "internalType": "address",
          "name": "account",
          "type": "address"
        },
        {
          "internalType": "bool",
          "name": "active",
          "type": "bool"
        }
      ],
      "name": "setActive",
      "outputs": [],
      "stateMutability": "nonpayable",
      "type": "function"
    },
    {
      "inputs": [
        {
          "internalType": "address",
          "name": "",
          "type": "address"
        }
      ],
      "name": "stakeholders",
      "outputs": [
        {
          "internalType": "string",
          "name": "name",
          "type": "string"
        },
        {
          "internalType": "string",
          "name": "contact",
          "type": "string"
        },
        {
          "internalType": "string",
          "name": "metadataURI",
          "type": "string"
        },
        {
          "internalType": "bool",
          "name": "active",
          "type": "bool"
        }
      ],
      "stateMutability": "view",
      "type": "function"
    },
    {
      "inputs": [
        {
          "internalType": "bytes4",
          "name": "interfaceId",
          "type": "bytes4"
        }
      ],
      "name": "supportsInterface",
      "outputs": [
        {
          "internalType": "bool",
          "name": "",
          "type": "bool"
        }
      ],
      "stateMutability": "view",
      "type": "function"
    }
  ],
  "bytecode": "0x608060405234801561001057600080fd5b5060405161128338038061128383398101604081905261002f916100ed565b61003a600082610041565b505061011d565b6000828152602081815260408083206001600160a01b038516845290915281205460ff166100e3576000838152602081815260408083206001600160a01b03861684529091529020805460ff1916600117905561009b3390565b6001600160a01b0316826001600160a01b0316847f2f8788117e7eff1d82e926ec794901d17c78024a50270940304540a733656f0d60405160405180910390a45060016100e7565b5060005b92915050565b6000602082840312156100ff57600080fd5b81516001600160a01b038116811461011657600080fd5b9392505050565b6111578061012c6000396000f3fe608060405234801561001057600080fd5b506004361061010b5760003560e01c806372b6b029116100a2578063c07cfca911610071578063c07cfca91461025a578063d547741f1461027d578063f0bd87cc14610290578063f0c58ea7146102b7578063f6ba6678146102de57600080fd5b806372b6b0291461020557806391d1485414610218578063965288b01461022b578063a217fddf1461025257600080fd5b80632ce962cf116100de5780632ce962cf146101b75780632f2ff15d146101cc57806336568abe146101df57806368ca78f9146101f257600080fd5b8063016ad78f1461011057806301ffc9a71461014a578063144bf5891461016d578063248a9ca314610194575b600080fd5b6101377f20d9bb381123487c7458dc4b1e41409eafb0e74092b8def477c5c636cc4f4b7381565b6040519081526020015b60405180910390f35b61015d610158366004610bf6565b610305565b6040519015158152602001610141565b6101377f20b5f7ac978e5d6199de06401411960dfa81d2f762655f6206bdc61d46fc19e681565b6101376101a2366004610c27565b60009081526020819052604090206001015490565b6101ca6101c5366004610c5c565b61033c565b005b6101ca6101da366004610c98565b610414565b6101ca6101ed366004610c98565b61043f565b61015d610200366004610cda565b610477565b6101ca610213366004610df4565b6104d2565b61015d610226366004610c98565b6106b4565b6101377feefb95e842a3287179d933b4460be539a1d5af11aa8b325bb45c5c8dc92de4ed81565b610137600081565b61026d610268366004610ea6565b6106dd565b6040516101419493929190610f07565b6101ca61028b366004610c98565b6108a0565b6101377ffbd454f36a7e1a388bd6fc3ab10d434aa4578f811acbbcf33afb1c697486313c81565b6101377f2f3a5455f35aeca177ac653592f277fbe2fbafef01081a2030451bb2fb41c91d81565b6101377fc8f5b4140cca307cd927e59cbeea8291bffeee228fc677f0fa059aef7b4dd8d581565b60006001600160e01b03198216637965db0b60e01b148061033657506301ffc9a760e01b6001600160e01b03198316145b92915050565b6000610347816108c5565b6001600160a01b0383166000908152600160205260409020805461036a90610f54565b90506000036103b15760405162461bcd60e51b815260206004820152600e60248201526d139bdd081c9959da5cdd195c995960921b60448201526064015b60405180910390fd5b6001600160a01b038316600081815260016020908152604091829020600301805460ff191686151590811790915591519182527f714205ef71dcd4cc33dc13facb700430b9aa7c0d4ee05e2e34196c8eb0ac7c42910160405180910390a2505050565b60008281526020819052604090206001015461042f816108c5565b61043983836108d2565b50505050565b6001600160a01b03811633146104685760405163334bd91960e11b815260040160405180910390fd5b6104728282610964565b505050565b6000805b82518110156104c8576104a783828151811061049957610499610f8e565b6020026020010151856106b4565b156104b6576001915050610336565b806104c081610fa4565b91505061047b565b5060009392505050565b60006104dd816108c5565b6001600160a01b0389166105255760405162461bcd60e51b815260206004820152600f60248201526e125b9d985b1a59081858d8dbdd5b9d608a1b60448201526064016103a8565b604051806080016040528089898080601f016020809104026020016040519081016040528093929190818152602001838380828437600092019190915250505090825250604080516020601f8a0181900481028201810190925288815291810191908990899081908401838280828437600092019190915250505090825250604080516020601f88018190048102820181019092528681529181019190879087908190840183828082843760009201829052509385525050600160209384018190526001600160a01b038e168352909252604090208251909150819061060b9082611019565b50602082015160018201906106209082611019565b50604082015160028201906106359082611019565b50606091909101516003909101805460ff191691151591909117905561065b828a6108d2565b50886001600160a01b03167fffa11ce5de55e1e39766a1e8231952587a613a344aed906d01fccfd292e7a0e88989610692866109cf565b6040516106a1939291906110d9565b60405180910390a2505050505050505050565b6000918252602082815260408084206001600160a01b0393909316845291905290205460ff1690565b6001602052600090815260409020805481906106f890610f54565b80601f016020809104026020016040519081016040528092919081815260200182805461072490610f54565b80156107715780601f1061074657610100808354040283529160200191610771565b820191906000526020600020905b81548152906001019060200180831161075457829003601f168201915b50505050509080600101805461078690610f54565b80601f01602080910402602001604051908101604052809291908181526020018280546107b290610f54565b80156107ff5780601f106107d4576101008083540402835291602001916107ff565b820191906000526020600020905b8154815290600101906020018083116107e257829003601f168201915b50505050509080600201805461081490610f54565b80601f016020809104026020016040519081016040528092919081815260200182805461084090610f54565b801561088d5780601f106108625761010080835404028352916020019161088d565b820191906000526020600020905b81548152906001019060200180831161087057829003601f168201915b5050506003909301549192505060ff1684565b6000828152602081905260409020600101546108bb816108c5565b6104398383610964565b6108cf8133610bb9565b50565b60006108de83836106b4565b61095c576000838152602081815260408083206001600160a01b03861684529091529020805460ff191660011790556109143390565b6001600160a01b0316826001600160a01b0316847f2f8788117e7eff1d82e926ec794901d17c78024a50270940304540a733656f0d60405160405180910390a4506001610336565b506000610336565b600061097083836106b4565b1561095c576000838152602081815260408083206001600160a01b0386168085529252808320805460ff1916905551339286917ff6391f5c32d9c69d2a47ea670b442974b53935d1edc7fd64eb21e047a839171b9190a4506001610336565b60607feefb95e842a3287179d933b4460be539a1d5af11aa8b325bb45c5c8dc92de4ed8203610a2057505060408051808201909152600c81526b26a0a72aa320a1aa2aa922a960a11b602082015290565b7ffbd454f36a7e1a388bd6fc3ab10d434aa4578f811acbbcf33afb1c697486313c8203610a6e57505060408051808201909152600b81526a2224a9aa2924a12aaa27a960a91b602082015290565b7f2f3a5455f35aeca177ac653592f277fbe2fbafef01081a2030451bb2fb41c91d8203610ab9575050604080518082019091526008815267504841524d41435960c01b602082015290565b7fc8f5b4140cca307cd927e59cbeea8291bffeee228fc677f0fa059aef7b4dd8d58203610b045750506040805180820190915260088152671213d4d41255105360c21b602082015290565b7f20d9bb381123487c7458dc4b1e41409eafb0e74092b8def477c5c636cc4f4b738203610b4a5750506040805180820190915260038152621253d560ea1b602082015290565b7f20b5f7ac978e5d6199de06401411960dfa81d2f762655f6206bdc61d46fc19e68203610b965750506040805180820190915260098152682922a3aaa620aa27a960b91b602082015290565b50506040805180820190915260078152662aa725a727aba760c91b602082015290565b610bc382826106b4565b610bf25760405163e2517d3f60e01b81526001600160a01b0382166004820152602481018390526044016103a8565b5050565b600060208284031215610c0857600080fd5b81356001600160e01b031981168114610c2057600080fd5b9392505050565b600060208284031215610c3957600080fd5b5035919050565b80356001600160a01b0381168114610c5757600080fd5b919050565b60008060408385031215610c6f57600080fd5b610c7883610c40565b915060208301358015158114610c8d57600080fd5b809150509250929050565b60008060408385031215610cab57600080fd5b82359150610cbb60208401610c40565b90509250929050565b634e487b7160e01b600052604160045260246000fd5b60008060408385031215610ced57600080fd5b610cf683610c40565b915060208084013567ffffffffffffffff80821115610d1457600080fd5b818601915086601f830112610d2857600080fd5b813581811115610d3a57610d3a610cc4565b8060051b604051601f19603f83011681018181108582111715610d5f57610d5f610cc4565b604052918252848201925083810185019189831115610d7d57600080fd5b938501935b82851015610d9b57843584529385019392850192610d82565b8096505050505050509250929050565b60008083601f840112610dbd57600080fd5b50813567ffffffffffffffff811115610dd557600080fd5b602083019150836020828501011115610ded57600080fd5b9250929050565b60008060008060008060008060a0898b031215610e1057600080fd5b610e1989610c40565b9750602089013567ffffffffffffffff80821115610e3657600080fd5b610e428c838d01610dab565b909950975060408b0135915080821115610e5b57600080fd5b610e678c838d01610dab565b909750955060608b0135915080821115610e8057600080fd5b50610e8d8b828c01610dab565b999c989b50969995989497949560800135949350505050565b600060208284031215610eb857600080fd5b610c2082610c40565b6000815180845260005b81811015610ee757602081850181015186830182015201610ecb565b506000602082860101526020601f19601f83011685010191505092915050565b608081526000610f1a6080830187610ec1565b8281036020840152610f2c8187610ec1565b90508281036040840152610f408186610ec1565b915050821515606083015295945050505050565b600181811c90821680610f6857607f821691505b602082108103610f8857634e487b7160e01b600052602260045260246000fd5b50919050565b634e487b7160e01b600052603260045260246000fd5b600060018201610fc457634e487b7160e01b600052601160045260246000fd5b5060010190565b601f82111561047257600081815260208120601f850160051c81016020861015610ff25750805b601f850160051c820191505b8181101561101157828155600101610ffe565b505050505050565b815167ffffffffffffffff81111561103357611033610cc4565b611047816110418454610f54565b84610fcb565b602080601f83116001811461107c57600084156110645750858301515b600019600386901b1c1916600185901b178555611011565b600085815260208120601f198616915b828110156110ab5788860151825594840194600190910190840161108c565b50858210156110c95787850151600019600388901b60f8161c191681555b5050505050600190811b01905550565b60408152826040820152828460608301376000606084830101526000601f19601f850116820160608382030160208401526111176060820185610ec1565b969550505050505056fea2646970667358221220b4a1352cceb8d157b16c73ba8e78e7bf7bacd47b15b7728dc3927b5b9c94039f64736f6c63430008140033",
  "linkReferences": {},
  "deployedLinkReferences": {}
}