{
  "_format": "hh3-artifact-1",
  "contractName": "PharbitBatch",
  "sourceName": "contracts/PharbitBatch.sol",
  "abi": [
    {
      "inputs": [
        {
          "internalType": "address",
          "name": "stakeholderContract",
          "type": "address"
        },
        {
          "internalType": "address",
          "name": "admin",
          "type": "address"
        }
      ],
      "stateMutability": "nonpayable",
      "type": "constructor"
    },
    {
      "inputs": [],
      "name": "AccessControlBadConfirmation",
      "type": "error"
    },
    {
      "inputs": [
        {
          "internalType": "address",
          "name": "account",
          "type": "address"
        },
        {
          "internalType": "bytes32",
          "name": "neededRole",
          "type": "bytes32"
        }
      ],
      "name": "AccessControlUnauthorizedAccount",
      "type": "error"
    },
    {
      "anonymous": false,
      "inputs": [
        {
          "indexed": true,
          "internalType": "string",
          "name": "batchId",
          "type": "string"
        },
        {
          "indexed": true,
          "internalType": "address",
          "name": "manufacturer",
          "type": "address"
        },
        {
          "indexed": false,
          "internalType": "uint256",
          "name": "quantity",
          "type": "uint256"
        },
        {
          "indexed": false,
          "internalType": "uint256",
          "name": "expiration",
          "type": "uint256"
        }
      ],
      "name": "BatchCreated",
      "type": "event"
    },
    {
      "anonymous": false,
      "inputs": [
        {
          "indexed": true,
          "internalType": "string",
          "name": "batchId",
          "type": "string"
        },
        {
          "indexed": false,
          "internalType": "enum PharbitBatch.BatchStatus",
          "name": "newStatus",
          "type": "uint8"
        },
        {
          "indexed": true,
          "internalType": "address",
          "name": "actor",
          "type": "address"
        }
      ],
      "name": "BatchStatusUpdated",
      "type": "event"
    },
    {
      "anonymous": false,
      "inputs": [
        {
          "indexed": true,
          "internalType": "string",
          "name": "batchId",
          "type": "string"
        },
        {
          "indexed": true,
          "internalType": "address",
          "name": "from",
          "type": "address"
        },
        {
          "indexed": true,
          "internalType": "address",
          "name": "to",
          "type": "address"
        }
      ],
      "name": "CustodyTransferred",
      "type": "event"
    },
    {
      "anonymous": false,
      "inputs": [
        {
          "indexed": true,
          "internalType": "bytes32",
          "name": "role",
          "type": "bytes32"
        },
        {
          "indexed": true,
          "internalType": "bytes32",
          "name": "previousAdminRole",
          "type": "bytes32"
        },
        {
          "indexed": true,
          "internalType": "bytes32",
          "name": "newAdminRole",
          "type": "bytes32"
        }
      ],
      "name": "RoleAdminChanged",
      "type": "event"
    },
    {
      "anonymous": false,
      "inputs": [
        {
          "indexed": true,
          "internalType": "bytes32",
          "name": "role",
          "type": "bytes32"
        },
        {
          "indexed": true,
          "internalType": "address",
          "name": "account",
          "type": "address"
        },
        {
          "indexed": true,
          "internalType": "address",
          "name": "sender",
          "type": "address"
        }
      ],
      "name": "RoleGranted",
      "type": "event"
    },
    {
      "anonymous": false,
      "inputs": [
        {
          "indexed": true,
          "internalType": "bytes32",
          "name": "role",
          "type": "bytes32"
        },
        {
          "indexed": true,
          "internalType": "address",
          "name": "account",
          "type": "address"
        },
        {
          "indexed": true,
          "internalType": "address",
          "name": "sender",
          "type": "address"
        }
      ],
      "name": "RoleRevoked",
      "type": "event"
    },
    {
      "anonymous": false,
      "inputs": [
        {
          "indexed": true,
          "internalType": "string",
          "name": "batchId",
          "type": "string"
        },
        {
          "components": [
            {
              "internalType": "int16",
              "name": "temperatureC",
              "type": "int16"
            },
            {
              "internalType": "uint8",
              "name": "humidity",
              "type": "uint8"
            },
            {
              "internalType": "int32",
              "name": "latE7",
              "type": "int32"
            },
            {
              "internalType": "int32",
              "name": "lonE7",
              "type": "int32"
            },
            {
              "internalType": "bool",
              "name": "tampering",
              "type": "bool"
            },
            {
              "internalType": "uint256",
              "name": "timestamp",
              "type": "uint256"
            }
          ],
          "indexed": false,
          "internalType": "struct PharbitBatch.SensorData",
          "name": "data",
          "type": "tuple"
        },
        {
          "indexed": true,
          "internalType": "address",
          "name": "device",
          "type": "address"
        }
      ],
      "name": "SensorDataRecorded",
      "type": "event"
    },
    {
      "inputs": [],
      "name": "ADMIN_ROLE",
      "outputs": [
        {
          "internalType": "bytes32",
          "name": "",
          "type": "bytes32"
        }
      ],
      "stateMutability": "view",
      "type": "function"
    },
    {
      "inputs": [],
      "name": "DEFAULT_ADMIN_ROLE",
      "outputs": [
        {
          "internalType": "bytes32",
          "name": "",
          "type": "bytes32"
        }
      ],
      "stateMutability": "view",
      "type": "function"
    },
    {
      "inputs": [
        {
          "internalType": "string",
          "name": "batchId",
          "type": "string"
        },
        {
          "internalType": "string",
          "name": "medicineName",
          "type": "string"
        },
        {
          "internalType": "uint256",
          "name": "quantity",
          "type": "uint256"
        },
        {
          "internalType": "uint256",
          "name": "expiration",
          "type": "uint256"
        },
        {
          "internalType": "address",
          "name": "custodian",
          "type": "address"
        }
      ],
      "name": "createBatch",
      "outputs": [],
      "stateMutability": "nonpayable",
      "type": "function"
    },
    {
      "inputs": [
        {
          "internalType": "string",
          "name": "batchId",
          "type": "string"
        }
      ],
      "name": "getBatch",
      "outputs": [
        {
          "components": [
            {
              "internalType": "string",
              "name": "batchId",
              "type": "string"
            },
            {
              "internalType": "string",
              "name": "medicineName",
              "type": "string"
            },
            {
              "internalType": "address",
              "name": "manufacturer",
              "type": "address"
            },
            {
              "internalType": "uint256",
              "name": "quantity",
              "type": "uint256"
            },
            {
              "internalType": "uint256",
              "name": "expiration",
              "type": "uint256"
            },
            {
              "internalType": "enum PharbitBatch.BatchStatus",
              "name": "status",
              "type": "uint8"
            },
            {
              "internalType": "address",
              "name": "custodian",
              "type": "address"
            }
          ],
          "internalType": "struct PharbitBatch.BatchInfo",
          "name": "",
          "type": "tuple"
        }
      ],
      "stateMutability": "view",
      "type": "function"
    },
    {
      "inputs": [
        {
          "internalType": "bytes32",
          "name": "role",
          "type": "bytes32"
        }
      ],
      "name": "getRoleAdmin",
      "outputs": [
        {
          "internalType": "bytes32",
          "name": "",
          "type": "bytes32"
        }
      ],
      "stateMutability": "view",
      "type": "function"
    },
    {
      "inputs": [
        {
          "internalType": "string",
          "name": "batchId",
          "type": "string"
        }
      ],
      "name": "getSensorData",
      "outputs": [
        {
          "components": [
            {
              "internalType": "int16",
              "name": "temperatureC",
              "type": "int16"
            },
            {
              "internalType": "uint8",
              "name": "humidity",
              "type": "uint8"
            },
            {
              "internalType": "int32",
              "name": "latE7",
              "type": "int32"
            },
            {
              "internalType": "int32",
              "name": "lonE7",
              "type": "int32"
            },
            {
              "internalType": "bool",
              "name": "tampering",
              "type": "bool"
            },
            {
              "internalType": "uint256",
              "name": "timestamp",
              "type": "uint256"
            }
          ],
          "internalType": "struct PharbitBatch.SensorData[]",
          "name": "",
          "type": "tuple[]"
        }
      ],
      "stateMutability": "view",
      "type": "function"
    },
    {
      "inputs": [
        {
          "internalType": "bytes32",
          "name": "role",
          "type": "bytes32"
        },
        {
          "internalType": "address",
          "name": "account",
          "type": "address"
        }
      ],
      "name": "grantRole",
      "outputs": [],
      "stateMutability": "nonpayable",
      "type": "function"
    },
    {
      "inputs": [
        {
          "internalType": "bytes32",
          "name": "role",
          "type": "bytes32"
        },
        {
          "internalType": "address",
          "name": "account",
          "type": "address"
        }
      ],
      "name": "hasRole",
      "outputs": [
        {
          "internalType": "bool",
          "name": "",
          "type": "bool"
        }
      ],
      "stateMutability": "view",
      "type": "function"
    },
    {
      "inputs": [
        {
          "internalType": "string",
          "name": "batchId",
          "type": "string"
        },
        {
          "components": [
            {
              "internalType": "int16",
              "name": "temperatureC",
              "type": "int16"
            },
            {
              "internalType": "uint8",
              "name": "humidity",
              "type": "uint8"
            },
            {
              "internalType": "int32",
              "name": "latE7",
              "type": "int32"
            },
            {
              "internalType": "int32",
              "name": "lonE7",
              "type": "int32"
            },
            {
              "internalType": "bool",
              "name": "tampering",
              "type": "bool"
            },
            {
              "internalType": "uint256",
              "name": "timestamp",
              "type": "uint256"
            }
          ],
          "internalType": "struct PharbitBatch.SensorData",
          "name": "data",
          "type": "tuple"
        }
      ],
      "name": "recordSensorData",
      "outputs": [],
      "stateMutability": "nonpayable",
      "type": "function"
    },
    {
      "inputs": [
        {
          "internalType": "bytes32",
          "name": "role",
          "type": "bytes32"
        },
        {
          "internalType": "address",
          "name": "callerConfirmation",
          "type": "address"
        }
      ],
      "name": "renounceRole",
      "outputs": [],
      "stateMutability": "nonpayable",
      "type": "function"
    },
    {
      "inputs": [
        {
          "internalType": "bytes32",
          "name": "role",
          "type": "bytes32"
        },
        {
          "internalType": "address",
          "name": "account",
          "type": "address"
        }
      ],
      "name": "revokeRole",
      "outputs": [],
      "stateMutability": "nonpayable",
      "type": "function"
    },
    {
      "inputs": [],
      "name": "stakeholder",
      "outputs": [
        {
          "internalType": "contract IPharbitStakeholder",
          "name": "",
          "type": "address"
        }
      ],
      "stateMutability": "view",
      "type": "function"
    },
    {
      "inputs": [
        {
          "internalType": "bytes4",
          "name": "interfaceId",
          "type": "bytes4"
        }
      ],
      "name": "supportsInterface",
      "outputs": [
        {
          "internalType": "bool",
          "name": "",
          "type": "bool"
        }
      ],
      "stateMutability": "view",
      "type": "function"
    },
    {
      "inputs": [
        {
          "internalType": "string",
          "name": "batchId",
          "type": "string"
        },
        {
          "internalType": "address",
          "name": "newCustodian",
          "type": "address"
        }
      ],
      "name": "transferCustody",
      "outputs": [],
      "stateMutability": "nonpayable",
      "type": "function"
    },
    {
      "inputs": [
        {
          "internalType": "string",
          "name": "batchId",
          "type": "string"
        },
        {
          "internalType": "enum PharbitBatch.BatchStatus",
          "name": "newStatus",
          "type": "uint8"
        }
      ],
      "name": "updateBatchStatus",
      "outputs": [],
      "stateMutability": "nonpayable",
      "type": "function"
    },
    {
      "inputs": [
        {
          "internalType": "string",
          "name": "batchId",
          "type": "string"
        }
      ],
      "name": "verifyBatch",
      "outputs": [
        {
          "components": [
            {
              "internalType": "string",
              "name": "batchId",
              "type": "string"
            },
            {
              "internalType": "string",
              "name": "medicineName",
              "type": "string"
            },
            {
              "internalType": "address",
              "name": "manufacturer",
              "type": "address"
            },
            {
              "internalType": "uint256",
              "name": "quantity",
              "type": "uint256"
            },
            {
              "internalType": "uint256",
              "name": "expiration",
              "type": "uint256"
            },
            {
              "internalType": "enum PharbitBatch.BatchStatus",
              "name": "status",
              "type": "uint8"
            },
            {
              "internalType": "address",
              "name": "custodian",
              "type": "address"
            }
          ],
          "internalType": "struct PharbitBatch.BatchInfo",
          "name": "info",
          "type": "tuple"
        },
        {
          "internalType": "bool",
          "name": "isValid",
          "type": "bool"
        }
      ],
      "stateMutability": "view",
      "type": "function"
    }
  ],
  "bytecode": "0x608060405234801562000010575f80fd5b50604051620020f1380380620020f1833981016040819052620000339162000158565b600180546001600160a01b0319166001600160a01b0384161790556200005a5f8262000090565b50620000877fa49807205ce4d355092ef5a8a18f56e8913cf4a201fbe287825b095693c217758262000090565b5050506200018e565b5f828152602081815260408083206001600160a01b038516845290915281205460ff1662000133575f838152602081815260408083206001600160a01b03861684529091529020805460ff19166001179055620000ea3390565b6001600160a01b0316826001600160a01b0316847f2f8788117e7eff1d82e926ec794901d17c78024a50270940304540a733656f0d60405160405180910390a450600162000136565b505f5b92915050565b80516001600160a01b038116811462000153575f80fd5b919050565b5f80604083850312156200016a575f80fd5b62000175836200013c565b915062000185602084016200013c565b90509250929050565b611f55806200019c5f395ff3fe608060405234801561000f575f80fd5b50600436106100fb575f3560e01c806375b238fc11610093578063d547741f11610063578063d547741f1461022c578063e906dc421461023f578063f033139314610260578063f9ca42741461028b575f80fd5b806375b238fc146101d857806391d14854146101ff578063a217fddf14610212578063b50a3c8714610219575f80fd5b80632f2ff15d116100ce5780632f2ff15d1461018c57806336568abe1461019f5780635f570371146101b25780636f5c148e146101c5575f80fd5b806301ffc9a7146100ff5780630968f4c3146101275780630ed5bdae14610147578063248a9ca31461015c575b5f80fd5b61011261010d36600461171a565b6102ab565b60405190151581526020015b60405180910390f35b61013a61013536600461177f565b6102e1565b60405161011e91906117be565b61015a610155366004611863565b6103e3565b005b61017e61016a3660046118ef565b5f9081526020819052604090206001015490565b60405190815260200161011e565b61015a61019a366004611906565b610838565b61015a6101ad366004611906565b610862565b61015a6101c0366004611930565b61089a565b61015a6101d336600461198a565b610af3565b61017e7fa49807205ce4d355092ef5a8a18f56e8913cf4a201fbe287825b095693c2177581565b61011261020d366004611906565b610c9d565b61017e5f81565b61015a6102273660046119da565b610cc5565b61015a61023a366004611906565b61109b565b61025261024d36600461177f565b6110bf565b60405161011e929190611b33565b600154610273906001600160a01b031681565b6040516001600160a01b03909116815260200161011e565b61029e61029936600461177f565b611306565b60405161011e9190611b56565b5f6001600160e01b03198216637965db0b60e01b14806102db57506301ffc9a760e01b6001600160e01b03198316145b92915050565b606060035f61032485858080601f0160208091040260200160405190810160405280939291908181526020018383808284375f9201919091525061150092505050565b81526020019081526020015f20805480602002602001604051908101604052809291908181526020015f905b828210156103d7575f8481526020908190206040805160c081018252600286029092018054600181810b855260ff62010000830481168688015263010000008304600390810b95870195909552670100000000000000830490940b6060860152600160581b9091049092161515608084015281015460a08301529083529092019101610350565b50505050905092915050565b60015460408051630965288b60e41b815290516001600160a01b03909216916391d1485491839163965288b0916004808201926020929091908290030181865afa158015610433573d5f803e3d5ffd5b505050506040513d601f19601f820116820180604052508101906104579190611b68565b6040516001600160e01b031960e084901b1681526004810191909152336024820152604401602060405180830381865afa158015610497573d5f803e3d5ffd5b505050506040513d601f19601f820116820180604052508101906104bb9190611b8c565b6104ff5760405162461bcd60e51b815260206004820152601060248201526f2737ba1036b0b73ab330b1ba3ab932b960811b60448201526064015b60405180910390fd5b8561053f5760405162461bcd60e51b815260206004820152601060248201526f18985d18da1259081c995c5d5a5c995960821b60448201526064016104f6565b5f61057e88888080601f0160208091040260200160405190810160405280939291908181526020018383808284375f9201919091525061150092505050565b5f81815260026020819052604090912001549091506001600160a01b0316156105d85760405162461bcd60e51b815260206004820152600c60248201526b42617463682065786973747360a01b60448201526064016104f6565b42831161061c5760405162461bcd60e51b815260206004820152601260248201527124b73b30b634b21032bc3834b930ba34b7b760711b60448201526064016104f6565b5f84116106595760405162461bcd60e51b815260206004820152600b60248201526a496e76616c69642071747960a81b60448201526064016104f6565b6040518060e0016040528089898080601f0160208091040260200160405190810160405280939291908181526020018383808284375f92019190915250505090825250604080516020601f8a01819004810282018101909252888152918101919089908990819084018382808284375f920182905250938552505033602084015250604082018790526060820186905260809091019081526001600160a01b0384166020918201525f8381526002909152604090208151819061071c9082611c40565b50602082015160018201906107319082611c40565b506040820151816002015f6101000a8154816001600160a01b0302191690836001600160a01b03160217905550606082015181600301556080820151816004015560a0820151816005015f6101000a81548160ff0219169083600381111561079b5761079b611a7d565b021790555060c09190910151600590910180546001600160a01b0390921661010002610100600160a81b03199092169190911790556107db60048261152f565b5060405133906107ee908a908a90611cfc565b6040805191829003822087835260208301879052917fc1aa2bdd1815cbfae4ffb57d47e56c444b60aa0c57b4ff7f416b2910b94f6a03910160405180910390a35050505050505050565b5f8281526020819052604090206001015461085281611541565b61085c838361154e565b50505050565b6001600160a01b038116331461088b5760405163334bd91960e11b815260040160405180910390fd5b61089582826115dd565b505050565b6001546040805163016ad78f60e01b815290516001600160a01b03909216916391d1485491839163016ad78f916004808201926020929091908290030181865afa1580156108ea573d5f803e3d5ffd5b505050506040513d601f19601f8201168201806040525081019061090e9190611b68565b6040516001600160e01b031960e084901b1681526004810191909152336024820152604401602060405180830381865afa15801561094e573d5f803e3d5ffd5b505050506040513d601f19601f820116820180604052508101906109729190611b8c565b6109a85760405162461bcd60e51b8152602060048201526007602482015266139bdd08125bd560ca1b60448201526064016104f6565b5f6109e784848080601f0160208091040260200160405190810160405280939291908181526020018383808284375f9201919091525061150092505050565b5f81815260026020819052604090912001549091506001600160a01b0316610a215760405162461bcd60e51b81526004016104f690611d0b565b42610a3360a084013562015180611d2d565b1015610a6e5760405162461bcd60e51b815260206004820152600a6024820152695374616c65206461746160b01b60448201526064016104f6565b5f818152600360209081526040822080546001810182559083529120839160020201610a9a8282611d8e565b50506040513390610aae9086908690611cfc565b60405180910390207fa03d8a84397685c6c25dfb72854eec2819de199182204231bc7f6929547d2ba384604051610ae59190611e79565b60405180910390a350505050565b5f610b3284848080601f0160208091040260200160405190810160405280939291908181526020018383808284375f9201919091525061150092505050565b5f81815260026020819052604090912001549091506001600160a01b0316610b6c5760405162461bcd60e51b81526004016104f690611d0b565b5f8181526002602052604090206005015461010090046001600160a01b0316338114610bd25760405162461bcd60e51b81526020600482015260156024820152742737ba1031bab93932b73a1031bab9ba37b234b0b760591b60448201526064016104f6565b6001600160a01b038316610c1c5760405162461bcd60e51b815260206004820152601160248201527024b73b30b634b21031bab9ba37b234b0b760791b60448201526064016104f6565b5f828152600260205260409081902060050180546001600160a01b038087166101008102610100600160a81b031990931692909217909255915190831690610c679088908890611cfc565b604051908190038120907f7fc70ede9a8a9960e2e93000354bb546cc9206bf59f2a62291d8abea2db4a7c5905f90a45050505050565b5f918252602082815260408084206001600160a01b0393909316845291905290205460ff1690565b60015460408051630965288b60e41b815290515f926001600160a01b0316916391d1485491839163965288b09160048083019260209291908290030181865afa158015610d14573d5f803e3d5ffd5b505050506040513d601f19601f82011682018060405250810190610d389190611b68565b6040516001600160e01b031960e084901b1681526004810191909152336024820152604401602060405180830381865afa158015610d78573d5f803e3d5ffd5b505050506040513d601f19601f82011682018060405250810190610d9c9190611b8c565b80610e7a575060015460408051633c2f61f360e21b815290516001600160a01b03909216916391d1485491839163f0bd87cc916004808201926020929091908290030181865afa158015610df2573d5f803e3d5ffd5b505050506040513d601f19601f82011682018060405250810190610e169190611b68565b6040516001600160e01b031960e084901b1681526004810191909152336024820152604401602060405180830381865afa158015610e56573d5f803e3d5ffd5b505050506040513d601f19601f82011682018060405250810190610e7a9190611b8c565b80610f5857506001546040805163f0c58ea760e01b815290516001600160a01b03909216916391d1485491839163f0c58ea7916004808201926020929091908290030181865afa158015610ed0573d5f803e3d5ffd5b505050506040513d601f19601f82011682018060405250810190610ef49190611b68565b6040516001600160e01b031960e084901b1681526004810191909152336024820152604401602060405180830381865afa158015610f34573d5f803e3d5ffd5b505050506040513d601f19601f82011682018060405250810190610f589190611b8c565b905080610f985760405162461bcd60e51b815260206004820152600e60248201526d139bdd08185d5d1a1bdc9a5e995960921b60448201526064016104f6565b5f610fd785858080601f0160208091040260200160405190810160405280939291908181526020018383808284375f9201919091525061150092505050565b5f81815260026020819052604090912001549091506001600160a01b03166110115760405162461bcd60e51b81526004016104f690611d0b565b5f818152600260205260409020600501805484919060ff1916600183600381111561103e5761103e611a7d565b021790555060405133906110559087908790611cfc565b60405180910390207fd221a94c902cd121acca6830365dbc39036318ef5da31b23888fd5e99939d9f58560405161108c9190611ef6565b60405180910390a35050505050565b5f828152602081905260409020600101546110b581611541565b61085c83836115dd565b6110c76116c8565b5f8061110785858080601f0160208091040260200160405190810160405280939291908181526020018383808284375f9201919091525061150092505050565b905060025f8281526020019081526020015f206040518060e00160405290815f8201805461113490611bbb565b80601f016020809104026020016040519081016040528092919081815260200182805461116090611bbb565b80156111ab5780601f10611182576101008083540402835291602001916111ab565b820191905f5260205f20905b81548152906001019060200180831161118e57829003601f168201915b505050505081526020016001820180546111c490611bbb565b80601f01602080910402602001604051908101604052809291908181526020018280546111f090611bbb565b801561123b5780601f106112125761010080835404028352916020019161123b565b820191905f5260205f20905b81548152906001019060200180831161121e57829003601f168201915b505050918352505060028201546001600160a01b03166020820152600380830154604083015260048301546060830152600583015460809092019160ff169081111561128957611289611a7d565b600381111561129a5761129a611a7d565b8152600591909101546001600160a01b0361010090910481166020909201919091526040820151919450166112d257505f90506112ff565b60808301515f8281526003602052604090205442909111901515848280156112f75750815b945094505050505b9250929050565b61130e6116c8565b60025f61134f85858080601f0160208091040260200160405190810160405280939291908181526020018383808284375f9201919091525061150092505050565b81526020019081526020015f206040518060e00160405290815f8201805461137690611bbb565b80601f01602080910402602001604051908101604052809291908181526020018280546113a290611bbb565b80156113ed5780601f106113c4576101008083540402835291602001916113ed565b820191905f5260205f20905b8154815290600101906020018083116113d057829003601f168201915b5050505050815260200160018201805461140690611bbb565b80601f016020809104026020016040519081016040528092919081815260200182805461143290611bbb565b801561147d5780601f106114545761010080835404028352916020019161147d565b820191905f5260205f20905b81548152906001019060200180831161146057829003601f168201915b505050918352505060028201546001600160a01b03166020820152600380830154604083015260048301546060830152600583015460809092019160ff16908111156114cb576114cb611a7d565b60038111156114dc576114dc611a7d565b81526005919091015461010090046001600160a01b03166020909101529392505050565b5f816040516020016115129190611f04565b604051602081830303815290604052805190602001209050919050565b5f61153a8383611646565b9392505050565b61154b813361168b565b50565b5f6115598383610c9d565b6115d6575f838152602081815260408083206001600160a01b03861684529091529020805460ff1916600117905561158e3390565b6001600160a01b0316826001600160a01b0316847f2f8788117e7eff1d82e926ec794901d17c78024a50270940304540a733656f0d60405160405180910390a45060016102db565b505f6102db565b5f6115e88383610c9d565b156115d6575f838152602081815260408083206001600160a01b0386168085529252808320805460ff1916905551339286917ff6391f5c32d9c69d2a47ea670b442974b53935d1edc7fd64eb21e047a839171b9190a45060016102db565b5f8181526001830160205260408120546115d657508154600181810184555f8481526020808220909301849055845484825282860190935260409020919091556102db565b6116958282610c9d565b6116c45760405163e2517d3f60e01b81526001600160a01b0382166004820152602481018390526044016104f6565b5050565b6040518060e0016040528060608152602001606081526020015f6001600160a01b031681526020015f81526020015f81526020015f600381111561170e5761170e611a7d565b81525f60209091015290565b5f6020828403121561172a575f80fd5b81356001600160e01b03198116811461153a575f80fd5b5f8083601f840112611751575f80fd5b50813567ffffffffffffffff811115611768575f80fd5b6020830191508360208285010111156112ff575f80fd5b5f8060208385031215611790575f80fd5b823567ffffffffffffffff8111156117a6575f80fd5b6117b285828601611741565b90969095509350505050565b602080825282518282018190525f919060409081850190868401855b8281101561183b5781518051600190810b86528782015160ff168887015286820151600390810b8888015260608084015190910b9087015260808083015115159087015260a0918201519186019190915260c09094019391860191016117da565b5091979650505050505050565b80356001600160a01b038116811461185e575f80fd5b919050565b5f805f805f805f60a0888a031215611879575f80fd5b873567ffffffffffffffff80821115611890575f80fd5b61189c8b838c01611741565b909950975060208a01359150808211156118b4575f80fd5b506118c18a828b01611741565b90965094505060408801359250606088013591506118e160808901611848565b905092959891949750929550565b5f602082840312156118ff575f80fd5b5035919050565b5f8060408385031215611917575f80fd5b8235915061192760208401611848565b90509250929050565b5f805f83850360e0811215611943575f80fd5b843567ffffffffffffffff811115611959575f80fd5b61196587828801611741565b90955093505060c0601f198201121561197c575f80fd5b506020840190509250925092565b5f805f6040848603121561199c575f80fd5b833567ffffffffffffffff8111156119b2575f80fd5b6119be86828701611741565b90945092506119d1905060208501611848565b90509250925092565b5f805f604084860312156119ec575f80fd5b833567ffffffffffffffff811115611a02575f80fd5b611a0e86828701611741565b909450925050602084013560048110611a25575f80fd5b809150509250925092565b5f5b83811015611a4a578181015183820152602001611a32565b50505f910152565b5f8151808452611a69816020860160208601611a30565b601f01601f19169290920160200192915050565b634e487b7160e01b5f52602160045260245ffd5b60048110611aad57634e487b7160e01b5f52602160045260245ffd5b9052565b5f815160e08452611ac560e0850182611a52565b905060208301518482036020860152611ade8282611a52565b915050604083015160018060a01b038082166040870152606085015160608701526080850151608087015260a08501519150611b1d60a0870183611a91565b60c0948501511694909301939093525090919050565b604081525f611b456040830185611ab1565b905082151560208301529392505050565b602081525f61153a6020830184611ab1565b5f60208284031215611b78575f80fd5b5051919050565b801515811461154b575f80fd5b5f60208284031215611b9c575f80fd5b815161153a81611b7f565b634e487b7160e01b5f52604160045260245ffd5b600181811c90821680611bcf57607f821691505b602082108103611bed57634e487b7160e01b5f52602260045260245ffd5b50919050565b601f821115610895575f81815260208120601f850160051c81016020861015611c195750805b601f850160051c820191505b81811015611c3857828155600101611c25565b505050505050565b815167ffffffffffffffff811115611c5a57611c5a611ba7565b611c6e81611c688454611bbb565b84611bf3565b602080601f831160018114611ca1575f8415611c8a5750858301515b5f19600386901b1c1916600185901b178555611c38565b5f85815260208120601f198616915b82811015611ccf57888601518255948401946001909101908401611cb0565b5085821015611cec57878501515f19600388901b60f8161c191681555b5050505050600190811b01905550565b818382375f9101908152919050565b60208082526008908201526709cde40c4c2e8c6d60c31b604082015260600190565b808201808211156102db57634e487b7160e01b5f52601160045260245ffd5b8060010b811461154b575f80fd5b60ff8116811461154b575f80fd5b8060030b811461154b575f80fd5b5f81356102db81611d68565b5f81356102db81611b7f565b8135611d9981611d4c565b815461ffff82811661ffff1983161784556020850135611db881611d5a565b62ff000060109190911b16921662ffffff19821681178317845591604085013590611de282611d68565b8160181b66ffffffff000000168466ffffffffffffff19851617821717855550505050611e3e611e1460608401611d76565b825460389190911b6affffffff00000000000000166affffffff0000000000000019909116178255565b611e6b611e4d60808401611d82565b82805460ff60581b191691151560581b60ff60581b16919091179055565b60a082013560018201555050565b60c081018235611e8881611d4c565b60010b82526020830135611e9b81611d5a565b60ff1660208301526040830135611eb181611d68565b60030b60408301526060830135611ec781611d68565b60030b60608301526080830135611edd81611b7f565b80151560808401525060a083013560a083015292915050565b602081016102db8284611a91565b5f8251611f15818460208701611a30565b919091019291505056fea264697066735822122060972e4a8df8e61eb6ce26281964635f636a3bcacec910bc608f2ed6f31c860a64736f6c63430008140033",
  "linkReferences": {},
  "deployedLinkReferences": {},
  "immutableReferences": {},
  "inputSourceName": "project/contracts/PharbitBatch.sol",
  "buildInfoId": "solc-0_8_20-b09318e02b1418fb518b3c17e014e96dfffe52de"
}