{
  "_format": "hh-sol-artifact-1",
  "contractName": "PharbitChain",
  "sourceName": "contracts/PharbitChain.sol",
  "abi": [
    {
      "inputs": [],
      "stateMutability": "nonpayable",
      "type": "constructor"
    },
    {
      "inputs": [],
      "name": "AccessControlBadConfirmation",
      "type": "error"
    },
    {
      "inputs": [
        {
          "internalType": "address",
          "name": "account",
          "type": "address"
        },
        {
          "internalType": "bytes32",
          "name": "neededRole",
          "type": "bytes32"
        }
      ],
      "name": "AccessControlUnauthorizedAccount",
      "type": "error"
    },
    {
      "inputs": [],
      "name": "EnforcedPause",
      "type": "error"
    },
    {
      "inputs": [],
      "name": "ExpectedPause",
      "type": "error"
    },
    {
      "anonymous": false,
      "inputs": [
        {
          "indexed": true,
          "internalType": "uint256",
          "name": "batchId",
          "type": "uint256"
        },
        {
          "indexed": false,
          "internalType": "string",
          "name": "drugName",
          "type": "string"
        },
        {
          "indexed": false,
          "internalType": "string",
          "name": "batchNumber",
          "type": "string"
        },
        {
          "indexed": true,
          "internalType": "address",
          "name": "manufacturer",
          "type": "address"
        },
        {
          "indexed": false,
          "internalType": "uint256",
          "name": "quantity",
          "type": "uint256"
        }
      ],
      "name": "BatchCreated",
      "type": "event"
    },
    {
      "anonymous": false,
      "inputs": [
        {
          "indexed": true,
          "internalType": "uint256",
          "name": "batchId",
          "type": "uint256"
        },
        {
          "indexed": false,
          "internalType": "enum PharbitChain.BatchStatus",
          "name": "oldStatus",
          "type": "uint8"
        },
        {
          "indexed": false,
          "internalType": "enum PharbitChain.BatchStatus",
          "name": "newStatus",
          "type": "uint8"
        },
        {
          "indexed": false,
          "internalType": "string",
          "name": "reason",
          "type": "string"
        }
      ],
      "name": "BatchStatusChanged",
      "type": "event"
    },
    {
      "anonymous": false,
      "inputs": [
        {
          "indexed": true,
          "internalType": "uint256",
          "name": "batchId",
          "type": "uint256"
        },
        {
          "indexed": true,
          "internalType": "address",
          "name": "from",
          "type": "address"
        },
        {
          "indexed": true,
          "internalType": "address",
          "name": "to",
          "type": "address"
        },
        {
          "indexed": false,
          "internalType": "string",
          "name": "reason",
          "type": "string"
        }
      ],
      "name": "BatchTransferred",
      "type": "event"
    },
    {
      "anonymous": false,
      "inputs": [
        {
          "indexed": false,
          "internalType": "address",
          "name": "account",
          "type": "address"
        }
      ],
      "name": "Paused",
      "type": "event"
    },
    {
      "anonymous": false,
      "inputs": [
        {
          "indexed": true,
          "internalType": "bytes32",
          "name": "role",
          "type": "bytes32"
        },
        {
          "indexed": true,
          "internalType": "bytes32",
          "name": "previousAdminRole",
          "type": "bytes32"
        },
        {
          "indexed": true,
          "internalType": "bytes32",
          "name": "newAdminRole",
          "type": "bytes32"
        }
      ],
      "name": "RoleAdminChanged",
      "type": "event"
    },
    {
      "anonymous": false,
      "inputs": [
        {
          "indexed": true,
          "internalType": "bytes32",
          "name": "role",
          "type": "bytes32"
        },
        {
          "indexed": true,
          "internalType": "address",
          "name": "account",
          "type": "address"
        },
        {
          "indexed": true,
          "internalType": "address",
          "name": "sender",
          "type": "address"
        }
      ],
      "name": "RoleGranted",
      "type": "event"
    },
    {
      "anonymous": false,
      "inputs": [
        {
          "indexed": true,
          "internalType": "bytes32",
          "name": "role",
          "type": "bytes32"
        },
        {
          "indexed": true,
          "internalType": "address",
          "name": "account",
          "type": "address"
        },
        {
          "indexed": true,
          "internalType": "address",
          "name": "sender",
          "type": "address"
        }
      ],
      "name": "RoleRevoked",
      "type": "event"
    },
    {
      "anonymous": false,
      "inputs": [
        {
          "indexed": false,
          "internalType": "address",
          "name": "account",
          "type": "address"
        }
      ],
      "name": "Unpaused",
      "type": "event"
    },
    {
      "inputs": [],
      "name": "ADMIN_ROLE",
      "outputs": [
        {
          "internalType": "bytes32",
          "name": "",
          "type": "bytes32"
        }
      ],
      "stateMutability": "view",
      "type": "function"
    },
    {
      "inputs": [],
      "name": "DEFAULT_ADMIN_ROLE",
      "outputs": [
        {
          "internalType": "bytes32",
          "name": "",
          "type": "bytes32"
        }
      ],
      "stateMutability": "view",
      "type": "function"
    },
    {
      "inputs": [],
      "name": "DISTRIBUTOR_ROLE",
      "outputs": [
        {
          "internalType": "bytes32",
          "name": "",
          "type": "bytes32"
        }
      ],
      "stateMutability": "view",
      "type": "function"
    },
    {
      "inputs": [],
      "name": "INSPECTOR_ROLE",
      "outputs": [
        {
          "internalType": "bytes32",
          "name": "",
          "type": "bytes32"
        }
      ],
      "stateMutability": "view",
      "type": "function"
    },
    {
      "inputs": [],
      "name": "MANUFACTURER_ROLE",
      "outputs": [
        {
          "internalType": "bytes32",
          "name": "",
          "type": "bytes32"
        }
      ],
      "stateMutability": "view",
      "type": "function"
    },
    {
      "inputs": [],
      "name": "PHARMACY_ROLE",
      "outputs": [
        {
          "internalType": "bytes32",
          "name": "",
          "type": "bytes32"
        }
      ],
      "stateMutability": "view",
      "type": "function"
    },
    {
      "inputs": [
        {
          "internalType": "string",
          "name": "",
          "type": "string"
        }
      ],
      "name": "batchNumberToId",
      "outputs": [
        {
          "internalType": "uint256",
          "name": "",
          "type": "uint256"
        }
      ],
      "stateMutability": "view",
      "type": "function"
    },
    {
      "inputs": [
        {
          "internalType": "uint256",
          "name": "",
          "type": "uint256"
        }
      ],
      "name": "batches",
      "outputs": [
        {
          "internalType": "uint256",
          "name": "batchId",
          "type": "uint256"
        },
        {
          "internalType": "string",
          "name": "drugName",
          "type": "string"
        },
        {
          "internalType": "string",
          "name": "drugCode",
          "type": "string"
        },
        {
          "internalType": "string",
          "name": "manufacturer",
          "type": "string"
        },
        {
          "internalType": "uint256",
          "name": "quantity",
          "type": "uint256"
        },
        {
          "internalType": "uint256",
          "name": "productionDate",
          "type": "uint256"
        },
        {
          "internalType": "uint256",
          "name": "expiryDate",
          "type": "uint256"
        },
        {
          "internalType": "string",
          "name": "batchNumber",
          "type": "string"
        },
        {
          "internalType": "address",
          "name": "currentOwner",
          "type": "address"
        },
        {
          "internalType": "enum PharbitChain.BatchStatus",
          "name": "status",
          "type": "uint8"
        },
        {
          "internalType": "uint256",
          "name": "createdAt",
          "type": "uint256"
        },
        {
          "internalType": "uint256",
          "name": "updatedAt",
          "type": "uint256"
        }
      ],
      "stateMutability": "view",
      "type": "function"
    },
    {
      "inputs": [
        {
          "internalType": "string",
          "name": "drugName",
          "type": "string"
        },
        {
          "internalType": "string",
          "name": "drugCode",
          "type": "string"
        },
        {
          "internalType": "string",
          "name": "manufacturer",
          "type": "string"
        },
        {
          "internalType": "uint256",
          "name": "quantity",
          "type": "uint256"
        },
        {
          "internalType": "uint256",
          "name": "productionDate",
          "type": "uint256"
        },
        {
          "internalType": "uint256",
          "name": "expiryDate",
          "type": "uint256"
        },
        {
          "internalType": "string",
          "name": "batchNumber",
          "type": "string"
        }
      ],
      "name": "createBatch",
      "outputs": [],
      "stateMutability": "nonpayable",
      "type": "function"
    },
    {
      "inputs": [
        {
          "internalType": "uint256",
          "name": "batchId",
          "type": "uint256"
        }
      ],
      "name": "getBatch",
      "outputs": [
        {
          "internalType": "uint256",
          "name": "batchId_",
          "type": "uint256"
        },
        {
          "internalType": "string",
          "name": "drugName",
          "type": "string"
        },
        {
          "internalType": "string",
          "name": "drugCode",
          "type": "string"
        },
        {
          "internalType": "string",
          "name": "manufacturer",
          "type": "string"
        },
        {
          "internalType": "uint256",
          "name": "quantity",
          "type": "uint256"
        },
        {
          "internalType": "uint256",
          "name": "productionDate",
          "type": "uint256"
        },
        {
          "internalType": "uint256",
          "name": "expiryDate",
          "type": "uint256"
        },
        {
          "internalType": "string",
          "name": "batchNumber",
          "type": "string"
        },
        {
          "internalType": "address",
          "name": "currentOwner",
          "type": "address"
        },
        {
          "internalType": "enum PharbitChain.BatchStatus",
          "name": "status",
          "type": "uint8"
        },
        {
          "internalType": "uint256",
          "name": "createdAt",
          "type": "uint256"
        },
        {
          "internalType": "uint256",
          "name": "updatedAt",
          "type": "uint256"
        }
      ],
      "stateMutability": "view",
      "type": "function"
    },
    {
      "inputs": [
        {
          "internalType": "bytes32",
          "name": "role",
          "type": "bytes32"
        }
      ],
      "name": "getRoleAdmin",
      "outputs": [
        {
          "internalType": "bytes32",
          "name": "",
          "type": "bytes32"
        }
      ],
      "stateMutability": "view",
      "type": "function"
    },
    {
      "inputs": [],
      "name": "getTotalBatches",
      "outputs": [
        {
          "internalType": "uint256",
          "name": "",
          "type": "uint256"
        }
      ],
      "stateMutability": "view",
      "type": "function"
    },
    {
      "inputs": [
        {
          "internalType": "address",
          "name": "user",
          "type": "address"
        }
      ],
      "name": "getUserBatches",
      "outputs": [
        {
          "internalType": "uint256[]",
          "name": "",
          "type": "uint256[]"
        }
      ],
      "stateMutability": "view",
      "type": "function"
    },
    {
      "inputs": [
        {
          "internalType": "bytes32",
          "name": "role",
          "type": "bytes32"
        },
        {
          "internalType": "address",
          "name": "account",
          "type": "address"
        }
      ],
      "name": "grantRole",
      "outputs": [],
      "stateMutability": "nonpayable",
      "type": "function"
    },
    {
      "inputs": [
        {
          "internalType": "bytes32",
          "name": "role",
          "type": "bytes32"
        },
        {
          "internalType": "address",
          "name": "account",
          "type": "address"
        }
      ],
      "name": "hasRole",
      "outputs": [
        {
          "internalType": "bool",
          "name": "",
          "type": "bool"
        }
      ],
      "stateMutability": "view",
      "type": "function"
    },
    {
      "inputs": [],
      "name": "paused",
      "outputs": [
        {
          "internalType": "bool",
          "name": "",
          "type": "bool"
        }
      ],
      "stateMutability": "view",
      "type": "function"
    },
    {
      "inputs": [
        {
          "internalType": "bytes32",
          "name": "role",
          "type": "bytes32"
        },
        {
          "internalType": "address",
          "name": "callerConfirmation",
          "type": "address"
        }
      ],
      "name": "renounceRole",
      "outputs": [],
      "stateMutability": "nonpayable",
      "type": "function"
    },
    {
      "inputs": [
        {
          "internalType": "bytes32",
          "name": "role",
          "type": "bytes32"
        },
        {
          "internalType": "address",
          "name": "account",
          "type": "address"
        }
      ],
      "name": "revokeRole",
      "outputs": [],
      "stateMutability": "nonpayable",
      "type": "function"
    },
    {
      "inputs": [
        {
          "internalType": "bytes4",
          "name": "interfaceId",
          "type": "bytes4"
        }
      ],
      "name": "supportsInterface",
      "outputs": [
        {
          "internalType": "bool",
          "name": "",
          "type": "bool"
        }
      ],
      "stateMutability": "view",
      "type": "function"
    },
    {
      "inputs": [
        {
          "internalType": "uint256",
          "name": "batchId",
          "type": "uint256"
        },
        {
          "internalType": "address",
          "name": "to",
          "type": "address"
        },
        {
          "internalType": "string",
          "name": "reason",
          "type": "string"
        }
      ],
      "name": "transferBatch",
      "outputs": [],
      "stateMutability": "nonpayable",
      "type": "function"
    },
    {
      "inputs": [
        {
          "internalType": "uint256",
          "name": "batchId",
          "type": "uint256"
        },
        {
          "internalType": "enum PharbitChain.BatchStatus",
          "name": "newStatus",
          "type": "uint8"
        },
        {
          "internalType": "string",
          "name": "reason",
          "type": "string"
        }
      ],
      "name": "updateBatchStatus",
      "outputs": [],
      "stateMutability": "nonpayable",
      "type": "function"
    },
    {
      "inputs": [
        {
          "internalType": "address",
          "name": "",
          "type": "address"
        },
        {
          "internalType": "uint256",
          "name": "",
          "type": "uint256"
        }
      ],
      "name": "userBatches",
      "outputs": [
        {
          "internalType": "uint256",
          "name": "",
          "type": "uint256"
        }
      ],
      "stateMutability": "view",
      "type": "function"
    }
  ],
  "bytecode": "0x6080604052346200003e57620000153362000043565b506200002133620000c3565b506200002d3362000165565b50604051611bcb9081620002038239f35b600080fd5b6001600160a01b031660008181527fad3228b676f7d3cd4284a5443f17f1962b36e491b30a40b2405849e597ba5fb5602052604081205490919060ff16620000bf57818052816020526040822081835260205260408220600160ff19825416179055339160008051602062001dce8339815191528180a4600190565b5090565b6001600160a01b031660008181527f7d7ffb7a348e1c6a02869081a26547b49160dd3df72d1d75a570eb9b698292ec60205260408120549091907fa49807205ce4d355092ef5a8a18f56e8913cf4a201fbe287825b095693c217759060ff166200016057808352826020526040832082845260205260408320600160ff1982541617905560008051602062001dce833981519152339380a4600190565b505090565b6001600160a01b031660008181527f6b476db4b19b8e11ac475b323c35b9d0f52831cf1d8cf1455692d57ffbccaaac60205260408120549091907feefb95e842a3287179d933b4460be539a1d5af11aa8b325bb45c5c8dc92de4ed9060ff166200016057808352826020526040832082845260205260408320600160ff1982541617905560008051602062001dce833981519152339380a460019056fe608080604052600436101561001357600080fd5b60003560e01c90816301ffc9a7146115b3575080630e36b33314610d445780631f18fd3d14610a56578063248a9ca314610a275780632f2ff15d146109e857806336568abe146109a1578063475d1ba3146109495780635ac442821461088c5780635c975abb1461086957806375b238fc1461082e57806391d14854146107e1578063965288b0146107a6578063a217fddf1461078a578063b32c4d8d146106ee578063c12bcaec14610336578063d547741f146102f5578063d913a08b14610241578063e3a3c52214610206578063e561dddc146101e8578063f0bd87cc146101ad578063f0c58ea7146101725763f652c9111461011157600080fd5b3461016d57602036600319011261016d576004356001600160401b03811161016d5761015a602061014781933690600401611627565b81604051938285809451938492016116d7565b8101600481520301902054604051908152f35b600080fd5b3461016d57600036600319011261016d5760206040517f2f3a5455f35aeca177ac653592f277fbe2fbafef01081a2030451bb2fb41c91d8152f35b3461016d57600036600319011261016d5760206040517ffbd454f36a7e1a388bd6fc3ab10d434aa4578f811acbbcf33afb1c697486313c8152f35b3461016d57600036600319011261016d576020600254604051908152f35b3461016d57600036600319011261016d5760206040517f273dcf2136c7d8ef632bb8ef13dbca69a8f36fa620c7468671b3153d46a211c08152f35b3461016d5760208060031936011261016d576001600160a01b03610263611693565b1660005260058152604060002060405190818382549182815201908192600052846000209060005b868282106102e15786866102a182880383611606565b604051928392818401908285525180915260408401929160005b8281106102ca57505050500390f35b8351855286955093810193928101926001016102bb565b83548552909301926001928301920161028b565b3461016d57604036600319011261016d5761033460043561031461167d565b9080600052600060205261032f6001604060002001546118a0565b611962565b005b3461016d57606036600319011261016d5760043561035261167d565b9060449182356001600160401b03811161016d57610374903690600401611627565b9180600052600392602084815260018060a01b03936008908582604060002001541633036106b8578590851515806106ac575b6103b090611a2c565b6103b8611a0e565b1696871561067557338814610632578460005286835260ff826040600020015460a01c16828110156105d9576004146105ef578460005286835260ff826040600020015460a01c16828110156105d9576007146105965750836000528582526040600020908101878154968716966bffffffffffffffffffffffff60a01b16179055600a42910155836000526005815260406000209460005b8654808210156105695785610466838a6116a9565b905490851b1c14610480575061047b906119d7565b610451565b959694956000199591818701918211610553576104b06104a36104c993856116a9565b905490861b1c91846116a9565b90919082549060031b91821b91600019901b1916179055565b805494851561053d57807f5f9f53aaf015683723f6e51c7b9c52d49f4c315e8d8d7144f504fb40e48b92f696019261050184846116a9565b81939154921b1b19169055555b85600052600581526105248460406000206119e6565b6105386040519282849384528301906116fa565b0390a4005b634e487b7160e01b600052603160045260246000fd5b634e487b7160e01b600052601160045260246000fd5b5050507f5f9f53aaf015683723f6e51c7b9c52d49f4c315e8d8d7144f504fb40e48b92f69293945061050e565b827f43616e6e6f74207472616e736665722064657374726f796564206261746368006064926040519262461bcd60e51b84526004840152601f6024840152820152fd5b634e487b7160e01b600052602160045260246000fd5b827f43616e6e6f74207472616e736665722064697370656e736564206261746368006064926040519262461bcd60e51b84526004840152601f6024840152820152fd5b827f43616e6e6f74207472616e7366657220746f2073656c660000000000000000006064926040519262461bcd60e51b8452600484015260176024840152820152fd5b8270125b9d985b1a59081c9958da5c1a595b9d607a1b6064926040519262461bcd60e51b8452600484015260116024840152820152fd5b506002548611156103a7565b60405162461bcd60e51b815260048101849052600f60248201526e2737ba103130ba31b41037bbb732b960891b818a0152606490fd5b3461016d57602036600319011261016d57600435600052600360205260406000208054610786610720600184016117fa565b9161072d600285016117fa565b9361073a600382016117fa565b9160048201549060058301546006840154610757600786016117fa565b91600886015494600a6009880154970154976040519b8c9b60ff8960a01c169860018060a01b0316978d61172c565b0390f35b3461016d57600036600319011261016d57602060405160008152f35b3461016d57600036600319011261016d5760206040517feefb95e842a3287179d933b4460be539a1d5af11aa8b325bb45c5c8dc92de4ed8152f35b3461016d57604036600319011261016d576107fa61167d565b600435600052600060205260406000209060018060a01b0316600052602052602060ff604060002054166040519015158152f35b3461016d57600036600319011261016d5760206040517fa49807205ce4d355092ef5a8a18f56e8913cf4a201fbe287825b095693c217758152f35b3461016d57600036600319011261016d57602060ff600154166040519015158152f35b3461016d57602036600319011261016d576004358015158061093d575b6108b290611a2c565b60005260036020526040600020805490610786600482015492600583015492600681015491600882015490600983015492600a810154946108f5600183016117fa565b97610902600284016117fa565b9961091b6007610914600387016117fa565b95016117fa565b6040519b8c9b60a089901c60ff16986001600160a01b0316979296928d61172c565b506002548111156108a9565b3461016d57604036600319011261016d57610962611693565b6001600160a01b031660009081526005602052604090208054602435919082101561016d57602091610993916116a9565b90546040519160031b1c8152f35b3461016d57604036600319011261016d576109ba61167d565b336001600160a01b038216036109d65761033490600435611962565b60405163334bd91960e11b8152600490fd5b3461016d57604036600319011261016d57610334600435610a0761167d565b90806000526000602052610a226001604060002001546118a0565b6118e4565b3461016d57602036600319011261016d5760043560005260006020526020600160406000200154604051908152f35b3461016d57606036600319011261016d57600435602435600881101561016d576044356001600160401b03811161016d57610a95903690600401611627565b82151580610d38575b610aa790611a2c565b610aaf611a0e565b3360009081527f7d7ffb7a348e1c6a02869081a26547b49160dd3df72d1d75a570eb9b698292ec602090815260409091205460ff93919084168015610cf7575b8015610cb6575b8015610c75575b8015610c34575b15610bf05784600052600381526040600020600881018054958660a01c1695610b2d8588611a6f565b15610bab5760ff60a01b191660a085901b60ff60a01b1617905542600a909101556040517f7d99413df145781853c55497224c5684f97074073bce6ed9c41cad0f760d5f869490938493610ba6939192610b959290610b8d90879061171f565b85019061171f565b6060604084015260608301906116fa565b0390a2005b60405162461bcd60e51b815260048101859052601960248201527f496e76616c696420737461747573207472616e736974696f6e000000000000006044820152606490fd5b6064906040519062461bcd60e51b82526004820152601860248201527f496e73756666696369656e74207065726d697373696f6e7300000000000000006044820152fd5b507f273dcf2136c7d8ef632bb8ef13dbca69a8f36fa620c7468671b3153d46a211c06000526000815260406000203360005281528360406000205416610b04565b507f2f3a5455f35aeca177ac653592f277fbe2fbafef01081a2030451bb2fb41c91d6000526000815260406000203360005281528360406000205416610afd565b507ffbd454f36a7e1a388bd6fc3ab10d434aa4578f811acbbcf33afb1c697486313c6000526000815260406000203360005281528360406000205416610af6565b507feefb95e842a3287179d933b4460be539a1d5af11aa8b325bb45c5c8dc92de4ed6000526000815260406000203360005281528360406000205416610aef565b50600254831115610a9e565b3461016d5760e036600319011261016d576004356001600160401b03811161016d57610d74903690600401611627565b6024356001600160401b03811161016d57610d93903690600401611627565b604480356001600160401b03811161016d57610db3903690600401611627565b9160c4356001600160401b03811161016d57610dd3903690600401611627565b3360009081527f6b476db4b19b8e11ac475b323c35b9d0f52831cf1d8cf1455692d57ffbccaaac60205260409020549092907feefb95e842a3287179d933b4460be539a1d5af11aa8b325bb45c5c8dc92de4ed9060ff16156115985750610e38611a0e565b84511561155f5781511561152657606435156114e25760843560a43511156114a85782511561146c576040516020818551610e768183858a016116d7565b81016004815203019020546114325750610e916002546119d7565b928360025583600052600360205260406000209184835585516001600160401b0381116111bd57610ec560018501546117c0565b601f81116113eb575b50806020601f821160011461137e57600091611373575b508160011b916000199060031b1c19161760018401555b8051906001600160401b0382116111bd578190610f1c60028601546117c0565b601f8111611320575b50602090601f83116001146112ae576000926112a3575b50508160011b916000199060031b1c19161760028301555b8051906001600160401b0382116111bd578190610f7460038501546117c0565b601f8111611250575b50602090601f83116001146111de576000926111d3575b50508160011b916000199060031b1c19161760038201555b6064356004820155608435600582015560a435600682015581516001600160401b0381116111bd57610fe160078301546117c0565b601f8111611176575b506020601f82116001146110e55791817f92b6020e18f2d7328b8bc9a6af7c2c05fd727f42a7e7e48cf5df3cd5bbe19ae594926110c9946000916110da575b508160011b916000199060031b1c19161760078201555b60088101805460ff60a01b193316906affffffffffffffffffffff60a81b16179055426009820155600a4291015583604051602081845161108481838589016116d7565b81016004815203019020553360005260056020526110a68460406000206119e6565b6110bb604051956060875260608701906116fa565b9085820360208701526116fa565b9260643560408201528033940390a3005b905083015188611029565b601f198216906007840160005260206000209160005b81811061115e5750926110c99492600192827f92b6020e18f2d7328b8bc9a6af7c2c05fd727f42a7e7e48cf5df3cd5bbe19ae5989610611145575b5050811b016007820155611040565b85015160001960f88460031b161c191690558880611136565b9192602060018192868a0151815501940192016110fb565b600783016000526020600020601f830160051c8101602084106111b6575b601f830160051c820181106111aa575050610fea565b60008155600101611194565b5080611194565b634e487b7160e01b600052604160045260246000fd5b015190508680610f94565b9250600384016000526020600020906000935b601f1984168510611235576001945083601f1981161061121c575b505050811b016003820155610fac565b015160001960f88460031b161c1916905586808061120c565b818101518355602094850194600190930192909101906111f1565b909150600384016000526020600020601f840160051c81016020851061129c575b90849392915b601f830160051c8201811061128d575050610f7d565b60008155859450600101611277565b5080611271565b015190508780610f3c565b9250600285016000526020600020906000935b601f1984168510611305576001945083601f198116106112ec575b505050811b016002830155610f54565b015160001960f88460031b161c191690558780806112dc565b818101518355602094850194600190930192909101906112c1565b909150600285016000526020600020601f840160051c81016020851061136c575b90849392915b601f830160051c8201811061135d575050610f25565b60008155859450600101611347565b5080611341565b905087015188610ee5565b91506001850160005260206000206000925b601f19831684106113d3576001935082601f198116106113ba575b5050811b016001840155610efc565b89015160001960f88460031b161c1916905588806113ab565b89810151825560209384019360019092019101611390565b600185016000526020600020601f830160051c81016020841061142b575b601f830160051c8201811061141f575050610ece565b60008155600101611409565b5080611409565b606490724261746368206e756d6265722065786973747360681b6040519162461bcd60e51b83526020600484015260136024840152820152fd5b6064907410985d18da081b9d5b58995c881c995c5d5a5c9959605a1b6040519162461bcd60e51b83526020600484015260156024840152820152fd5b60649072496e76616c696420657870697279206461746560681b6040519162461bcd60e51b83526020600484015260136024840152820152fd5b6064907f5175616e74697479206d75737420626520706f736974697665000000000000006040519162461bcd60e51b83526020600484015260196024840152820152fd5b60649071111c9d59c818dbd919481c995c5d5a5c995960721b6040519162461bcd60e51b83526020600484015260126024840152820152fd5b60649071111c9d59c81b985b59481c995c5d5a5c995960721b6040519162461bcd60e51b83526020600484015260126024840152820152fd5b6040519063e2517d3f60e01b82523360048301526024820152fd5b3461016d57602036600319011261016d576004359063ffffffff60e01b821680920361016d57602091637965db0b60e01b81149081156115f5575b5015158152f35b6301ffc9a760e01b149050836115ee565b90601f801991011681019081106001600160401b038211176111bd57604052565b81601f8201121561016d578035906001600160401b0382116111bd576040519261165b601f8401601f191660200185611606565b8284526020838301011161016d57816000926020809301838601378301015290565b602435906001600160a01b038216820361016d57565b600435906001600160a01b038216820361016d57565b80548210156116c15760005260206000200190600090565b634e487b7160e01b600052603260045260246000fd5b60005b8381106116ea5750506000910152565b81810151838201526020016116da565b90602091611713815180928185528580860191016116d7565b601f01601f1916010190565b9060088210156105d95752565b989c9b9a979261179a959461176f61177d926117616117b69b966101609f9b968f9081526101809081602082015201906116fa565b8d810360408f0152906116fa565b908b820360608d01526116fa565b9360808a015260a089015260c088015286820360e08801526116fa565b6001600160a01b0390981661010085015261012084019061171f565b6101408201520152565b90600182811c921680156117f0575b60208310146117da57565b634e487b7160e01b600052602260045260246000fd5b91607f16916117cf565b906040519182600082549261180e846117c0565b90818452600194858116908160001461187d575060011461183a575b505061183892500383611606565b565b9093915060005260209081600020936000915b8183106118655750506118389350820101388061182a565b8554888401850152948501948794509183019161184d565b91505061183894506020925060ff191682840152151560051b820101388061182a565b80600052600060205260406000203360005260205260ff60406000205416156118c65750565b6044906040519063e2517d3f60e01b82523360048301526024820152fd5b9060009180835282602052604083209160018060a01b03169182845260205260ff6040842054161560001461195d57808352826020526040832082845260205260408320600160ff198254161790557f2f8788117e7eff1d82e926ec794901d17c78024a50270940304540a733656f0d339380a4600190565b505090565b9060009180835282602052604083209160018060a01b03169182845260205260ff60408420541660001461195d5780835282602052604083208284526020526040832060ff1981541690557ff6391f5c32d9c69d2a47ea670b442974b53935d1edc7fd64eb21e047a839171b339380a4600190565b60001981146105535760010190565b90815491680100000000000000008310156111bd57826104b0916001611838950181556116a9565b60ff60015416611a1a57565b60405163d93c066560e01b8152600490fd5b15611a3357565b60405162461bcd60e51b815260206004820152601460248201527310985d18da08191bd95cc81b9bdd08195e1a5cdd60621b6044820152606490fd5b6008808210156105d9578115611b585760018214611b375760028214611afa5760038214611ada5760048214611ad25760058214611ac35760068214611ac357506007915014611abe57600090565b600090565b90508110156105d95760071490565b505050600090565b90508110156105d95760048114908115611af2575090565b600591501490565b905081101590816105d95760018114918215611b29575b8215611b1c57505090565b9091506105d95760051490565b506003811491506000611b11565b905081101590816105d95760028114918215611b29578215611b1c57505090565b905081101590816105d95760018114918215611b87575b8215611b7a57505090565b9091506105d95760071490565b506005811491506000611b6f56fea2646970667358221220c94771067cff9f686c57d12d197ab69a54f7bdf60a14a1de92bd4a49c0219caa64736f6c634300081400332f8788117e7eff1d82e926ec794901d17c78024a50270940304540a733656f0d",
  "linkReferences": {},
  "deployedLinkReferences": {}
}