{
  "_format": "hh3-artifact-1",
  "contractName": "PharbitSensor",
  "sourceName": "contracts/PharbitSensor.sol",
  "abi": [
    {
      "inputs": [
        {
          "internalType": "address",
          "name": "admin",
          "type": "address"
        }
      ],
      "stateMutability": "nonpayable",
      "type": "constructor"
    },
    {
      "inputs": [],
      "name": "AccessControlBadConfirmation",
      "type": "error"
    },
    {
      "inputs": [
        {
          "internalType": "address",
          "name": "account",
          "type": "address"
        },
        {
          "internalType": "bytes32",
          "name": "neededRole",
          "type": "bytes32"
        }
      ],
      "name": "AccessControlUnauthorizedAccount",
      "type": "error"
    },
    {
      "anonymous": false,
      "inputs": [
        {
          "indexed": true,
          "internalType": "bytes32",
          "name": "role",
          "type": "bytes32"
        },
        {
          "indexed": true,
          "internalType": "bytes32",
          "name": "previousAdminRole",
          "type": "bytes32"
        },
        {
          "indexed": true,
          "internalType": "bytes32",
          "name": "newAdminRole",
          "type": "bytes32"
        }
      ],
      "name": "RoleAdminChanged",
      "type": "event"
    },
    {
      "anonymous": false,
      "inputs": [
        {
          "indexed": true,
          "internalType": "bytes32",
          "name": "role",
          "type": "bytes32"
        },
        {
          "indexed": true,
          "internalType": "address",
          "name": "account",
          "type": "address"
        },
        {
          "indexed": true,
          "internalType": "address",
          "name": "sender",
          "type": "address"
        }
      ],
      "name": "RoleGranted",
      "type": "event"
    },
    {
      "anonymous": false,
      "inputs": [
        {
          "indexed": true,
          "internalType": "bytes32",
          "name": "role",
          "type": "bytes32"
        },
        {
          "indexed": true,
          "internalType": "address",
          "name": "account",
          "type": "address"
        },
        {
          "indexed": true,
          "internalType": "address",
          "name": "sender",
          "type": "address"
        }
      ],
      "name": "RoleRevoked",
      "type": "event"
    },
    {
      "anonymous": false,
      "inputs": [
        {
          "indexed": true,
          "internalType": "address",
          "name": "sensor",
          "type": "address"
        },
        {
          "indexed": false,
          "internalType": "string",
          "name": "manufacturer",
          "type": "string"
        },
        {
          "indexed": false,
          "internalType": "string",
          "name": "model",
          "type": "string"
        }
      ],
      "name": "SensorRegistered",
      "type": "event"
    },
    {
      "anonymous": false,
      "inputs": [
        {
          "indexed": true,
          "internalType": "address",
          "name": "sensor",
          "type": "address"
        },
        {
          "indexed": false,
          "internalType": "bool",
          "name": "active",
          "type": "bool"
        }
      ],
      "name": "SensorStatus",
      "type": "event"
    },
    {
      "inputs": [],
      "name": "ADMIN_ROLE",
      "outputs": [
        {
          "internalType": "bytes32",
          "name": "",
          "type": "bytes32"
        }
      ],
      "stateMutability": "view",
      "type": "function"
    },
    {
      "inputs": [],
      "name": "DEFAULT_ADMIN_ROLE",
      "outputs": [
        {
          "internalType": "bytes32",
          "name": "",
          "type": "bytes32"
        }
      ],
      "stateMutability": "view",
      "type": "function"
    },
    {
      "inputs": [],
      "name": "IOT_ROLE",
      "outputs": [
        {
          "internalType": "bytes32",
          "name": "",
          "type": "bytes32"
        }
      ],
      "stateMutability": "view",
      "type": "function"
    },
    {
      "inputs": [
        {
          "internalType": "bytes32",
          "name": "role",
          "type": "bytes32"
        }
      ],
      "name": "getRoleAdmin",
      "outputs": [
        {
          "internalType": "bytes32",
          "name": "",
          "type": "bytes32"
        }
      ],
      "stateMutability": "view",
      "type": "function"
    },
    {
      "inputs": [
        {
          "internalType": "bytes32",
          "name": "role",
          "type": "bytes32"
        },
        {
          "internalType": "address",
          "name": "account",
          "type": "address"
        }
      ],
      "name": "grantRole",
      "outputs": [],
      "stateMutability": "nonpayable",
      "type": "function"
    },
    {
      "inputs": [
        {
          "internalType": "bytes32",
          "name": "role",
          "type": "bytes32"
        },
        {
          "internalType": "address",
          "name": "account",
          "type": "address"
        }
      ],
      "name": "hasRole",
      "outputs": [
        {
          "internalType": "bool",
          "name": "",
          "type": "bool"
        }
      ],
      "stateMutability": "view",
      "type": "function"
    },
    {
      "inputs": [
        {
          "internalType": "address",
          "name": "sensor",
          "type": "address"
        },
        {
          "components": [
            {
              "internalType": "string",
              "name": "manufacturer",
              "type": "string"
            },
            {
              "internalType": "string",
              "name": "model",
              "type": "string"
            },
            {
              "internalType": "string",
              "name": "metadataURI",
              "type": "string"
            },
            {
              "internalType": "bool",
              "name": "active",
              "type": "bool"
            }
          ],
          "internalType": "struct PharbitSensor.Sensor",
          "name": "info",
          "type": "tuple"
        },
        {
          "internalType": "bytes32",
          "name": "pubKeyHash",
          "type": "bytes32"
        }
      ],
      "name": "registerSensor",
      "outputs": [],
      "stateMutability": "nonpayable",
      "type": "function"
    },
    {
      "inputs": [
        {
          "internalType": "bytes32",
          "name": "role",
          "type": "bytes32"
        },
        {
          "internalType": "address",
          "name": "callerConfirmation",
          "type": "address"
        }
      ],
      "name": "renounceRole",
      "outputs": [],
      "stateMutability": "nonpayable",
      "type": "function"
    },
    {
      "inputs": [
        {
          "internalType": "bytes32",
          "name": "role",
          "type": "bytes32"
        },
        {
          "internalType": "address",
          "name": "account",
          "type": "address"
        }
      ],
      "name": "revokeRole",
      "outputs": [],
      "stateMutability": "nonpayable",
      "type": "function"
    },
    {
      "inputs": [
        {
          "internalType": "address",
          "name": "",
          "type": "address"
        }
      ],
      "name": "sensorPubKeyHash",
      "outputs": [
        {
          "internalType": "bytes32",
          "name": "",
          "type": "bytes32"
        }
      ],
      "stateMutability": "view",
      "type": "function"
    },
    {
      "inputs": [
        {
          "internalType": "address",
          "name": "",
          "type": "address"
        }
      ],
      "name": "sensors",
      "outputs": [
        {
          "internalType": "string",
          "name": "manufacturer",
          "type": "string"
        },
        {
          "internalType": "string",
          "name": "model",
          "type": "string"
        },
        {
          "internalType": "string",
          "name": "metadataURI",
          "type": "string"
        },
        {
          "internalType": "bool",
          "name": "active",
          "type": "bool"
        }
      ],
      "stateMutability": "view",
      "type": "function"
    },
    {
      "inputs": [
        {
          "internalType": "address",
          "name": "sensor",
          "type": "address"
        },
        {
          "internalType": "bool",
          "name": "active",
          "type": "bool"
        }
      ],
      "name": "setActive",
      "outputs": [],
      "stateMutability": "nonpayable",
      "type": "function"
    },
    {
      "inputs": [
        {
          "internalType": "bytes4",
          "name": "interfaceId",
          "type": "bytes4"
        }
      ],
      "name": "supportsInterface",
      "outputs": [
        {
          "internalType": "bool",
          "name": "",
          "type": "bool"
        }
      ],
      "stateMutability": "view",
      "type": "function"
    }
  ],
  "bytecode": "0x608060405234801561000f575f80fd5b50604051610f1a380380610f1a83398101604081905261002e91610113565b6100385f8261006a565b506100637fa49807205ce4d355092ef5a8a18f56e8913cf4a201fbe287825b095693c217758261006a565b5050610140565b5f828152602081815260408083206001600160a01b038516845290915281205460ff1661010a575f838152602081815260408083206001600160a01b03861684529091529020805460ff191660011790556100c23390565b6001600160a01b0316826001600160a01b0316847f2f8788117e7eff1d82e926ec794901d17c78024a50270940304540a733656f0d60405160405180910390a450600161010d565b505f5b92915050565b5f60208284031215610123575f80fd5b81516001600160a01b0381168114610139575f80fd5b9392505050565b610dcd8061014d5f395ff3fe608060405234801561000f575f80fd5b50600436106100cb575f3560e01c80633cab13911161008857806391d148541161006357806391d14854146101cf578063a217fddf146101e2578063c3e8fb97146101e9578063d547741f1461020c575f80fd5b80633cab1391146101765780635c83aed11461019557806375b238fc146101a8575f80fd5b8063016ad78f146100cf57806301ffc9a7146100f6578063248a9ca3146101195780632ce962cf1461013b5780632f2ff15d1461015057806336568abe14610163575b5f80fd5b6100e35f80516020610d7883398151915281565b6040519081526020015b60405180910390f35b610109610104366004610882565b61021f565b60405190151581526020016100ed565b6100e36101273660046108b0565b5f9081526020819052604090206001015490565b61014e6101493660046108ef565b610255565b005b61014e61015e366004610924565b610396565b61014e610171366004610924565b6103c0565b6100e361018436600461094e565b60026020525f908152604090205481565b61014e6101a3366004610967565b6103f8565b6100e37fa49807205ce4d355092ef5a8a18f56e8913cf4a201fbe287825b095693c2177581565b6101096101dd366004610924565b610538565b6100e35f81565b6101fc6101f736600461094e565b610560565b6040516100ed9493929190610a02565b61014e61021a366004610924565b61071c565b5f6001600160e01b03198216637965db0b60e01b148061024f57506301ffc9a760e01b6001600160e01b03198316145b92915050565b7fa49807205ce4d355092ef5a8a18f56e8913cf4a201fbe287825b095693c2177561027f81610740565b6001600160a01b0383165f90815260016020526040902080546102a190610a4e565b90505f036102e75760405162461bcd60e51b815260206004820152600e60248201526d139bdd081c9959da5cdd195c995960921b60448201526064015b60405180910390fd5b6001600160a01b0383165f908152600160205260409020600301805460ff191683158015919091179091556103335761032d5f80516020610d788339815191528461074d565b5061034c565b61034a5f80516020610d78833981519152846107dc565b505b826001600160a01b03167fab6a15174bc9c3e140a1e12a6cd6d2b8c3d55408103785472c87c0cf2a205a2b83604051610389911515815260200190565b60405180910390a2505050565b5f828152602081905260409020600101546103b081610740565b6103ba838361074d565b50505050565b6001600160a01b03811633146103e95760405163334bd91960e11b815260040160405180910390fd5b6103f382826107dc565b505050565b7fa49807205ce4d355092ef5a8a18f56e8913cf4a201fbe287825b095693c2177561042281610740565b6001600160a01b0384166104695760405162461bcd60e51b815260206004820152600e60248201526d24b73b30b634b21039b2b739b7b960911b60448201526064016102de565b6001600160a01b0384165f908152600160205260409020839061048c8282610bf9565b50506001600160a01b0384165f908152600160208181526040808420600301805460ff19169093179092556002905290208290556104d75f80516020610d788339815191528561074d565b506001600160a01b0384167fb62da694986d1919eaf04d22339e24dd79232c346b22beb896d9d41086f94a8261050d8580610a86565b61051a6020880188610a86565b60405161052a9493929190610d46565b60405180910390a250505050565b5f918252602082815260408084206001600160a01b0393909316845291905290205460ff1690565b60016020525f908152604090208054819061057a90610a4e565b80601f01602080910402602001604051908101604052809291908181526020018280546105a690610a4e565b80156105f15780601f106105c8576101008083540402835291602001916105f1565b820191905f5260205f20905b8154815290600101906020018083116105d457829003601f168201915b50505050509080600101805461060690610a4e565b80601f016020809104026020016040519081016040528092919081815260200182805461063290610a4e565b801561067d5780601f106106545761010080835404028352916020019161067d565b820191905f5260205f20905b81548152906001019060200180831161066057829003601f168201915b50505050509080600201805461069290610a4e565b80601f01602080910402602001604051908101604052809291908181526020018280546106be90610a4e565b80156107095780601f106106e057610100808354040283529160200191610709565b820191905f5260205f20905b8154815290600101906020018083116106ec57829003601f168201915b5050506003909301549192505060ff1684565b5f8281526020819052604090206001015461073681610740565b6103ba83836107dc565b61074a8133610845565b50565b5f6107588383610538565b6107d5575f838152602081815260408083206001600160a01b03861684529091529020805460ff1916600117905561078d3390565b6001600160a01b0316826001600160a01b0316847f2f8788117e7eff1d82e926ec794901d17c78024a50270940304540a733656f0d60405160405180910390a450600161024f565b505f61024f565b5f6107e78383610538565b156107d5575f838152602081815260408083206001600160a01b0386168085529252808320805460ff1916905551339286917ff6391f5c32d9c69d2a47ea670b442974b53935d1edc7fd64eb21e047a839171b9190a450600161024f565b61084f8282610538565b61087e5760405163e2517d3f60e01b81526001600160a01b0382166004820152602481018390526044016102de565b5050565b5f60208284031215610892575f80fd5b81356001600160e01b0319811681146108a9575f80fd5b9392505050565b5f602082840312156108c0575f80fd5b5035919050565b80356001600160a01b03811681146108dd575f80fd5b919050565b801515811461074a575f80fd5b5f8060408385031215610900575f80fd5b610909836108c7565b91506020830135610919816108e2565b809150509250929050565b5f8060408385031215610935575f80fd5b82359150610945602084016108c7565b90509250929050565b5f6020828403121561095e575f80fd5b6108a9826108c7565b5f805f60608486031215610979575f80fd5b610982846108c7565b9250602084013567ffffffffffffffff81111561099d575f80fd5b8401608081870312156109ae575f80fd5b929592945050506040919091013590565b5f81518084525f5b818110156109e3576020818501810151868301820152016109c7565b505f602082860101526020601f19601f83011685010191505092915050565b608081525f610a1460808301876109bf565b8281036020840152610a2681876109bf565b90508281036040840152610a3a81866109bf565b915050821515606083015295945050505050565b600181811c90821680610a6257607f821691505b602082108103610a8057634e487b7160e01b5f52602260045260245ffd5b50919050565b5f808335601e19843603018112610a9b575f80fd5b83018035915067ffffffffffffffff821115610ab5575f80fd5b602001915036819003821315610ac9575f80fd5b9250929050565b634e487b7160e01b5f52604160045260245ffd5b601f8211156103f3575f81815260208120601f850160051c81016020861015610b0a5750805b601f850160051c820191505b81811015610b2957828155600101610b16565b505050505050565b67ffffffffffffffff831115610b4957610b49610ad0565b610b5d83610b578354610a4e565b83610ae4565b5f601f841160018114610b8e575f8515610b775750838201355b5f19600387901b1c1916600186901b178355610be6565b5f83815260209020601f19861690835b82811015610bbe5786850135825560209485019460019092019101610b9e565b5086821015610bda575f1960f88860031b161c19848701351681555b505060018560011b0183555b5050505050565b5f813561024f816108e2565b610c038283610a86565b67ffffffffffffffff811115610c1b57610c1b610ad0565b610c2f81610c298554610a4e565b85610ae4565b5f601f821160018114610c60575f8315610c495750838201355b5f19600385901b1c1916600184901b178555610cb8565b5f85815260209020601f19841690835b82811015610c905786850135825560209485019460019092019101610c70565b5084821015610cac575f1960f88660031b161c19848701351681555b505060018360011b0185555b50505050610cc96020830183610a86565b610cd7818360018601610b31565b5050610ce66040830183610a86565b610cf4818360028601610b31565b505061087e610d0560608401610bed565b6003830160ff1981541660ff8315151681178255505050565b81835281816020850137505f828201602090810191909152601f909101601f19169091010190565b604081525f610d59604083018688610d1e565b8281036020840152610d6c818587610d1e565b97965050505050505056fe20d9bb381123487c7458dc4b1e41409eafb0e74092b8def477c5c636cc4f4b73a2646970667358221220d01b9dd84635b1afe712f5e7945ba9b64a7084621e6e84dbf73ccf0864f4335164736f6c63430008140033",
  "linkReferences": {},
  "deployedLinkReferences": {},
  "immutableReferences": {},
  "inputSourceName": "project/contracts/PharbitSensor.sol",
  "buildInfoId": "solc-0_8_20-b09318e02b1418fb518b3c17e014e96dfffe52de"
}