{
  "_format": "hh-sol-artifact-1",
  "contractName": "PharbitSensor",
  "sourceName": "contracts/PharbitSensor.sol",
  "abi": [
    {
      "inputs": [
        {
          "internalType": "address",
          "name": "admin",
          "type": "address"
        }
      ],
      "stateMutability": "nonpayable",
      "type": "constructor"
    },
    {
      "inputs": [],
      "name": "AccessControlBadConfirmation",
      "type": "error"
    },
    {
      "inputs": [
        {
          "internalType": "address",
          "name": "account",
          "type": "address"
        },
        {
          "internalType": "bytes32",
          "name": "neededRole",
          "type": "bytes32"
        }
      ],
      "name": "AccessControlUnauthorizedAccount",
      "type": "error"
    },
    {
      "anonymous": false,
      "inputs": [
        {
          "indexed": true,
          "internalType": "bytes32",
          "name": "role",
          "type": "bytes32"
        },
        {
          "indexed": true,
          "internalType": "bytes32",
          "name": "previousAdminRole",
          "type": "bytes32"
        },
        {
          "indexed": true,
          "internalType": "bytes32",
          "name": "newAdminRole",
          "type": "bytes32"
        }
      ],
      "name": "RoleAdminChanged",
      "type": "event"
    },
    {
      "anonymous": false,
      "inputs": [
        {
          "indexed": true,
          "internalType": "bytes32",
          "name": "role",
          "type": "bytes32"
        },
        {
          "indexed": true,
          "internalType": "address",
          "name": "account",
          "type": "address"
        },
        {
          "indexed": true,
          "internalType": "address",
          "name": "sender",
          "type": "address"
        }
      ],
      "name": "RoleGranted",
      "type": "event"
    },
    {
      "anonymous": false,
      "inputs": [
        {
          "indexed": true,
          "internalType": "bytes32",
          "name": "role",
          "type": "bytes32"
        },
        {
          "indexed": true,
          "internalType": "address",
          "name": "account",
          "type": "address"
        },
        {
          "indexed": true,
          "internalType": "address",
          "name": "sender",
          "type": "address"
        }
      ],
      "name": "RoleRevoked",
      "type": "event"
    },
    {
      "anonymous": false,
      "inputs": [
        {
          "indexed": true,
          "internalType": "address",
          "name": "sensor",
          "type": "address"
        },
        {
          "indexed": false,
          "internalType": "string",
          "name": "manufacturer",
          "type": "string"
        },
        {
          "indexed": false,
          "internalType": "string",
          "name": "model",
          "type": "string"
        }
      ],
      "name": "SensorRegistered",
      "type": "event"
    },
    {
      "anonymous": false,
      "inputs": [
        {
          "indexed": true,
          "internalType": "address",
          "name": "sensor",
          "type": "address"
        },
        {
          "indexed": false,
          "internalType": "bool",
          "name": "active",
          "type": "bool"
        }
      ],
      "name": "SensorStatus",
      "type": "event"
    },
    {
      "inputs": [],
      "name": "ADMIN_ROLE",
      "outputs": [
        {
          "internalType": "bytes32",
          "name": "",
          "type": "bytes32"
        }
      ],
      "stateMutability": "view",
      "type": "function"
    },
    {
      "inputs": [],
      "name": "DEFAULT_ADMIN_ROLE",
      "outputs": [
        {
          "internalType": "bytes32",
          "name": "",
          "type": "bytes32"
        }
      ],
      "stateMutability": "view",
      "type": "function"
    },
    {
      "inputs": [],
      "name": "IOT_ROLE",
      "outputs": [
        {
          "internalType": "bytes32",
          "name": "",
          "type": "bytes32"
        }
      ],
      "stateMutability": "view",
      "type": "function"
    },
    {
      "inputs": [
        {
          "internalType": "bytes32",
          "name": "role",
          "type": "bytes32"
        }
      ],
      "name": "getRoleAdmin",
      "outputs": [
        {
          "internalType": "bytes32",
          "name": "",
          "type": "bytes32"
        }
      ],
      "stateMutability": "view",
      "type": "function"
    },
    {
      "inputs": [
        {
          "internalType": "bytes32",
          "name": "role",
          "type": "bytes32"
        },
        {
          "internalType": "address",
          "name": "account",
          "type": "address"
        }
      ],
      "name": "grantRole",
      "outputs": [],
      "stateMutability": "nonpayable",
      "type": "function"
    },
    {
      "inputs": [
        {
          "internalType": "bytes32",
          "name": "role",
          "type": "bytes32"
        },
        {
          "internalType": "address",
          "name": "account",
          "type": "address"
        }
      ],
      "name": "hasRole",
      "outputs": [
        {
          "internalType": "bool",
          "name": "",
          "type": "bool"
        }
      ],
      "stateMutability": "view",
      "type": "function"
    },
    {
      "inputs": [
        {
          "internalType": "address",
          "name": "sensor",
          "type": "address"
        },
        {
          "components": [
            {
              "internalType": "string",
              "name": "manufacturer",
              "type": "string"
            },
            {
              "internalType": "string",
              "name": "model",
              "type": "string"
            },
            {
              "internalType": "string",
              "name": "metadataURI",
              "type": "string"
            },
            {
              "internalType": "bool",
              "name": "active",
              "type": "bool"
            }
          ],
          "internalType": "struct PharbitSensor.Sensor",
          "name": "info",
          "type": "tuple"
        },
        {
          "internalType": "bytes32",
          "name": "pubKeyHash",
          "type": "bytes32"
        }
      ],
      "name": "registerSensor",
      "outputs": [],
      "stateMutability": "nonpayable",
      "type": "function"
    },
    {
      "inputs": [
        {
          "internalType": "bytes32",
          "name": "role",
          "type": "bytes32"
        },
        {
          "internalType": "address",
          "name": "callerConfirmation",
          "type": "address"
        }
      ],
      "name": "renounceRole",
      "outputs": [],
      "stateMutability": "nonpayable",
      "type": "function"
    },
    {
      "inputs": [
        {
          "internalType": "bytes32",
          "name": "role",
          "type": "bytes32"
        },
        {
          "internalType": "address",
          "name": "account",
          "type": "address"
        }
      ],
      "name": "revokeRole",
      "outputs": [],
      "stateMutability": "nonpayable",
      "type": "function"
    },
    {
      "inputs": [
        {
          "internalType": "address",
          "name": "",
          "type": "address"
        }
      ],
      "name": "sensorPubKeyHash",
      "outputs": [
        {
          "internalType": "bytes32",
          "name": "",
          "type": "bytes32"
        }
      ],
      "stateMutability": "view",
      "type": "function"
    },
    {
      "inputs": [
        {
          "internalType": "address",
          "name": "",
          "type": "address"
        }
      ],
      "name": "sensors",
      "outputs": [
        {
          "internalType": "string",
          "name": "manufacturer",
          "type": "string"
        },
        {
          "internalType": "string",
          "name": "model",
          "type": "string"
        },
        {
          "internalType": "string",
          "name": "metadataURI",
          "type": "string"
        },
        {
          "internalType": "bool",
          "name": "active",
          "type": "bool"
        }
      ],
      "stateMutability": "view",
      "type": "function"
    },
    {
      "inputs": [
        {
          "internalType": "address",
          "name": "sensor",
          "type": "address"
        },
        {
          "internalType": "bool",
          "name": "active",
          "type": "bool"
        }
      ],
      "name": "setActive",
      "outputs": [],
      "stateMutability": "nonpayable",
      "type": "function"
    },
    {
      "inputs": [
        {
          "internalType": "bytes4",
          "name": "interfaceId",
          "type": "bytes4"
        }
      ],
      "name": "supportsInterface",
      "outputs": [
        {
          "internalType": "bool",
          "name": "",
          "type": "bool"
        }
      ],
      "stateMutability": "view",
      "type": "function"
    }
  ],
  "bytecode": "0x608060405234801561001057600080fd5b50604051610f71380380610f7183398101604081905261002f91610118565b61003a60008261006c565b506100657fa49807205ce4d355092ef5a8a18f56e8913cf4a201fbe287825b095693c217758261006c565b5050610148565b6000828152602081815260408083206001600160a01b038516845290915281205460ff1661010e576000838152602081815260408083206001600160a01b03861684529091529020805460ff191660011790556100c63390565b6001600160a01b0316826001600160a01b0316847f2f8788117e7eff1d82e926ec794901d17c78024a50270940304540a733656f0d60405160405180910390a4506001610112565b5060005b92915050565b60006020828403121561012a57600080fd5b81516001600160a01b038116811461014157600080fd5b9392505050565b610e1a806101576000396000f3fe608060405234801561001057600080fd5b50600436106100cf5760003560e01c80633cab13911161008c57806391d148541161006657806391d14854146101d7578063a217fddf146101ea578063c3e8fb97146101f2578063d547741f1461021557600080fd5b80633cab13911461017d5780635c83aed11461019d57806375b238fc146101b057600080fd5b8063016ad78f146100d457806301ffc9a7146100fc578063248a9ca31461011f5780632ce962cf146101425780632f2ff15d1461015757806336568abe1461016a575b600080fd5b6100e9600080516020610dc583398151915281565b6040519081526020015b60405180910390f35b61010f61010a3660046108a3565b610228565b60405190151581526020016100f3565b6100e961012d3660046108d4565b60009081526020819052604090206001015490565b610155610150366004610917565b61025f565b005b61015561016536600461094e565b6103a5565b61015561017836600461094e565b6103d0565b6100e961018b36600461097a565b60026020526000908152604090205481565b6101556101ab366004610995565b610408565b6100e97fa49807205ce4d355092ef5a8a18f56e8913cf4a201fbe287825b095693c2177581565b61010f6101e536600461094e565b61054b565b6100e9600081565b61020561020036600461097a565b610574565b6040516100f39493929190610a38565b61015561022336600461094e565b610737565b60006001600160e01b03198216637965db0b60e01b148061025957506301ffc9a760e01b6001600160e01b03198316145b92915050565b7fa49807205ce4d355092ef5a8a18f56e8913cf4a201fbe287825b095693c217756102898161075c565b6001600160a01b038316600090815260016020526040902080546102ac90610a85565b90506000036102f35760405162461bcd60e51b815260206004820152600e60248201526d139bdd081c9959da5cdd195c995960921b60448201526064015b60405180910390fd5b6001600160a01b0383166000908152600160205260409020600301805460ff191683158015919091179091556103415761033b600080516020610dc583398151915284610769565b5061035b565b610359600080516020610dc5833981519152846107fb565b505b826001600160a01b03167fab6a15174bc9c3e140a1e12a6cd6d2b8c3d55408103785472c87c0cf2a205a2b83604051610398911515815260200190565b60405180910390a2505050565b6000828152602081905260409020600101546103c08161075c565b6103ca8383610769565b50505050565b6001600160a01b03811633146103f95760405163334bd91960e11b815260040160405180910390fd5b61040382826107fb565b505050565b7fa49807205ce4d355092ef5a8a18f56e8913cf4a201fbe287825b095693c217756104328161075c565b6001600160a01b0384166104795760405162461bcd60e51b815260206004820152600e60248201526d24b73b30b634b21039b2b739b7b960911b60448201526064016102ea565b6001600160a01b0384166000908152600160205260409020839061049d8282610c3f565b50506001600160a01b0384166000908152600160208181526040808420600301805460ff19169093179092556002905290208290556104ea600080516020610dc583398151915285610769565b506001600160a01b0384167fb62da694986d1919eaf04d22339e24dd79232c346b22beb896d9d41086f94a826105208580610abf565b61052d6020880188610abf565b60405161053d9493929190610d92565b60405180910390a250505050565b6000918252602082815260408084206001600160a01b0393909316845291905290205460ff1690565b60016020526000908152604090208054819061058f90610a85565b80601f01602080910402602001604051908101604052809291908181526020018280546105bb90610a85565b80156106085780601f106105dd57610100808354040283529160200191610608565b820191906000526020600020905b8154815290600101906020018083116105eb57829003601f168201915b50505050509080600101805461061d90610a85565b80601f016020809104026020016040519081016040528092919081815260200182805461064990610a85565b80156106965780601f1061066b57610100808354040283529160200191610696565b820191906000526020600020905b81548152906001019060200180831161067957829003601f168201915b5050505050908060020180546106ab90610a85565b80601f01602080910402602001604051908101604052809291908181526020018280546106d790610a85565b80156107245780601f106106f957610100808354040283529160200191610724565b820191906000526020600020905b81548152906001019060200180831161070757829003601f168201915b5050506003909301549192505060ff1684565b6000828152602081905260409020600101546107528161075c565b6103ca83836107fb565b6107668133610866565b50565b6000610775838361054b565b6107f3576000838152602081815260408083206001600160a01b03861684529091529020805460ff191660011790556107ab3390565b6001600160a01b0316826001600160a01b0316847f2f8788117e7eff1d82e926ec794901d17c78024a50270940304540a733656f0d60405160405180910390a4506001610259565b506000610259565b6000610807838361054b565b156107f3576000838152602081815260408083206001600160a01b0386168085529252808320805460ff1916905551339286917ff6391f5c32d9c69d2a47ea670b442974b53935d1edc7fd64eb21e047a839171b9190a4506001610259565b610870828261054b565b61089f5760405163e2517d3f60e01b81526001600160a01b0382166004820152602481018390526044016102ea565b5050565b6000602082840312156108b557600080fd5b81356001600160e01b0319811681146108cd57600080fd5b9392505050565b6000602082840312156108e657600080fd5b5035919050565b80356001600160a01b038116811461090457600080fd5b919050565b801515811461076657600080fd5b6000806040838503121561092a57600080fd5b610933836108ed565b9150602083013561094381610909565b809150509250929050565b6000806040838503121561096157600080fd5b82359150610971602084016108ed565b90509250929050565b60006020828403121561098c57600080fd5b6108cd826108ed565b6000806000606084860312156109aa57600080fd5b6109b3846108ed565b9250602084013567ffffffffffffffff8111156109cf57600080fd5b8401608081870312156109e157600080fd5b929592945050506040919091013590565b6000815180845260005b81811015610a18576020818501810151868301820152016109fc565b506000602082860101526020601f19601f83011685010191505092915050565b608081526000610a4b60808301876109f2565b8281036020840152610a5d81876109f2565b90508281036040840152610a7181866109f2565b915050821515606083015295945050505050565b600181811c90821680610a9957607f821691505b602082108103610ab957634e487b7160e01b600052602260045260246000fd5b50919050565b6000808335601e19843603018112610ad657600080fd5b83018035915067ffffffffffffffff821115610af157600080fd5b602001915036819003821315610b0657600080fd5b9250929050565b634e487b7160e01b600052604160045260246000fd5b601f82111561040357600081815260208120601f850160051c81016020861015610b4a5750805b601f850160051c820191505b81811015610b6957828155600101610b56565b505050505050565b67ffffffffffffffff831115610b8957610b89610b0d565b610b9d83610b978354610a85565b83610b23565b6000601f841160018114610bd15760008515610bb95750838201355b600019600387901b1c1916600186901b178355610c2b565b600083815260209020601f19861690835b82811015610c025786850135825560209485019460019092019101610be2565b5086821015610c1f5760001960f88860031b161c19848701351681555b505060018560011b0183555b5050505050565b6000813561025981610909565b610c498283610abf565b67ffffffffffffffff811115610c6157610c61610b0d565b610c7581610c6f8554610a85565b85610b23565b6000601f821160018114610ca95760008315610c915750838201355b600019600385901b1c1916600184901b178555610d03565b600085815260209020601f19841690835b82811015610cda5786850135825560209485019460019092019101610cba565b5084821015610cf75760001960f88660031b161c19848701351681555b505060018360011b0185555b50505050610d146020830183610abf565b610d22818360018601610b71565b5050610d316040830183610abf565b610d3f818360028601610b71565b505061089f610d5060608401610c32565b6003830160ff1981541660ff8315151681178255505050565b81835281816020850137506000828201602090810191909152601f909101601f19169091010190565b604081526000610da6604083018688610d69565b8281036020840152610db9818587610d69565b97965050505050505056fe20d9bb381123487c7458dc4b1e41409eafb0e74092b8def477c5c636cc4f4b73a26469706673582212206f0e78d488321a9f9a32f8a1c37075527084f07c6e723e916f4bee83366c455c64736f6c63430008140033",
  "linkReferences": {},
  "deployedLinkReferences": {}
}