{
  "_format": "hh-sol-artifact-1",
  "contractName": "GovernanceContract",
  "sourceName": "contracts/GovernanceContract.sol",
  "abi": [
    {
      "inputs": [
        {
          "internalType": "address[]",
          "name": "initialOwners",
          "type": "address[]"
        },
        {
          "internalType": "uint256",
          "name": "initialQuorum",
          "type": "uint256"
        },
        {
          "internalType": "address",
          "name": "admin",
          "type": "address"
        }
      ],
      "stateMutability": "nonpayable",
      "type": "constructor"
    },
    {
      "inputs": [],
      "name": "AlreadyVoted",
      "type": "error"
    },
    {
      "inputs": [],
      "name": "DuplicateOwner",
      "type": "error"
    },
    {
      "inputs": [],
      "name": "InvalidOwner",
      "type": "error"
    },
    {
      "inputs": [],
      "name": "InvalidQuorum",
      "type": "error"
    },
    {
      "inputs": [],
      "name": "NotAdmin",
      "type": "error"
    },
    {
      "inputs": [],
      "name": "NotOwner",
      "type": "error"
    },
    {
      "inputs": [],
      "name": "ProposalNotFound",
      "type": "error"
    },
    {
      "inputs": [],
      "name": "VotingClosed",
      "type": "error"
    },
    {
      "anonymous": false,
      "inputs": [
        {
          "indexed": true,
          "internalType": "address",
          "name": "owner",
          "type": "address"
        }
      ],
      "name": "OwnerAdded",
      "type": "event"
    },
    {
      "anonymous": false,
      "inputs": [
        {
          "indexed": true,
          "internalType": "address",
          "name": "owner",
          "type": "address"
        }
      ],
      "name": "OwnerRemoved",
      "type": "event"
    },
    {
      "anonymous": false,
      "inputs": [
        {
          "indexed": true,
          "internalType": "uint256",
          "name": "proposalId",
          "type": "uint256"
        },
        {
          "indexed": true,
          "internalType": "address",
          "name": "proposer",
          "type": "address"
        },
        {
          "indexed": false,
          "internalType": "string",
          "name": "description",
          "type": "string"
        },
        {
          "indexed": false,
          "internalType": "uint256",
          "name": "deadline",
          "type": "uint256"
        }
      ],
      "name": "ProposalCreated",
      "type": "event"
    },
    {
      "anonymous": false,
      "inputs": [
        {
          "indexed": true,
          "internalType": "uint256",
          "name": "proposalId",
          "type": "uint256"
        },
        {
          "indexed": false,
          "internalType": "bool",
          "name": "passed",
          "type": "bool"
        }
      ],
      "name": "ProposalExecuted",
      "type": "event"
    },
    {
      "anonymous": false,
      "inputs": [
        {
          "indexed": false,
          "internalType": "uint256",
          "name": "quorum",
          "type": "uint256"
        }
      ],
      "name": "QuorumUpdated",
      "type": "event"
    },
    {
      "anonymous": false,
      "inputs": [
        {
          "indexed": true,
          "internalType": "bytes32",
          "name": "role",
          "type": "bytes32"
        },
        {
          "indexed": true,
          "internalType": "bytes32",
          "name": "previousAdminRole",
          "type": "bytes32"
        },
        {
          "indexed": true,
          "internalType": "bytes32",
          "name": "newAdminRole",
          "type": "bytes32"
        }
      ],
      "name": "RoleAdminChanged",
      "type": "event"
    },
    {
      "anonymous": false,
      "inputs": [
        {
          "indexed": true,
          "internalType": "bytes32",
          "name": "role",
          "type": "bytes32"
        },
        {
          "indexed": true,
          "internalType": "address",
          "name": "account",
          "type": "address"
        },
        {
          "indexed": true,
          "internalType": "address",
          "name": "sender",
          "type": "address"
        }
      ],
      "name": "RoleGranted",
      "type": "event"
    },
    {
      "anonymous": false,
      "inputs": [
        {
          "indexed": true,
          "internalType": "bytes32",
          "name": "role",
          "type": "bytes32"
        },
        {
          "indexed": true,
          "internalType": "address",
          "name": "account",
          "type": "address"
        },
        {
          "indexed": true,
          "internalType": "address",
          "name": "sender",
          "type": "address"
        }
      ],
      "name": "RoleRevoked",
      "type": "event"
    },
    {
      "anonymous": false,
      "inputs": [
        {
          "indexed": true,
          "internalType": "address",
          "name": "account",
          "type": "address"
        },
        {
          "indexed": false,
          "internalType": "bytes32",
          "name": "role",
          "type": "bytes32"
        }
      ],
      "name": "RolesAssigned",
      "type": "event"
    },
    {
      "anonymous": false,
      "inputs": [
        {
          "indexed": true,
          "internalType": "address",
          "name": "account",
          "type": "address"
        },
        {
          "indexed": false,
          "internalType": "bytes32",
          "name": "role",
          "type": "bytes32"
        }
      ],
      "name": "RolesRevoked",
      "type": "event"
    },
    {
      "anonymous": false,
      "inputs": [
        {
          "indexed": true,
          "internalType": "uint256",
          "name": "proposalId",
          "type": "uint256"
        },
        {
          "indexed": true,
          "internalType": "address",
          "name": "voter",
          "type": "address"
        },
        {
          "indexed": false,
          "internalType": "bool",
          "name": "support",
          "type": "bool"
        },
        {
          "indexed": false,
          "internalType": "uint256",
          "name": "weight",
          "type": "uint256"
        }
      ],
      "name": "Voted",
      "type": "event"
    },
    {
      "inputs": [],
      "name": "ADMIN_ROLE",
      "outputs": [
        {
          "internalType": "bytes32",
          "name": "",
          "type": "bytes32"
        }
      ],
      "stateMutability": "view",
      "type": "function"
    },
    {
      "inputs": [],
      "name": "AUDITOR_ROLE",
      "outputs": [
        {
          "internalType": "bytes32",
          "name": "",
          "type": "bytes32"
        }
      ],
      "stateMutability": "view",
      "type": "function"
    },
    {
      "inputs": [],
      "name": "DEFAULT_ADMIN_ROLE",
      "outputs": [
        {
          "internalType": "bytes32",
          "name": "",
          "type": "bytes32"
        }
      ],
      "stateMutability": "view",
      "type": "function"
    },
    {
      "inputs": [],
      "name": "VIEWER_ROLE",
      "outputs": [
        {
          "internalType": "bytes32",
          "name": "",
          "type": "bytes32"
        }
      ],
      "stateMutability": "view",
      "type": "function"
    },
    {
      "inputs": [
        {
          "internalType": "address",
          "name": "newOwner",
          "type": "address"
        }
      ],
      "name": "addOwner",
      "outputs": [],
      "stateMutability": "nonpayable",
      "type": "function"
    },
    {
      "inputs": [
        {
          "internalType": "string",
          "name": "description",
          "type": "string"
        },
        {
          "internalType": "uint256",
          "name": "votingPeriodSeconds",
          "type": "uint256"
        }
      ],
      "name": "createProposal",
      "outputs": [
        {
          "internalType": "uint256",
          "name": "",
          "type": "uint256"
        }
      ],
      "stateMutability": "nonpayable",
      "type": "function"
    },
    {
      "inputs": [
        {
          "internalType": "uint256",
          "name": "proposalId",
          "type": "uint256"
        }
      ],
      "name": "execute",
      "outputs": [
        {
          "internalType": "bool",
          "name": "passed",
          "type": "bool"
        }
      ],
      "stateMutability": "nonpayable",
      "type": "function"
    },
    {
      "inputs": [
        {
          "internalType": "uint256",
          "name": "proposalId",
          "type": "uint256"
        }
      ],
      "name": "getProposal",
      "outputs": [
        {
          "internalType": "address",
          "name": "proposer",
          "type": "address"
        },
        {
          "internalType": "string",
          "name": "description",
          "type": "string"
        },
        {
          "internalType": "uint256",
          "name": "createdAt",
          "type": "uint256"
        },
        {
          "internalType": "uint256",
          "name": "yesVotes",
          "type": "uint256"
        },
        {
          "internalType": "uint256",
          "name": "noVotes",
          "type": "uint256"
        },
        {
          "internalType": "uint256",
          "name": "deadline",
          "type": "uint256"
        },
        {
          "internalType": "bool",
          "name": "executed",
          "type": "bool"
        }
      ],
      "stateMutability": "view",
      "type": "function"
    },
    {
      "inputs": [
        {
          "internalType": "bytes32",
          "name": "role",
          "type": "bytes32"
        }
      ],
      "name": "getRoleAdmin",
      "outputs": [
        {
          "internalType": "bytes32",
          "name": "",
          "type": "bytes32"
        }
      ],
      "stateMutability": "view",
      "type": "function"
    },
    {
      "inputs": [
        {
          "internalType": "address",
          "name": "account",
          "type": "address"
        }
      ],
      "name": "grantAdmin",
      "outputs": [],
      "stateMutability": "nonpayable",
      "type": "function"
    },
    {
      "inputs": [
        {
          "internalType": "address",
          "name": "account",
          "type": "address"
        }
      ],
      "name": "grantAuditor",
      "outputs": [],
      "stateMutability": "nonpayable",
      "type": "function"
    },
    {
      "inputs": [
        {
          "internalType": "bytes32",
          "name": "role",
          "type": "bytes32"
        },
        {
          "internalType": "address",
          "name": "account",
          "type": "address"
        }
      ],
      "name": "grantRole",
      "outputs": [],
      "stateMutability": "nonpayable",
      "type": "function"
    },
    {
      "inputs": [
        {
          "internalType": "address",
          "name": "account",
          "type": "address"
        }
      ],
      "name": "grantViewer",
      "outputs": [],
      "stateMutability": "nonpayable",
      "type": "function"
    },
    {
      "inputs": [
        {
          "internalType": "bytes32",
          "name": "role",
          "type": "bytes32"
        },
        {
          "internalType": "address",
          "name": "account",
          "type": "address"
        }
      ],
      "name": "hasRole",
      "outputs": [
        {
          "internalType": "bool",
          "name": "",
          "type": "bool"
        }
      ],
      "stateMutability": "view",
      "type": "function"
    },
    {
      "inputs": [],
      "name": "owners",
      "outputs": [
        {
          "internalType": "address[]",
          "name": "",
          "type": "address[]"
        }
      ],
      "stateMutability": "view",
      "type": "function"
    },
    {
      "inputs": [],
      "name": "proposalCount",
      "outputs": [
        {
          "internalType": "uint256",
          "name": "",
          "type": "uint256"
        }
      ],
      "stateMutability": "view",
      "type": "function"
    },
    {
      "inputs": [],
      "name": "quorum",
      "outputs": [
        {
          "internalType": "uint256",
          "name": "",
          "type": "uint256"
        }
      ],
      "stateMutability": "view",
      "type": "function"
    },
    {
      "inputs": [
        {
          "internalType": "address",
          "name": "owner",
          "type": "address"
        }
      ],
      "name": "removeOwner",
      "outputs": [],
      "stateMutability": "nonpayable",
      "type": "function"
    },
    {
      "inputs": [
        {
          "internalType": "bytes32",
          "name": "role",
          "type": "bytes32"
        },
        {
          "internalType": "address",
          "name": "account",
          "type": "address"
        }
      ],
      "name": "renounceRole",
      "outputs": [],
      "stateMutability": "nonpayable",
      "type": "function"
    },
    {
      "inputs": [
        {
          "internalType": "bytes32",
          "name": "role",
          "type": "bytes32"
        },
        {
          "internalType": "address",
          "name": "account",
          "type": "address"
        }
      ],
      "name": "revokeRole",
      "outputs": [],
      "stateMutability": "nonpayable",
      "type": "function"
    },
    {
      "inputs": [
        {
          "internalType": "address",
          "name": "account",
          "type": "address"
        },
        {
          "internalType": "bytes32",
          "name": "role",
          "type": "bytes32"
        }
      ],
      "name": "revokeRoleFrom",
      "outputs": [],
      "stateMutability": "nonpayable",
      "type": "function"
    },
    {
      "inputs": [
        {
          "internalType": "uint256",
          "name": "newQuorum",
          "type": "uint256"
        }
      ],
      "name": "setQuorum",
      "outputs": [],
      "stateMutability": "nonpayable",
      "type": "function"
    },
    {
      "inputs": [
        {
          "internalType": "bytes4",
          "name": "interfaceId",
          "type": "bytes4"
        }
      ],
      "name": "supportsInterface",
      "outputs": [
        {
          "internalType": "bool",
          "name": "",
          "type": "bool"
        }
      ],
      "stateMutability": "view",
      "type": "function"
    },
    {
      "inputs": [
        {
          "internalType": "uint256",
          "name": "proposalId",
          "type": "uint256"
        },
        {
          "internalType": "bool",
          "name": "support",
          "type": "bool"
        }
      ],
      "name": "vote",
      "outputs": [],
      "stateMutability": "nonpayable",
      "type": "function"
    }
  ],
  "bytecode": "0x60406080815234620002d85762001b6690813803806200001f81620002f3565b9384398201606083820312620002d85782516001600160401b0390818111620002d85784019082601f83011215620002d8578151908111620002dd5760059281841b602093848062000073818501620002f3565b809681520192820101928311620002d85784809101915b838310620002bd5750620000a79250869150870151960162000319565b815115620002875760005b8251811015620001305780851b83018401516001600160a01b031680156200011f57620000df906200032e565b156200010e576000198114620000f857600101620000b2565b634e487b7160e01b600052601160045260246000fd5b8551632f1ef11560e21b8152600490fd5b86516349e27cff60e01b8152600490fd5b85848389801580156200027b575b6200026a5782817ff18f88786aae85a652aadb99a82462616489a33370c9bcc7b245906812ef7cd1926003558551908152a160008080528083528381206001600160a01b039092168082529183528390205460ff16156200022c575b7fa49807205ce4d355092ef5a8a18f56e8913cf4a201fbe287825b095693c217759182600052600081528360002082600052815260ff84600020541615620001ec575b83516117909081620003b68239f35b82600052600081528360002090826000525282600020600160ff19825416179055339160008051602062001b46833981519152600080a4818080620001dd565b60008052600082528260002081600052825282600020600160ff198254161790553381600060008051602062001b468339815191528180a46200019a565b835163d173577960e01b8152600490fd5b5060015481116200013e565b845162461bcd60e51b815260048101849052600f60248201526e13dddb995c9cc81c995c5d5a5c9959608a1b6044820152606490fd5b8190620002ca8462000319565b81520191019084906200008a565b600080fd5b634e487b7160e01b600052604160045260246000fd5b6040519190601f01601f191682016001600160401b03811183821017620002dd57604052565b51906001600160a01b0382168203620002d857565b6000908082526002602052604082205415600014620003b1576001918254680100000000000000008110156200039d578381018085558110156200038957908260409285835260208320015583549281526002602052205590565b634e487b7160e01b82526032600452602482fd5b634e487b7160e01b82526041600452602482fd5b509056fe608060408181526004908136101561001657600080fd5b600092833560e01c90816301ffc9a71461107b575080630c570c1b14610fc35780631703a01814610fa4578063173825d914610ebe578063248a9ca314610e945780632f2ff15d14610dec57806335bb3e1614610d4457806335facf7814610a6b57806336568abe146109d957806350219eaf1461099e5780636e1d616e146109635780637065cb48146108ae57806375b238fc1461088557806391d1485414610840578063a217fddf14610825578063ace67b001461079b578063affe39c1146106e9578063c1ba4e5914610652578063c7f758a81461051f578063c9d27afe146103b8578063d547741f1461037c578063da35c6641461035e578063e55b4f931461024b5763fe0d94c11461012c57600080fd5b3461024757602092836003193601126102445782359033815260028552828120541561023557808284925260058652209260028401541561022757600584015442111561021957600684019081549060ff82166101e35760038601549060035482101596876101d5575b50505060019060ff19161790557f948f4a9cd986f1118c3fbd459f7a22b23c0693e1ca3ef06a6a8be5aa7d39cc0384835194151594858152a251908152f35b015410945060013880610196565b845162461bcd60e51b8152908101879052601060248201526f185b1c9958591e48195e1958dd5d195960821b6044820152606490fd5b825163335b65a560e11b8152fd5b825163635e873760e01b8152fd5b5050516330cd747160e01b8152fd5b80fd5b8280fd5b5034610247576020908160031936011261035a576102676110cf565b9260008051602061173b8339815191528552848352818520338652835260ff82862054161561034c5750907f0b84a5e332fb0b142f30741aef41cc60e9e12a8eefbadd1b88a5f64857e0bf2f917f59a1c48e5837ad7a7f3dcedcbe129bf3249ec4fbf651fd4f5e2600ead39fe2f5908186528583526001600160a01b03818720951694858752835260ff818720541615610304575b51908152a280f35b8186528583528086208587528352808620805460ff191660011790553385837f2f8788117e7eff1d82e926ec794901d17c78024a50270940304540a733656f0d8980a46102fc565b9051637bfa4b9f60e01b8152fd5b8380fd5b50903461024757826003193601126102475760209250549051908152f35b50346102475780600319360112610247576103b591356103b0600161039f6110ea565b938387528660205286200154611148565b6114c1565b80f35b5082903461051b578060031936011261051b578235602435918215159283810361051757859033865260026020528286205415610508578386526005602052828620906002820154156104f857600582015442116104e857600782013388528060205260ff85892054166104d857338852602052838720805460ff191660011790551561049d576003018054600181019250821061048a577f7c2de587c00d75474a0c6c6fa96fd3b45dc974cd4e8a75f712bb84c950dce1b59394959650555b8051938452600160208501523393a380f35b634e487b7160e01b865260118752602486fd5b018054906001820180921161048a577f7c2de587c00d75474a0c6c6fa96fd3b45dc974cd4e8a75f712bb84c950dce1b5939495965055610478565b8451637c9a1cf960e01b81528490fd5b835163335b65a560e11b81528390fd5b835163635e873760e01b81528390fd5b5090516330cd747160e01b8152fd5b8480fd5b5080fd5b503461024757602092836003193601126102445782358152600584528181206002810154918215610642576001600160a01b038254169460019384840194600385015492850154938960ff6006600589015498015416978951938382549261058684611700565b8088529383811690811561061e57506001146105e6575b5050505050906105b2816105c8930382611489565b60e088519a8b9a8b528a015260e0890190611123565b958701526060860152608085015260a0840152151560c08301520390f35b9080949550528383205b82841061060b5750505082010189826105c86105b23861059d565b80548685018601529284019281016105f0565b60ff19168689015250505050151560051b830101905089826105c86105b23861059d565b5050505163635e873760e01b8152fd5b50346102475760203660031901126102475781359160008051602061173b83398151915284528360205281842033855260205260ff82852054161561034c57821580156106de575b6106d05750816020917ff18f88786aae85a652aadb99a82462616489a33370c9bcc7b245906812ef7cd19360035551908152a180f35b905163d173577960e01b8152fd5b50600154831161069a565b83823461051b578160031936011261051b5780516001805480835281855260208084019592939186907fb10e2d527612073b26eecdfd717e6a320cf44b4afac2b0732d9fcbe2b7fa0cf690855b818110610788575050508261074c910383611489565b8451948186019282875251809352850195925b82811061076c5785870386f35b83516001600160a01b031687529581019592810192840161075f565b8254845292840192918701918701610736565b50346102475780600319360112610247576107b46110cf565b906024359260008051602061173b83398151915285528460205281852033865260205260ff82862054161561034c57506001600160a01b038260209261081b7f93197f4ced482a570e163380a2ecb2cdc73cd9a08c4c5c9a9e2986000b62e12c95876114c1565b519485521692a280f35b83823461051b578160031936011261051b5751908152602090f35b5090346102475781600319360112610247578160209360ff926108616110ea565b903582528186526001600160a01b0383832091168252855220541690519015158152f35b83823461051b578160031936011261051b576020905160008051602061173b8339815191528152f35b509034610247576020366003190112610247576108c96110cf565b60008051602061173b83398151915284528360205282842033855260205260ff838520541615610954576001600160a01b03169182156109475761090c83611594565b1561093a5750507f994a936646fe87ffe4f1e469d3d6aa417d6b855598397f323de5b449f765f0c38280a280f35b51632f1ef11560e21b8152fd5b516349e27cff60e01b8152fd5b509051637bfa4b9f60e01b8152fd5b83823461051b578160031936011261051b57602090517f59a1c48e5837ad7a7f3dcedcbe129bf3249ec4fbf651fd4f5e2600ead39fe2f58152f35b83823461051b578160031936011261051b57602090517f4e8c8e9ca39468bb90c81b80f979119441019fdac7cbbbd930e0a604f8777d1d8152f35b5091903461051b578260031936011261051b576109f46110ea565b90336001600160a01b03831603610a1057906103b591356114c1565b608490602085519162461bcd60e51b8352820152602f60248201527f416363657373436f6e74726f6c3a2063616e206f6e6c792072656e6f756e636560448201526e103937b632b9903337b91039b2b63360891b6064820152fd5b5082903461051b578060031936011261051b5767ffffffffffffffff833581811161035a573660238201121561035a578085013591821161035a576024943686848401011161051757853594338152602096600288528582205415610d34578415610d0357603c87101580610cf6575b15610cc85782549660001990818914610cb65760018099019889865589855260058b528a89862093336001600160a01b03198654161785558983860193610b228554611700565b601f8111610c5c575b508789601f8411600114610be457839495508a94610bd7575b50501b918a60031b1c19161790555b426002830155420193844211610bc55750918584927f98120a6aaa04295520ab4e01c6c1235dd316e822cc9ff31db7b3f197366d18bd9560058b98960155885194898652828a87015201606085013760608684010152878201526060813395601f80199101168101030190a351908152f35b634e487b7160e01b8452601190528183fd5b8c01013592508738610b44565b928a949192958d601f198316918988528881892098925b848410610c35575050505010610c1b575b5050505088811b019055610b53565b60f88d60031b161c19918b0101351690558c808681610c0c565b8295509688839597989a929394999a01013581550196019401918a93928f928f8990610bfb565b909293915084895281892090601f8d0160051c8201928d10610cac575b918f949391601f8e940160051c01905b818110610c965750610b2b565b9092508193945089815501918b918f9493610c89565b9091508190610c79565b634e487b7160e01b8452601185528284fd5b82600a6064928a89519362461bcd60e51b855284015282015269189859081c195c9a5bd960b21b6044820152fd5b5062278d00871115610adb565b82600d6064928a89519362461bcd60e51b85528401528201526c19195cd8c81c995c5d5a5c9959609a1b6044820152fd5b85516330cd747160e01b81528390fd5b5082903461051b5760208060031936011261024757610d616110cf565b9160008051602061173b83398151915290818552848352808520338652835260ff818620541615610ddd57907f0b84a5e332fb0b142f30741aef41cc60e9e12a8eefbadd1b88a5f64857e0bf2f92918186528583526001600160a01b03818720951694858752835260ff8187205416156103045751908152a280f35b51637bfa4b9f60e01b81528590fd5b5090346102475781600319360112610247573590610e086110ea565b9082845283602052610e1f60018286200154611148565b828452836020526001600160a01b0381852092169182855260205260ff818520541615610e4a578380f35b828452836020528084208285526020528320600160ff1982541617905533917f2f8788117e7eff1d82e926ec794901d17c78024a50270940304540a733656f0d8480a43880808380f35b50903461024757602036600319011261024757816020936001923581528085522001549051908152f35b503461024757602036600319011261024757610ed86110cf565b60008051602061173b83398151915284528360205281842033855260205260ff828520541615610f96576001600160a01b031691610f1583611616565b15610f88575060035490600154809211610f53575b50507f58619076adf5bb0943d100ef88d52d7c3fd691b19d3a9071b555b651fbf418da8280a280f35b816020917ff18f88786aae85a652aadb99a82462616489a33370c9bcc7b245906812ef7cd19360035551908152a13880610f2a565b90516349e27cff60e01b8152fd5b5051637bfa4b9f60e01b8152fd5b83823461051b578160031936011261051b576020906003549051908152f35b5034610247576020908160031936011261035a57610fdf6110cf565b9260008051602061173b8339815191528552848352818520338652835260ff82862054161561034c5750907f0b84a5e332fb0b142f30741aef41cc60e9e12a8eefbadd1b88a5f64857e0bf2f917f4e8c8e9ca39468bb90c81b80f979119441019fdac7cbbbd930e0a604f8777d1d908186528583526001600160a01b03818720951694858752835260ff8187205416156103045751908152a280f35b84908434610247576020366003190112610247573563ffffffff60e01b81168091036102475760209250637965db0b60e01b81149081156110be575b5015158152f35b6301ffc9a760e01b149050836110b7565b600435906001600160a01b03821682036110e557565b600080fd5b602435906001600160a01b03821682036110e557565b60005b8381106111135750506000910152565b8181015183820152602001611103565b9060209161113c81518092818552858086019101611100565b601f01601f1916010190565b600090808252602090828252604092838120338252835260ff8482205416156111715750505050565b83519167ffffffffffffffff90336060850183811186821017611475578752602a85528585019187368437855115611461576030835385519160019283101561144d576078602188015360295b8381116113e357506113a1579087519360808501908582109082111761138d57885260428452868401946060368737845115611379576030865384518210156113795790607860218601536041915b81831161130b575050506112c9576112c59386936112a99361129a6048946112659a519a8b957f416363657373436f6e74726f6c3a206163636f756e74200000000000000000008c8801525180926037880190611100565b8401917f206973206d697373696e6720726f6c6520000000000000000000000000000000603784015251809386840190611100565b01036028810187520185611489565b5192839262461bcd60e51b845260048401526024830190611123565b0390fd5b60648587519062461bcd60e51b825280600483015260248201527f537472696e67733a20686578206c656e67746820696e73756666696369656e746044820152fd5b909192600f81166010811015611365576f181899199a1a9b1b9c1cb0b131b232b360811b901a61133b8588611536565b5360041c9280156113515760001901919061120d565b634e487b7160e01b82526011600452602482fd5b634e487b7160e01b83526032600452602483fd5b634e487b7160e01b81526032600452602490fd5b634e487b7160e01b86526041600452602486fd5b60648789519062461bcd60e51b825280600483015260248201527f537472696e67733a20686578206c656e67746820696e73756666696369656e746044820152fd5b90600f81166010811015611439576f181899199a1a9b1b9c1cb0b131b232b360811b901a611411838a611536565b5360041c90801561142557600019016111be565b634e487b7160e01b87526011600452602487fd5b634e487b7160e01b88526032600452602488fd5b634e487b7160e01b86526032600452602486fd5b634e487b7160e01b85526032600452602485fd5b634e487b7160e01b85526041600452602485fd5b90601f8019910116810190811067ffffffffffffffff8211176114ab57604052565b634e487b7160e01b600052604160045260246000fd5b90600091808352826020526001600160a01b036040842092169182845260205260ff6040842054166114f257505050565b80835282602052604083208284526020526040832060ff1981541690557ff6391f5c32d9c69d2a47ea670b442974b53935d1edc7fd64eb21e047a839171b339380a4565b908151811015611547570160200190565b634e487b7160e01b600052603260045260246000fd5b6001548110156115475760016000527fb10e2d527612073b26eecdfd717e6a320cf44b4afac2b0732d9fcbe2b7fa0cf60190600090565b60008181526002602052604081205461161157600154680100000000000000008110156115fd5790826115e96115d28460016040960160015561155d565b819391549060031b91821b91600019901b19161790565b905560015492815260026020522055600190565b634e487b7160e01b82526041600452602482fd5b905090565b60008181526002602052604081205490919080156116fb57600019908082018181116116e757600154908382019182116116d35780820361169f575b505050600154801561168b5781019061166a8261155d565b909182549160031b1b19169055600155815260026020526040812055600190565b634e487b7160e01b84526031600452602484fd5b6116bd6116ae6115d29361155d565b90549060031b1c92839261155d565b9055845260026020526040842055388080611652565b634e487b7160e01b86526011600452602486fd5b634e487b7160e01b85526011600452602485fd5b505090565b90600182811c92168015611730575b602083101461171a57565b634e487b7160e01b600052602260045260246000fd5b91607f169161170f56fea49807205ce4d355092ef5a8a18f56e8913cf4a201fbe287825b095693c21775a26469706673582212208b4d1898bba961433ff54e9a4ae5cf6157423b2c1e079d1340b822776c4d724364736f6c634300081300332f8788117e7eff1d82e926ec794901d17c78024a50270940304540a733656f0d",
  "linkReferences": {},
  "deployedLinkReferences": {}
}