{
  "_format": "hh-sol-artifact-1",
  "contractName": "PharmaTracker",
  "sourceName": "contracts/PharmaTracker.sol",
  "abi": [
    {
      "inputs": [],
      "stateMutability": "nonpayable",
      "type": "constructor"
    },
    {
      "anonymous": false,
      "inputs": [
        {
          "indexed": true,
          "internalType": "uint256",
          "name": "drugId",
          "type": "uint256"
        },
        {
          "indexed": false,
          "internalType": "uint256",
          "name": "expiryDate",
          "type": "uint256"
        }
      ],
      "name": "DrugExpired",
      "type": "event"
    },
    {
      "anonymous": false,
      "inputs": [
        {
          "indexed": true,
          "internalType": "uint256",
          "name": "drugId",
          "type": "uint256"
        },
        {
          "indexed": false,
          "internalType": "string",
          "name": "name",
          "type": "string"
        },
        {
          "indexed": false,
          "internalType": "string",
          "name": "manufacturer",
          "type": "string"
        },
        {
          "indexed": false,
          "internalType": "uint256",
          "name": "manufactureDate",
          "type": "uint256"
        },
        {
          "indexed": false,
          "internalType": "uint256",
          "name": "expiryDate",
          "type": "uint256"
        },
        {
          "indexed": true,
          "internalType": "address",
          "name": "manufacturerAddress",
          "type": "address"
        },
        {
          "indexed": false,
          "internalType": "string",
          "name": "batchNumber",
          "type": "string"
        },
        {
          "indexed": false,
          "internalType": "uint256",
          "name": "quantity",
          "type": "uint256"
        }
      ],
      "name": "DrugRegistered",
      "type": "event"
    },
    {
      "anonymous": false,
      "inputs": [
        {
          "indexed": true,
          "internalType": "uint256",
          "name": "drugId",
          "type": "uint256"
        },
        {
          "indexed": true,
          "internalType": "address",
          "name": "from",
          "type": "address"
        },
        {
          "indexed": true,
          "internalType": "address",
          "name": "to",
          "type": "address"
        },
        {
          "indexed": false,
          "internalType": "uint256",
          "name": "timestamp",
          "type": "uint256"
        }
      ],
      "name": "DrugTransferred",
      "type": "event"
    },
    {
      "anonymous": false,
      "inputs": [
        {
          "indexed": true,
          "internalType": "address",
          "name": "manufacturer",
          "type": "address"
        }
      ],
      "name": "ManufacturerAuthorized",
      "type": "event"
    },
    {
      "anonymous": false,
      "inputs": [
        {
          "indexed": true,
          "internalType": "address",
          "name": "manufacturer",
          "type": "address"
        }
      ],
      "name": "ManufacturerDeauthorized",
      "type": "event"
    },
    {
      "anonymous": false,
      "inputs": [
        {
          "indexed": true,
          "internalType": "address",
          "name": "previousOwner",
          "type": "address"
        },
        {
          "indexed": true,
          "internalType": "address",
          "name": "newOwner",
          "type": "address"
        }
      ],
      "name": "OwnershipTransferred",
      "type": "event"
    },
    {
      "inputs": [
        {
          "internalType": "address",
          "name": "_manufacturer",
          "type": "address"
        }
      ],
      "name": "authorizeManufacturer",
      "outputs": [],
      "stateMutability": "nonpayable",
      "type": "function"
    },
    {
      "inputs": [
        {
          "internalType": "address",
          "name": "",
          "type": "address"
        }
      ],
      "name": "authorizedManufacturers",
      "outputs": [
        {
          "internalType": "bool",
          "name": "",
          "type": "bool"
        }
      ],
      "stateMutability": "view",
      "type": "function"
    },
    {
      "inputs": [
        {
          "internalType": "uint256",
          "name": "_drugId",
          "type": "uint256"
        }
      ],
      "name": "deactivateDrug",
      "outputs": [],
      "stateMutability": "nonpayable",
      "type": "function"
    },
    {
      "inputs": [
        {
          "internalType": "address",
          "name": "_manufacturer",
          "type": "address"
        }
      ],
      "name": "deauthorizeManufacturer",
      "outputs": [],
      "stateMutability": "nonpayable",
      "type": "function"
    },
    {
      "inputs": [
        {
          "internalType": "uint256",
          "name": "",
          "type": "uint256"
        }
      ],
      "name": "drugs",
      "outputs": [
        {
          "internalType": "uint256",
          "name": "id",
          "type": "uint256"
        },
        {
          "internalType": "string",
          "name": "name",
          "type": "string"
        },
        {
          "internalType": "string",
          "name": "manufacturer",
          "type": "string"
        },
        {
          "internalType": "uint256",
          "name": "manufactureDate",
          "type": "uint256"
        },
        {
          "internalType": "uint256",
          "name": "expiryDate",
          "type": "uint256"
        },
        {
          "internalType": "address",
          "name": "currentOwner",
          "type": "address"
        },
        {
          "internalType": "bool",
          "name": "isActive",
          "type": "bool"
        },
        {
          "internalType": "string",
          "name": "batchNumber",
          "type": "string"
        },
        {
          "internalType": "uint256",
          "name": "quantity",
          "type": "uint256"
        },
        {
          "internalType": "string",
          "name": "storageConditions",
          "type": "string"
        }
      ],
      "stateMutability": "view",
      "type": "function"
    },
    {
      "inputs": [
        {
          "internalType": "uint256",
          "name": "_drugId",
          "type": "uint256"
        }
      ],
      "name": "getDaysUntilExpiry",
      "outputs": [
        {
          "internalType": "uint256",
          "name": "",
          "type": "uint256"
        }
      ],
      "stateMutability": "view",
      "type": "function"
    },
    {
      "inputs": [
        {
          "internalType": "uint256",
          "name": "_drugId",
          "type": "uint256"
        }
      ],
      "name": "getDrug",
      "outputs": [
        {
          "components": [
            {
              "internalType": "uint256",
              "name": "id",
              "type": "uint256"
            },
            {
              "internalType": "string",
              "name": "name",
              "type": "string"
            },
            {
              "internalType": "string",
              "name": "manufacturer",
              "type": "string"
            },
            {
              "internalType": "uint256",
              "name": "manufactureDate",
              "type": "uint256"
            },
            {
              "internalType": "uint256",
              "name": "expiryDate",
              "type": "uint256"
            },
            {
              "internalType": "address",
              "name": "currentOwner",
              "type": "address"
            },
            {
              "internalType": "address[]",
              "name": "transferHistory",
              "type": "address[]"
            },
            {
              "internalType": "bool",
              "name": "isActive",
              "type": "bool"
            },
            {
              "internalType": "string",
              "name": "batchNumber",
              "type": "string"
            },
            {
              "internalType": "uint256",
              "name": "quantity",
              "type": "uint256"
            },
            {
              "internalType": "string",
              "name": "storageConditions",
              "type": "string"
            }
          ],
          "internalType": "struct PharmaTracker.DrugBatch",
          "name": "",
          "type": "tuple"
        }
      ],
      "stateMutability": "view",
      "type": "function"
    },
    {
      "inputs": [
        {
          "internalType": "uint256",
          "name": "_drugId",
          "type": "uint256"
        }
      ],
      "name": "getDrugBasicInfo",
      "outputs": [
        {
          "internalType": "string",
          "name": "name",
          "type": "string"
        },
        {
          "internalType": "string",
          "name": "manufacturer",
          "type": "string"
        },
        {
          "internalType": "uint256",
          "name": "expiryDate",
          "type": "uint256"
        },
        {
          "internalType": "address",
          "name": "currentOwner",
          "type": "address"
        },
        {
          "internalType": "bool",
          "name": "expired",
          "type": "bool"
        }
      ],
      "stateMutability": "view",
      "type": "function"
    },
    {
      "inputs": [
        {
          "internalType": "address",
          "name": "_owner",
          "type": "address"
        }
      ],
      "name": "getDrugsByOwner",
      "outputs": [
        {
          "internalType": "uint256[]",
          "name": "",
          "type": "uint256[]"
        }
      ],
      "stateMutability": "view",
      "type": "function"
    },
    {
      "inputs": [],
      "name": "getTotalDrugs",
      "outputs": [
        {
          "internalType": "uint256",
          "name": "",
          "type": "uint256"
        }
      ],
      "stateMutability": "view",
      "type": "function"
    },
    {
      "inputs": [
        {
          "internalType": "uint256",
          "name": "_drugId",
          "type": "uint256"
        }
      ],
      "name": "getTransferHistory",
      "outputs": [
        {
          "internalType": "address[]",
          "name": "",
          "type": "address[]"
        }
      ],
      "stateMutability": "view",
      "type": "function"
    },
    {
      "inputs": [
        {
          "internalType": "address",
          "name": "_address",
          "type": "address"
        }
      ],
      "name": "isAuthorizedManufacturer",
      "outputs": [
        {
          "internalType": "bool",
          "name": "",
          "type": "bool"
        }
      ],
      "stateMutability": "view",
      "type": "function"
    },
    {
      "inputs": [
        {
          "internalType": "uint256",
          "name": "_drugId",
          "type": "uint256"
        }
      ],
      "name": "isDrugExpired",
      "outputs": [
        {
          "internalType": "bool",
          "name": "",
          "type": "bool"
        }
      ],
      "stateMutability": "view",
      "type": "function"
    },
    {
      "inputs": [],
      "name": "owner",
      "outputs": [
        {
          "internalType": "address",
          "name": "",
          "type": "address"
        }
      ],
      "stateMutability": "view",
      "type": "function"
    },
    {
      "inputs": [
        {
          "internalType": "string",
          "name": "_name",
          "type": "string"
        },
        {
          "internalType": "string",
          "name": "_manufacturer",
          "type": "string"
        },
        {
          "internalType": "uint256",
          "name": "_manufactureDate",
          "type": "uint256"
        },
        {
          "internalType": "uint256",
          "name": "_expiryDate",
          "type": "uint256"
        },
        {
          "internalType": "string",
          "name": "_batchNumber",
          "type": "string"
        },
        {
          "internalType": "uint256",
          "name": "_quantity",
          "type": "uint256"
        },
        {
          "internalType": "string",
          "name": "_storageConditions",
          "type": "string"
        }
      ],
      "name": "registerDrug",
      "outputs": [
        {
          "internalType": "uint256",
          "name": "",
          "type": "uint256"
        }
      ],
      "stateMutability": "nonpayable",
      "type": "function"
    },
    {
      "inputs": [],
      "name": "renounceOwnership",
      "outputs": [],
      "stateMutability": "nonpayable",
      "type": "function"
    },
    {
      "inputs": [
        {
          "internalType": "uint256",
          "name": "_drugId",
          "type": "uint256"
        },
        {
          "internalType": "address",
          "name": "_to",
          "type": "address"
        }
      ],
      "name": "transferDrug",
      "outputs": [],
      "stateMutability": "nonpayable",
      "type": "function"
    },
    {
      "inputs": [
        {
          "internalType": "address",
          "name": "newOwner",
          "type": "address"
        }
      ],
      "name": "transferOwnership",
      "outputs": [],
      "stateMutability": "nonpayable",
      "type": "function"
    }
  ],
  "bytecode": "0x608060405234801561001057600080fd5b5061001a33610043565b60018080556004819055336000908152600360205260409020805460ff19169091179055610093565b600080546001600160a01b038381166001600160a01b0319831681178455604051919092169283917f8be0079c531659141344cd1fd0a4f28419497f9722a3daafe3b4186f6b6457e09190a35050565b612018806100a26000396000f3fe608060405234801561001057600080fd5b50600436106101165760003560e01c8063715018a6116100a2578063b8840d3d11610071578063b8840d3d1461026f578063ce3601791461028f578063d83a904e146102a2578063f2fde38b146102aa578063fca5e61e146102bd57600080fd5b8063715018a6146102195780638bb27d02146102215780638da5cb5b14610241578063abeff4dd1461025c57600080fd5b806325ad876c116100e957806325ad876c1461018e57806328f6e4cf146101ae578063457edc67146101c15780635618738d146101e2578063679d31921461020657600080fd5b8063089e1b391461011b57806317f87c5b14610130578063207b71d91461015857806324b042451461016b575b600080fd5b61012e6101293660046118fd565b6102e6565b005b61014361013e3660046118fd565b610395565b60405190151581526020015b60405180910390f35b61012e610166366004611918565b6103cf565b6101436101793660046118fd565b60036020526000908152604090205460ff1681565b6101a161019c3660046118fd565b610641565b60405161014f9190611944565b6101436101bc366004611988565b6107cc565b6101d46101cf366004611a44565b61081d565b60405190815260200161014f565b6101f56101f0366004611988565b610ca2565b60405161014f959493929190611b54565b6101d4610214366004611988565b610e43565b61012e610eca565b61023461022f366004611988565b610ede565b60405161014f9190611be6565b6000546040516001600160a01b03909116815260200161014f565b61012e61026a3660046118fd565b610f82565b61028261027d366004611988565b611029565b60405161014f9190611bf9565b61012e61029d366004611988565b6113ff565b6101d4611456565b61012e6102b83660046118fd565b61146c565b6102d06102cb366004611988565b6114e5565b60405161014f9a99989796959493929190611cf6565b6102ee611764565b6001600160a01b0381166103495760405162461bcd60e51b815260206004820152601c60248201527f496e76616c6964206d616e75666163747572657220616464726573730000000060448201526064015b60405180910390fd5b6001600160a01b038116600081815260036020526040808220805460ff19166001179055517f06254beaf84c859845ea388376dff86c215438fa7cb62de9f3b40aae51571ec29190a250565b6001600160a01b03811660009081526003602052604081205460ff16806103c957506000546001600160a01b038381169116145b92915050565b600082815260026020526040902060070154829060ff166104025760405162461bcd60e51b815260040161034090611d8a565b600083815260026020526040902060040154839042106104575760405162461bcd60e51b815260206004820152601060248201526f111c9d59c81a185cc8195e1c1a5c995960821b6044820152606401610340565b61045f6117be565b6001600160a01b0383166104b55760405162461bcd60e51b815260206004820152601f60248201527f43616e6e6f74207472616e7366657220746f207a65726f2061646472657373006044820152606401610340565b6000848152600260205260409020600501546001600160a01b03908116908416036105225760405162461bcd60e51b815260206004820181905260248201527f43616e6e6f74207472616e7366657220746f2063757272656e74206f776e65726044820152606401610340565b6000848152600260205260409020600501546001600160a01b0316331461059c5760405162461bcd60e51b815260206004820152602860248201527f4f6e6c792063757272656e74206f776e65722063616e207472616e7366657220604482015267746865206472756760c01b6064820152608401610340565b60008481526002602090815260408083206005810180546001600160a01b038981166001600160a01b03198084168217909455600690940180546001810182559088529590962090940180549091168217905590519290911691829087907f31485d6013eaabf2a092437a42d96a7c595e69a0c10669bc4ccb86beec5250d8906106299042815260200190565b60405180910390a45061063b60018055565b50505050565b6060600060016004546106549190611de2565b67ffffffffffffffff81111561066c5761066c6119a1565b604051908082528060200260200182016040528015610695578160200160208202803683370190505b509050600060015b6004548110156107275760008181526002602052604090206007015460ff1680156106e457506000818152600260205260409020600501546001600160a01b038681169116145b1561071557808383815181106106fc576106fc611df5565b60209081029190910101528161071181611e0b565b9250505b8061071f81611e0b565b91505061069d565b5060008167ffffffffffffffff811115610743576107436119a1565b60405190808252806020026020018201604052801561076c578160200160208202803683370190505b50905060005b828110156107c35783818151811061078c5761078c611df5565b60200260200101518282815181106107a6576107a6611df5565b6020908102919091010152806107bb81611e0b565b915050610772565b50949350505050565b600081815260026020526040812060070154829060ff166107ff5760405162461bcd60e51b815260040161034090611d8a565b60008381526002602052604090206004015442101591505b50919050565b3360009081526003602052604081205460ff168061084557506000546001600160a01b031633145b6108af5760405162461bcd60e51b815260206004820152603560248201527f4f6e6c7920617574686f72697a6564206d616e7566616374757265727320636160448201527437103832b93337b936903a3434b99030b1ba34b7b760591b6064820152608401610340565b6108b76117be565b60008851116109085760405162461bcd60e51b815260206004820152601960248201527f44727567206e616d652063616e6e6f7420626520656d707479000000000000006044820152606401610340565b60008751116109635760405162461bcd60e51b815260206004820152602160248201527f4d616e756661637475726572206e616d652063616e6e6f7420626520656d70746044820152607960f81b6064820152608401610340565b60008451116109b45760405162461bcd60e51b815260206004820152601c60248201527f4261746368206e756d6265722063616e6e6f7420626520656d707479000000006044820152606401610340565b60008611610a045760405162461bcd60e51b815260206004820152601860248201527f496e76616c6964206d616e7566616374757265206461746500000000000000006044820152606401610340565b858511610a665760405162461bcd60e51b815260206004820152602a60248201527f4578706972792064617465206d757374206265206166746572206d616e7566616044820152696374757265206461746560b01b6064820152608401610340565b60008311610ab65760405162461bcd60e51b815260206004820152601f60248201527f5175616e74697479206d7573742062652067726561746572207468616e2030006044820152606401610340565b600480549081906000610ac883611e0b565b9091555050604080516101608101825282815260208082018c81528284018c9052606083018b9052608083018a90523360a084015283516000808252818401865260c0850191909152600160e0850181905261010085018b905261012085018a9052610140850189905286825260029093529390932082518155925191929190820190610b559082611ea7565b5060408201516002820190610b6a9082611ea7565b50606082015160038201556080820151600482015560a08201516005820180546001600160a01b0319166001600160a01b0390921691909117905560c08201518051610bc0916006840191602090910190611867565b5060e082015160078201805460ff19169115159190911790556101008201516008820190610bee9082611ea7565b506101208201516009820155610140820151600a820190610c0f9082611ea7565b50505060008181526002602090815260408083206006018054600181018255908452919092200180546001600160a01b03191633908117909155905182907fa4c19ab14dfb64ea9e7103ca080aca48c37cfb8af8df7b599e1ed8af5884f57f90610c84908d908d908d908d908d908d90611f67565b60405180910390a39050610c9760018055565b979650505050505050565b600081815260026020526040812060070154606091829181908190869060ff16610cde5760405162461bcd60e51b815260040161034090611d8a565b6000878152600260208190526040909120600481015460058201546001830180549394909390850192916001600160a01b03169042831115908590610d2290611e24565b80601f0160208091040260200160405190810160405280929190818152602001828054610d4e90611e24565b8015610d9b5780601f10610d7057610100808354040283529160200191610d9b565b820191906000526020600020905b815481529060010190602001808311610d7e57829003601f168201915b50505050509450838054610dae90611e24565b80601f0160208091040260200160405190810160405280929190818152602001828054610dda90611e24565b8015610e275780601f10610dfc57610100808354040283529160200191610e27565b820191906000526020600020905b815481529060010190602001808311610e0a57829003601f168201915b5050505050935096509650965096509650505091939590929450565b600081815260026020526040812060070154829060ff16610e765760405162461bcd60e51b815260040161034090611d8a565b6000838152600260205260409020600401544210610e975760009150610817565b6000838152600260205260409020600401546201518090610eb9904290611de2565b610ec39190611fc0565b9392505050565b610ed2611764565b610edc6000611817565b565b600081815260026020526040902060070154606090829060ff16610f145760405162461bcd60e51b815260040161034090611d8a565b60008381526002602090815260409182902060060180548351818402810184019094528084529091830182828015610f7557602002820191906000526020600020905b81546001600160a01b03168152600190910190602001808311610f57575b5050505050915050919050565b610f8a611764565b6001600160a01b038116610fe05760405162461bcd60e51b815260206004820152601c60248201527f496e76616c6964206d616e7566616374757265722061646472657373000000006044820152606401610340565b6001600160a01b038116600081815260036020526040808220805460ff19169055517fdaa4d59e571e7814099f6dd3dc980a897b85f52a2386d8f27ab233d6a1a82efa9190a250565b611091604051806101600160405280600081526020016060815260200160608152602001600081526020016000815260200160006001600160a01b03168152602001606081526020016000151581526020016060815260200160008152602001606081525090565b600082815260026020526040902060070154829060ff166110c45760405162461bcd60e51b815260040161034090611d8a565b6002600084815260200190815260200160002060405180610160016040529081600082015481526020016001820180546110fd90611e24565b80601f016020809104026020016040519081016040528092919081815260200182805461112990611e24565b80156111765780601f1061114b57610100808354040283529160200191611176565b820191906000526020600020905b81548152906001019060200180831161115957829003601f168201915b5050505050815260200160028201805461118f90611e24565b80601f01602080910402602001604051908101604052809291908181526020018280546111bb90611e24565b80156112085780601f106111dd57610100808354040283529160200191611208565b820191906000526020600020905b8154815290600101906020018083116111eb57829003601f168201915b5050505050815260200160038201548152602001600482015481526020016005820160009054906101000a90046001600160a01b03166001600160a01b03166001600160a01b03168152602001600682018054806020026020016040519081016040528092919081815260200182805480156112ad57602002820191906000526020600020905b81546001600160a01b0316815260019091019060200180831161128f575b5050509183525050600782015460ff16151560208201526008820180546040909201916112d990611e24565b80601f016020809104026020016040519081016040528092919081815260200182805461130590611e24565b80156113525780601f1061132757610100808354040283529160200191611352565b820191906000526020600020905b81548152906001019060200180831161133557829003601f168201915b5050505050815260200160098201548152602001600a8201805461137590611e24565b80601f01602080910402602001604051908101604052809291908181526020018280546113a190611e24565b80156113ee5780601f106113c3576101008083540402835291602001916113ee565b820191906000526020600020905b8154815290600101906020018083116113d157829003601f168201915b505050505081525050915050919050565b611407611764565b600081815260026020526040902060070154819060ff1661143a5760405162461bcd60e51b815260040161034090611d8a565b506000908152600260205260409020600701805460ff19169055565b600060016004546114679190611de2565b905090565b611474611764565b6001600160a01b0381166114d95760405162461bcd60e51b815260206004820152602660248201527f4f776e61626c653a206e6577206f776e657220697320746865207a65726f206160448201526564647265737360d01b6064820152608401610340565b6114e281611817565b50565b6002602052600090815260409020805460018201805491929161150790611e24565b80601f016020809104026020016040519081016040528092919081815260200182805461153390611e24565b80156115805780601f1061155557610100808354040283529160200191611580565b820191906000526020600020905b81548152906001019060200180831161156357829003601f168201915b50505050509080600201805461159590611e24565b80601f01602080910402602001604051908101604052809291908181526020018280546115c190611e24565b801561160e5780601f106115e35761010080835404028352916020019161160e565b820191906000526020600020905b8154815290600101906020018083116115f157829003601f168201915b5050506003840154600485015460058601546007870154600888018054979894979396506001600160a01b03909216945060ff16929161164d90611e24565b80601f016020809104026020016040519081016040528092919081815260200182805461167990611e24565b80156116c65780601f1061169b576101008083540402835291602001916116c6565b820191906000526020600020905b8154815290600101906020018083116116a957829003601f168201915b50505050509080600901549080600a0180546116e190611e24565b80601f016020809104026020016040519081016040528092919081815260200182805461170d90611e24565b801561175a5780601f1061172f5761010080835404028352916020019161175a565b820191906000526020600020905b81548152906001019060200180831161173d57829003601f168201915b505050505090508a565b6000546001600160a01b03163314610edc5760405162461bcd60e51b815260206004820181905260248201527f4f776e61626c653a2063616c6c6572206973206e6f7420746865206f776e65726044820152606401610340565b6002600154036118105760405162461bcd60e51b815260206004820152601f60248201527f5265656e7472616e637947756172643a207265656e7472616e742063616c6c006044820152606401610340565b6002600155565b600080546001600160a01b038381166001600160a01b0319831681178455604051919092169283917f8be0079c531659141344cd1fd0a4f28419497f9722a3daafe3b4186f6b6457e09190a35050565b8280548282559060005260206000209081019282156118bc579160200282015b828111156118bc57825182546001600160a01b0319166001600160a01b03909116178255602090920191600190910190611887565b506118c89291506118cc565b5090565b5b808211156118c857600081556001016118cd565b80356001600160a01b03811681146118f857600080fd5b919050565b60006020828403121561190f57600080fd5b610ec3826118e1565b6000806040838503121561192b57600080fd5b8235915061193b602084016118e1565b90509250929050565b6020808252825182820181905260009190848201906040850190845b8181101561197c57835183529284019291840191600101611960565b50909695505050505050565b60006020828403121561199a57600080fd5b5035919050565b634e487b7160e01b600052604160045260246000fd5b600082601f8301126119c857600080fd5b813567ffffffffffffffff808211156119e3576119e36119a1565b604051601f8301601f19908116603f01168101908282118183101715611a0b57611a0b6119a1565b81604052838152866020858801011115611a2457600080fd5b836020870160208301376000602085830101528094505050505092915050565b600080600080600080600060e0888a031215611a5f57600080fd5b873567ffffffffffffffff80821115611a7757600080fd5b611a838b838c016119b7565b985060208a0135915080821115611a9957600080fd5b611aa58b838c016119b7565b975060408a0135965060608a0135955060808a0135915080821115611ac957600080fd5b611ad58b838c016119b7565b945060a08a0135935060c08a0135915080821115611af257600080fd5b50611aff8a828b016119b7565b91505092959891949750929550565b6000815180845260005b81811015611b3457602081850181015186830182015201611b18565b506000602082860101526020601f19601f83011685010191505092915050565b60a081526000611b6760a0830188611b0e565b8281036020840152611b798188611b0e565b604084019690965250506001600160a01b03929092166060830152151560809091015292915050565b600081518084526020808501945080840160005b83811015611bdb5781516001600160a01b031687529582019590820190600101611bb6565b509495945050505050565b602081526000610ec36020830184611ba2565b602081528151602082015260006020830151610160806040850152611c22610180850183611b0e565b91506040850151601f1980868503016060870152611c408483611b0e565b935060608701516080870152608087015160a087015260a08701519150611c7260c08701836001600160a01b03169052565b60c08701519150808685030160e0870152611c8d8483611ba2565b935060e08701519150610100611ca68188018415159052565b80880151925050610120818786030181880152611cc38584611b0e565b90880151610140888101919091528801518782039092018488015293509050611cec8382611b0e565b9695505050505050565b60006101408c8352806020840152611d108184018d611b0e565b90508281036040840152611d24818c611b0e565b606084018b9052608084018a90526001600160a01b03891660a085015287151560c085015283810360e08501529050611d5d8187611b0e565b905084610100840152828103610120840152611d798185611b0e565b9d9c50505050505050505050505050565b60208082526022908201527f4472756720646f6573206e6f74206578697374206f7220697320696e61637469604082015261766560f01b606082015260800190565b634e487b7160e01b600052601160045260246000fd5b818103818111156103c9576103c9611dcc565b634e487b7160e01b600052603260045260246000fd5b600060018201611e1d57611e1d611dcc565b5060010190565b600181811c90821680611e3857607f821691505b60208210810361081757634e487b7160e01b600052602260045260246000fd5b601f821115611ea257600081815260208120601f850160051c81016020861015611e7f5750805b601f850160051c820191505b81811015611e9e57828155600101611e8b565b5050505b505050565b815167ffffffffffffffff811115611ec157611ec16119a1565b611ed581611ecf8454611e24565b84611e58565b602080601f831160018114611f0a5760008415611ef25750858301515b600019600386901b1c1916600185901b178555611e9e565b600085815260208120601f198616915b82811015611f3957888601518255948401946001909101908401611f1a565b5085821015611f575787850151600019600388901b60f8161c191681555b5050505050600190811b01905550565b60c081526000611f7a60c0830189611b0e565b8281036020840152611f8c8189611b0e565b90508660408401528560608401528281036080840152611fac8186611b0e565b9150508260a0830152979650505050505050565b600082611fdd57634e487b7160e01b600052601260045260246000fd5b50049056fea2646970667358221220e55ca180bfb8f31886cbf65d583d3e215e0a2c37682db9e96b27a2992ff1a65b64736f6c63430008140033",
  "linkReferences": {},
  "deployedLinkReferences": {}
}