{
  "_format": "hh-sol-artifact-1",
  "contractName": "SupplyChainContract",
  "sourceName": "contracts/SupplyChainContract.sol",
  "abi": [
    {
      "inputs": [
        {
          "internalType": "address",
          "name": "admin",
          "type": "address"
        },
        {
          "internalType": "address",
          "name": "_stakeholderContract",
          "type": "address"
        }
      ],
      "stateMutability": "nonpayable",
      "type": "constructor"
    },
    {
      "inputs": [],
      "name": "BadInput",
      "type": "error"
    },
    {
      "inputs": [],
      "name": "NotAllowed",
      "type": "error"
    },
    {
      "anonymous": false,
      "inputs": [
        {
          "indexed": true,
          "internalType": "bytes32",
          "name": "role",
          "type": "bytes32"
        },
        {
          "indexed": true,
          "internalType": "bytes32",
          "name": "previousAdminRole",
          "type": "bytes32"
        },
        {
          "indexed": true,
          "internalType": "bytes32",
          "name": "newAdminRole",
          "type": "bytes32"
        }
      ],
      "name": "RoleAdminChanged",
      "type": "event"
    },
    {
      "anonymous": false,
      "inputs": [
        {
          "indexed": true,
          "internalType": "bytes32",
          "name": "role",
          "type": "bytes32"
        },
        {
          "indexed": true,
          "internalType": "address",
          "name": "account",
          "type": "address"
        },
        {
          "indexed": true,
          "internalType": "address",
          "name": "sender",
          "type": "address"
        }
      ],
      "name": "RoleGranted",
      "type": "event"
    },
    {
      "anonymous": false,
      "inputs": [
        {
          "indexed": true,
          "internalType": "bytes32",
          "name": "role",
          "type": "bytes32"
        },
        {
          "indexed": true,
          "internalType": "address",
          "name": "account",
          "type": "address"
        },
        {
          "indexed": true,
          "internalType": "address",
          "name": "sender",
          "type": "address"
        }
      ],
      "name": "RoleRevoked",
      "type": "event"
    },
    {
      "anonymous": false,
      "inputs": [
        {
          "indexed": true,
          "internalType": "uint256",
          "name": "batchId",
          "type": "uint256"
        },
        {
          "indexed": true,
          "internalType": "address",
          "name": "from",
          "type": "address"
        },
        {
          "indexed": true,
          "internalType": "address",
          "name": "to",
          "type": "address"
        },
        {
          "indexed": false,
          "internalType": "string",
          "name": "location",
          "type": "string"
        },
        {
          "indexed": false,
          "internalType": "uint256",
          "name": "timestamp",
          "type": "uint256"
        }
      ],
      "name": "Transferred",
      "type": "event"
    },
    {
      "inputs": [],
      "name": "DEFAULT_ADMIN_ROLE",
      "outputs": [
        {
          "internalType": "bytes32",
          "name": "",
          "type": "bytes32"
        }
      ],
      "stateMutability": "view",
      "type": "function"
    },
    {
      "inputs": [],
      "name": "TRANSFER_ROLE",
      "outputs": [
        {
          "internalType": "bytes32",
          "name": "",
          "type": "bytes32"
        }
      ],
      "stateMutability": "view",
      "type": "function"
    },
    {
      "inputs": [
        {
          "internalType": "bytes32",
          "name": "role",
          "type": "bytes32"
        }
      ],
      "name": "getRoleAdmin",
      "outputs": [
        {
          "internalType": "bytes32",
          "name": "",
          "type": "bytes32"
        }
      ],
      "stateMutability": "view",
      "type": "function"
    },
    {
      "inputs": [
        {
          "internalType": "uint256",
          "name": "batchId",
          "type": "uint256"
        }
      ],
      "name": "getTransfers",
      "outputs": [
        {
          "components": [
            {
              "internalType": "uint256",
              "name": "batchId",
              "type": "uint256"
            },
            {
              "internalType": "address",
              "name": "from",
              "type": "address"
            },
            {
              "internalType": "address",
              "name": "to",
              "type": "address"
            },
            {
              "internalType": "string",
              "name": "location",
              "type": "string"
            },
            {
              "internalType": "uint256",
              "name": "timestamp",
              "type": "uint256"
            }
          ],
          "internalType": "struct SupplyChainContract.Transfer[]",
          "name": "",
          "type": "tuple[]"
        }
      ],
      "stateMutability": "view",
      "type": "function"
    },
    {
      "inputs": [
        {
          "internalType": "bytes32",
          "name": "role",
          "type": "bytes32"
        },
        {
          "internalType": "address",
          "name": "account",
          "type": "address"
        }
      ],
      "name": "grantRole",
      "outputs": [],
      "stateMutability": "nonpayable",
      "type": "function"
    },
    {
      "inputs": [
        {
          "internalType": "bytes32",
          "name": "role",
          "type": "bytes32"
        },
        {
          "internalType": "address",
          "name": "account",
          "type": "address"
        }
      ],
      "name": "hasRole",
      "outputs": [
        {
          "internalType": "bool",
          "name": "",
          "type": "bool"
        }
      ],
      "stateMutability": "view",
      "type": "function"
    },
    {
      "inputs": [
        {
          "internalType": "bytes32",
          "name": "role",
          "type": "bytes32"
        },
        {
          "internalType": "address",
          "name": "account",
          "type": "address"
        }
      ],
      "name": "renounceRole",
      "outputs": [],
      "stateMutability": "nonpayable",
      "type": "function"
    },
    {
      "inputs": [
        {
          "internalType": "bytes32",
          "name": "role",
          "type": "bytes32"
        },
        {
          "internalType": "address",
          "name": "account",
          "type": "address"
        }
      ],
      "name": "revokeRole",
      "outputs": [],
      "stateMutability": "nonpayable",
      "type": "function"
    },
    {
      "inputs": [
        {
          "internalType": "address",
          "name": "sc",
          "type": "address"
        }
      ],
      "name": "setStakeholderContract",
      "outputs": [],
      "stateMutability": "nonpayable",
      "type": "function"
    },
    {
      "inputs": [],
      "name": "stakeholderContract",
      "outputs": [
        {
          "internalType": "address",
          "name": "",
          "type": "address"
        }
      ],
      "stateMutability": "view",
      "type": "function"
    },
    {
      "inputs": [
        {
          "internalType": "bytes4",
          "name": "interfaceId",
          "type": "bytes4"
        }
      ],
      "name": "supportsInterface",
      "outputs": [
        {
          "internalType": "bool",
          "name": "",
          "type": "bool"
        }
      ],
      "stateMutability": "view",
      "type": "function"
    },
    {
      "inputs": [
        {
          "internalType": "uint256",
          "name": "batchId",
          "type": "uint256"
        },
        {
          "internalType": "address",
          "name": "to",
          "type": "address"
        },
        {
          "internalType": "string",
          "name": "location",
          "type": "string"
        }
      ],
      "name": "transferBatch",
      "outputs": [],
      "stateMutability": "nonpayable",
      "type": "function"
    }
  ],
  "bytecode": "0x6080346200015e576200151390601f38839003908101601f19168201906001600160401b038211838310176200016357808391604095869485528339810103126200015e576200004f8162000179565b906200005f602080920162000179565b906000908180528181528482209060018060a01b0380951691828452815260ff86842054161562000126575b7f8502233096d909befbda0999bb8ea2f3a6be3c138b9fbf003752a4c8bce86f6c90818452838152868420838552815260ff878520541615620000ec575b505050501660018060a01b031960025416176002555161136490816200018f8239f35b8184528381528684209083855252858320600160ff19825416179055600080516020620014f3833981519152339380a438808080620000c9565b8280528281528583208284528152858320805460ff19166001179055338284600080516020620014f38339815191528180a46200008b565b600080fd5b634e487b7160e01b600052604160045260246000fd5b51906001600160a01b03821682036200015e5756fe608080604052600436101561001357600080fd5b60003560e01c90816301ffc9a714610da857508063206b60f914610d6d578063248a9ca314610d3e5780632f2ff15d14610c8a57806336568abe14610bf857806391d1485414610baa578063a217fddf14610b8e578063bbf27b2b14610b67578063c12bcaec1461051b578063d547741f146104da578063da9b3410146102ba5763fd4174ca146100a357600080fd5b346102b5576020806003193601126102b557600435906001600160a01b0382168092036102b5576000805260008152604060002033600052815260ff604060002054161561010257506001600160a01b03196002541617600255600080f35b61010b33611108565b90600060405161011a81611028565b6042815282810191606036843781511561029f5760308353815160019081101561029f57607860218401536041905b808211610245575050610202576101ce936101dd9260489260405196879376020b1b1b2b9b9a1b7b73a3937b61d1030b1b1b7bab73a1604d1b88860152610199815180928a603789019101610e11565b8401917f206973206d697373696e6720726f6c6520000000000000000000000000000000603784015251809386840190610e11565b01036028810185520183611044565b6101fe60405192839262461bcd60e51b845260048401526024830190610e34565b0390fd5b6064836040519062461bcd60e51b825280600483015260248201527f537472696e67733a20686578206c656e67746820696e73756666696369656e746044820152fd5b9091600f8116601081101561029f576f181899199a1a9b1b9c1cb0b131b232b360811b901a61027484866110f7565b5360041c918015610289576000190190610149565b634e487b7160e01b600052601160045260246000fd5b634e487b7160e01b600052603260045260246000fd5b600080fd5b346102b5576020806003193601126102b557600435600052600180825260406000209081549267ffffffffffffffff84116104c4578284604051936005916103068582851b0187611044565b8086528486018094600052856000206000915b8383106103c157505050506040519484869586019181875251809252604082818801951b87010194936000905b8382106103535787870388f35b918496819592949698508190603f198b8203018552895190815181526001600160a01b038084840151168483015260408301511660408201526103a56060808401519060a08091850152830190610e34565b9160808091015191015298019201920187969593919492610346565b9385888298999660409b989b516103d78161100c565b855481526001600160a01b03808688015416848301526002870154166040820152600386016040519060009080549061040f826112f4565b9182855284888b831692836000146104a45750505060011461045e575b50508161043a910382611044565b60608201526004860154608082015281520192019201919097949796959396610319565b60009081528681209092505b818310610480575050810184018161043a61042c565b809194975097919497959295548386880101520192019289938e95928d979461046a565b60ff1916818301529315158a1b8101909301935061043a915061042c9050565b634e487b7160e01b600052604160045260246000fd5b346102b55760403660031901126102b5576105196004356104f9610dfb565b90806000526000602052610514600160406000200154610e59565b611066565b005b346102b55760603660031901126102b557610534610dfb565b6044359067ffffffffffffffff82116102b557366023830112156102b55767ffffffffffffffff8260040135116102b5573660248360040135840101116102b5573360009081527f7c7a990f752005aea38438cc35abc5417bd322e6c964ec21d52573494225142c60205260409020547f8502233096d909befbda0999bb8ea2f3a6be3c138b9fbf003752a4c8bce86f6c9060ff1615610a1557506001600160a01b038116158015610a09575b6109f7576001600160a01b036002541660405163315e2b7360e11b808252336004830152600082602481865afa9182156109cc576000926109d8575b5060009060246040518095819382526001600160a01b03881660048301525afa9182156109cc576000926109a7575b5060c081015115158061099a575b1561096a57604001511515908161095c575b5015610931576004356000526001602052604060002060405161068e8161100c565b60043581523360208201526001600160a01b03831660408201526106b584600401356110db565b6106c26040519182611044565b6004850135808252602486016020830137600060208660040135830101526060820152426080820152815491680100000000000000008310156104c4576001830180825583101561029f576000526020600020908051600584028301556001600584028301016001600160a01b03602083015116906001600160a01b03199182825416179055600260058502840101906001600160a01b0360408401511690825416179055606081015180519067ffffffffffffffff82116104c457610790600360058702860101546112f4565b601f81116108e5575b50602090601f831160011461086457928260059360809360049796600092610859575b50508160011b916000199060031b1c1916176003848802860101555b015193020101556001600160a01b0360405191604083528360040135604084015283600401356024850160608501376000606085600401358501015242602084015216917fad758fd523703607be09c01834490734926016f8fd85e5b99970017dd72b7117339260608160043594601f8019916004013501168101030190a4005b015190508a806107bc565b9060036005870286010160005260206000209160005b601f19851681106108cd5750836080936004979693600193600597601f198116106108b4575b505050811b016003848802860101556107d8565b015160001960f88460031b161c191690558a80806108a0565b9192602060018192868501518155019401920161087a565b6003600587028601016000526020600020601f840160051c81016020851061092a575b601f830160051c8201811061091e575050610799565b60008155600101610908565b5080610908565b60405162461bcd60e51b81526020600482015260036024820152626b796360e81b6044820152606490fd5b60409150015115158361066c565b60405162461bcd60e51b8152602060048201526008602482015267696e61637469766560c01b6044820152606490fd5b5060c0820151151561065a565b6109c59192503d806000833e6109bd8183611044565b810190611225565b908461064c565b6040513d6000823e3d90fd5b60009192506109f0903d8084833e6109bd8183611044565b919061061d565b604051632bb9acf760e01b8152600490fd5b508160040135156105e1565b610a1e33611108565b60405191610a2b83611028565b604283526020830190606036833783511561029f5760308253835160019081101561029f57607860218601536041905b808211610b23575050610adf576048610ab092610abf926101fe9560405195869376020b1b1b2b9b9a1b7b73a3937b61d1030b1b1b7bab73a1604d1b6020860152610199815180926020603789019101610e11565b01036028810184520182611044565b60405162461bcd60e51b8152602060048201529182916024830190610e34565b606460405162461bcd60e51b815260206004820152602060248201527f537472696e67733a20686578206c656e67746820696e73756666696369656e746044820152fd5b9091600f8116601081101561029f576f181899199a1a9b1b9c1cb0b131b232b360811b901a610b5284886110f7565b5360041c918015610289576000190190610a5b565b346102b55760003660031901126102b55760206001600160a01b0360025416604051908152f35b346102b55760003660031901126102b557602060405160008152f35b346102b55760403660031901126102b557610bc3610dfb565b60043560005260006020526001600160a01b0360406000209116600052602052602060ff604060002054166040519015158152f35b346102b55760403660031901126102b557610c11610dfb565b336001600160a01b03821603610c2d5761051990600435611066565b60405162461bcd60e51b815260206004820152602f60248201527f416363657373436f6e74726f6c3a2063616e206f6e6c792072656e6f756e636560448201526e103937b632b9903337b91039b2b63360891b6064820152608490fd5b346102b55760403660031901126102b557600435610ca6610dfb565b816000526000602052610cc0600160406000200154610e59565b8160005260006020526001600160a01b0360406000209116908160005260205260ff6040600020541615610cf057005b8160005260006020526040600020816000526020526040600020600160ff1982541617905533917f2f8788117e7eff1d82e926ec794901d17c78024a50270940304540a733656f0d600080a4005b346102b55760203660031901126102b55760043560005260006020526020600160406000200154604051908152f35b346102b55760003660031901126102b55760206040517f8502233096d909befbda0999bb8ea2f3a6be3c138b9fbf003752a4c8bce86f6c8152f35b346102b55760203660031901126102b5576004359063ffffffff60e01b82168092036102b557602091637965db0b60e01b8114908115610dea575b5015158152f35b6301ffc9a760e01b14905083610de3565b602435906001600160a01b03821682036102b557565b60005b838110610e245750506000910152565b8181015183820152602001610e14565b90602091610e4d81518092818552858086019101610e11565b601f01601f1916010190565b600090808252602090828252604092838120338252835260ff848220541615610e825750505050565b610e8b33611108565b91845190610e9882611028565b60428252848201926060368537825115610ff85760308453825190600191821015610ff85790607860218501536041915b818311610f8a57505050610f485760486101fe938693610f2c93610f1d985198899376020b1b1b2b9b9a1b7b73a3937b61d1030b1b1b7bab73a1604d1b8a860152610199815180928c603789019101610e11565b01036028810187520185611044565b5192839262461bcd60e51b845260048401526024830190610e34565b60648486519062461bcd60e51b825280600483015260248201527f537472696e67733a20686578206c656e67746820696e73756666696369656e746044820152fd5b909192600f81166010811015610fe4576f181899199a1a9b1b9c1cb0b131b232b360811b901a610fba85876110f7565b5360041c928015610fd057600019019190610ec9565b634e487b7160e01b82526011600452602482fd5b634e487b7160e01b83526032600452602483fd5b634e487b7160e01b81526032600452602490fd5b60a0810190811067ffffffffffffffff8211176104c457604052565b6080810190811067ffffffffffffffff8211176104c457604052565b90601f8019910116810190811067ffffffffffffffff8211176104c457604052565b90600091808352826020526001600160a01b036040842092169182845260205260ff60408420541661109757505050565b80835282602052604083208284526020526040832060ff1981541690557ff6391f5c32d9c69d2a47ea670b442974b53935d1edc7fd64eb21e047a839171b339380a4565b67ffffffffffffffff81116104c457601f01601f191660200190565b90815181101561029f570160200190565b604051906060820182811067ffffffffffffffff8211176104c457604052602a825260208201604036823782511561029f5760309053815160019081101561029f57607860218401536029905b808211611165575050610adf5790565b9091600f811660108110156111be576f181899199a1a9b1b9c1cb0b131b232b360811b901a61119484866110f7565b5360041c9180156111a9576000190190611155565b60246000634e487b7160e01b81526011600452fd5b60246000634e487b7160e01b81526032600452fd5b81601f820112156102b55780516111e9816110db565b926111f76040519485611044565b818452602082840101116102b5576112159160208085019101610e11565b90565b519081151582036102b557565b6020818303126102b557805167ffffffffffffffff918282116102b557019060e0828403126102b5576040519260e08401848110838211176104c45760405282518281116102b557816112799185016111d3565b8452602083015160058110156102b557602085015261129a60408401611218565b604085015260608301519182116102b5576112b69183016111d3565b606083015260808101516001600160a01b03811681036102b5576112ec9160c091608085015260a081015160a085015201611218565b60c082015290565b90600182811c92168015611324575b602083101461130e57565b634e487b7160e01b600052602260045260246000fd5b91607f169161130356fea26469706673582212203c77ed3af835202f931c48099acc7a528992b12727e0b5ca7c9019b5427d4f4764736f6c634300081300332f8788117e7eff1d82e926ec794901d17c78024a50270940304540a733656f0d",
  "linkReferences": {},
  "deployedLinkReferences": {}
}