{
  "_format": "hh-sol-artifact-1",
  "contractName": "PharbitSupplyChain",
  "sourceName": "contracts/PharbitSupplyChain.sol",
  "abi": [
    {
      "inputs": [
        {
          "internalType": "address",
          "name": "batchAddress",
          "type": "address"
        },
        {
          "internalType": "address",
          "name": "stakeholderAddress",
          "type": "address"
        }
      ],
      "stateMutability": "nonpayable",
      "type": "constructor"
    },
    {
      "anonymous": false,
      "inputs": [
        {
          "indexed": true,
          "internalType": "string",
          "name": "batchId",
          "type": "string"
        },
        {
          "indexed": true,
          "internalType": "address",
          "name": "from",
          "type": "address"
        },
        {
          "indexed": true,
          "internalType": "address",
          "name": "to",
          "type": "address"
        },
        {
          "indexed": false,
          "internalType": "enum PharbitSupplyChain.Stage",
          "name": "stage",
          "type": "uint8"
        },
        {
          "indexed": false,
          "internalType": "uint256",
          "name": "timestamp",
          "type": "uint256"
        }
      ],
      "name": "CustodyTransfer",
      "type": "event"
    },
    {
      "anonymous": false,
      "inputs": [
        {
          "indexed": true,
          "internalType": "string",
          "name": "batchId",
          "type": "string"
        },
        {
          "indexed": true,
          "internalType": "address",
          "name": "by",
          "type": "address"
        },
        {
          "indexed": false,
          "internalType": "string",
          "name": "reason",
          "type": "string"
        }
      ],
      "name": "DisputeRaised",
      "type": "event"
    },
    {
      "anonymous": false,
      "inputs": [
        {
          "indexed": true,
          "internalType": "string",
          "name": "batchId",
          "type": "string"
        },
        {
          "indexed": true,
          "internalType": "address",
          "name": "by",
          "type": "address"
        },
        {
          "indexed": false,
          "internalType": "string",
          "name": "resolution",
          "type": "string"
        }
      ],
      "name": "DisputeResolved",
      "type": "event"
    },
    {
      "inputs": [],
      "name": "batch",
      "outputs": [
        {
          "internalType": "contract IPharbitBatch",
          "name": "",
          "type": "address"
        }
      ],
      "stateMutability": "view",
      "type": "function"
    },
    {
      "inputs": [
        {
          "internalType": "string",
          "name": "batchId",
          "type": "string"
        },
        {
          "internalType": "string",
          "name": "reason",
          "type": "string"
        }
      ],
      "name": "raiseDispute",
      "outputs": [],
      "stateMutability": "nonpayable",
      "type": "function"
    },
    {
      "inputs": [
        {
          "internalType": "string",
          "name": "batchId",
          "type": "string"
        },
        {
          "internalType": "string",
          "name": "resolution",
          "type": "string"
        }
      ],
      "name": "resolveDispute",
      "outputs": [],
      "stateMutability": "nonpayable",
      "type": "function"
    },
    {
      "inputs": [],
      "name": "stakeholder",
      "outputs": [
        {
          "internalType": "contract IPharbitStakeholderSC",
          "name": "",
          "type": "address"
        }
      ],
      "stateMutability": "view",
      "type": "function"
    },
    {
      "inputs": [
        {
          "internalType": "string",
          "name": "batchId",
          "type": "string"
        },
        {
          "internalType": "address",
          "name": "from",
          "type": "address"
        },
        {
          "internalType": "address",
          "name": "to",
          "type": "address"
        },
        {
          "internalType": "enum PharbitSupplyChain.Stage",
          "name": "stage",
          "type": "uint8"
        }
      ],
      "name": "transfer",
      "outputs": [],
      "stateMutability": "nonpayable",
      "type": "function"
    }
  ],
  "bytecode": "0x608060405234801561001057600080fd5b50604051610a6a380380610a6a83398101604081905261002f9161007c565b600080546001600160a01b039384166001600160a01b031991821617909155600180549290931691161790556100af565b80516001600160a01b038116811461007757600080fd5b919050565b6000806040838503121561008f57600080fd5b61009883610060565b91506100a660208401610060565b90509250929050565b6109ac806100be6000396000f3fe608060405234801561001057600080fd5b50600436106100575760003560e01c806352495c491461005c578063601b32de1461007157806397493f2f14610084578063af71356614610097578063f0331393146100c6575b600080fd5b61006f61006a36600461079d565b6100d9565b005b61006f61007f36600461081b565b610694565b61006f61009236600461081b565b6106ed565b6000546100aa906001600160a01b031681565b6040516001600160a01b03909116815260200160405180910390f35b6001546100aa906001600160a01b031681565b60015460408051630965288b60e41b81529051859285926000926001600160a01b03909216916391d1485491839163965288b0916004808201926020929091908290030181865afa158015610132573d6000803e3d6000fd5b505050506040513d601f19601f820116820180604052508101906101569190610887565b6040516001600160e01b031960e084901b16815260048101919091526001600160a01b0386166024820152604401602060405180830381865afa1580156101a1573d6000803e3d6000fd5b505050506040513d601f19601f820116820180604052508101906101c591906108a0565b806102b0575060015460408051633c2f61f360e21b815290516001600160a01b03909216916391d1485491839163f0bd87cc916004808201926020929091908290030181865afa15801561021d573d6000803e3d6000fd5b505050506040513d601f19601f820116820180604052508101906102419190610887565b6040516001600160e01b031960e084901b16815260048101919091526001600160a01b0386166024820152604401602060405180830381865afa15801561028c573d6000803e3d6000fd5b505050506040513d601f19601f820116820180604052508101906102b091906108a0565b8061039b57506001546040805163f0c58ea760e01b815290516001600160a01b03909216916391d1485491839163f0c58ea7916004808201926020929091908290030181865afa158015610308573d6000803e3d6000fd5b505050506040513d601f19601f8201168201806040525081019061032c9190610887565b6040516001600160e01b031960e084901b16815260048101919091526001600160a01b0386166024820152604401602060405180830381865afa158015610377573d6000803e3d6000fd5b505050506040513d601f19601f8201168201806040525081019061039b91906108a0565b60015460408051633c2f61f360e21b815290519293506000926001600160a01b03909216916391d1485491839163f0bd87cc916004808201926020929091908290030181865afa1580156103f3573d6000803e3d6000fd5b505050506040513d601f19601f820116820180604052508101906104179190610887565b6040516001600160e01b031960e084901b16815260048101919091526001600160a01b0386166024820152604401602060405180830381865afa158015610462573d6000803e3d6000fd5b505050506040513d601f19601f8201168201806040525081019061048691906108a0565b8061057157506001546040805163f0c58ea760e01b815290516001600160a01b03909216916391d1485491839163f0c58ea7916004808201926020929091908290030181865afa1580156104de573d6000803e3d6000fd5b505050506040513d601f19601f820116820180604052508101906105029190610887565b6040516001600160e01b031960e084901b16815260048101919091526001600160a01b0386166024820152604401602060405180830381865afa15801561054d573d6000803e3d6000fd5b505050506040513d601f19601f8201168201806040525081019061057191906108a0565b905081801561057d5750805b6105be5760405162461bcd60e51b815260206004820152600e60248201526d139bdd08185d5d1a1bdc9a5e995960921b604482015260640160405180910390fd5b6000546040516337ae0a4760e11b81526001600160a01b0390911690636f5c148e906105f2908c908c908b906004016108f2565b600060405180830381600087803b15801561060c57600080fd5b505af1158015610620573d6000803e3d6000fd5b50505050856001600160a01b0316876001600160a01b03168a8a60405161064892919061091e565b60405180910390207f44269a48bf9c1eb8cf20173385596e7a0e65c0f45b3456b6f499e64725271564884260405161068192919061092e565b60405180910390a4505050505050505050565b60405133906106a6908690869061091e565b60405180910390207fbae81b6ed6b33795a21078b8373bfd185b80c839618c7805754c87fb50ec913b84846040516106df92919061095a565b60405180910390a350505050565b60405133906106ff908690869061091e565b60405180910390207f81d6364bb3496a56868244e4deb9e641476fd586b4c3d5cfb916b499bbd0e82784846040516106df92919061095a565b60008083601f84011261074a57600080fd5b50813567ffffffffffffffff81111561076257600080fd5b60208301915083602082850101111561077a57600080fd5b9250929050565b80356001600160a01b038116811461079857600080fd5b919050565b6000806000806000608086880312156107b557600080fd5b853567ffffffffffffffff8111156107cc57600080fd5b6107d888828901610738565b90965094506107eb905060208701610781565b92506107f960408701610781565b915060608601356004811061080d57600080fd5b809150509295509295909350565b6000806000806040858703121561083157600080fd5b843567ffffffffffffffff8082111561084957600080fd5b61085588838901610738565b9096509450602087013591508082111561086e57600080fd5b5061087b87828801610738565b95989497509550505050565b60006020828403121561089957600080fd5b5051919050565b6000602082840312156108b257600080fd5b815180151581146108c257600080fd5b9392505050565b81835281816020850137506000828201602090810191909152601f909101601f19169091010190565b6040815260006109066040830185876108c9565b905060018060a01b0383166020830152949350505050565b8183823760009101908152919050565b604081016004841061095057634e487b7160e01b600052602160045260246000fd5b9281526020015290565b60208152600061096e6020830184866108c9565b94935050505056fea2646970667358221220b235b03d865847ee2da38a3f1f6ba3891d8f203c0c172b66d59cd1502b4bac5564736f6c63430008140033",
  "linkReferences": {},
  "deployedLinkReferences": {}
}