{
  "_format": "hh3-artifact-1",
  "contractName": "PharbitSupplyChain",
  "sourceName": "contracts/PharbitSupplyChain.sol",
  "abi": [
    {
      "inputs": [
        {
          "internalType": "address",
          "name": "batchAddress",
          "type": "address"
        },
        {
          "internalType": "address",
          "name": "stakeholderAddress",
          "type": "address"
        }
      ],
      "stateMutability": "nonpayable",
      "type": "constructor"
    },
    {
      "anonymous": false,
      "inputs": [
        {
          "indexed": true,
          "internalType": "string",
          "name": "batchId",
          "type": "string"
        },
        {
          "indexed": true,
          "internalType": "address",
          "name": "from",
          "type": "address"
        },
        {
          "indexed": true,
          "internalType": "address",
          "name": "to",
          "type": "address"
        },
        {
          "indexed": false,
          "internalType": "enum PharbitSupplyChain.Stage",
          "name": "stage",
          "type": "uint8"
        },
        {
          "indexed": false,
          "internalType": "uint256",
          "name": "timestamp",
          "type": "uint256"
        }
      ],
      "name": "CustodyTransfer",
      "type": "event"
    },
    {
      "anonymous": false,
      "inputs": [
        {
          "indexed": true,
          "internalType": "string",
          "name": "batchId",
          "type": "string"
        },
        {
          "indexed": true,
          "internalType": "address",
          "name": "by",
          "type": "address"
        },
        {
          "indexed": false,
          "internalType": "string",
          "name": "reason",
          "type": "string"
        }
      ],
      "name": "DisputeRaised",
      "type": "event"
    },
    {
      "anonymous": false,
      "inputs": [
        {
          "indexed": true,
          "internalType": "string",
          "name": "batchId",
          "type": "string"
        },
        {
          "indexed": true,
          "internalType": "address",
          "name": "by",
          "type": "address"
        },
        {
          "indexed": false,
          "internalType": "string",
          "name": "resolution",
          "type": "string"
        }
      ],
      "name": "DisputeResolved",
      "type": "event"
    },
    {
      "inputs": [],
      "name": "batch",
      "outputs": [
        {
          "internalType": "contract IPharbitBatch",
          "name": "",
          "type": "address"
        }
      ],
      "stateMutability": "view",
      "type": "function"
    },
    {
      "inputs": [
        {
          "internalType": "string",
          "name": "batchId",
          "type": "string"
        },
        {
          "internalType": "string",
          "name": "reason",
          "type": "string"
        }
      ],
      "name": "raiseDispute",
      "outputs": [],
      "stateMutability": "nonpayable",
      "type": "function"
    },
    {
      "inputs": [
        {
          "internalType": "string",
          "name": "batchId",
          "type": "string"
        },
        {
          "internalType": "string",
          "name": "resolution",
          "type": "string"
        }
      ],
      "name": "resolveDispute",
      "outputs": [],
      "stateMutability": "nonpayable",
      "type": "function"
    },
    {
      "inputs": [],
      "name": "stakeholder",
      "outputs": [
        {
          "internalType": "contract IPharbitStakeholderSC",
          "name": "",
          "type": "address"
        }
      ],
      "stateMutability": "view",
      "type": "function"
    },
    {
      "inputs": [
        {
          "internalType": "string",
          "name": "batchId",
          "type": "string"
        },
        {
          "internalType": "address",
          "name": "from",
          "type": "address"
        },
        {
          "internalType": "address",
          "name": "to",
          "type": "address"
        },
        {
          "internalType": "enum PharbitSupplyChain.Stage",
          "name": "stage",
          "type": "uint8"
        }
      ],
      "name": "transfer",
      "outputs": [],
      "stateMutability": "nonpayable",
      "type": "function"
    }
  ],
  "bytecode": "0x608060405234801561000f575f80fd5b50604051610a28380380610a2883398101604081905261002e91610079565b5f80546001600160a01b039384166001600160a01b031991821617909155600180549290931691161790556100aa565b80516001600160a01b0381168114610074575f80fd5b919050565b5f806040838503121561008a575f80fd5b6100938361005e565b91506100a16020840161005e565b90509250929050565b610971806100b75f395ff3fe608060405234801561000f575f80fd5b5060043610610055575f3560e01c806352495c4914610059578063601b32de1461006e57806397493f2f14610081578063af71356614610094578063f0331393146100c2575b5f80fd5b61006c610067366004610778565b6100d5565b005b61006c61007c3660046107f0565b610674565b61006c61008f3660046107f0565b6106cd565b5f546100a6906001600160a01b031681565b6040516001600160a01b03909116815260200160405180910390f35b6001546100a6906001600160a01b031681565b60015460408051630965288b60e41b81529051859285925f926001600160a01b03909216916391d1485491839163965288b0916004808201926020929091908290030181865afa15801561012b573d5f803e3d5ffd5b505050506040513d601f19601f8201168201806040525081019061014f9190610857565b6040516001600160e01b031960e084901b16815260048101919091526001600160a01b0386166024820152604401602060405180830381865afa158015610198573d5f803e3d5ffd5b505050506040513d601f19601f820116820180604052508101906101bc919061086e565b806102a3575060015460408051633c2f61f360e21b815290516001600160a01b03909216916391d1485491839163f0bd87cc916004808201926020929091908290030181865afa158015610212573d5f803e3d5ffd5b505050506040513d601f19601f820116820180604052508101906102369190610857565b6040516001600160e01b031960e084901b16815260048101919091526001600160a01b0386166024820152604401602060405180830381865afa15801561027f573d5f803e3d5ffd5b505050506040513d601f19601f820116820180604052508101906102a3919061086e565b8061038a57506001546040805163f0c58ea760e01b815290516001600160a01b03909216916391d1485491839163f0c58ea7916004808201926020929091908290030181865afa1580156102f9573d5f803e3d5ffd5b505050506040513d601f19601f8201168201806040525081019061031d9190610857565b6040516001600160e01b031960e084901b16815260048101919091526001600160a01b0386166024820152604401602060405180830381865afa158015610366573d5f803e3d5ffd5b505050506040513d601f19601f8201168201806040525081019061038a919061086e565b60015460408051633c2f61f360e21b815290519293505f926001600160a01b03909216916391d1485491839163f0bd87cc916004808201926020929091908290030181865afa1580156103df573d5f803e3d5ffd5b505050506040513d601f19601f820116820180604052508101906104039190610857565b6040516001600160e01b031960e084901b16815260048101919091526001600160a01b0386166024820152604401602060405180830381865afa15801561044c573d5f803e3d5ffd5b505050506040513d601f19601f82011682018060405250810190610470919061086e565b8061055757506001546040805163f0c58ea760e01b815290516001600160a01b03909216916391d1485491839163f0c58ea7916004808201926020929091908290030181865afa1580156104c6573d5f803e3d5ffd5b505050506040513d601f19601f820116820180604052508101906104ea9190610857565b6040516001600160e01b031960e084901b16815260048101919091526001600160a01b0386166024820152604401602060405180830381865afa158015610533573d5f803e3d5ffd5b505050506040513d601f19601f82011682018060405250810190610557919061086e565b90508180156105635750805b6105a45760405162461bcd60e51b815260206004820152600e60248201526d139bdd08185d5d1a1bdc9a5e995960921b604482015260640160405180910390fd5b5f546040516337ae0a4760e11b81526001600160a01b0390911690636f5c148e906105d7908c908c908b906004016108bc565b5f604051808303815f87803b1580156105ee575f80fd5b505af1158015610600573d5f803e3d5ffd5b50505050856001600160a01b0316876001600160a01b03168a8a6040516106289291906108e7565b60405180910390207f44269a48bf9c1eb8cf20173385596e7a0e65c0f45b3456b6f499e6472527156488426040516106619291906108f6565b60405180910390a4505050505050505050565b604051339061068690869086906108e7565b60405180910390207fbae81b6ed6b33795a21078b8373bfd185b80c839618c7805754c87fb50ec913b84846040516106bf929190610920565b60405180910390a350505050565b60405133906106df90869086906108e7565b60405180910390207f81d6364bb3496a56868244e4deb9e641476fd586b4c3d5cfb916b499bbd0e82784846040516106bf929190610920565b5f8083601f840112610728575f80fd5b50813567ffffffffffffffff81111561073f575f80fd5b602083019150836020828501011115610756575f80fd5b9250929050565b80356001600160a01b0381168114610773575f80fd5b919050565b5f805f805f6080868803121561078c575f80fd5b853567ffffffffffffffff8111156107a2575f80fd5b6107ae88828901610718565b90965094506107c190506020870161075d565b92506107cf6040870161075d565b91506060860135600481106107e2575f80fd5b809150509295509295909350565b5f805f8060408587031215610803575f80fd5b843567ffffffffffffffff8082111561081a575f80fd5b61082688838901610718565b9096509450602087013591508082111561083e575f80fd5b5061084b87828801610718565b95989497509550505050565b5f60208284031215610867575f80fd5b5051919050565b5f6020828403121561087e575f80fd5b8151801515811461088d575f80fd5b9392505050565b81835281816020850137505f828201602090810191909152601f909101601f19169091010190565b604081525f6108cf604083018587610894565b905060018060a01b0383166020830152949350505050565b818382375f9101908152919050565b604081016004841061091657634e487b7160e01b5f52602160045260245ffd5b9281526020015290565b602081525f610933602083018486610894565b94935050505056fea2646970667358221220374fc8ca6f54b414170b1d0c3aa25ea46da682446f48ab51d1041657dad97abd64736f6c63430008140033",
  "linkReferences": {},
  "deployedLinkReferences": {},
  "immutableReferences": {},
  "inputSourceName": "project/contracts/PharbitSupplyChain.sol",
  "buildInfoId": "solc-0_8_20-b09318e02b1418fb518b3c17e014e96dfffe52de"
}