{
  "_format": "hh3-artifact-1",
  "contractName": "PharbitGovernance",
  "sourceName": "contracts/PharbitGovernance.sol",
  "abi": [
    {
      "inputs": [
        {
          "internalType": "address",
          "name": "admin",
          "type": "address"
        },
        {
          "internalType": "int16",
          "name": "minTempC",
          "type": "int16"
        },
        {
          "internalType": "int16",
          "name": "maxTempC",
          "type": "int16"
        },
        {
          "internalType": "uint256",
          "name": "sensorWindowSec",
          "type": "uint256"
        }
      ],
      "stateMutability": "nonpayable",
      "type": "constructor"
    },
    {
      "inputs": [],
      "name": "AccessControlBadConfirmation",
      "type": "error"
    },
    {
      "inputs": [
        {
          "internalType": "address",
          "name": "account",
          "type": "address"
        },
        {
          "internalType": "bytes32",
          "name": "neededRole",
          "type": "bytes32"
        }
      ],
      "name": "AccessControlUnauthorizedAccount",
      "type": "error"
    },
    {
      "anonymous": false,
      "inputs": [
        {
          "components": [
            {
              "internalType": "int16",
              "name": "minTempC",
              "type": "int16"
            },
            {
              "internalType": "int16",
              "name": "maxTempC",
              "type": "int16"
            },
            {
              "internalType": "uint256",
              "name": "sensorWindowSec",
              "type": "uint256"
            }
          ],
          "indexed": false,
          "internalType": "struct PharbitGovernance.Params",
          "name": "params",
          "type": "tuple"
        }
      ],
      "name": "ParamsUpdated",
      "type": "event"
    },
    {
      "anonymous": false,
      "inputs": [
        {
          "indexed": true,
          "internalType": "bytes32",
          "name": "role",
          "type": "bytes32"
        },
        {
          "indexed": true,
          "internalType": "bytes32",
          "name": "previousAdminRole",
          "type": "bytes32"
        },
        {
          "indexed": true,
          "internalType": "bytes32",
          "name": "newAdminRole",
          "type": "bytes32"
        }
      ],
      "name": "RoleAdminChanged",
      "type": "event"
    },
    {
      "anonymous": false,
      "inputs": [
        {
          "indexed": true,
          "internalType": "bytes32",
          "name": "role",
          "type": "bytes32"
        },
        {
          "indexed": true,
          "internalType": "address",
          "name": "account",
          "type": "address"
        },
        {
          "indexed": true,
          "internalType": "address",
          "name": "sender",
          "type": "address"
        }
      ],
      "name": "RoleGranted",
      "type": "event"
    },
    {
      "anonymous": false,
      "inputs": [
        {
          "indexed": true,
          "internalType": "bytes32",
          "name": "role",
          "type": "bytes32"
        },
        {
          "indexed": true,
          "internalType": "address",
          "name": "account",
          "type": "address"
        },
        {
          "indexed": true,
          "internalType": "address",
          "name": "sender",
          "type": "address"
        }
      ],
      "name": "RoleRevoked",
      "type": "event"
    },
    {
      "inputs": [],
      "name": "DEFAULT_ADMIN_ROLE",
      "outputs": [
        {
          "internalType": "bytes32",
          "name": "",
          "type": "bytes32"
        }
      ],
      "stateMutability": "view",
      "type": "function"
    },
    {
      "inputs": [],
      "name": "GOVERNOR_ROLE",
      "outputs": [
        {
          "internalType": "bytes32",
          "name": "",
          "type": "bytes32"
        }
      ],
      "stateMutability": "view",
      "type": "function"
    },
    {
      "inputs": [
        {
          "internalType": "bytes32",
          "name": "role",
          "type": "bytes32"
        }
      ],
      "name": "getRoleAdmin",
      "outputs": [
        {
          "internalType": "bytes32",
          "name": "",
          "type": "bytes32"
        }
      ],
      "stateMutability": "view",
      "type": "function"
    },
    {
      "inputs": [
        {
          "internalType": "bytes32",
          "name": "role",
          "type": "bytes32"
        },
        {
          "internalType": "address",
          "name": "account",
          "type": "address"
        }
      ],
      "name": "grantRole",
      "outputs": [],
      "stateMutability": "nonpayable",
      "type": "function"
    },
    {
      "inputs": [
        {
          "internalType": "bytes32",
          "name": "role",
          "type": "bytes32"
        },
        {
          "internalType": "address",
          "name": "account",
          "type": "address"
        }
      ],
      "name": "hasRole",
      "outputs": [
        {
          "internalType": "bool",
          "name": "",
          "type": "bool"
        }
      ],
      "stateMutability": "view",
      "type": "function"
    },
    {
      "inputs": [],
      "name": "params",
      "outputs": [
        {
          "internalType": "int16",
          "name": "minTempC",
          "type": "int16"
        },
        {
          "internalType": "int16",
          "name": "maxTempC",
          "type": "int16"
        },
        {
          "internalType": "uint256",
          "name": "sensorWindowSec",
          "type": "uint256"
        }
      ],
      "stateMutability": "view",
      "type": "function"
    },
    {
      "inputs": [
        {
          "internalType": "bytes32",
          "name": "role",
          "type": "bytes32"
        },
        {
          "internalType": "address",
          "name": "callerConfirmation",
          "type": "address"
        }
      ],
      "name": "renounceRole",
      "outputs": [],
      "stateMutability": "nonpayable",
      "type": "function"
    },
    {
      "inputs": [
        {
          "internalType": "bytes32",
          "name": "role",
          "type": "bytes32"
        },
        {
          "internalType": "address",
          "name": "account",
          "type": "address"
        }
      ],
      "name": "revokeRole",
      "outputs": [],
      "stateMutability": "nonpayable",
      "type": "function"
    },
    {
      "inputs": [
        {
          "internalType": "bytes4",
          "name": "interfaceId",
          "type": "bytes4"
        }
      ],
      "name": "supportsInterface",
      "outputs": [
        {
          "internalType": "bool",
          "name": "",
          "type": "bool"
        }
      ],
      "stateMutability": "view",
      "type": "function"
    },
    {
      "inputs": [
        {
          "components": [
            {
              "internalType": "int16",
              "name": "minTempC",
              "type": "int16"
            },
            {
              "internalType": "int16",
              "name": "maxTempC",
              "type": "int16"
            },
            {
              "internalType": "uint256",
              "name": "sensorWindowSec",
              "type": "uint256"
            }
          ],
          "internalType": "struct PharbitGovernance.Params",
          "name": "p",
          "type": "tuple"
        }
      ],
      "name": "updateParams",
      "outputs": [],
      "stateMutability": "nonpayable",
      "type": "function"
    }
  ],
  "bytecode": "0x608060405234801561000f575f80fd5b506040516107c33803806107c383398101604081905261002e916101c2565b6100385f85610103565b506100637f7935bd0ae54bc31f548c14dba4d37c5c64b3f8ca900cb468fb8abd54d5894f5585610103565b5060408051606081018252600185810b825284810b6020830152908201839052805461ffff808616620100000263ffffffff1990921690871617178155600283905590517fe91255cc5c01ba45353278efa766a454cdb8532309f4c1005b3697039aaef05b916100f2918154600181810b835260109190911c810b602083015290910154604082015260600190565b60405180910390a150505050610217565b5f828152602081815260408083206001600160a01b038516845290915281205460ff166101a3575f838152602081815260408083206001600160a01b03861684529091529020805460ff1916600117905561015b3390565b6001600160a01b0316826001600160a01b0316847f2f8788117e7eff1d82e926ec794901d17c78024a50270940304540a733656f0d60405160405180910390a45060016101a6565b505f5b92915050565b8051600181900b81146101bd575f80fd5b919050565b5f805f80608085870312156101d5575f80fd5b84516001600160a01b03811681146101eb575f80fd5b93506101f9602086016101ac565b9250610207604086016101ac565b6060959095015193969295505050565b61059f806102245f395ff3fe608060405234801561000f575f80fd5b506004361061009b575f3560e01c806391d148541161006357806391d1485414610132578063a217fddf14610145578063ccc574901461014c578063cff0ab9614610173578063d547741f146101b1575f80fd5b806301ffc9a71461009f578063248a9ca3146100c75780632f2ff15d146100f757806336568abe1461010c578063663ffc651461011f575b5f80fd5b6100b26100ad366004610475565b6101c4565b60405190151581526020015b60405180910390f35b6100e96100d53660046104a3565b5f9081526020819052604090206001015490565b6040519081526020016100be565b61010a6101053660046104ba565b6101fa565b005b61010a61011a3660046104ba565b610224565b61010a61012d3660046104f3565b61025c565b6100b26101403660046104ba565b6102e3565b6100e95f81565b6100e97f7935bd0ae54bc31f548c14dba4d37c5c64b3f8ca900cb468fb8abd54d5894f5581565b6001805460025461018e9282810b92620100009004900b9083565b60408051600194850b81529290930b6020830152918101919091526060016100be565b61010a6101bf3660046104ba565b61030b565b5f6001600160e01b03198216637965db0b60e01b14806101f457506301ffc9a760e01b6001600160e01b03198316145b92915050565b5f828152602081905260409020600101546102148161032f565b61021e838361033c565b50505050565b6001600160a01b038116331461024d5760405163334bd91960e11b815260040160405180910390fd5b61025782826103cb565b505050565b7f7935bd0ae54bc31f548c14dba4d37c5c64b3f8ca900cb468fb8abd54d5894f556102868161032f565b816001610293828261051a565b5050604080516001805480820b835260101c900b60208201526002548183015290517fe91255cc5c01ba45353278efa766a454cdb8532309f4c1005b3697039aaef05b9181900360600190a15050565b5f918252602082815260408084206001600160a01b0393909316845291905290205460ff1690565b5f828152602081905260409020600101546103258161032f565b61021e83836103cb565b6103398133610434565b50565b5f61034783836102e3565b6103c4575f838152602081815260408083206001600160a01b03861684529091529020805460ff1916600117905561037c3390565b6001600160a01b0316826001600160a01b0316847f2f8788117e7eff1d82e926ec794901d17c78024a50270940304540a733656f0d60405160405180910390a45060016101f4565b505f6101f4565b5f6103d683836102e3565b156103c4575f838152602081815260408083206001600160a01b0386168085529252808320805460ff1916905551339286917ff6391f5c32d9c69d2a47ea670b442974b53935d1edc7fd64eb21e047a839171b9190a45060016101f4565b61043e82826102e3565b6104715760405163e2517d3f60e01b81526001600160a01b03821660048201526024810183905260440160405180910390fd5b5050565b5f60208284031215610485575f80fd5b81356001600160e01b03198116811461049c575f80fd5b9392505050565b5f602082840312156104b3575f80fd5b5035919050565b5f80604083850312156104cb575f80fd5b8235915060208301356001600160a01b03811681146104e8575f80fd5b809150509250929050565b5f60608284031215610503575f80fd5b50919050565b5f81358060010b81146101f4575f80fd5b61052382610509565b815461ffff82811661ffff19831617845561054060208601610509565b60101b63ffff00001681841663ffffffff1984161717845550505060408201356001820155505056fea26469706673582212207a95c9f1a4699c1dd9776310743a2de576a4ebfe21e187c267b0aa36fce7704764736f6c63430008140033",
  "linkReferences": {},
  "deployedLinkReferences": {},
  "immutableReferences": {},
  "inputSourceName": "project/contracts/PharbitGovernance.sol",
  "buildInfoId": "solc-0_8_20-b09318e02b1418fb518b3c17e014e96dfffe52de"
}